{
  "_format": "hh-sol-artifact-1",
  "contractName": "SimpleContract",
  "sourceName": "contracts/SimpleContract.sol",
  "abi": [
    {
      "inputs": [],
      "name": "addFunds",
      "outputs": [],
      "stateMutability": "payable",
      "type": "function"
    },
    {
      "inputs": [],
      "name": "getBalance",
      "outputs": [
        {
          "internalType": "uint256",
          "name": "",
          "type": "uint256"
        }
      ],
      "stateMutability": "view",
      "type": "function"
    },
    {
      "inputs": [
        {
          "internalType": "uint256",
          "name": "_value",
          "type": "uint256"
        }
      ],
      "name": "setValue",
      "outputs": [],
      "stateMutability": "nonpayable",
      "type": "function"
    },
    {
      "inputs": [],
      "name": "value",
      "outputs": [
        {
          "internalType": "uint256",
          "name": "",
          "type": "uint256"
        }
      ],
      "stateMutability": "view",
      "type": "function"
    }
  ],
  "bytecode": "0x608060405234801561001057600080fd5b50610387806100206000396000f3fe60806040526004361061003f5760003560e01c806312065fe0146100445780633fa4f2451461006f578063552410771461009a578063a26759cb146100c3575b600080fd5b34801561005057600080fd5b506100596100cd565b604051610066919061020a565b60405180910390f35b34801561007b57600080fd5b506100846100d5565b604051610091919061020a565b60405180910390f35b3480156100a657600080fd5b506100c160048036038101906100bc9190610256565b6100db565b005b6100cb610127565b005b600047905090565b60005481565b61011d6040518060400160405280602081526020017f4368616e67696e672076616c75652066726f6d202725732720746f202725732781525060005483610129565b8060008190555050565b565b6101c383838360405160240161014193929190610313565b6040516020818303038152906040527fca47c4eb000000000000000000000000000000000000000000000000000000007bffffffffffffffffffffffffffffffffffffffffffffffffffffffff19166020820180517bffffffffffffffffffffffffffffffffffffffffffffffffffffffff83818316178352505050506101c8565b505050565b60008151905060006a636f6e736f6c652e6c6f679050602083016000808483855afa5050505050565b6000819050919050565b610204816101f1565b82525050565b600060208201905061021f60008301846101fb565b92915050565b600080fd5b610233816101f1565b811461023e57600080fd5b50565b6000813590506102508161022a565b92915050565b60006020828403121561026c5761026b610225565b5b600061027a84828501610241565b91505092915050565b600081519050919050565b600082825260208201905092915050565b60005b838110156102bd5780820151818401526020810190506102a2565b60008484015250505050565b6000601f19601f8301169050919050565b60006102e582610283565b6102ef818561028e565b93506102ff81856020860161029f565b610308816102c9565b840191505092915050565b6000606082019050818103600083015261032d81866102da565b905061033c60208301856101fb565b61034960408301846101fb565b94935050505056fea26469706673582212204f83ac7dae585dcb019029b5454c1d5e0342dcc21b344bb0eb1dee5cc57e100264736f6c63430008120033",
  "linkReferences": {},
  "deployedLinkReferences": {}
}