{
  "_format": "hh-sol-artifact-1",
  "contractName": "NFTWheels",
  "sourceName": "contracts/NFTWheels.sol",
  "abi": [
    {
      "inputs": [
        {
          "internalType": "string",
          "name": "name_",
          "type": "string"
        },
        {
          "internalType": "string",
          "name": "symbol_",
          "type": "string"
        }
      ],
      "stateMutability": "nonpayable",
      "type": "constructor"
    },
    {
      "anonymous": false,
      "inputs": [
        {
          "indexed": true,
          "internalType": "address",
          "name": "owner",
          "type": "address"
        },
        {
          "indexed": true,
          "internalType": "address",
          "name": "approved",
          "type": "address"
        },
        {
          "indexed": true,
          "internalType": "uint256",
          "name": "tokenId",
          "type": "uint256"
        }
      ],
      "name": "Approval",
      "type": "event"
    },
    {
      "anonymous": false,
      "inputs": [
        {
          "indexed": true,
          "internalType": "address",
          "name": "owner",
          "type": "address"
        },
        {
          "indexed": true,
          "internalType": "address",
          "name": "operator",
          "type": "address"
        },
        {
          "indexed": false,
          "internalType": "bool",
          "name": "approved",
          "type": "bool"
        }
      ],
      "name": "ApprovalForAll",
      "type": "event"
    },
    {
      "anonymous": false,
      "inputs": [
        {
          "indexed": true,
          "internalType": "address",
          "name": "previousOwner",
          "type": "address"
        },
        {
          "indexed": true,
          "internalType": "address",
          "name": "newOwner",
          "type": "address"
        }
      ],
      "name": "OwnershipTransferred",
      "type": "event"
    },
    {
      "anonymous": false,
      "inputs": [
        {
          "indexed": true,
          "internalType": "address",
          "name": "from",
          "type": "address"
        },
        {
          "indexed": true,
          "internalType": "address",
          "name": "to",
          "type": "address"
        },
        {
          "indexed": true,
          "internalType": "uint256",
          "name": "tokenId",
          "type": "uint256"
        }
      ],
      "name": "Transfer",
      "type": "event"
    },
    {
      "inputs": [
        {
          "internalType": "address",
          "name": "to",
          "type": "address"
        },
        {
          "internalType": "uint256",
          "name": "tokenId",
          "type": "uint256"
        }
      ],
      "name": "approve",
      "outputs": [],
      "stateMutability": "nonpayable",
      "type": "function"
    },
    {
      "inputs": [
        {
          "internalType": "address",
          "name": "owner",
          "type": "address"
        }
      ],
      "name": "balanceOf",
      "outputs": [
        {
          "internalType": "uint256",
          "name": "",
          "type": "uint256"
        }
      ],
      "stateMutability": "view",
      "type": "function"
    },
    {
      "inputs": [],
      "name": "getAllNFTs",
      "outputs": [
        {
          "components": [
            {
              "internalType": "uint256",
              "name": "id",
              "type": "uint256"
            },
            {
              "internalType": "string",
              "name": "marque",
              "type": "string"
            },
            {
              "internalType": "string",
              "name": "modele",
              "type": "string"
            },
            {
              "internalType": "address",
              "name": "owner",
              "type": "address"
            },
            {
              "internalType": "uint256",
              "name": "anne",
              "type": "uint256"
            },
            {
              "internalType": "uint256",
              "name": "puissance",
              "type": "uint256"
            },
            {
              "internalType": "uint256",
              "name": "vitesseMax",
              "type": "uint256"
            },
            {
              "internalType": "uint256",
              "name": "price",
              "type": "uint256"
            },
            {
              "internalType": "string",
              "name": "image",
              "type": "string"
            }
          ],
          "internalType": "struct NFTWheels.Car[]",
          "name": "",
          "type": "tuple[]"
        }
      ],
      "stateMutability": "view",
      "type": "function"
    },
    {
      "inputs": [
        {
          "internalType": "uint256",
          "name": "tokenId",
          "type": "uint256"
        }
      ],
      "name": "getApproved",
      "outputs": [
        {
          "internalType": "address",
          "name": "",
          "type": "address"
        }
      ],
      "stateMutability": "view",
      "type": "function"
    },
    {
      "inputs": [
        {
          "internalType": "uint256",
          "name": "_tokenId",
          "type": "uint256"
        }
      ],
      "name": "getNFTPrice",
      "outputs": [
        {
          "internalType": "uint256",
          "name": "",
          "type": "uint256"
        }
      ],
      "stateMutability": "view",
      "type": "function"
    },
    {
      "inputs": [
        {
          "internalType": "uint256",
          "name": "_tokenId",
          "type": "uint256"
        }
      ],
      "name": "getOwnerOf",
      "outputs": [
        {
          "internalType": "address",
          "name": "",
          "type": "address"
        }
      ],
      "stateMutability": "view",
      "type": "function"
    },
    {
      "inputs": [
        {
          "internalType": "address",
          "name": "owner",
          "type": "address"
        },
        {
          "internalType": "address",
          "name": "operator",
          "type": "address"
        }
      ],
      "name": "isApprovedForAll",
      "outputs": [
        {
          "internalType": "bool",
          "name": "",
          "type": "bool"
        }
      ],
      "stateMutability": "view",
      "type": "function"
    },
    {
      "inputs": [
        {
          "internalType": "string",
          "name": "_marque",
          "type": "string"
        },
        {
          "internalType": "string",
          "name": "_modele",
          "type": "string"
        },
        {
          "internalType": "uint256",
          "name": "_anne",
          "type": "uint256"
        },
        {
          "internalType": "uint256",
          "name": "_puissance",
          "type": "uint256"
        },
        {
          "internalType": "uint256",
          "name": "_vitesseMax",
          "type": "uint256"
        },
        {
          "internalType": "string",
          "name": "_img",
          "type": "string"
        }
      ],
      "name": "mint",
      "outputs": [],
      "stateMutability": "nonpayable",
      "type": "function"
    },
    {
      "inputs": [],
      "name": "name",
      "outputs": [
        {
          "internalType": "string",
          "name": "",
          "type": "string"
        }
      ],
      "stateMutability": "view",
      "type": "function"
    },
    {
      "inputs": [],
      "name": "owner",
      "outputs": [
        {
          "internalType": "address",
          "name": "",
          "type": "address"
        }
      ],
      "stateMutability": "view",
      "type": "function"
    },
    {
      "inputs": [
        {
          "internalType": "uint256",
          "name": "tokenId",
          "type": "uint256"
        }
      ],
      "name": "ownerOf",
      "outputs": [
        {
          "internalType": "address",
          "name": "",
          "type": "address"
        }
      ],
      "stateMutability": "view",
      "type": "function"
    },
    {
      "inputs": [],
      "name": "renounceOwnership",
      "outputs": [],
      "stateMutability": "nonpayable",
      "type": "function"
    },
    {
      "inputs": [
        {
          "internalType": "address",
          "name": "from",
          "type": "address"
        },
        {
          "internalType": "address",
          "name": "to",
          "type": "address"
        },
        {
          "internalType": "uint256",
          "name": "tokenId",
          "type": "uint256"
        }
      ],
      "name": "safeTransferFrom",
      "outputs": [],
      "stateMutability": "nonpayable",
      "type": "function"
    },
    {
      "inputs": [
        {
          "internalType": "address",
          "name": "from",
          "type": "address"
        },
        {
          "internalType": "address",
          "name": "to",
          "type": "address"
        },
        {
          "internalType": "uint256",
          "name": "tokenId",
          "type": "uint256"
        },
        {
          "internalType": "bytes",
          "name": "data",
          "type": "bytes"
        }
      ],
      "name": "safeTransferFrom",
      "outputs": [],
      "stateMutability": "nonpayable",
      "type": "function"
    },
    {
      "inputs": [
        {
          "internalType": "address",
          "name": "operator",
          "type": "address"
        },
        {
          "internalType": "bool",
          "name": "approved",
          "type": "bool"
        }
      ],
      "name": "setApprovalForAll",
      "outputs": [],
      "stateMutability": "nonpayable",
      "type": "function"
    },
    {
      "inputs": [
        {
          "internalType": "uint256",
          "name": "_newPrice",
          "type": "uint256"
        }
      ],
      "name": "setDefaultPrice",
      "outputs": [
        {
          "internalType": "uint256",
          "name": "",
          "type": "uint256"
        }
      ],
      "stateMutability": "nonpayable",
      "type": "function"
    },
    {
      "inputs": [
        {
          "internalType": "bytes4",
          "name": "interfaceId",
          "type": "bytes4"
        }
      ],
      "name": "supportsInterface",
      "outputs": [
        {
          "internalType": "bool",
          "name": "",
          "type": "bool"
        }
      ],
      "stateMutability": "view",
      "type": "function"
    },
    {
      "inputs": [],
      "name": "symbol",
      "outputs": [
        {
          "internalType": "string",
          "name": "",
          "type": "string"
        }
      ],
      "stateMutability": "view",
      "type": "function"
    },
    {
      "inputs": [
        {
          "internalType": "uint256",
          "name": "tokenId",
          "type": "uint256"
        }
      ],
      "name": "tokenURI",
      "outputs": [
        {
          "internalType": "string",
          "name": "",
          "type": "string"
        }
      ],
      "stateMutability": "view",
      "type": "function"
    },
    {
      "inputs": [
        {
          "internalType": "address",
          "name": "from",
          "type": "address"
        },
        {
          "internalType": "address",
          "name": "to",
          "type": "address"
        },
        {
          "internalType": "uint256",
          "name": "tokenId",
          "type": "uint256"
        }
      ],
      "name": "transferFrom",
      "outputs": [],
      "stateMutability": "nonpayable",
      "type": "function"
    },
    {
      "inputs": [
        {
          "internalType": "address",
          "name": "newOwner",
          "type": "address"
        }
      ],
      "name": "transferOwnership",
      "outputs": [],
      "stateMutability": "nonpayable",
      "type": "function"
    }
  ],
  "bytecode": "0x60806040526000600755670de0b6b3a76400006008553480156200002257600080fd5b5060405162003e9e38038062003e9e8339818101604052810190620000489190620002f9565b818181600090816200005b9190620005c9565b5080600190816200006d9190620005c9565b50505062000090620000846200009860201b60201c565b620000a060201b60201c565b5050620006b0565b600033905090565b6000600660009054906101000a900473ffffffffffffffffffffffffffffffffffffffff16905081600660006101000a81548173ffffffffffffffffffffffffffffffffffffffff021916908373ffffffffffffffffffffffffffffffffffffffff1602179055508173ffffffffffffffffffffffffffffffffffffffff168173ffffffffffffffffffffffffffffffffffffffff167f8be0079c531659141344cd1fd0a4f28419497f9722a3daafe3b4186f6b6457e060405160405180910390a35050565b6000604051905090565b600080fd5b600080fd5b600080fd5b600080fd5b6000601f19601f8301169050919050565b7f4e487b7100000000000000000000000000000000000000000000000000000000600052604160045260246000fd5b620001cf8262000184565b810181811067ffffffffffffffff82111715620001f157620001f062000195565b5b80604052505050565b60006200020662000166565b9050620002148282620001c4565b919050565b600067ffffffffffffffff82111562000237576200023662000195565b5b620002428262000184565b9050602081019050919050565b60005b838110156200026f57808201518184015260208101905062000252565b60008484015250505050565b6000620002926200028c8462000219565b620001fa565b905082815260208101848484011115620002b157620002b06200017f565b5b620002be8482856200024f565b509392505050565b600082601f830112620002de57620002dd6200017a565b5b8151620002f08482602086016200027b565b91505092915050565b6000806040838503121562000313576200031262000170565b5b600083015167ffffffffffffffff81111562000334576200033362000175565b5b6200034285828601620002c6565b925050602083015167ffffffffffffffff81111562000366576200036562000175565b5b6200037485828601620002c6565b9150509250929050565b600081519050919050565b7f4e487b7100000000000000000000000000000000000000000000000000000000600052602260045260246000fd5b60006002820490506001821680620003d157607f821691505b602082108103620003e757620003e662000389565b5b50919050565b60008190508160005260206000209050919050565b60006020601f8301049050919050565b600082821b905092915050565b600060088302620004517fffffffffffffffffffffffffffffffffffffffffffffffffffffffffffffffff8262000412565b6200045d868362000412565b95508019841693508086168417925050509392505050565b6000819050919050565b6000819050919050565b6000620004aa620004a46200049e8462000475565b6200047f565b62000475565b9050919050565b6000819050919050565b620004c68362000489565b620004de620004d582620004b1565b8484546200041f565b825550505050565b600090565b620004f5620004e6565b62000502818484620004bb565b505050565b5b818110156200052a576200051e600082620004eb565b60018101905062000508565b5050565b601f82111562000579576200054381620003ed565b6200054e8462000402565b810160208510156200055e578190505b620005766200056d8562000402565b83018262000507565b50505b505050565b600082821c905092915050565b60006200059e600019846008026200057e565b1980831691505092915050565b6000620005b983836200058b565b9150826002028217905092915050565b620005d4826200037e565b67ffffffffffffffff811115620005f057620005ef62000195565b5b620005fc8254620003b8565b620006098282856200052e565b600060209050601f8311600181146200064157600084156200062c578287015190505b620006388582620005ab565b865550620006a8565b601f1984166200065186620003ed565b60005b828110156200067b5784890151825560018201915060208501945060208101905062000654565b868310156200069b578489015162000697601f8916826200058b565b8355505b6001600288020188555050505b505050505050565b6137de80620006c06000396000f3fe608060405234801561001057600080fd5b50600436106101375760003560e01c806383638710116100b8578063b88d4fde1161007c578063b88d4fde14610360578063bf57fafe1461037c578063c87b56dd14610398578063e0391b09146103c8578063e985e9c5146103e6578063f2fde38b1461041657610137565b806383638710146102a85780638da5cb5b146102d857806392976179146102f657806395d89b4114610326578063a22cb4651461034457610137565b806342842e0e116100ff57806342842e0e146101f25780636352211e1461020e5780636d3c7ec51461023e57806370a082311461026e578063715018a61461029e57610137565b806301ffc9a71461013c57806306fdde031461016c578063081812fc1461018a578063095ea7b3146101ba57806323b872dd146101d6575b600080fd5b610156600480360381019061015191906122da565b610432565b6040516101639190612322565b60405180910390f35b610174610514565b60405161018191906123cd565b60405180910390f35b6101a4600480360381019061019f9190612425565b6105a6565b6040516101b19190612493565b60405180910390f35b6101d460048036038101906101cf91906124da565b6105ec565b005b6101f060048036038101906101eb919061251a565b610703565b005b61020c6004803603810190610207919061251a565b610763565b005b61022860048036038101906102239190612425565b610783565b6040516102359190612493565b60405180910390f35b61025860048036038101906102539190612425565b610809565b604051610265919061257c565b60405180910390f35b61028860048036038101906102839190612597565b610824565b604051610295919061257c565b60405180910390f35b6102a66108db565b005b6102c260048036038101906102bd9190612425565b6108ef565b6040516102cf9190612493565b60405180910390f35b6102e0610901565b6040516102ed9190612493565b60405180910390f35b610310600480360381019061030b9190612425565b61092b565b60405161031d919061257c565b60405180910390f35b61032e610be3565b60405161033b91906123cd565b60405180910390f35b61035e600480360381019061035991906125f0565b610c75565b005b61037a60048036038101906103759190612765565b610c8b565b005b61039660048036038101906103919190612889565b610ced565b005b6103b260048036038101906103ad9190612425565b610f3f565b6040516103bf91906123cd565b60405180910390f35b6103d0610fa7565b6040516103dd9190612b67565b60405180910390f35b61040060048036038101906103fb9190612b89565b611245565b60405161040d9190612322565b60405180910390f35b610430600480360381019061042b9190612597565b6112d9565b005b60007f80ac58cd000000000000000000000000000000000000000000000000000000007bffffffffffffffffffffffffffffffffffffffffffffffffffffffff1916827bffffffffffffffffffffffffffffffffffffffffffffffffffffffff191614806104fd57507f5b5e139f000000000000000000000000000000000000000000000000000000007bffffffffffffffffffffffffffffffffffffffffffffffffffffffff1916827bffffffffffffffffffffffffffffffffffffffffffffffffffffffff1916145b8061050d575061050c8261135c565b5b9050919050565b60606000805461052390612bf8565b80601f016020809104026020016040519081016040528092919081815260200182805461054f90612bf8565b801561059c5780601f106105715761010080835404028352916020019161059c565b820191906000526020600020905b81548152906001019060200180831161057f57829003601f168201915b5050505050905090565b60006105b1826113c6565b6004600083815260200190815260200160002060009054906101000a900473ffffffffffffffffffffffffffffffffffffffff169050919050565b60006105f782610783565b90508073ffffffffffffffffffffffffffffffffffffffff168373ffffffffffffffffffffffffffffffffffffffff1603610667576040517f08c379a000000000000000000000000000000000000000000000000000000000815260040161065e90612c9b565b60405180910390fd5b8073ffffffffffffffffffffffffffffffffffffffff16610686611411565b73ffffffffffffffffffffffffffffffffffffffff1614806106b557506106b4816106af611411565b611245565b5b6106f4576040517f08c379a00000000000000000000000000000000000000000000000000000000081526004016106eb90612d2d565b60405180910390fd5b6106fe8383611419565b505050565b61071461070e611411565b826114d2565b610753576040517f08c379a000000000000000000000000000000000000000000000000000000000815260040161074a90612dbf565b60405180910390fd5b61075e838383611567565b505050565b61077e83838360405180602001604052806000815250610c8b565b505050565b60008061078f83611860565b9050600073ffffffffffffffffffffffffffffffffffffffff168173ffffffffffffffffffffffffffffffffffffffff1603610800576040517f08c379a00000000000000000000000000000000000000000000000000000000081526004016107f790612e2b565b60405180910390fd5b80915050919050565b600061081361189d565b816008819055506008549050919050565b60008073ffffffffffffffffffffffffffffffffffffffff168273ffffffffffffffffffffffffffffffffffffffff1603610894576040517f08c379a000000000000000000000000000000000000000000000000000000000815260040161088b90612ebd565b60405180910390fd5b600360008373ffffffffffffffffffffffffffffffffffffffff1673ffffffffffffffffffffffffffffffffffffffff168152602001908152602001600020549050919050565b6108e361189d565b6108ed600061191b565b565b60006108fa82610783565b9050919050565b6000600660009054906101000a900473ffffffffffffffffffffffffffffffffffffffff16905090565b6000610936826119e1565b610975576040517f08c379a000000000000000000000000000000000000000000000000000000000815260040161096c90612f29565b60405180910390fd5b6000600a600084815260200190815260200160002060405180610120016040529081600082015481526020016001820180546109b090612bf8565b80601f01602080910402602001604051908101604052809291908181526020018280546109dc90612bf8565b8015610a295780601f106109fe57610100808354040283529160200191610a29565b820191906000526020600020905b815481529060010190602001808311610a0c57829003601f168201915b50505050508152602001600282018054610a4290612bf8565b80601f0160208091040260200160405190810160405280929190818152602001828054610a6e90612bf8565b8015610abb5780601f10610a9057610100808354040283529160200191610abb565b820191906000526020600020905b815481529060010190602001808311610a9e57829003601f168201915b505050505081526020016003820160009054906101000a900473ffffffffffffffffffffffffffffffffffffffff1673ffffffffffffffffffffffffffffffffffffffff1673ffffffffffffffffffffffffffffffffffffffff16815260200160048201548152602001600582015481526020016006820154815260200160078201548152602001600882018054610b5290612bf8565b80601f0160208091040260200160405190810160405280929190818152602001828054610b7e90612bf8565b8015610bcb5780601f10610ba057610100808354040283529160200191610bcb565b820191906000526020600020905b815481529060010190602001808311610bae57829003601f168201915b50505050508152505090508060e00151915050919050565b606060018054610bf290612bf8565b80601f0160208091040260200160405190810160405280929190818152602001828054610c1e90612bf8565b8015610c6b5780601f10610c4057610100808354040283529160200191610c6b565b820191906000526020600020905b815481529060010190602001808311610c4e57829003601f168201915b5050505050905090565b610c87610c80611411565b8383611a22565b5050565b610c9c610c96611411565b836114d2565b610cdb576040517f08c379a0000000000000000000000000000000000000000000000000000000008152600401610cd290612dbf565b60405180910390fd5b610ce784848484611b8e565b50505050565b610cf561189d565b600060405180610120016040528060075481526020018881526020018781526020013373ffffffffffffffffffffffffffffffffffffffff168152602001868152602001858152602001848152602001600854815260200183815250905080600a60006007548152602001908152602001600020600082015181600001556020820151816001019081610d8891906130f5565b506040820151816002019081610d9e91906130f5565b5060608201518160030160006101000a81548173ffffffffffffffffffffffffffffffffffffffff021916908373ffffffffffffffffffffffffffffffffffffffff1602179055506080820151816004015560a0820151816005015560c0820151816006015560e08201518160070155610100820151816008019081610e2491906130f5565b50905050610e3433600754611bea565b6009819080600181540180825580915050600190039060005260206000209060090201600090919091909150600082015181600001556020820151816001019081610e7f91906130f5565b506040820151816002019081610e9591906130f5565b5060608201518160030160006101000a81548173ffffffffffffffffffffffffffffffffffffffff021916908373ffffffffffffffffffffffffffffffffffffffff1602179055506080820151816004015560a0820151816005015560c0820151816006015560e08201518160070155610100820151816008019081610f1b91906130f5565b50505060076000815480929190610f31906131f6565b919050555050505050505050565b6060610f4a826113c6565b6000610f54611c08565b90506000815111610f745760405180602001604052806000815250610f9f565b80610f7e84611c1f565b604051602001610f8f92919061327a565b6040516020818303038152906040525b915050919050565b60606009805480602002602001604051908101604052809291908181526020016000905b8282101561123c5783829060005260206000209060090201604051806101200160405290816000820154815260200160018201805461100990612bf8565b80601f016020809104026020016040519081016040528092919081815260200182805461103590612bf8565b80156110825780601f1061105757610100808354040283529160200191611082565b820191906000526020600020905b81548152906001019060200180831161106557829003601f168201915b5050505050815260200160028201805461109b90612bf8565b80601f01602080910402602001604051908101604052809291908181526020018280546110c790612bf8565b80156111145780601f106110e957610100808354040283529160200191611114565b820191906000526020600020905b8154815290600101906020018083116110f757829003601f168201915b505050505081526020016003820160009054906101000a900473ffffffffffffffffffffffffffffffffffffffff1673ffffffffffffffffffffffffffffffffffffffff1673ffffffffffffffffffffffffffffffffffffffff168152602001600482015481526020016005820154815260200160068201548152602001600782015481526020016008820180546111ab90612bf8565b80601f01602080910402602001604051908101604052809291908181526020018280546111d790612bf8565b80156112245780601f106111f957610100808354040283529160200191611224565b820191906000526020600020905b81548152906001019060200180831161120757829003601f168201915b50505050508152505081526020019060010190610fcb565b50505050905090565b6000600560008473ffffffffffffffffffffffffffffffffffffffff1673ffffffffffffffffffffffffffffffffffffffff16815260200190815260200160002060008373ffffffffffffffffffffffffffffffffffffffff1673ffffffffffffffffffffffffffffffffffffffff16815260200190815260200160002060009054906101000a900460ff16905092915050565b6112e161189d565b600073ffffffffffffffffffffffffffffffffffffffff168173ffffffffffffffffffffffffffffffffffffffff1603611350576040517f08c379a000000000000000000000000000000000000000000000000000000000815260040161134790613310565b60405180910390fd5b6113598161191b565b50565b60007f01ffc9a7000000000000000000000000000000000000000000000000000000007bffffffffffffffffffffffffffffffffffffffffffffffffffffffff1916827bffffffffffffffffffffffffffffffffffffffffffffffffffffffff1916149050919050565b6113cf816119e1565b61140e576040517f08c379a000000000000000000000000000000000000000000000000000000000815260040161140590612e2b565b60405180910390fd5b50565b600033905090565b816004600083815260200190815260200160002060006101000a81548173ffffffffffffffffffffffffffffffffffffffff021916908373ffffffffffffffffffffffffffffffffffffffff160217905550808273ffffffffffffffffffffffffffffffffffffffff1661148c83610783565b73ffffffffffffffffffffffffffffffffffffffff167f8c5be1e5ebec7d5bd14f71427d1e84f3dd0314c0f7b2291e5b200ac8c7c3b92560405160405180910390a45050565b6000806114de83610783565b90508073ffffffffffffffffffffffffffffffffffffffff168473ffffffffffffffffffffffffffffffffffffffff161480611520575061151f8185611245565b5b8061155e57508373ffffffffffffffffffffffffffffffffffffffff16611546846105a6565b73ffffffffffffffffffffffffffffffffffffffff16145b91505092915050565b8273ffffffffffffffffffffffffffffffffffffffff1661158782610783565b73ffffffffffffffffffffffffffffffffffffffff16146115dd576040517f08c379a00000000000000000000000000000000000000000000000000000000081526004016115d4906133a2565b60405180910390fd5b600073ffffffffffffffffffffffffffffffffffffffff168273ffffffffffffffffffffffffffffffffffffffff160361164c576040517f08c379a000000000000000000000000000000000000000000000000000000000815260040161164390613434565b60405180910390fd5b6116598383836001611ced565b8273ffffffffffffffffffffffffffffffffffffffff1661167982610783565b73ffffffffffffffffffffffffffffffffffffffff16146116cf576040517f08c379a00000000000000000000000000000000000000000000000000000000081526004016116c6906133a2565b60405180910390fd5b6004600082815260200190815260200160002060006101000a81549073ffffffffffffffffffffffffffffffffffffffff02191690556001600360008573ffffffffffffffffffffffffffffffffffffffff1673ffffffffffffffffffffffffffffffffffffffff168152602001908152602001600020600082825403925050819055506001600360008473ffffffffffffffffffffffffffffffffffffffff1673ffffffffffffffffffffffffffffffffffffffff16815260200190815260200160002060008282540192505081905550816002600083815260200190815260200160002060006101000a81548173ffffffffffffffffffffffffffffffffffffffff021916908373ffffffffffffffffffffffffffffffffffffffff160217905550808273ffffffffffffffffffffffffffffffffffffffff168473ffffffffffffffffffffffffffffffffffffffff167fddf252ad1be2c89b69c2b068fc378daa952ba7f163c4a11628f55a4df523b3ef60405160405180910390a461185b8383836001611cf3565b505050565b60006002600083815260200190815260200160002060009054906101000a900473ffffffffffffffffffffffffffffffffffffffff169050919050565b6118a5611411565b73ffffffffffffffffffffffffffffffffffffffff166118c3610901565b73ffffffffffffffffffffffffffffffffffffffff1614611919576040517f08c379a0000000000000000000000000000000000000000000000000000000008152600401611910906134a0565b60405180910390fd5b565b6000600660009054906101000a900473ffffffffffffffffffffffffffffffffffffffff16905081600660006101000a81548173ffffffffffffffffffffffffffffffffffffffff021916908373ffffffffffffffffffffffffffffffffffffffff1602179055508173ffffffffffffffffffffffffffffffffffffffff168173ffffffffffffffffffffffffffffffffffffffff167f8be0079c531659141344cd1fd0a4f28419497f9722a3daafe3b4186f6b6457e060405160405180910390a35050565b60008073ffffffffffffffffffffffffffffffffffffffff16611a0383611860565b73ffffffffffffffffffffffffffffffffffffffff1614159050919050565b8173ffffffffffffffffffffffffffffffffffffffff168373ffffffffffffffffffffffffffffffffffffffff1603611a90576040517f08c379a0000000000000000000000000000000000000000000000000000000008152600401611a879061350c565b60405180910390fd5b80600560008573ffffffffffffffffffffffffffffffffffffffff1673ffffffffffffffffffffffffffffffffffffffff16815260200190815260200160002060008473ffffffffffffffffffffffffffffffffffffffff1673ffffffffffffffffffffffffffffffffffffffff16815260200190815260200160002060006101000a81548160ff0219169083151502179055508173ffffffffffffffffffffffffffffffffffffffff168373ffffffffffffffffffffffffffffffffffffffff167f17307eab39ab6107e8899845ad3d59bd9653f200f220920489ca2b5937696c3183604051611b819190612322565b60405180910390a3505050565b611b99848484611567565b611ba584848484611cf9565b611be4576040517f08c379a0000000000000000000000000000000000000000000000000000000008152600401611bdb9061359e565b60405180910390fd5b50505050565b611c04828260405180602001604052806000815250611e80565b5050565b606060405180602001604052806000815250905090565b606060006001611c2e84611edb565b01905060008167ffffffffffffffff811115611c4d57611c4c61263a565b5b6040519080825280601f01601f191660200182016040528015611c7f5781602001600182028036833780820191505090505b509050600082602001820190505b600115611ce2578080600190039150507f3031323334353637383961626364656600000000000000000000000000000000600a86061a8153600a8581611cd657611cd56135be565b5b04945060008503611c8d575b819350505050919050565b50505050565b50505050565b6000611d1a8473ffffffffffffffffffffffffffffffffffffffff1661202e565b15611e73578373ffffffffffffffffffffffffffffffffffffffff1663150b7a02611d43611411565b8786866040518563ffffffff1660e01b8152600401611d659493929190613642565b6020604051808303816000875af1925050508015611da157506040513d601f19601f82011682018060405250810190611d9e91906136a3565b60015b611e23573d8060008114611dd1576040519150601f19603f3d011682016040523d82523d6000602084013e611dd6565b606091505b506000815103611e1b576040517f08c379a0000000000000000000000000000000000000000000000000000000008152600401611e129061359e565b60405180910390fd5b805181602001fd5b63150b7a0260e01b7bffffffffffffffffffffffffffffffffffffffffffffffffffffffff1916817bffffffffffffffffffffffffffffffffffffffffffffffffffffffff191614915050611e78565b600190505b949350505050565b611e8a8383612051565b611e976000848484611cf9565b611ed6576040517f08c379a0000000000000000000000000000000000000000000000000000000008152600401611ecd9061359e565b60405180910390fd5b505050565b600080600090507a184f03e93ff9f4daa797ed6e38ed64bf6a1f0100000000000000008310611f39577a184f03e93ff9f4daa797ed6e38ed64bf6a1f0100000000000000008381611f2f57611f2e6135be565b5b0492506040810190505b6d04ee2d6d415b85acef81000000008310611f76576d04ee2d6d415b85acef81000000008381611f6c57611f6b6135be565b5b0492506020810190505b662386f26fc100008310611fa557662386f26fc100008381611f9b57611f9a6135be565b5b0492506010810190505b6305f5e1008310611fce576305f5e1008381611fc457611fc36135be565b5b0492506008810190505b6127108310611ff3576127108381611fe957611fe86135be565b5b0492506004810190505b60648310612016576064838161200c5761200b6135be565b5b0492506002810190505b600a8310612025576001810190505b80915050919050565b6000808273ffffffffffffffffffffffffffffffffffffffff163b119050919050565b600073ffffffffffffffffffffffffffffffffffffffff168273ffffffffffffffffffffffffffffffffffffffff16036120c0576040517f08c379a00000000000000000000000000000000000000000000000000000000081526004016120b79061371c565b60405180910390fd5b6120c9816119e1565b15612109576040517f08c379a000000000000000000000000000000000000000000000000000000000815260040161210090613788565b60405180910390fd5b612117600083836001611ced565b612120816119e1565b15612160576040517f08c379a000000000000000000000000000000000000000000000000000000000815260040161215790613788565b60405180910390fd5b6001600360008473ffffffffffffffffffffffffffffffffffffffff1673ffffffffffffffffffffffffffffffffffffffff16815260200190815260200160002060008282540192505081905550816002600083815260200190815260200160002060006101000a81548173ffffffffffffffffffffffffffffffffffffffff021916908373ffffffffffffffffffffffffffffffffffffffff160217905550808273ffffffffffffffffffffffffffffffffffffffff16600073ffffffffffffffffffffffffffffffffffffffff167fddf252ad1be2c89b69c2b068fc378daa952ba7f163c4a11628f55a4df523b3ef60405160405180910390a461226a600083836001611cf3565b5050565b6000604051905090565b600080fd5b600080fd5b60007fffffffff0000000000000000000000000000000000000000000000000000000082169050919050565b6122b781612282565b81146122c257600080fd5b50565b6000813590506122d4816122ae565b92915050565b6000602082840312156122f0576122ef612278565b5b60006122fe848285016122c5565b91505092915050565b60008115159050919050565b61231c81612307565b82525050565b60006020820190506123376000830184612313565b92915050565b600081519050919050565b600082825260208201905092915050565b60005b8381101561237757808201518184015260208101905061235c565b60008484015250505050565b6000601f19601f8301169050919050565b600061239f8261233d565b6123a98185612348565b93506123b9818560208601612359565b6123c281612383565b840191505092915050565b600060208201905081810360008301526123e78184612394565b905092915050565b6000819050919050565b612402816123ef565b811461240d57600080fd5b50565b60008135905061241f816123f9565b92915050565b60006020828403121561243b5761243a612278565b5b600061244984828501612410565b91505092915050565b600073ffffffffffffffffffffffffffffffffffffffff82169050919050565b600061247d82612452565b9050919050565b61248d81612472565b82525050565b60006020820190506124a86000830184612484565b92915050565b6124b781612472565b81146124c257600080fd5b50565b6000813590506124d4816124ae565b92915050565b600080604083850312156124f1576124f0612278565b5b60006124ff858286016124c5565b925050602061251085828601612410565b9150509250929050565b60008060006060848603121561253357612532612278565b5b6000612541868287016124c5565b9350506020612552868287016124c5565b925050604061256386828701612410565b9150509250925092565b612576816123ef565b82525050565b6000602082019050612591600083018461256d565b92915050565b6000602082840312156125ad576125ac612278565b5b60006125bb848285016124c5565b91505092915050565b6125cd81612307565b81146125d857600080fd5b50565b6000813590506125ea816125c4565b92915050565b6000806040838503121561260757612606612278565b5b6000612615858286016124c5565b9250506020612626858286016125db565b9150509250929050565b600080fd5b600080fd5b7f4e487b7100000000000000000000000000000000000000000000000000000000600052604160045260246000fd5b61267282612383565b810181811067ffffffffffffffff821117156126915761269061263a565b5b80604052505050565b60006126a461226e565b90506126b08282612669565b919050565b600067ffffffffffffffff8211156126d0576126cf61263a565b5b6126d982612383565b9050602081019050919050565b82818337600083830152505050565b6000612708612703846126b5565b61269a565b90508281526020810184848401111561272457612723612635565b5b61272f8482856126e6565b509392505050565b600082601f83011261274c5761274b612630565b5b813561275c8482602086016126f5565b91505092915050565b6000806000806080858703121561277f5761277e612278565b5b600061278d878288016124c5565b945050602061279e878288016124c5565b93505060406127af87828801612410565b925050606085013567ffffffffffffffff8111156127d0576127cf61227d565b5b6127dc87828801612737565b91505092959194509250565b600067ffffffffffffffff8211156128035761280261263a565b5b61280c82612383565b9050602081019050919050565b600061282c612827846127e8565b61269a565b90508281526020810184848401111561284857612847612635565b5b6128538482856126e6565b509392505050565b600082601f8301126128705761286f612630565b5b8135612880848260208601612819565b91505092915050565b60008060008060008060c087890312156128a6576128a5612278565b5b600087013567ffffffffffffffff8111156128c4576128c361227d565b5b6128d089828a0161285b565b965050602087013567ffffffffffffffff8111156128f1576128f061227d565b5b6128fd89828a0161285b565b955050604061290e89828a01612410565b945050606061291f89828a01612410565b935050608061293089828a01612410565b92505060a087013567ffffffffffffffff8111156129515761295061227d565b5b61295d89828a0161285b565b9150509295509295509295565b600081519050919050565b600082825260208201905092915050565b6000819050602082019050919050565b61299f816123ef565b82525050565b600082825260208201905092915050565b60006129c18261233d565b6129cb81856129a5565b93506129db818560208601612359565b6129e481612383565b840191505092915050565b6129f881612472565b82525050565b600061012083016000830151612a176000860182612996565b5060208301518482036020860152612a2f82826129b6565b91505060408301518482036040860152612a4982826129b6565b9150506060830151612a5e60608601826129ef565b506080830151612a716080860182612996565b5060a0830151612a8460a0860182612996565b5060c0830151612a9760c0860182612996565b5060e0830151612aaa60e0860182612996565b50610100830151848203610100860152612ac482826129b6565b9150508091505092915050565b6000612add83836129fe565b905092915050565b6000602082019050919050565b6000612afd8261296a565b612b078185612975565b935083602082028501612b1985612986565b8060005b85811015612b555784840389528151612b368582612ad1565b9450612b4183612ae5565b925060208a01995050600181019050612b1d565b50829750879550505050505092915050565b60006020820190508181036000830152612b818184612af2565b905092915050565b60008060408385031215612ba057612b9f612278565b5b6000612bae858286016124c5565b9250506020612bbf858286016124c5565b9150509250929050565b7f4e487b7100000000000000000000000000000000000000000000000000000000600052602260045260246000fd5b60006002820490506001821680612c1057607f821691505b602082108103612c2357612c22612bc9565b5b50919050565b7f4552433732313a20617070726f76616c20746f2063757272656e74206f776e6560008201527f7200000000000000000000000000000000000000000000000000000000000000602082015250565b6000612c85602183612348565b9150612c9082612c29565b604082019050919050565b60006020820190508181036000830152612cb481612c78565b9050919050565b7f4552433732313a20617070726f76652063616c6c6572206973206e6f7420746f60008201527f6b656e206f776e6572206f7220617070726f76656420666f7220616c6c000000602082015250565b6000612d17603d83612348565b9150612d2282612cbb565b604082019050919050565b60006020820190508181036000830152612d4681612d0a565b9050919050565b7f4552433732313a2063616c6c6572206973206e6f7420746f6b656e206f776e6560008201527f72206f7220617070726f76656400000000000000000000000000000000000000602082015250565b6000612da9602d83612348565b9150612db482612d4d565b604082019050919050565b60006020820190508181036000830152612dd881612d9c565b9050919050565b7f4552433732313a20696e76616c696420746f6b656e2049440000000000000000600082015250565b6000612e15601883612348565b9150612e2082612ddf565b602082019050919050565b60006020820190508181036000830152612e4481612e08565b9050919050565b7f4552433732313a2061646472657373207a65726f206973206e6f74206120766160008201527f6c6964206f776e65720000000000000000000000000000000000000000000000602082015250565b6000612ea7602983612348565b9150612eb282612e4b565b604082019050919050565b60006020820190508181036000830152612ed681612e9a565b9050919050565b7f496e76616c696420746f6b656e20494400000000000000000000000000000000600082015250565b6000612f13601083612348565b9150612f1e82612edd565b602082019050919050565b60006020820190508181036000830152612f4281612f06565b9050919050565b60008190508160005260206000209050919050565b60006020601f8301049050919050565b600082821b905092915050565b600060088302612fab7fffffffffffffffffffffffffffffffffffffffffffffffffffffffffffffffff82612f6e565b612fb58683612f6e565b95508019841693508086168417925050509392505050565b6000819050919050565b6000612ff2612fed612fe8846123ef565b612fcd565b6123ef565b9050919050565b6000819050919050565b61300c83612fd7565b61302061301882612ff9565b848454612f7b565b825550505050565b600090565b613035613028565b613040818484613003565b505050565b5b818110156130645761305960008261302d565b600181019050613046565b5050565b601f8211156130a95761307a81612f49565b61308384612f5e565b81016020851015613092578190505b6130a661309e85612f5e565b830182613045565b50505b505050565b600082821c905092915050565b60006130cc600019846008026130ae565b1980831691505092915050565b60006130e583836130bb565b9150826002028217905092915050565b6130fe8261233d565b67ffffffffffffffff8111156131175761311661263a565b5b6131218254612bf8565b61312c828285613068565b600060209050601f83116001811461315f576000841561314d578287015190505b61315785826130d9565b8655506131bf565b601f19841661316d86612f49565b60005b8281101561319557848901518255600182019150602085019450602081019050613170565b868310156131b257848901516131ae601f8916826130bb565b8355505b6001600288020188555050505b505050505050565b7f4e487b7100000000000000000000000000000000000000000000000000000000600052601160045260246000fd5b6000613201826123ef565b91507fffffffffffffffffffffffffffffffffffffffffffffffffffffffffffffffff8203613233576132326131c7565b5b600182019050919050565b600081905092915050565b60006132548261233d565b61325e818561323e565b935061326e818560208601612359565b80840191505092915050565b60006132868285613249565b91506132928284613249565b91508190509392505050565b7f4f776e61626c653a206e6577206f776e657220697320746865207a65726f206160008201527f6464726573730000000000000000000000000000000000000000000000000000602082015250565b60006132fa602683612348565b91506133058261329e565b604082019050919050565b60006020820190508181036000830152613329816132ed565b9050919050565b7f4552433732313a207472616e736665722066726f6d20696e636f72726563742060008201527f6f776e6572000000000000000000000000000000000000000000000000000000602082015250565b600061338c602583612348565b915061339782613330565b604082019050919050565b600060208201905081810360008301526133bb8161337f565b9050919050565b7f4552433732313a207472616e7366657220746f20746865207a65726f2061646460008201527f7265737300000000000000000000000000000000000000000000000000000000602082015250565b600061341e602483612348565b9150613429826133c2565b604082019050919050565b6000602082019050818103600083015261344d81613411565b9050919050565b7f4f776e61626c653a2063616c6c6572206973206e6f7420746865206f776e6572600082015250565b600061348a602083612348565b915061349582613454565b602082019050919050565b600060208201905081810360008301526134b98161347d565b9050919050565b7f4552433732313a20617070726f766520746f2063616c6c657200000000000000600082015250565b60006134f6601983612348565b9150613501826134c0565b602082019050919050565b60006020820190508181036000830152613525816134e9565b9050919050565b7f4552433732313a207472616e7366657220746f206e6f6e20455243373231526560008201527f63656976657220696d706c656d656e7465720000000000000000000000000000602082015250565b6000613588603283612348565b91506135938261352c565b604082019050919050565b600060208201905081810360008301526135b78161357b565b9050919050565b7f4e487b7100000000000000000000000000000000000000000000000000000000600052601260045260246000fd5b600081519050919050565b600082825260208201905092915050565b6000613614826135ed565b61361e81856135f8565b935061362e818560208601612359565b61363781612383565b840191505092915050565b60006080820190506136576000830187612484565b6136646020830186612484565b613671604083018561256d565b81810360608301526136838184613609565b905095945050505050565b60008151905061369d816122ae565b92915050565b6000602082840312156136b9576136b8612278565b5b60006136c78482850161368e565b91505092915050565b7f4552433732313a206d696e7420746f20746865207a65726f2061646472657373600082015250565b6000613706602083612348565b9150613711826136d0565b602082019050919050565b60006020820190508181036000830152613735816136f9565b9050919050565b7f4552433732313a20746f6b656e20616c7265616479206d696e74656400000000600082015250565b6000613772601c83612348565b915061377d8261373c565b602082019050919050565b600060208201905081810360008301526137a181613765565b905091905056fea264697066735822122084275a420df695a557b579e55638c8d248420d35ea37f760381eab57e2674f3d64736f6c63430008120033",
  "linkReferences": {},
  "deployedLinkReferences": {}
}