{
  "_format": "hh-sol-artifact-1",
  "contractName": "NFTWheels",
  "sourceName": "contracts/NFTWheels.sol",
  "abi": [
    {
      "inputs": [
        {
          "internalType": "address",
          "name": "erc20TokenAddress",
          "type": "address"
        }
      ],
      "stateMutability": "nonpayable",
      "type": "constructor"
    },
    {
      "anonymous": false,
      "inputs": [
        {
          "indexed": true,
          "internalType": "address",
          "name": "owner",
          "type": "address"
        },
        {
          "indexed": true,
          "internalType": "address",
          "name": "approved",
          "type": "address"
        },
        {
          "indexed": true,
          "internalType": "uint256",
          "name": "tokenId",
          "type": "uint256"
        }
      ],
      "name": "Approval",
      "type": "event"
    },
    {
      "anonymous": false,
      "inputs": [
        {
          "indexed": true,
          "internalType": "address",
          "name": "owner",
          "type": "address"
        },
        {
          "indexed": true,
          "internalType": "address",
          "name": "operator",
          "type": "address"
        },
        {
          "indexed": false,
          "internalType": "bool",
          "name": "approved",
          "type": "bool"
        }
      ],
      "name": "ApprovalForAll",
      "type": "event"
    },
    {
      "anonymous": false,
      "inputs": [
        {
          "indexed": true,
          "internalType": "address",
          "name": "previousOwner",
          "type": "address"
        },
        {
          "indexed": true,
          "internalType": "address",
          "name": "newOwner",
          "type": "address"
        }
      ],
      "name": "OwnershipTransferred",
      "type": "event"
    },
    {
      "anonymous": false,
      "inputs": [
        {
          "indexed": true,
          "internalType": "address",
          "name": "from",
          "type": "address"
        },
        {
          "indexed": true,
          "internalType": "address",
          "name": "to",
          "type": "address"
        },
        {
          "indexed": true,
          "internalType": "uint256",
          "name": "tokenId",
          "type": "uint256"
        }
      ],
      "name": "Transfer",
      "type": "event"
    },
    {
      "inputs": [
        {
          "internalType": "uint256",
          "name": "_tokenId",
          "type": "uint256"
        }
      ],
      "name": "_buy",
      "outputs": [],
      "stateMutability": "payable",
      "type": "function"
    },
    {
      "inputs": [
        {
          "internalType": "uint256",
          "name": "_tokenId",
          "type": "uint256"
        }
      ],
      "name": "_sell",
      "outputs": [
        {
          "internalType": "string",
          "name": "",
          "type": "string"
        }
      ],
      "stateMutability": "nonpayable",
      "type": "function"
    },
    {
      "inputs": [
        {
          "internalType": "address",
          "name": "to",
          "type": "address"
        },
        {
          "internalType": "uint256",
          "name": "tokenId",
          "type": "uint256"
        }
      ],
      "name": "approve",
      "outputs": [],
      "stateMutability": "nonpayable",
      "type": "function"
    },
    {
      "inputs": [
        {
          "internalType": "address",
          "name": "owner",
          "type": "address"
        }
      ],
      "name": "balanceOf",
      "outputs": [
        {
          "internalType": "uint256",
          "name": "",
          "type": "uint256"
        }
      ],
      "stateMutability": "view",
      "type": "function"
    },
    {
      "inputs": [
        {
          "internalType": "uint256",
          "name": "newPrice",
          "type": "uint256"
        },
        {
          "internalType": "uint256",
          "name": "_tokenId",
          "type": "uint256"
        }
      ],
      "name": "changePrice",
      "outputs": [],
      "stateMutability": "payable",
      "type": "function"
    },
    {
      "inputs": [],
      "name": "getAllNFTs",
      "outputs": [
        {
          "components": [
            {
              "internalType": "uint256",
              "name": "id",
              "type": "uint256"
            },
            {
              "internalType": "string",
              "name": "name",
              "type": "string"
            },
            {
              "internalType": "address",
              "name": "owner",
              "type": "address"
            },
            {
              "internalType": "uint256",
              "name": "price",
              "type": "uint256"
            },
            {
              "internalType": "string",
              "name": "metadataURI",
              "type": "string"
            },
            {
              "internalType": "bool",
              "name": "isForSale",
              "type": "bool"
            }
          ],
          "internalType": "struct NFTWheels.Car[]",
          "name": "",
          "type": "tuple[]"
        }
      ],
      "stateMutability": "view",
      "type": "function"
    },
    {
      "inputs": [],
      "name": "getAllNFTsAvailable",
      "outputs": [
        {
          "components": [
            {
              "internalType": "uint256",
              "name": "id",
              "type": "uint256"
            },
            {
              "internalType": "string",
              "name": "name",
              "type": "string"
            },
            {
              "internalType": "address",
              "name": "owner",
              "type": "address"
            },
            {
              "internalType": "uint256",
              "name": "price",
              "type": "uint256"
            },
            {
              "internalType": "string",
              "name": "metadataURI",
              "type": "string"
            },
            {
              "internalType": "bool",
              "name": "isForSale",
              "type": "bool"
            }
          ],
          "internalType": "struct NFTWheels.Car[]",
          "name": "",
          "type": "tuple[]"
        }
      ],
      "stateMutability": "view",
      "type": "function"
    },
    {
      "inputs": [
        {
          "internalType": "uint256",
          "name": "tokenId",
          "type": "uint256"
        }
      ],
      "name": "getApproved",
      "outputs": [
        {
          "internalType": "address",
          "name": "",
          "type": "address"
        }
      ],
      "stateMutability": "view",
      "type": "function"
    },
    {
      "inputs": [
        {
          "internalType": "uint256",
          "name": "_tokenId",
          "type": "uint256"
        }
      ],
      "name": "getNFTPrice",
      "outputs": [
        {
          "internalType": "uint256",
          "name": "",
          "type": "uint256"
        }
      ],
      "stateMutability": "view",
      "type": "function"
    },
    {
      "inputs": [],
      "name": "getOwner",
      "outputs": [
        {
          "internalType": "address",
          "name": "",
          "type": "address"
        }
      ],
      "stateMutability": "view",
      "type": "function"
    },
    {
      "inputs": [
        {
          "internalType": "uint256",
          "name": "_tokenId",
          "type": "uint256"
        }
      ],
      "name": "getOwnerOf",
      "outputs": [
        {
          "internalType": "address",
          "name": "",
          "type": "address"
        }
      ],
      "stateMutability": "view",
      "type": "function"
    },
    {
      "inputs": [
        {
          "internalType": "address",
          "name": "owner",
          "type": "address"
        },
        {
          "internalType": "address",
          "name": "operator",
          "type": "address"
        }
      ],
      "name": "isApprovedForAll",
      "outputs": [
        {
          "internalType": "bool",
          "name": "",
          "type": "bool"
        }
      ],
      "stateMutability": "view",
      "type": "function"
    },
    {
      "inputs": [
        {
          "internalType": "string",
          "name": "name",
          "type": "string"
        },
        {
          "internalType": "uint256",
          "name": "price",
          "type": "uint256"
        },
        {
          "internalType": "string",
          "name": "metadataURI",
          "type": "string"
        }
      ],
      "name": "mint",
      "outputs": [],
      "stateMutability": "nonpayable",
      "type": "function"
    },
    {
      "inputs": [],
      "name": "name",
      "outputs": [
        {
          "internalType": "string",
          "name": "",
          "type": "string"
        }
      ],
      "stateMutability": "view",
      "type": "function"
    },
    {
      "inputs": [],
      "name": "owner",
      "outputs": [
        {
          "internalType": "address",
          "name": "",
          "type": "address"
        }
      ],
      "stateMutability": "view",
      "type": "function"
    },
    {
      "inputs": [
        {
          "internalType": "uint256",
          "name": "tokenId",
          "type": "uint256"
        }
      ],
      "name": "ownerOf",
      "outputs": [
        {
          "internalType": "address",
          "name": "",
          "type": "address"
        }
      ],
      "stateMutability": "view",
      "type": "function"
    },
    {
      "inputs": [
        {
          "internalType": "uint256",
          "name": "_tokenId",
          "type": "uint256"
        }
      ],
      "name": "removeFromSell",
      "outputs": [],
      "stateMutability": "nonpayable",
      "type": "function"
    },
    {
      "inputs": [],
      "name": "renounceOwnership",
      "outputs": [],
      "stateMutability": "nonpayable",
      "type": "function"
    },
    {
      "inputs": [
        {
          "internalType": "address",
          "name": "from",
          "type": "address"
        },
        {
          "internalType": "address",
          "name": "to",
          "type": "address"
        },
        {
          "internalType": "uint256",
          "name": "tokenId",
          "type": "uint256"
        }
      ],
      "name": "safeTransferFrom",
      "outputs": [],
      "stateMutability": "nonpayable",
      "type": "function"
    },
    {
      "inputs": [
        {
          "internalType": "address",
          "name": "from",
          "type": "address"
        },
        {
          "internalType": "address",
          "name": "to",
          "type": "address"
        },
        {
          "internalType": "uint256",
          "name": "tokenId",
          "type": "uint256"
        },
        {
          "internalType": "bytes",
          "name": "data",
          "type": "bytes"
        }
      ],
      "name": "safeTransferFrom",
      "outputs": [],
      "stateMutability": "nonpayable",
      "type": "function"
    },
    {
      "inputs": [
        {
          "internalType": "uint256",
          "name": "token",
          "type": "uint256"
        }
      ],
      "name": "sendNFT",
      "outputs": [],
      "stateMutability": "payable",
      "type": "function"
    },
    {
      "inputs": [
        {
          "internalType": "address",
          "name": "operator",
          "type": "address"
        },
        {
          "internalType": "bool",
          "name": "approved",
          "type": "bool"
        }
      ],
      "name": "setApprovalForAll",
      "outputs": [],
      "stateMutability": "nonpayable",
      "type": "function"
    },
    {
      "inputs": [
        {
          "internalType": "bytes4",
          "name": "interfaceId",
          "type": "bytes4"
        }
      ],
      "name": "supportsInterface",
      "outputs": [
        {
          "internalType": "bool",
          "name": "",
          "type": "bool"
        }
      ],
      "stateMutability": "view",
      "type": "function"
    },
    {
      "inputs": [],
      "name": "symbol",
      "outputs": [
        {
          "internalType": "string",
          "name": "",
          "type": "string"
        }
      ],
      "stateMutability": "view",
      "type": "function"
    },
    {
      "inputs": [
        {
          "internalType": "uint256",
          "name": "tokenId",
          "type": "uint256"
        }
      ],
      "name": "tokenURI",
      "outputs": [
        {
          "internalType": "string",
          "name": "",
          "type": "string"
        }
      ],
      "stateMutability": "view",
      "type": "function"
    },
    {
      "inputs": [
        {
          "internalType": "address",
          "name": "from",
          "type": "address"
        },
        {
          "internalType": "address",
          "name": "to",
          "type": "address"
        },
        {
          "internalType": "uint256",
          "name": "tokenId",
          "type": "uint256"
        }
      ],
      "name": "transferFrom",
      "outputs": [],
      "stateMutability": "nonpayable",
      "type": "function"
    },
    {
      "inputs": [
        {
          "internalType": "address",
          "name": "newOwner",
          "type": "address"
        }
      ],
      "name": "transferOwnership",
      "outputs": [],
      "stateMutability": "nonpayable",
      "type": "function"
    }
  ],
  "bytecode": "0x608060405260006008556002600a553480156200001b57600080fd5b506040516200505d3803806200505d833981810160405281019062000041919062000273565b6040518060400160405280600a81526020017f4e465420576865656c73000000000000000000000000000000000000000000008152506040518060400160405280600481526020017f4e465753000000000000000000000000000000000000000000000000000000008152508160009081620000be91906200051f565b508060019081620000d091906200051f565b505050620000f3620000e76200013b60201b60201c565b6200014360201b60201c565b80600d60006101000a81548173ffffffffffffffffffffffffffffffffffffffff021916908373ffffffffffffffffffffffffffffffffffffffff1602179055505062000606565b600033905090565b6000600760009054906101000a900473ffffffffffffffffffffffffffffffffffffffff16905081600760006101000a81548173ffffffffffffffffffffffffffffffffffffffff021916908373ffffffffffffffffffffffffffffffffffffffff1602179055508173ffffffffffffffffffffffffffffffffffffffff168173ffffffffffffffffffffffffffffffffffffffff167f8be0079c531659141344cd1fd0a4f28419497f9722a3daafe3b4186f6b6457e060405160405180910390a35050565b600080fd5b600073ffffffffffffffffffffffffffffffffffffffff82169050919050565b60006200023b826200020e565b9050919050565b6200024d816200022e565b81146200025957600080fd5b50565b6000815190506200026d8162000242565b92915050565b6000602082840312156200028c576200028b62000209565b5b60006200029c848285016200025c565b91505092915050565b600081519050919050565b7f4e487b7100000000000000000000000000000000000000000000000000000000600052604160045260246000fd5b7f4e487b7100000000000000000000000000000000000000000000000000000000600052602260045260246000fd5b600060028204905060018216806200032757607f821691505b6020821081036200033d576200033c620002df565b5b50919050565b60008190508160005260206000209050919050565b60006020601f8301049050919050565b600082821b905092915050565b600060088302620003a77fffffffffffffffffffffffffffffffffffffffffffffffffffffffffffffffff8262000368565b620003b3868362000368565b95508019841693508086168417925050509392505050565b6000819050919050565b6000819050919050565b600062000400620003fa620003f484620003cb565b620003d5565b620003cb565b9050919050565b6000819050919050565b6200041c83620003df565b620004346200042b8262000407565b84845462000375565b825550505050565b600090565b6200044b6200043c565b6200045881848462000411565b505050565b5b8181101562000480576200047460008262000441565b6001810190506200045e565b5050565b601f821115620004cf57620004998162000343565b620004a48462000358565b81016020851015620004b4578190505b620004cc620004c38562000358565b8301826200045d565b50505b505050565b600082821c905092915050565b6000620004f460001984600802620004d4565b1980831691505092915050565b60006200050f8383620004e1565b9150826002028217905092915050565b6200052a82620002a5565b67ffffffffffffffff811115620005465762000545620002b0565b5b6200055282546200030e565b6200055f82828562000484565b600060209050601f83116001811462000597576000841562000582578287015190505b6200058e858262000501565b865550620005fe565b601f198416620005a78662000343565b60005b82811015620005d157848901518255600182019150602085019450602081019050620005aa565b86831015620005f15784890151620005ed601f891682620004e1565b8355505b6001600288020188555050505b505050505050565b614a4780620006166000396000f3fe60806040526004361061019c5760003560e01c80638da5cb5b116100ec578063c87b56dd1161008a578063e985e9c511610064578063e985e9c5146105ce578063f2fde38b1461060b578063f92ba42914610634578063fd66ed8e1461065f5761019c565b8063c87b56dd14610529578063e0391b0914610566578063e5d5876d146105915761019c565b8063a22cb465116100c6578063a22cb46514610492578063b3de019c146104bb578063b88d4fde146104d7578063c395d9cc146105005761019c565b80638da5cb5b146103ff578063929761791461042a57806395d89b41146104675761019c565b8063282303b51161015957806370a082311161013357806370a0823114610343578063715018a6146103805780638363871014610397578063893d20e8146103d45761019c565b8063282303b5146102c157806342842e0e146102dd5780636352211e146103065761019c565b806301ffc9a7146101a157806306bdc949146101de57806306fdde0314610207578063081812fc14610232578063095ea7b31461026f57806323b872dd14610298575b600080fd5b3480156101ad57600080fd5b506101c860048036038101906101c3919061327c565b61067b565b6040516101d591906132c4565b60405180910390f35b3480156101ea57600080fd5b506102056004803603810190610200919061345b565b61075d565b005b34801561021357600080fd5b5061021c61097c565b6040516102299190613565565b60405180910390f35b34801561023e57600080fd5b5061025960048036038101906102549190613587565b610a0e565b60405161026691906135f5565b60405180910390f35b34801561027b57600080fd5b506102966004803603810190610291919061363c565b610a54565b005b3480156102a457600080fd5b506102bf60048036038101906102ba919061367c565b610b6b565b005b6102db60048036038101906102d69190613587565b610bcb565b005b3480156102e957600080fd5b5061030460048036038101906102ff919061367c565b610e62565b005b34801561031257600080fd5b5061032d60048036038101906103289190613587565b610e82565b60405161033a91906135f5565b60405180910390f35b34801561034f57600080fd5b5061036a600480360381019061036591906136cf565b610f08565b604051610377919061370b565b60405180910390f35b34801561038c57600080fd5b50610395610fbf565b005b3480156103a357600080fd5b506103be60048036038101906103b99190613587565b610fd3565b6040516103cb91906135f5565b60405180910390f35b3480156103e057600080fd5b506103e9610fe5565b6040516103f691906135f5565b60405180910390f35b34801561040b57600080fd5b50610414610ff4565b60405161042191906135f5565b60405180910390f35b34801561043657600080fd5b50610451600480360381019061044c9190613587565b61101e565b60405161045e919061370b565b60405180910390f35b34801561047357600080fd5b5061047c611240565b6040516104899190613565565b60405180910390f35b34801561049e57600080fd5b506104b960048036038101906104b49190613752565b6112d2565b005b6104d560048036038101906104d09190613792565b6112e8565b005b3480156104e357600080fd5b506104fe60048036038101906104f99190613873565b61131c565b005b34801561050c57600080fd5b5061052760048036038101906105229190613587565b61137e565b005b34801561053557600080fd5b50610550600480360381019061054b9190613587565b6114cd565b60405161055d9190613565565b60405180910390f35b34801561057257600080fd5b5061057b6115df565b6040516105889190613abf565b60405180910390f35b34801561059d57600080fd5b506105b860048036038101906105b39190613587565b611a5d565b6040516105c59190613565565b60405180910390f35b3480156105da57600080fd5b506105f560048036038101906105f09190613ae1565b611bbc565b60405161060291906132c4565b60405180910390f35b34801561061757600080fd5b50610632600480360381019061062d91906136cf565b611c50565b005b34801561064057600080fd5b50610649611cd3565b6040516106569190613abf565b60405180910390f35b61067960048036038101906106749190613587565b6121d8565b005b60007f80ac58cd000000000000000000000000000000000000000000000000000000007bffffffffffffffffffffffffffffffffffffffffffffffffffffffff1916827bffffffffffffffffffffffffffffffffffffffffffffffffffffffff1916148061074657507f5b5e139f000000000000000000000000000000000000000000000000000000007bffffffffffffffffffffffffffffffffffffffffffffffffffffffff1916827bffffffffffffffffffffffffffffffffffffffffffffffffffffffff1916145b806107565750610755826121db565b5b9050919050565b610765612245565b60006040518060c0016040528060085481526020018581526020013373ffffffffffffffffffffffffffffffffffffffff16815260200184815260200183815260200160001515815250905080600b600060085481526020019081526020016000206000820151816000015560208201518160010190816107e69190613d2d565b5060408201518160020160006101000a81548173ffffffffffffffffffffffffffffffffffffffff021916908373ffffffffffffffffffffffffffffffffffffffff16021790555060608201518160030155608082015181600401908161084d9190613d2d565b5060a08201518160050160006101000a81548160ff02191690831515021790555090505061087d336008546122c3565b60098190806001815401808255809150506001900390600052602060002090600602016000909190919091506000820151816000015560208201518160010190816108c89190613d2d565b5060408201518160020160006101000a81548173ffffffffffffffffffffffffffffffffffffffff021916908373ffffffffffffffffffffffffffffffffffffffff16021790555060608201518160030155608082015181600401908161092f9190613d2d565b5060a08201518160050160006101000a81548160ff021916908315150217905550505061095e600854836122e1565b6008600081548092919061097190613e2e565b919050555050505050565b60606000805461098b90613b50565b80601f01602080910402602001604051908101604052809291908181526020018280546109b790613b50565b8015610a045780601f106109d957610100808354040283529160200191610a04565b820191906000526020600020905b8154815290600101906020018083116109e757829003601f168201915b5050505050905090565b6000610a198261234e565b6004600083815260200190815260200160002060009054906101000a900473ffffffffffffffffffffffffffffffffffffffff169050919050565b6000610a5f82610e82565b90508073ffffffffffffffffffffffffffffffffffffffff168373ffffffffffffffffffffffffffffffffffffffff1603610acf576040517f08c379a0000000000000000000000000000000000000000000000000000000008152600401610ac690613ee8565b60405180910390fd5b8073ffffffffffffffffffffffffffffffffffffffff16610aee612399565b73ffffffffffffffffffffffffffffffffffffffff161480610b1d5750610b1c81610b17612399565b611bbc565b5b610b5c576040517f08c379a0000000000000000000000000000000000000000000000000000000008152600401610b5390613f7a565b60405180910390fd5b610b6683836123a1565b505050565b610b7c610b76612399565b8261245a565b610bbb576040517f08c379a0000000000000000000000000000000000000000000000000000000008152600401610bb29061400c565b60405180910390fd5b610bc68383836124ef565b505050565b600060098281548110610be157610be061402c565b5b90600052602060002090600602019050600b600083815260200190815260200160002060050160009054906101000a900460ff16610c54576040517f08c379a0000000000000000000000000000000000000000000000000000000008152600401610c4b906140a7565b60405180910390fd5b600b6000838152602001908152602001600020600301543414610cac576040517f08c379a0000000000000000000000000000000000000000000000000000000008152600401610ca390614113565b60405180910390fd5b6000610cb783610e82565b90508073ffffffffffffffffffffffffffffffffffffffff163373ffffffffffffffffffffffffffffffffffffffff1603610d27576040517f08c379a0000000000000000000000000000000000000000000000000000000008152600401610d1e9061417f565b60405180910390fd5b610d328133856124ef565b6000600b600085815260200190815260200160002060050160006101000a81548160ff02191690831515021790555033600b600085815260200190815260200160002060020160006101000a81548173ffffffffffffffffffffffffffffffffffffffff021916908373ffffffffffffffffffffffffffffffffffffffff16021790555060008260050160006101000a81548160ff021916908315150217905550338260020160006101000a81548173ffffffffffffffffffffffffffffffffffffffff021916908373ffffffffffffffffffffffffffffffffffffffff1602179055508073ffffffffffffffffffffffffffffffffffffffff166108fc349081150290604051600060405180830381858888f19350505050158015610e5c573d6000803e3d6000fd5b50505050565b610e7d8383836040518060200160405280600081525061131c565b505050565b600080610e8e836127e8565b9050600073ffffffffffffffffffffffffffffffffffffffff168173ffffffffffffffffffffffffffffffffffffffff1603610eff576040517f08c379a0000000000000000000000000000000000000000000000000000000008152600401610ef6906141eb565b60405180910390fd5b80915050919050565b60008073ffffffffffffffffffffffffffffffffffffffff168273ffffffffffffffffffffffffffffffffffffffff1603610f78576040517f08c379a0000000000000000000000000000000000000000000000000000000008152600401610f6f9061427d565b60405180910390fd5b600360008373ffffffffffffffffffffffffffffffffffffffff1673ffffffffffffffffffffffffffffffffffffffff168152602001908152602001600020549050919050565b610fc7612245565b610fd16000612825565b565b6000610fde82610e82565b9050919050565b6000610fef610ff4565b905090565b6000600760009054906101000a900473ffffffffffffffffffffffffffffffffffffffff16905090565b6000611029826128eb565b611068576040517f08c379a000000000000000000000000000000000000000000000000000000000815260040161105f906142e9565b60405180910390fd5b6000600b60008481526020019081526020016000206040518060c0016040529081600082015481526020016001820180546110a290613b50565b80601f01602080910402602001604051908101604052809291908181526020018280546110ce90613b50565b801561111b5780601f106110f05761010080835404028352916020019161111b565b820191906000526020600020905b8154815290600101906020018083116110fe57829003601f168201915b505050505081526020016002820160009054906101000a900473ffffffffffffffffffffffffffffffffffffffff1673ffffffffffffffffffffffffffffffffffffffff1673ffffffffffffffffffffffffffffffffffffffff1681526020016003820154815260200160048201805461119490613b50565b80601f01602080910402602001604051908101604052809291908181526020018280546111c090613b50565b801561120d5780601f106111e25761010080835404028352916020019161120d565b820191906000526020600020905b8154815290600101906020018083116111f057829003601f168201915b505050505081526020016005820160009054906101000a900460ff16151515158152505090508060600151915050919050565b60606001805461124f90613b50565b80601f016020809104026020016040519081016040528092919081815260200182805461127b90613b50565b80156112c85780601f1061129d576101008083540402835291602001916112c8565b820191906000526020600020905b8154815290600101906020018083116112ab57829003601f168201915b5050505050905090565b6112e46112dd612399565b838361292c565b5050565b6000600982815481106112fe576112fd61402c565b5b90600052602060002090600602019050828160030181905550505050565b61132d611327612399565b8361245a565b61136c576040517f08c379a00000000000000000000000000000000000000000000000000000000081526004016113639061400c565b60405180910390fd5b61137884848484612a98565b50505050565b61138781610e82565b73ffffffffffffffffffffffffffffffffffffffff16600b600083815260200190815260200160002060020160009054906101000a900473ffffffffffffffffffffffffffffffffffffffff1673ffffffffffffffffffffffffffffffffffffffff16146113f457600080fd5b600b600082815260200190815260200160002060050160009054906101000a900460ff16611457576040517f08c379a000000000000000000000000000000000000000000000000000000000815260040161144e906140a7565b60405180910390fd5b6000600b600083815260200190815260200160002060050160006101000a81548160ff02191690831515021790555060006009828154811061149c5761149b61402c565b5b9060005260206000209060060201905060008160050160006101000a81548160ff0219169083151502179055505050565b60606114d88261234e565b60006006600084815260200190815260200160002080546114f890613b50565b80601f016020809104026020016040519081016040528092919081815260200182805461152490613b50565b80156115715780601f1061154657610100808354040283529160200191611571565b820191906000526020600020905b81548152906001019060200180831161155457829003601f168201915b505050505090506000611582612af4565b905060008151036115975781925050506115da565b6000825111156115cc5780826040516020016115b4929190614345565b604051602081830303815290604052925050506115da565b6115d584612b0b565b925050505b919050565b6060600060085467ffffffffffffffff8111156115ff576115fe6132fa565b5b60405190808252806020026020018201604052801561163857816020015b6116256131c2565b81526020019060019003908161161d5790505b50905060005b6008548110156118555760006009828154811061165e5761165d61402c565b5b90600052602060002090600602019050806040518060c00160405290816000820154815260200160018201805461169490613b50565b80601f01602080910402602001604051908101604052809291908181526020018280546116c090613b50565b801561170d5780601f106116e25761010080835404028352916020019161170d565b820191906000526020600020905b8154815290600101906020018083116116f057829003601f168201915b505050505081526020016002820160009054906101000a900473ffffffffffffffffffffffffffffffffffffffff1673ffffffffffffffffffffffffffffffffffffffff1673ffffffffffffffffffffffffffffffffffffffff1681526020016003820154815260200160048201805461178690613b50565b80601f01602080910402602001604051908101604052809291908181526020018280546117b290613b50565b80156117ff5780601f106117d4576101008083540402835291602001916117ff565b820191906000526020600020905b8154815290600101906020018083116117e257829003601f168201915b505050505081526020016005820160009054906101000a900460ff1615151515815250508383815181106118365761183561402c565b5b602002602001018190525050808061184d90613e2e565b91505061163e565b506009805480602002602001604051908101604052809291908181526020016000905b82821015611a5357838290600052602060002090600602016040518060c0016040529081600082015481526020016001820180546118b590613b50565b80601f01602080910402602001604051908101604052809291908181526020018280546118e190613b50565b801561192e5780601f106119035761010080835404028352916020019161192e565b820191906000526020600020905b81548152906001019060200180831161191157829003601f168201915b505050505081526020016002820160009054906101000a900473ffffffffffffffffffffffffffffffffffffffff1673ffffffffffffffffffffffffffffffffffffffff1673ffffffffffffffffffffffffffffffffffffffff168152602001600382015481526020016004820180546119a790613b50565b80601f01602080910402602001604051908101604052809291908181526020018280546119d390613b50565b8015611a205780601f106119f557610100808354040283529160200191611a20565b820191906000526020600020905b815481529060010190602001808311611a0357829003601f168201915b505050505081526020016005820160009054906101000a900460ff16151515158152505081526020019060010190611878565b5050505091505090565b6060611a69338361245a565b611aa8576040517f08c379a0000000000000000000000000000000000000000000000000000000008152600401611a9f906143b5565b60405180910390fd5b600b600083815260200190815260200160002060050160009054906101000a900460ff1615611b0c576040517f08c379a0000000000000000000000000000000000000000000000000000000008152600401611b0390614421565b60405180910390fd5b6001600b600084815260200190815260200160002060050160006101000a81548160ff021916908315150217905550600060098381548110611b5157611b5061402c565b5b9060005260206000209060060201905060018160050160006101000a81548160ff0219169083151502179055506040518060400160405280600381526020017f4963690000000000000000000000000000000000000000000000000000000000815250915050919050565b6000600560008473ffffffffffffffffffffffffffffffffffffffff1673ffffffffffffffffffffffffffffffffffffffff16815260200190815260200160002060008373ffffffffffffffffffffffffffffffffffffffff1673ffffffffffffffffffffffffffffffffffffffff16815260200190815260200160002060009054906101000a900460ff16905092915050565b611c58612245565b600073ffffffffffffffffffffffffffffffffffffffff168173ffffffffffffffffffffffffffffffffffffffff1603611cc7576040517f08c379a0000000000000000000000000000000000000000000000000000000008152600401611cbe906144b3565b60405180910390fd5b611cd081612825565b50565b6060600060098054905067ffffffffffffffff811115611cf657611cf56132fa565b5b604051908082528060200260200182016040528015611d2f57816020015b611d1c6131c2565b815260200190600190039081611d145790505b5090506000611d3c610ff4565b905060005b600980549050811015611fcf578173ffffffffffffffffffffffffffffffffffffffff1660098281548110611d7957611d7861402c565b5b906000526020600020906006020160020160009054906101000a900473ffffffffffffffffffffffffffffffffffffffff1673ffffffffffffffffffffffffffffffffffffffff1603611fbb5760098181548110611dda57611dd961402c565b5b90600052602060002090600602016040518060c001604052908160008201548152602001600182018054611e0d90613b50565b80601f0160208091040260200160405190810160405280929190818152602001828054611e3990613b50565b8015611e865780601f10611e5b57610100808354040283529160200191611e86565b820191906000526020600020905b815481529060010190602001808311611e6957829003601f168201915b505050505081526020016002820160009054906101000a900473ffffffffffffffffffffffffffffffffffffffff1673ffffffffffffffffffffffffffffffffffffffff1673ffffffffffffffffffffffffffffffffffffffff16815260200160038201548152602001600482018054611eff90613b50565b80601f0160208091040260200160405190810160405280929190818152602001828054611f2b90613b50565b8015611f785780601f10611f4d57610100808354040283529160200191611f78565b820191906000526020600020905b815481529060010190602001808311611f5b57829003601f168201915b505050505081526020016005820160009054906101000a900460ff161515151581525050838281518110611faf57611fae61402c565b5b60200260200101819052505b600181611fc891906144d3565b9050611d41565b506009805480602002602001604051908101604052809291908181526020016000905b828210156121cd57838290600052602060002090600602016040518060c00160405290816000820154815260200160018201805461202f90613b50565b80601f016020809104026020016040519081016040528092919081815260200182805461205b90613b50565b80156120a85780601f1061207d576101008083540402835291602001916120a8565b820191906000526020600020905b81548152906001019060200180831161208b57829003601f168201915b505050505081526020016002820160009054906101000a900473ffffffffffffffffffffffffffffffffffffffff1673ffffffffffffffffffffffffffffffffffffffff1673ffffffffffffffffffffffffffffffffffffffff1681526020016003820154815260200160048201805461212190613b50565b80601f016020809104026020016040519081016040528092919081815260200182805461214d90613b50565b801561219a5780601f1061216f5761010080835404028352916020019161219a565b820191906000526020600020905b81548152906001019060200180831161217d57829003601f168201915b505050505081526020016005820160009054906101000a900460ff16151515158152505081526020019060010190611ff2565b505050509250505090565b50565b60007f01ffc9a7000000000000000000000000000000000000000000000000000000007bffffffffffffffffffffffffffffffffffffffffffffffffffffffff1916827bffffffffffffffffffffffffffffffffffffffffffffffffffffffff1916149050919050565b61224d612399565b73ffffffffffffffffffffffffffffffffffffffff1661226b610ff4565b73ffffffffffffffffffffffffffffffffffffffff16146122c1576040517f08c379a00000000000000000000000000000000000000000000000000000000081526004016122b890614553565b60405180910390fd5b565b6122dd828260405180602001604052806000815250612b73565b5050565b6122ea826128eb565b612329576040517f08c379a0000000000000000000000000000000000000000000000000000000008152600401612320906145e5565b60405180910390fd5b806006600084815260200190815260200160002090816123499190613d2d565b505050565b612357816128eb565b612396576040517f08c379a000000000000000000000000000000000000000000000000000000000815260040161238d906141eb565b60405180910390fd5b50565b600033905090565b816004600083815260200190815260200160002060006101000a81548173ffffffffffffffffffffffffffffffffffffffff021916908373ffffffffffffffffffffffffffffffffffffffff160217905550808273ffffffffffffffffffffffffffffffffffffffff1661241483610e82565b73ffffffffffffffffffffffffffffffffffffffff167f8c5be1e5ebec7d5bd14f71427d1e84f3dd0314c0f7b2291e5b200ac8c7c3b92560405160405180910390a45050565b60008061246683610e82565b90508073ffffffffffffffffffffffffffffffffffffffff168473ffffffffffffffffffffffffffffffffffffffff1614806124a857506124a78185611bbc565b5b806124e657508373ffffffffffffffffffffffffffffffffffffffff166124ce84610a0e565b73ffffffffffffffffffffffffffffffffffffffff16145b91505092915050565b8273ffffffffffffffffffffffffffffffffffffffff1661250f82610e82565b73ffffffffffffffffffffffffffffffffffffffff1614612565576040517f08c379a000000000000000000000000000000000000000000000000000000000815260040161255c90614677565b60405180910390fd5b600073ffffffffffffffffffffffffffffffffffffffff168273ffffffffffffffffffffffffffffffffffffffff16036125d4576040517f08c379a00000000000000000000000000000000000000000000000000000000081526004016125cb90614709565b60405180910390fd5b6125e18383836001612bce565b8273ffffffffffffffffffffffffffffffffffffffff1661260182610e82565b73ffffffffffffffffffffffffffffffffffffffff1614612657576040517f08c379a000000000000000000000000000000000000000000000000000000000815260040161264e90614677565b60405180910390fd5b6004600082815260200190815260200160002060006101000a81549073ffffffffffffffffffffffffffffffffffffffff02191690556001600360008573ffffffffffffffffffffffffffffffffffffffff1673ffffffffffffffffffffffffffffffffffffffff168152602001908152602001600020600082825403925050819055506001600360008473ffffffffffffffffffffffffffffffffffffffff1673ffffffffffffffffffffffffffffffffffffffff16815260200190815260200160002060008282540192505081905550816002600083815260200190815260200160002060006101000a81548173ffffffffffffffffffffffffffffffffffffffff021916908373ffffffffffffffffffffffffffffffffffffffff160217905550808273ffffffffffffffffffffffffffffffffffffffff168473ffffffffffffffffffffffffffffffffffffffff167fddf252ad1be2c89b69c2b068fc378daa952ba7f163c4a11628f55a4df523b3ef60405160405180910390a46127e38383836001612bd4565b505050565b60006002600083815260200190815260200160002060009054906101000a900473ffffffffffffffffffffffffffffffffffffffff169050919050565b6000600760009054906101000a900473ffffffffffffffffffffffffffffffffffffffff16905081600760006101000a81548173ffffffffffffffffffffffffffffffffffffffff021916908373ffffffffffffffffffffffffffffffffffffffff1602179055508173ffffffffffffffffffffffffffffffffffffffff168173ffffffffffffffffffffffffffffffffffffffff167f8be0079c531659141344cd1fd0a4f28419497f9722a3daafe3b4186f6b6457e060405160405180910390a35050565b60008073ffffffffffffffffffffffffffffffffffffffff1661290d836127e8565b73ffffffffffffffffffffffffffffffffffffffff1614159050919050565b8173ffffffffffffffffffffffffffffffffffffffff168373ffffffffffffffffffffffffffffffffffffffff160361299a576040517f08c379a000000000000000000000000000000000000000000000000000000000815260040161299190614775565b60405180910390fd5b80600560008573ffffffffffffffffffffffffffffffffffffffff1673ffffffffffffffffffffffffffffffffffffffff16815260200190815260200160002060008473ffffffffffffffffffffffffffffffffffffffff1673ffffffffffffffffffffffffffffffffffffffff16815260200190815260200160002060006101000a81548160ff0219169083151502179055508173ffffffffffffffffffffffffffffffffffffffff168373ffffffffffffffffffffffffffffffffffffffff167f17307eab39ab6107e8899845ad3d59bd9653f200f220920489ca2b5937696c3183604051612a8b91906132c4565b60405180910390a3505050565b612aa38484846124ef565b612aaf84848484612bda565b612aee576040517f08c379a0000000000000000000000000000000000000000000000000000000008152600401612ae590614807565b60405180910390fd5b50505050565b606060405180602001604052806000815250905090565b6060612b168261234e565b6000612b20612af4565b90506000815111612b405760405180602001604052806000815250612b6b565b80612b4a84612d61565b604051602001612b5b929190614345565b6040516020818303038152906040525b915050919050565b612b7d8383612e2f565b612b8a6000848484612bda565b612bc9576040517f08c379a0000000000000000000000000000000000000000000000000000000008152600401612bc090614807565b60405180910390fd5b505050565b50505050565b50505050565b6000612bfb8473ffffffffffffffffffffffffffffffffffffffff1661304c565b15612d54578373ffffffffffffffffffffffffffffffffffffffff1663150b7a02612c24612399565b8786866040518563ffffffff1660e01b8152600401612c46949392919061487c565b6020604051808303816000875af1925050508015612c8257506040513d601f19601f82011682018060405250810190612c7f91906148dd565b60015b612d04573d8060008114612cb2576040519150601f19603f3d011682016040523d82523d6000602084013e612cb7565b606091505b506000815103612cfc576040517f08c379a0000000000000000000000000000000000000000000000000000000008152600401612cf390614807565b60405180910390fd5b805181602001fd5b63150b7a0260e01b7bffffffffffffffffffffffffffffffffffffffffffffffffffffffff1916817bffffffffffffffffffffffffffffffffffffffffffffffffffffffff191614915050612d59565b600190505b949350505050565b606060006001612d708461306f565b01905060008167ffffffffffffffff811115612d8f57612d8e6132fa565b5b6040519080825280601f01601f191660200182016040528015612dc15781602001600182028036833780820191505090505b509050600082602001820190505b600115612e24578080600190039150507f3031323334353637383961626364656600000000000000000000000000000000600a86061a8153600a8581612e1857612e1761490a565b5b04945060008503612dcf575b819350505050919050565b600073ffffffffffffffffffffffffffffffffffffffff168273ffffffffffffffffffffffffffffffffffffffff1603612e9e576040517f08c379a0000000000000000000000000000000000000000000000000000000008152600401612e9590614985565b60405180910390fd5b612ea7816128eb565b15612ee7576040517f08c379a0000000000000000000000000000000000000000000000000000000008152600401612ede906149f1565b60405180910390fd5b612ef5600083836001612bce565b612efe816128eb565b15612f3e576040517f08c379a0000000000000000000000000000000000000000000000000000000008152600401612f35906149f1565b60405180910390fd5b6001600360008473ffffffffffffffffffffffffffffffffffffffff1673ffffffffffffffffffffffffffffffffffffffff16815260200190815260200160002060008282540192505081905550816002600083815260200190815260200160002060006101000a81548173ffffffffffffffffffffffffffffffffffffffff021916908373ffffffffffffffffffffffffffffffffffffffff160217905550808273ffffffffffffffffffffffffffffffffffffffff16600073ffffffffffffffffffffffffffffffffffffffff167fddf252ad1be2c89b69c2b068fc378daa952ba7f163c4a11628f55a4df523b3ef60405160405180910390a4613048600083836001612bd4565b5050565b6000808273ffffffffffffffffffffffffffffffffffffffff163b119050919050565b600080600090507a184f03e93ff9f4daa797ed6e38ed64bf6a1f01000000000000000083106130cd577a184f03e93ff9f4daa797ed6e38ed64bf6a1f01000000000000000083816130c3576130c261490a565b5b0492506040810190505b6d04ee2d6d415b85acef8100000000831061310a576d04ee2d6d415b85acef81000000008381613100576130ff61490a565b5b0492506020810190505b662386f26fc10000831061313957662386f26fc10000838161312f5761312e61490a565b5b0492506010810190505b6305f5e1008310613162576305f5e10083816131585761315761490a565b5b0492506008810190505b612710831061318757612710838161317d5761317c61490a565b5b0492506004810190505b606483106131aa57606483816131a05761319f61490a565b5b0492506002810190505b600a83106131b9576001810190505b80915050919050565b6040518060c001604052806000815260200160608152602001600073ffffffffffffffffffffffffffffffffffffffff16815260200160008152602001606081526020016000151581525090565b6000604051905090565b600080fd5b600080fd5b60007fffffffff0000000000000000000000000000000000000000000000000000000082169050919050565b61325981613224565b811461326457600080fd5b50565b60008135905061327681613250565b92915050565b6000602082840312156132925761329161321a565b5b60006132a084828501613267565b91505092915050565b60008115159050919050565b6132be816132a9565b82525050565b60006020820190506132d960008301846132b5565b92915050565b600080fd5b600080fd5b6000601f19601f8301169050919050565b7f4e487b7100000000000000000000000000000000000000000000000000000000600052604160045260246000fd5b613332826132e9565b810181811067ffffffffffffffff82111715613351576133506132fa565b5b80604052505050565b6000613364613210565b90506133708282613329565b919050565b600067ffffffffffffffff8211156133905761338f6132fa565b5b613399826132e9565b9050602081019050919050565b82818337600083830152505050565b60006133c86133c384613375565b61335a565b9050828152602081018484840111156133e4576133e36132e4565b5b6133ef8482856133a6565b509392505050565b600082601f83011261340c5761340b6132df565b5b813561341c8482602086016133b5565b91505092915050565b6000819050919050565b61343881613425565b811461344357600080fd5b50565b6000813590506134558161342f565b92915050565b6000806000606084860312156134745761347361321a565b5b600084013567ffffffffffffffff8111156134925761349161321f565b5b61349e868287016133f7565b93505060206134af86828701613446565b925050604084013567ffffffffffffffff8111156134d0576134cf61321f565b5b6134dc868287016133f7565b9150509250925092565b600081519050919050565b600082825260208201905092915050565b60005b83811015613520578082015181840152602081019050613505565b60008484015250505050565b6000613537826134e6565b61354181856134f1565b9350613551818560208601613502565b61355a816132e9565b840191505092915050565b6000602082019050818103600083015261357f818461352c565b905092915050565b60006020828403121561359d5761359c61321a565b5b60006135ab84828501613446565b91505092915050565b600073ffffffffffffffffffffffffffffffffffffffff82169050919050565b60006135df826135b4565b9050919050565b6135ef816135d4565b82525050565b600060208201905061360a60008301846135e6565b92915050565b613619816135d4565b811461362457600080fd5b50565b60008135905061363681613610565b92915050565b600080604083850312156136535761365261321a565b5b600061366185828601613627565b925050602061367285828601613446565b9150509250929050565b6000806000606084860312156136955761369461321a565b5b60006136a386828701613627565b93505060206136b486828701613627565b92505060406136c586828701613446565b9150509250925092565b6000602082840312156136e5576136e461321a565b5b60006136f384828501613627565b91505092915050565b61370581613425565b82525050565b600060208201905061372060008301846136fc565b92915050565b61372f816132a9565b811461373a57600080fd5b50565b60008135905061374c81613726565b92915050565b600080604083850312156137695761376861321a565b5b600061377785828601613627565b92505060206137888582860161373d565b9150509250929050565b600080604083850312156137a9576137a861321a565b5b60006137b785828601613446565b92505060206137c885828601613446565b9150509250929050565b600067ffffffffffffffff8211156137ed576137ec6132fa565b5b6137f6826132e9565b9050602081019050919050565b6000613816613811846137d2565b61335a565b905082815260208101848484011115613832576138316132e4565b5b61383d8482856133a6565b509392505050565b600082601f83011261385a576138596132df565b5b813561386a848260208601613803565b91505092915050565b6000806000806080858703121561388d5761388c61321a565b5b600061389b87828801613627565b94505060206138ac87828801613627565b93505060406138bd87828801613446565b925050606085013567ffffffffffffffff8111156138de576138dd61321f565b5b6138ea87828801613845565b91505092959194509250565b600081519050919050565b600082825260208201905092915050565b6000819050602082019050919050565b61392b81613425565b82525050565b600082825260208201905092915050565b600061394d826134e6565b6139578185613931565b9350613967818560208601613502565b613970816132e9565b840191505092915050565b613984816135d4565b82525050565b613993816132a9565b82525050565b600060c0830160008301516139b16000860182613922565b50602083015184820360208601526139c98282613942565b91505060408301516139de604086018261397b565b5060608301516139f16060860182613922565b5060808301518482036080860152613a098282613942565b91505060a0830151613a1e60a086018261398a565b508091505092915050565b6000613a358383613999565b905092915050565b6000602082019050919050565b6000613a55826138f6565b613a5f8185613901565b935083602082028501613a7185613912565b8060005b85811015613aad5784840389528151613a8e8582613a29565b9450613a9983613a3d565b925060208a01995050600181019050613a75565b50829750879550505050505092915050565b60006020820190508181036000830152613ad98184613a4a565b905092915050565b60008060408385031215613af857613af761321a565b5b6000613b0685828601613627565b9250506020613b1785828601613627565b9150509250929050565b7f4e487b7100000000000000000000000000000000000000000000000000000000600052602260045260246000fd5b60006002820490506001821680613b6857607f821691505b602082108103613b7b57613b7a613b21565b5b50919050565b60008190508160005260206000209050919050565b60006020601f8301049050919050565b600082821b905092915050565b600060088302613be37fffffffffffffffffffffffffffffffffffffffffffffffffffffffffffffffff82613ba6565b613bed8683613ba6565b95508019841693508086168417925050509392505050565b6000819050919050565b6000613c2a613c25613c2084613425565b613c05565b613425565b9050919050565b6000819050919050565b613c4483613c0f565b613c58613c5082613c31565b848454613bb3565b825550505050565b600090565b613c6d613c60565b613c78818484613c3b565b505050565b5b81811015613c9c57613c91600082613c65565b600181019050613c7e565b5050565b601f821115613ce157613cb281613b81565b613cbb84613b96565b81016020851015613cca578190505b613cde613cd685613b96565b830182613c7d565b50505b505050565b600082821c905092915050565b6000613d0460001984600802613ce6565b1980831691505092915050565b6000613d1d8383613cf3565b9150826002028217905092915050565b613d36826134e6565b67ffffffffffffffff811115613d4f57613d4e6132fa565b5b613d598254613b50565b613d64828285613ca0565b600060209050601f831160018114613d975760008415613d85578287015190505b613d8f8582613d11565b865550613df7565b601f198416613da586613b81565b60005b82811015613dcd57848901518255600182019150602085019450602081019050613da8565b86831015613dea5784890151613de6601f891682613cf3565b8355505b6001600288020188555050505b505050505050565b7f4e487b7100000000000000000000000000000000000000000000000000000000600052601160045260246000fd5b6000613e3982613425565b91507fffffffffffffffffffffffffffffffffffffffffffffffffffffffffffffffff8203613e6b57613e6a613dff565b5b600182019050919050565b7f4552433732313a20617070726f76616c20746f2063757272656e74206f776e6560008201527f7200000000000000000000000000000000000000000000000000000000000000602082015250565b6000613ed26021836134f1565b9150613edd82613e76565b604082019050919050565b60006020820190508181036000830152613f0181613ec5565b9050919050565b7f4552433732313a20617070726f76652063616c6c6572206973206e6f7420746f60008201527f6b656e206f776e6572206f7220617070726f76656420666f7220616c6c000000602082015250565b6000613f64603d836134f1565b9150613f6f82613f08565b604082019050919050565b60006020820190508181036000830152613f9381613f57565b9050919050565b7f4552433732313a2063616c6c6572206973206e6f7420746f6b656e206f776e6560008201527f72206f7220617070726f76656400000000000000000000000000000000000000602082015250565b6000613ff6602d836134f1565b915061400182613f9a565b604082019050919050565b6000602082019050818103600083015261402581613fe9565b9050919050565b7f4e487b7100000000000000000000000000000000000000000000000000000000600052603260045260246000fd5b7f4e4654206973206e6f7420666f722073616c6500000000000000000000000000600082015250565b60006140916013836134f1565b915061409c8261405b565b602082019050919050565b600060208201905081810360008301526140c081614084565b9050919050565b7f496e636f7272656374207061796d656e7420616d6f756e740000000000000000600082015250565b60006140fd6018836134f1565b9150614108826140c7565b602082019050919050565b6000602082019050818103600083015261412c816140f0565b9050919050565b7f4f776e65722063616e27742073656c6c204e465420666f722068696d73656c66600082015250565b60006141696020836134f1565b915061417482614133565b602082019050919050565b600060208201905081810360008301526141988161415c565b9050919050565b7f4552433732313a20696e76616c696420746f6b656e2049440000000000000000600082015250565b60006141d56018836134f1565b91506141e08261419f565b602082019050919050565b60006020820190508181036000830152614204816141c8565b9050919050565b7f4552433732313a2061646472657373207a65726f206973206e6f74206120766160008201527f6c6964206f776e65720000000000000000000000000000000000000000000000602082015250565b60006142676029836134f1565b91506142728261420b565b604082019050919050565b600060208201905081810360008301526142968161425a565b9050919050565b7f496e76616c696420746f6b656e20494400000000000000000000000000000000600082015250565b60006142d36010836134f1565b91506142de8261429d565b602082019050919050565b60006020820190508181036000830152614302816142c6565b9050919050565b600081905092915050565b600061431f826134e6565b6143298185614309565b9350614339818560208601613502565b80840191505092915050565b60006143518285614314565b915061435d8284614314565b91508190509392505050565b7f43616c6c6572206973206e6f74206f776e6572206e6f7220617070726f766564600082015250565b600061439f6020836134f1565b91506143aa82614369565b602082019050919050565b600060208201905081810360008301526143ce81614392565b9050919050565b7f4e465420697320616c726561647920666f722073616c65000000000000000000600082015250565b600061440b6017836134f1565b9150614416826143d5565b602082019050919050565b6000602082019050818103600083015261443a816143fe565b9050919050565b7f4f776e61626c653a206e6577206f776e657220697320746865207a65726f206160008201527f6464726573730000000000000000000000000000000000000000000000000000602082015250565b600061449d6026836134f1565b91506144a882614441565b604082019050919050565b600060208201905081810360008301526144cc81614490565b9050919050565b60006144de82613425565b91506144e983613425565b925082820190508082111561450157614500613dff565b5b92915050565b7f4f776e61626c653a2063616c6c6572206973206e6f7420746865206f776e6572600082015250565b600061453d6020836134f1565b915061454882614507565b602082019050919050565b6000602082019050818103600083015261456c81614530565b9050919050565b7f45524337323155524953746f726167653a2055524920736574206f66206e6f6e60008201527f6578697374656e7420746f6b656e000000000000000000000000000000000000602082015250565b60006145cf602e836134f1565b91506145da82614573565b604082019050919050565b600060208201905081810360008301526145fe816145c2565b9050919050565b7f4552433732313a207472616e736665722066726f6d20696e636f72726563742060008201527f6f776e6572000000000000000000000000000000000000000000000000000000602082015250565b60006146616025836134f1565b915061466c82614605565b604082019050919050565b6000602082019050818103600083015261469081614654565b9050919050565b7f4552433732313a207472616e7366657220746f20746865207a65726f2061646460008201527f7265737300000000000000000000000000000000000000000000000000000000602082015250565b60006146f36024836134f1565b91506146fe82614697565b604082019050919050565b60006020820190508181036000830152614722816146e6565b9050919050565b7f4552433732313a20617070726f766520746f2063616c6c657200000000000000600082015250565b600061475f6019836134f1565b915061476a82614729565b602082019050919050565b6000602082019050818103600083015261478e81614752565b9050919050565b7f4552433732313a207472616e7366657220746f206e6f6e20455243373231526560008201527f63656976657220696d706c656d656e7465720000000000000000000000000000602082015250565b60006147f16032836134f1565b91506147fc82614795565b604082019050919050565b60006020820190508181036000830152614820816147e4565b9050919050565b600081519050919050565b600082825260208201905092915050565b600061484e82614827565b6148588185614832565b9350614868818560208601613502565b614871816132e9565b840191505092915050565b600060808201905061489160008301876135e6565b61489e60208301866135e6565b6148ab60408301856136fc565b81810360608301526148bd8184614843565b905095945050505050565b6000815190506148d781613250565b92915050565b6000602082840312156148f3576148f261321a565b5b6000614901848285016148c8565b91505092915050565b7f4e487b7100000000000000000000000000000000000000000000000000000000600052601260045260246000fd5b7f4552433732313a206d696e7420746f20746865207a65726f2061646472657373600082015250565b600061496f6020836134f1565b915061497a82614939565b602082019050919050565b6000602082019050818103600083015261499e81614962565b9050919050565b7f4552433732313a20746f6b656e20616c7265616479206d696e74656400000000600082015250565b60006149db601c836134f1565b91506149e6826149a5565b602082019050919050565b60006020820190508181036000830152614a0a816149ce565b905091905056fea2646970667358221220a08cf9240e92bd75fa79626c81b30dbd33747bd1b1f8a53ccafd3a8dd0c78cc364736f6c63430008120033",
  "linkReferences": {},
  "deployedLinkReferences": {}
}