{
  "_format": "hh-sol-artifact-1",
  "contractName": "NFTWheels",
  "sourceName": "contracts/NFTWheels.sol",
  "abi": [
    {
      "inputs": [
        {
          "internalType": "string",
          "name": "name_",
          "type": "string"
        },
        {
          "internalType": "string",
          "name": "symbol_",
          "type": "string"
        }
      ],
      "stateMutability": "nonpayable",
      "type": "constructor"
    },
    {
      "anonymous": false,
      "inputs": [
        {
          "indexed": true,
          "internalType": "address",
          "name": "owner",
          "type": "address"
        },
        {
          "indexed": true,
          "internalType": "address",
          "name": "approved",
          "type": "address"
        },
        {
          "indexed": true,
          "internalType": "uint256",
          "name": "tokenId",
          "type": "uint256"
        }
      ],
      "name": "Approval",
      "type": "event"
    },
    {
      "anonymous": false,
      "inputs": [
        {
          "indexed": true,
          "internalType": "address",
          "name": "owner",
          "type": "address"
        },
        {
          "indexed": true,
          "internalType": "address",
          "name": "operator",
          "type": "address"
        },
        {
          "indexed": false,
          "internalType": "bool",
          "name": "approved",
          "type": "bool"
        }
      ],
      "name": "ApprovalForAll",
      "type": "event"
    },
    {
      "anonymous": false,
      "inputs": [
        {
          "indexed": true,
          "internalType": "address",
          "name": "previousOwner",
          "type": "address"
        },
        {
          "indexed": true,
          "internalType": "address",
          "name": "newOwner",
          "type": "address"
        }
      ],
      "name": "OwnershipTransferred",
      "type": "event"
    },
    {
      "anonymous": false,
      "inputs": [
        {
          "indexed": true,
          "internalType": "address",
          "name": "from",
          "type": "address"
        },
        {
          "indexed": true,
          "internalType": "address",
          "name": "to",
          "type": "address"
        },
        {
          "indexed": true,
          "internalType": "uint256",
          "name": "tokenId",
          "type": "uint256"
        }
      ],
      "name": "Transfer",
      "type": "event"
    },
    {
      "inputs": [
        {
          "internalType": "uint256",
          "name": "_tokenId",
          "type": "uint256"
        }
      ],
      "name": "_buy",
      "outputs": [],
      "stateMutability": "payable",
      "type": "function"
    },
    {
      "inputs": [
        {
          "internalType": "uint256",
          "name": "_tokenId",
          "type": "uint256"
        }
      ],
      "name": "_sell",
      "outputs": [
        {
          "internalType": "string",
          "name": "",
          "type": "string"
        }
      ],
      "stateMutability": "nonpayable",
      "type": "function"
    },
    {
      "inputs": [
        {
          "internalType": "address",
          "name": "to",
          "type": "address"
        },
        {
          "internalType": "uint256",
          "name": "tokenId",
          "type": "uint256"
        }
      ],
      "name": "approve",
      "outputs": [],
      "stateMutability": "nonpayable",
      "type": "function"
    },
    {
      "inputs": [
        {
          "internalType": "address",
          "name": "owner",
          "type": "address"
        }
      ],
      "name": "balanceOf",
      "outputs": [
        {
          "internalType": "uint256",
          "name": "",
          "type": "uint256"
        }
      ],
      "stateMutability": "view",
      "type": "function"
    },
    {
      "inputs": [],
      "name": "getAllNFTs",
      "outputs": [
        {
          "components": [
            {
              "internalType": "uint256",
              "name": "id",
              "type": "uint256"
            },
            {
              "internalType": "string",
              "name": "marque",
              "type": "string"
            },
            {
              "internalType": "string",
              "name": "modele",
              "type": "string"
            },
            {
              "internalType": "address",
              "name": "owner",
              "type": "address"
            },
            {
              "internalType": "uint256",
              "name": "anne",
              "type": "uint256"
            },
            {
              "internalType": "uint256",
              "name": "puissance",
              "type": "uint256"
            },
            {
              "internalType": "uint256",
              "name": "vitesseMax",
              "type": "uint256"
            },
            {
              "internalType": "uint256",
              "name": "price",
              "type": "uint256"
            },
            {
              "internalType": "string",
              "name": "image",
              "type": "string"
            },
            {
              "internalType": "bool",
              "name": "isForSale",
              "type": "bool"
            }
          ],
          "internalType": "struct NFTWheels.Car[]",
          "name": "",
          "type": "tuple[]"
        }
      ],
      "stateMutability": "view",
      "type": "function"
    },
    {
      "inputs": [],
      "name": "getAllNFTsAvailable",
      "outputs": [
        {
          "components": [
            {
              "internalType": "uint256",
              "name": "id",
              "type": "uint256"
            },
            {
              "internalType": "string",
              "name": "marque",
              "type": "string"
            },
            {
              "internalType": "string",
              "name": "modele",
              "type": "string"
            },
            {
              "internalType": "address",
              "name": "owner",
              "type": "address"
            },
            {
              "internalType": "uint256",
              "name": "anne",
              "type": "uint256"
            },
            {
              "internalType": "uint256",
              "name": "puissance",
              "type": "uint256"
            },
            {
              "internalType": "uint256",
              "name": "vitesseMax",
              "type": "uint256"
            },
            {
              "internalType": "uint256",
              "name": "price",
              "type": "uint256"
            },
            {
              "internalType": "string",
              "name": "image",
              "type": "string"
            },
            {
              "internalType": "bool",
              "name": "isForSale",
              "type": "bool"
            }
          ],
          "internalType": "struct NFTWheels.Car[]",
          "name": "",
          "type": "tuple[]"
        }
      ],
      "stateMutability": "view",
      "type": "function"
    },
    {
      "inputs": [
        {
          "internalType": "uint256",
          "name": "tokenId",
          "type": "uint256"
        }
      ],
      "name": "getApproved",
      "outputs": [
        {
          "internalType": "address",
          "name": "",
          "type": "address"
        }
      ],
      "stateMutability": "view",
      "type": "function"
    },
    {
      "inputs": [
        {
          "internalType": "uint256",
          "name": "_tokenId",
          "type": "uint256"
        }
      ],
      "name": "getNFTPrice",
      "outputs": [
        {
          "internalType": "uint256",
          "name": "",
          "type": "uint256"
        }
      ],
      "stateMutability": "view",
      "type": "function"
    },
    {
      "inputs": [],
      "name": "getOwner",
      "outputs": [
        {
          "internalType": "address",
          "name": "",
          "type": "address"
        }
      ],
      "stateMutability": "view",
      "type": "function"
    },
    {
      "inputs": [
        {
          "internalType": "uint256",
          "name": "_tokenId",
          "type": "uint256"
        }
      ],
      "name": "getOwnerOf",
      "outputs": [
        {
          "internalType": "address",
          "name": "",
          "type": "address"
        }
      ],
      "stateMutability": "view",
      "type": "function"
    },
    {
      "inputs": [
        {
          "internalType": "address",
          "name": "owner",
          "type": "address"
        },
        {
          "internalType": "address",
          "name": "operator",
          "type": "address"
        }
      ],
      "name": "isApprovedForAll",
      "outputs": [
        {
          "internalType": "bool",
          "name": "",
          "type": "bool"
        }
      ],
      "stateMutability": "view",
      "type": "function"
    },
    {
      "inputs": [
        {
          "internalType": "string",
          "name": "_marque",
          "type": "string"
        },
        {
          "internalType": "string",
          "name": "_modele",
          "type": "string"
        },
        {
          "internalType": "uint256",
          "name": "_anne",
          "type": "uint256"
        },
        {
          "internalType": "uint256",
          "name": "_puissance",
          "type": "uint256"
        },
        {
          "internalType": "uint256",
          "name": "_vitesseMax",
          "type": "uint256"
        },
        {
          "internalType": "string",
          "name": "_img",
          "type": "string"
        }
      ],
      "name": "mint",
      "outputs": [],
      "stateMutability": "nonpayable",
      "type": "function"
    },
    {
      "inputs": [],
      "name": "name",
      "outputs": [
        {
          "internalType": "string",
          "name": "",
          "type": "string"
        }
      ],
      "stateMutability": "view",
      "type": "function"
    },
    {
      "inputs": [],
      "name": "owner",
      "outputs": [
        {
          "internalType": "address",
          "name": "",
          "type": "address"
        }
      ],
      "stateMutability": "view",
      "type": "function"
    },
    {
      "inputs": [
        {
          "internalType": "uint256",
          "name": "tokenId",
          "type": "uint256"
        }
      ],
      "name": "ownerOf",
      "outputs": [
        {
          "internalType": "address",
          "name": "",
          "type": "address"
        }
      ],
      "stateMutability": "view",
      "type": "function"
    },
    {
      "inputs": [
        {
          "internalType": "uint256",
          "name": "_tokenId",
          "type": "uint256"
        }
      ],
      "name": "removeFromSell",
      "outputs": [],
      "stateMutability": "nonpayable",
      "type": "function"
    },
    {
      "inputs": [],
      "name": "renounceOwnership",
      "outputs": [],
      "stateMutability": "nonpayable",
      "type": "function"
    },
    {
      "inputs": [
        {
          "internalType": "address",
          "name": "from",
          "type": "address"
        },
        {
          "internalType": "address",
          "name": "to",
          "type": "address"
        },
        {
          "internalType": "uint256",
          "name": "tokenId",
          "type": "uint256"
        }
      ],
      "name": "safeTransferFrom",
      "outputs": [],
      "stateMutability": "nonpayable",
      "type": "function"
    },
    {
      "inputs": [
        {
          "internalType": "address",
          "name": "from",
          "type": "address"
        },
        {
          "internalType": "address",
          "name": "to",
          "type": "address"
        },
        {
          "internalType": "uint256",
          "name": "tokenId",
          "type": "uint256"
        },
        {
          "internalType": "bytes",
          "name": "data",
          "type": "bytes"
        }
      ],
      "name": "safeTransferFrom",
      "outputs": [],
      "stateMutability": "nonpayable",
      "type": "function"
    },
    {
      "inputs": [
        {
          "internalType": "address",
          "name": "operator",
          "type": "address"
        },
        {
          "internalType": "bool",
          "name": "approved",
          "type": "bool"
        }
      ],
      "name": "setApprovalForAll",
      "outputs": [],
      "stateMutability": "nonpayable",
      "type": "function"
    },
    {
      "inputs": [
        {
          "internalType": "uint256",
          "name": "_newPrice",
          "type": "uint256"
        }
      ],
      "name": "setDefaultPrice",
      "outputs": [
        {
          "internalType": "uint256",
          "name": "",
          "type": "uint256"
        }
      ],
      "stateMutability": "nonpayable",
      "type": "function"
    },
    {
      "inputs": [
        {
          "internalType": "bytes4",
          "name": "interfaceId",
          "type": "bytes4"
        }
      ],
      "name": "supportsInterface",
      "outputs": [
        {
          "internalType": "bool",
          "name": "",
          "type": "bool"
        }
      ],
      "stateMutability": "view",
      "type": "function"
    },
    {
      "inputs": [],
      "name": "symbol",
      "outputs": [
        {
          "internalType": "string",
          "name": "",
          "type": "string"
        }
      ],
      "stateMutability": "view",
      "type": "function"
    },
    {
      "inputs": [
        {
          "internalType": "uint256",
          "name": "tokenId",
          "type": "uint256"
        }
      ],
      "name": "tokenURI",
      "outputs": [
        {
          "internalType": "string",
          "name": "",
          "type": "string"
        }
      ],
      "stateMutability": "view",
      "type": "function"
    },
    {
      "inputs": [
        {
          "internalType": "address",
          "name": "from",
          "type": "address"
        },
        {
          "internalType": "address",
          "name": "to",
          "type": "address"
        },
        {
          "internalType": "uint256",
          "name": "tokenId",
          "type": "uint256"
        }
      ],
      "name": "transferFrom",
      "outputs": [],
      "stateMutability": "nonpayable",
      "type": "function"
    },
    {
      "inputs": [
        {
          "internalType": "address",
          "name": "newOwner",
          "type": "address"
        }
      ],
      "name": "transferOwnership",
      "outputs": [],
      "stateMutability": "nonpayable",
      "type": "function"
    }
  ],
  "bytecode": "0x60806040526000600755670de0b6b3a76400006008553480156200002257600080fd5b5060405162004d6a38038062004d6a8339818101604052810190620000489190620002f9565b818181600090816200005b9190620005c9565b5080600190816200006d9190620005c9565b50505062000090620000846200009860201b60201c565b620000a060201b60201c565b5050620006b0565b600033905090565b6000600660009054906101000a900473ffffffffffffffffffffffffffffffffffffffff16905081600660006101000a81548173ffffffffffffffffffffffffffffffffffffffff021916908373ffffffffffffffffffffffffffffffffffffffff1602179055508173ffffffffffffffffffffffffffffffffffffffff168173ffffffffffffffffffffffffffffffffffffffff167f8be0079c531659141344cd1fd0a4f28419497f9722a3daafe3b4186f6b6457e060405160405180910390a35050565b6000604051905090565b600080fd5b600080fd5b600080fd5b600080fd5b6000601f19601f8301169050919050565b7f4e487b7100000000000000000000000000000000000000000000000000000000600052604160045260246000fd5b620001cf8262000184565b810181811067ffffffffffffffff82111715620001f157620001f062000195565b5b80604052505050565b60006200020662000166565b9050620002148282620001c4565b919050565b600067ffffffffffffffff82111562000237576200023662000195565b5b620002428262000184565b9050602081019050919050565b60005b838110156200026f57808201518184015260208101905062000252565b60008484015250505050565b6000620002926200028c8462000219565b620001fa565b905082815260208101848484011115620002b157620002b06200017f565b5b620002be8482856200024f565b509392505050565b600082601f830112620002de57620002dd6200017a565b5b8151620002f08482602086016200027b565b91505092915050565b6000806040838503121562000313576200031262000170565b5b600083015167ffffffffffffffff81111562000334576200033362000175565b5b6200034285828601620002c6565b925050602083015167ffffffffffffffff81111562000366576200036562000175565b5b6200037485828601620002c6565b9150509250929050565b600081519050919050565b7f4e487b7100000000000000000000000000000000000000000000000000000000600052602260045260246000fd5b60006002820490506001821680620003d157607f821691505b602082108103620003e757620003e662000389565b5b50919050565b60008190508160005260206000209050919050565b60006020601f8301049050919050565b600082821b905092915050565b600060088302620004517fffffffffffffffffffffffffffffffffffffffffffffffffffffffffffffffff8262000412565b6200045d868362000412565b95508019841693508086168417925050509392505050565b6000819050919050565b6000819050919050565b6000620004aa620004a46200049e8462000475565b6200047f565b62000475565b9050919050565b6000819050919050565b620004c68362000489565b620004de620004d582620004b1565b8484546200041f565b825550505050565b600090565b620004f5620004e6565b62000502818484620004bb565b505050565b5b818110156200052a576200051e600082620004eb565b60018101905062000508565b5050565b601f82111562000579576200054381620003ed565b6200054e8462000402565b810160208510156200055e578190505b620005766200056d8562000402565b83018262000507565b50505b505050565b600082821c905092915050565b60006200059e600019846008026200057e565b1980831691505092915050565b6000620005b983836200058b565b9150826002028217905092915050565b620005d4826200037e565b67ffffffffffffffff811115620005f057620005ef62000195565b5b620005fc8254620003b8565b620006098282856200052e565b600060209050601f8311600181146200064157600084156200062c578287015190505b620006388582620005ab565b865550620006a8565b601f1984166200065186620003ed565b60005b828110156200067b5784890151825560018201915060208501945060208101905062000654565b868310156200069b578489015162000697601f8916826200058b565b8355505b6001600288020188555050505b505050505050565b6146aa80620006c06000396000f3fe6080604052600436106101815760003560e01c80638da5cb5b116100d1578063c395d9cc1161008a578063e5d5876d11610064578063e5d5876d14610597578063e985e9c5146105d4578063f2fde38b14610611578063f92ba4291461063a57610181565b8063c395d9cc14610506578063c87b56dd1461052f578063e0391b091461056c57610181565b80638da5cb5b146103f8578063929761791461042357806395d89b4114610460578063a22cb4651461048b578063b88d4fde146104b4578063bf57fafe146104dd57610181565b806342842e0e1161013e57806370a082311161011857806370a082311461033c578063715018a6146103795780638363871014610390578063893d20e8146103cd57610181565b806342842e0e146102995780636352211e146102c25780636d3c7ec5146102ff57610181565b806301ffc9a71461018657806306fdde03146101c3578063081812fc146101ee578063095ea7b31461022b57806323b872dd14610254578063282303b51461027d575b600080fd5b34801561019257600080fd5b506101ad60048036038101906101a89190612f03565b610665565b6040516101ba9190612f4b565b60405180910390f35b3480156101cf57600080fd5b506101d8610747565b6040516101e59190612ff6565b60405180910390f35b3480156101fa57600080fd5b506102156004803603810190610210919061304e565b6107d9565b60405161022291906130bc565b60405180910390f35b34801561023757600080fd5b50610252600480360381019061024d9190613103565b61081f565b005b34801561026057600080fd5b5061027b60048036038101906102769190613143565b610936565b005b6102976004803603810190610292919061304e565b610996565b005b3480156102a557600080fd5b506102c060048036038101906102bb9190613143565b610c2d565b005b3480156102ce57600080fd5b506102e960048036038101906102e4919061304e565b610c4d565b6040516102f691906130bc565b60405180910390f35b34801561030b57600080fd5b506103266004803603810190610321919061304e565b610cd3565b60405161033391906131a5565b60405180910390f35b34801561034857600080fd5b50610363600480360381019061035e91906131c0565b610cee565b60405161037091906131a5565b60405180910390f35b34801561038557600080fd5b5061038e610da5565b005b34801561039c57600080fd5b506103b760048036038101906103b2919061304e565b610db9565b6040516103c491906130bc565b60405180910390f35b3480156103d957600080fd5b506103e2610dcb565b6040516103ef91906130bc565b60405180910390f35b34801561040457600080fd5b5061040d610dda565b60405161041a91906130bc565b60405180910390f35b34801561042f57600080fd5b5061044a6004803603810190610445919061304e565b610e04565b60405161045791906131a5565b60405180910390f35b34801561046c57600080fd5b506104756110d7565b6040516104829190612ff6565b60405180910390f35b34801561049757600080fd5b506104b260048036038101906104ad9190613219565b611169565b005b3480156104c057600080fd5b506104db60048036038101906104d6919061338e565b61117f565b005b3480156104e957600080fd5b5061050460048036038101906104ff91906134b2565b6111e1565b005b34801561051257600080fd5b5061052d6004803603810190610528919061304e565b61147e565b005b34801561053b57600080fd5b506105566004803603810190610551919061304e565b6115cd565b6040516105639190612ff6565b60405180910390f35b34801561057857600080fd5b50610581611635565b60405161058e91906137b4565b60405180910390f35b3480156105a357600080fd5b506105be60048036038101906105b9919061304e565b6118ee565b6040516105cb9190612ff6565b60405180910390f35b3480156105e057600080fd5b506105fb60048036038101906105f691906137d6565b611a4d565b6040516106089190612f4b565b60405180910390f35b34801561061d57600080fd5b50610638600480360381019061063391906131c0565b611ae1565b005b34801561064657600080fd5b5061064f611b64565b60405161065c91906137b4565b60405180910390f35b60007f80ac58cd000000000000000000000000000000000000000000000000000000007bffffffffffffffffffffffffffffffffffffffffffffffffffffffff1916827bffffffffffffffffffffffffffffffffffffffffffffffffffffffff1916148061073057507f5b5e139f000000000000000000000000000000000000000000000000000000007bffffffffffffffffffffffffffffffffffffffffffffffffffffffff1916827bffffffffffffffffffffffffffffffffffffffffffffffffffffffff1916145b80610740575061073f82611f1a565b5b9050919050565b60606000805461075690613845565b80601f016020809104026020016040519081016040528092919081815260200182805461078290613845565b80156107cf5780601f106107a4576101008083540402835291602001916107cf565b820191906000526020600020905b8154815290600101906020018083116107b257829003601f168201915b5050505050905090565b60006107e482611f84565b6004600083815260200190815260200160002060009054906101000a900473ffffffffffffffffffffffffffffffffffffffff169050919050565b600061082a82610c4d565b90508073ffffffffffffffffffffffffffffffffffffffff168373ffffffffffffffffffffffffffffffffffffffff160361089a576040517f08c379a0000000000000000000000000000000000000000000000000000000008152600401610891906138e8565b60405180910390fd5b8073ffffffffffffffffffffffffffffffffffffffff166108b9611fcf565b73ffffffffffffffffffffffffffffffffffffffff1614806108e857506108e7816108e2611fcf565b611a4d565b5b610927576040517f08c379a000000000000000000000000000000000000000000000000000000000815260040161091e9061397a565b60405180910390fd5b6109318383611fd7565b505050565b610947610941611fcf565b82612090565b610986576040517f08c379a000000000000000000000000000000000000000000000000000000000815260040161097d90613a0c565b60405180910390fd5b610991838383612125565b505050565b6000600982815481106109ac576109ab613a2c565b5b90600052602060002090600a02019050600a600083815260200190815260200160002060090160009054906101000a900460ff16610a1f576040517f08c379a0000000000000000000000000000000000000000000000000000000008152600401610a1690613aa7565b60405180910390fd5b600a6000838152602001908152602001600020600701543414610a77576040517f08c379a0000000000000000000000000000000000000000000000000000000008152600401610a6e90613b13565b60405180910390fd5b6000610a8283610c4d565b90508073ffffffffffffffffffffffffffffffffffffffff163373ffffffffffffffffffffffffffffffffffffffff1603610af2576040517f08c379a0000000000000000000000000000000000000000000000000000000008152600401610ae990613b7f565b60405180910390fd5b610afd813385612125565b6000600a600085815260200190815260200160002060090160006101000a81548160ff02191690831515021790555033600a600085815260200190815260200160002060030160006101000a81548173ffffffffffffffffffffffffffffffffffffffff021916908373ffffffffffffffffffffffffffffffffffffffff16021790555060008260090160006101000a81548160ff021916908315150217905550338260030160006101000a81548173ffffffffffffffffffffffffffffffffffffffff021916908373ffffffffffffffffffffffffffffffffffffffff1602179055508073ffffffffffffffffffffffffffffffffffffffff166108fc349081150290604051600060405180830381858888f19350505050158015610c27573d6000803e3d6000fd5b50505050565b610c488383836040518060200160405280600081525061117f565b505050565b600080610c598361241e565b9050600073ffffffffffffffffffffffffffffffffffffffff168173ffffffffffffffffffffffffffffffffffffffff1603610cca576040517f08c379a0000000000000000000000000000000000000000000000000000000008152600401610cc190613beb565b60405180910390fd5b80915050919050565b6000610cdd61245b565b816008819055506008549050919050565b60008073ffffffffffffffffffffffffffffffffffffffff168273ffffffffffffffffffffffffffffffffffffffff1603610d5e576040517f08c379a0000000000000000000000000000000000000000000000000000000008152600401610d5590613c7d565b60405180910390fd5b600360008373ffffffffffffffffffffffffffffffffffffffff1673ffffffffffffffffffffffffffffffffffffffff168152602001908152602001600020549050919050565b610dad61245b565b610db760006124d9565b565b6000610dc482610c4d565b9050919050565b6000610dd5610dda565b905090565b6000600660009054906101000a900473ffffffffffffffffffffffffffffffffffffffff16905090565b6000610e0f8261259f565b610e4e576040517f08c379a0000000000000000000000000000000000000000000000000000000008152600401610e4590613ce9565b60405180910390fd5b6000600a60008481526020019081526020016000206040518061014001604052908160008201548152602001600182018054610e8990613845565b80601f0160208091040260200160405190810160405280929190818152602001828054610eb590613845565b8015610f025780601f10610ed757610100808354040283529160200191610f02565b820191906000526020600020905b815481529060010190602001808311610ee557829003601f168201915b50505050508152602001600282018054610f1b90613845565b80601f0160208091040260200160405190810160405280929190818152602001828054610f4790613845565b8015610f945780601f10610f6957610100808354040283529160200191610f94565b820191906000526020600020905b815481529060010190602001808311610f7757829003601f168201915b505050505081526020016003820160009054906101000a900473ffffffffffffffffffffffffffffffffffffffff1673ffffffffffffffffffffffffffffffffffffffff1673ffffffffffffffffffffffffffffffffffffffff1681526020016004820154815260200160058201548152602001600682015481526020016007820154815260200160088201805461102b90613845565b80601f016020809104026020016040519081016040528092919081815260200182805461105790613845565b80156110a45780601f10611079576101008083540402835291602001916110a4565b820191906000526020600020905b81548152906001019060200180831161108757829003601f168201915b505050505081526020016009820160009054906101000a900460ff16151515158152505090508060e00151915050919050565b6060600180546110e690613845565b80601f016020809104026020016040519081016040528092919081815260200182805461111290613845565b801561115f5780601f106111345761010080835404028352916020019161115f565b820191906000526020600020905b81548152906001019060200180831161114257829003601f168201915b5050505050905090565b61117b611174611fcf565b83836125e0565b5050565b61119061118a611fcf565b83612090565b6111cf576040517f08c379a00000000000000000000000000000000000000000000000000000000081526004016111c690613a0c565b60405180910390fd5b6111db8484848461274c565b50505050565b6111e961245b565b600060405180610140016040528060075481526020018881526020018781526020013373ffffffffffffffffffffffffffffffffffffffff168152602001868152602001858152602001848152602001600854815260200183815260200160001515815250905080600a600060075481526020019081526020016000206000820151816000015560208201518160010190816112859190613eb5565b50604082015181600201908161129b9190613eb5565b5060608201518160030160006101000a81548173ffffffffffffffffffffffffffffffffffffffff021916908373ffffffffffffffffffffffffffffffffffffffff1602179055506080820151816004015560a0820151816005015560c0820151816006015560e082015181600701556101008201518160080190816113219190613eb5565b506101208201518160090160006101000a81548160ff021916908315150217905550905050611352336007546127a8565b60098190806001815401808255809150506001900390600052602060002090600a020160009091909190915060008201518160000155602082015181600101908161139d9190613eb5565b5060408201518160020190816113b39190613eb5565b5060608201518160030160006101000a81548173ffffffffffffffffffffffffffffffffffffffff021916908373ffffffffffffffffffffffffffffffffffffffff1602179055506080820151816004015560a0820151816005015560c0820151816006015560e082015181600701556101008201518160080190816114399190613eb5565b506101208201518160090160006101000a81548160ff02191690831515021790555050506007600081548092919061147090613fb6565b919050555050505050505050565b61148781610c4d565b73ffffffffffffffffffffffffffffffffffffffff16600a600083815260200190815260200160002060030160009054906101000a900473ffffffffffffffffffffffffffffffffffffffff1673ffffffffffffffffffffffffffffffffffffffff16146114f457600080fd5b600a600082815260200190815260200160002060090160009054906101000a900460ff16611557576040517f08c379a000000000000000000000000000000000000000000000000000000000815260040161154e90613aa7565b60405180910390fd5b6000600a600083815260200190815260200160002060090160006101000a81548160ff02191690831515021790555060006009828154811061159c5761159b613a2c565b5b90600052602060002090600a0201905060008160090160006101000a81548160ff0219169083151502179055505050565b60606115d882611f84565b60006115e26127c6565b90506000815111611602576040518060200160405280600081525061162d565b8061160c846127dd565b60405160200161161d92919061403a565b6040516020818303038152906040525b915050919050565b60606009805480602002602001604051908101604052809291908181526020016000905b828210156118e557838290600052602060002090600a0201604051806101400160405290816000820154815260200160018201805461169790613845565b80601f01602080910402602001604051908101604052809291908181526020018280546116c390613845565b80156117105780601f106116e557610100808354040283529160200191611710565b820191906000526020600020905b8154815290600101906020018083116116f357829003601f168201915b5050505050815260200160028201805461172990613845565b80601f016020809104026020016040519081016040528092919081815260200182805461175590613845565b80156117a25780601f10611777576101008083540402835291602001916117a2565b820191906000526020600020905b81548152906001019060200180831161178557829003601f168201915b505050505081526020016003820160009054906101000a900473ffffffffffffffffffffffffffffffffffffffff1673ffffffffffffffffffffffffffffffffffffffff1673ffffffffffffffffffffffffffffffffffffffff1681526020016004820154815260200160058201548152602001600682015481526020016007820154815260200160088201805461183990613845565b80601f016020809104026020016040519081016040528092919081815260200182805461186590613845565b80156118b25780601f10611887576101008083540402835291602001916118b2565b820191906000526020600020905b81548152906001019060200180831161189557829003601f168201915b505050505081526020016009820160009054906101000a900460ff16151515158152505081526020019060010190611659565b50505050905090565b60606118fa3383612090565b611939576040517f08c379a0000000000000000000000000000000000000000000000000000000008152600401611930906140aa565b60405180910390fd5b600a600083815260200190815260200160002060090160009054906101000a900460ff161561199d576040517f08c379a000000000000000000000000000000000000000000000000000000000815260040161199490614116565b60405180910390fd5b6001600a600084815260200190815260200160002060090160006101000a81548160ff0219169083151502179055506000600983815481106119e2576119e1613a2c565b5b90600052602060002090600a0201905060018160090160006101000a81548160ff0219169083151502179055506040518060400160405280600381526020017f4963690000000000000000000000000000000000000000000000000000000000815250915050919050565b6000600560008473ffffffffffffffffffffffffffffffffffffffff1673ffffffffffffffffffffffffffffffffffffffff16815260200190815260200160002060008373ffffffffffffffffffffffffffffffffffffffff1673ffffffffffffffffffffffffffffffffffffffff16815260200190815260200160002060009054906101000a900460ff16905092915050565b611ae961245b565b600073ffffffffffffffffffffffffffffffffffffffff168173ffffffffffffffffffffffffffffffffffffffff1603611b58576040517f08c379a0000000000000000000000000000000000000000000000000000000008152600401611b4f906141a8565b60405180910390fd5b611b61816124d9565b50565b6060600060098054905067ffffffffffffffff811115611b8757611b86613263565b5b604051908082528060200260200182016040528015611bc057816020015b611bad612e2c565b815260200190600190039081611ba55790505b5090506000611bcd610dda565b905060005b600980549050811015611f11578173ffffffffffffffffffffffffffffffffffffffff1660098281548110611c0a57611c09613a2c565b5b90600052602060002090600a020160030160009054906101000a900473ffffffffffffffffffffffffffffffffffffffff1673ffffffffffffffffffffffffffffffffffffffff1603611efd5760098181548110611c6b57611c6a613a2c565b5b90600052602060002090600a02016040518061014001604052908160008201548152602001600182018054611c9f90613845565b80601f0160208091040260200160405190810160405280929190818152602001828054611ccb90613845565b8015611d185780601f10611ced57610100808354040283529160200191611d18565b820191906000526020600020905b815481529060010190602001808311611cfb57829003601f168201915b50505050508152602001600282018054611d3190613845565b80601f0160208091040260200160405190810160405280929190818152602001828054611d5d90613845565b8015611daa5780601f10611d7f57610100808354040283529160200191611daa565b820191906000526020600020905b815481529060010190602001808311611d8d57829003601f168201915b505050505081526020016003820160009054906101000a900473ffffffffffffffffffffffffffffffffffffffff1673ffffffffffffffffffffffffffffffffffffffff1673ffffffffffffffffffffffffffffffffffffffff16815260200160048201548152602001600582015481526020016006820154815260200160078201548152602001600882018054611e4190613845565b80601f0160208091040260200160405190810160405280929190818152602001828054611e6d90613845565b8015611eba5780601f10611e8f57610100808354040283529160200191611eba565b820191906000526020600020905b815481529060010190602001808311611e9d57829003601f168201915b505050505081526020016009820160009054906101000a900460ff161515151581525050838281518110611ef157611ef0613a2c565b5b60200260200101819052505b600181611f0a91906141c8565b9050611bd2565b50819250505090565b60007f01ffc9a7000000000000000000000000000000000000000000000000000000007bffffffffffffffffffffffffffffffffffffffffffffffffffffffff1916827bffffffffffffffffffffffffffffffffffffffffffffffffffffffff1916149050919050565b611f8d8161259f565b611fcc576040517f08c379a0000000000000000000000000000000000000000000000000000000008152600401611fc390613beb565b60405180910390fd5b50565b600033905090565b816004600083815260200190815260200160002060006101000a81548173ffffffffffffffffffffffffffffffffffffffff021916908373ffffffffffffffffffffffffffffffffffffffff160217905550808273ffffffffffffffffffffffffffffffffffffffff1661204a83610c4d565b73ffffffffffffffffffffffffffffffffffffffff167f8c5be1e5ebec7d5bd14f71427d1e84f3dd0314c0f7b2291e5b200ac8c7c3b92560405160405180910390a45050565b60008061209c83610c4d565b90508073ffffffffffffffffffffffffffffffffffffffff168473ffffffffffffffffffffffffffffffffffffffff1614806120de57506120dd8185611a4d565b5b8061211c57508373ffffffffffffffffffffffffffffffffffffffff16612104846107d9565b73ffffffffffffffffffffffffffffffffffffffff16145b91505092915050565b8273ffffffffffffffffffffffffffffffffffffffff1661214582610c4d565b73ffffffffffffffffffffffffffffffffffffffff161461219b576040517f08c379a00000000000000000000000000000000000000000000000000000000081526004016121929061426e565b60405180910390fd5b600073ffffffffffffffffffffffffffffffffffffffff168273ffffffffffffffffffffffffffffffffffffffff160361220a576040517f08c379a000000000000000000000000000000000000000000000000000000000815260040161220190614300565b60405180910390fd5b61221783838360016128ab565b8273ffffffffffffffffffffffffffffffffffffffff1661223782610c4d565b73ffffffffffffffffffffffffffffffffffffffff161461228d576040517f08c379a00000000000000000000000000000000000000000000000000000000081526004016122849061426e565b60405180910390fd5b6004600082815260200190815260200160002060006101000a81549073ffffffffffffffffffffffffffffffffffffffff02191690556001600360008573ffffffffffffffffffffffffffffffffffffffff1673ffffffffffffffffffffffffffffffffffffffff168152602001908152602001600020600082825403925050819055506001600360008473ffffffffffffffffffffffffffffffffffffffff1673ffffffffffffffffffffffffffffffffffffffff16815260200190815260200160002060008282540192505081905550816002600083815260200190815260200160002060006101000a81548173ffffffffffffffffffffffffffffffffffffffff021916908373ffffffffffffffffffffffffffffffffffffffff160217905550808273ffffffffffffffffffffffffffffffffffffffff168473ffffffffffffffffffffffffffffffffffffffff167fddf252ad1be2c89b69c2b068fc378daa952ba7f163c4a11628f55a4df523b3ef60405160405180910390a461241983838360016128b1565b505050565b60006002600083815260200190815260200160002060009054906101000a900473ffffffffffffffffffffffffffffffffffffffff169050919050565b612463611fcf565b73ffffffffffffffffffffffffffffffffffffffff16612481610dda565b73ffffffffffffffffffffffffffffffffffffffff16146124d7576040517f08c379a00000000000000000000000000000000000000000000000000000000081526004016124ce9061436c565b60405180910390fd5b565b6000600660009054906101000a900473ffffffffffffffffffffffffffffffffffffffff16905081600660006101000a81548173ffffffffffffffffffffffffffffffffffffffff021916908373ffffffffffffffffffffffffffffffffffffffff1602179055508173ffffffffffffffffffffffffffffffffffffffff168173ffffffffffffffffffffffffffffffffffffffff167f8be0079c531659141344cd1fd0a4f28419497f9722a3daafe3b4186f6b6457e060405160405180910390a35050565b60008073ffffffffffffffffffffffffffffffffffffffff166125c18361241e565b73ffffffffffffffffffffffffffffffffffffffff1614159050919050565b8173ffffffffffffffffffffffffffffffffffffffff168373ffffffffffffffffffffffffffffffffffffffff160361264e576040517f08c379a0000000000000000000000000000000000000000000000000000000008152600401612645906143d8565b60405180910390fd5b80600560008573ffffffffffffffffffffffffffffffffffffffff1673ffffffffffffffffffffffffffffffffffffffff16815260200190815260200160002060008473ffffffffffffffffffffffffffffffffffffffff1673ffffffffffffffffffffffffffffffffffffffff16815260200190815260200160002060006101000a81548160ff0219169083151502179055508173ffffffffffffffffffffffffffffffffffffffff168373ffffffffffffffffffffffffffffffffffffffff167f17307eab39ab6107e8899845ad3d59bd9653f200f220920489ca2b5937696c318360405161273f9190612f4b565b60405180910390a3505050565b612757848484612125565b612763848484846128b7565b6127a2576040517f08c379a00000000000000000000000000000000000000000000000000000000081526004016127999061446a565b60405180910390fd5b50505050565b6127c2828260405180602001604052806000815250612a3e565b5050565b606060405180602001604052806000815250905090565b6060600060016127ec84612a99565b01905060008167ffffffffffffffff81111561280b5761280a613263565b5b6040519080825280601f01601f19166020018201604052801561283d5781602001600182028036833780820191505090505b509050600082602001820190505b6001156128a0578080600190039150507f3031323334353637383961626364656600000000000000000000000000000000600a86061a8153600a85816128945761289361448a565b5b0494506000850361284b575b819350505050919050565b50505050565b50505050565b60006128d88473ffffffffffffffffffffffffffffffffffffffff16612bec565b15612a31578373ffffffffffffffffffffffffffffffffffffffff1663150b7a02612901611fcf565b8786866040518563ffffffff1660e01b8152600401612923949392919061450e565b6020604051808303816000875af192505050801561295f57506040513d601f19601f8201168201806040525081019061295c919061456f565b60015b6129e1573d806000811461298f576040519150601f19603f3d011682016040523d82523d6000602084013e612994565b606091505b5060008151036129d9576040517f08c379a00000000000000000000000000000000000000000000000000000000081526004016129d09061446a565b60405180910390fd5b805181602001fd5b63150b7a0260e01b7bffffffffffffffffffffffffffffffffffffffffffffffffffffffff1916817bffffffffffffffffffffffffffffffffffffffffffffffffffffffff191614915050612a36565b600190505b949350505050565b612a488383612c0f565b612a5560008484846128b7565b612a94576040517f08c379a0000000000000000000000000000000000000000000000000000000008152600401612a8b9061446a565b60405180910390fd5b505050565b600080600090507a184f03e93ff9f4daa797ed6e38ed64bf6a1f0100000000000000008310612af7577a184f03e93ff9f4daa797ed6e38ed64bf6a1f0100000000000000008381612aed57612aec61448a565b5b0492506040810190505b6d04ee2d6d415b85acef81000000008310612b34576d04ee2d6d415b85acef81000000008381612b2a57612b2961448a565b5b0492506020810190505b662386f26fc100008310612b6357662386f26fc100008381612b5957612b5861448a565b5b0492506010810190505b6305f5e1008310612b8c576305f5e1008381612b8257612b8161448a565b5b0492506008810190505b6127108310612bb1576127108381612ba757612ba661448a565b5b0492506004810190505b60648310612bd45760648381612bca57612bc961448a565b5b0492506002810190505b600a8310612be3576001810190505b80915050919050565b6000808273ffffffffffffffffffffffffffffffffffffffff163b119050919050565b600073ffffffffffffffffffffffffffffffffffffffff168273ffffffffffffffffffffffffffffffffffffffff1603612c7e576040517f08c379a0000000000000000000000000000000000000000000000000000000008152600401612c75906145e8565b60405180910390fd5b612c878161259f565b15612cc7576040517f08c379a0000000000000000000000000000000000000000000000000000000008152600401612cbe90614654565b60405180910390fd5b612cd56000838360016128ab565b612cde8161259f565b15612d1e576040517f08c379a0000000000000000000000000000000000000000000000000000000008152600401612d1590614654565b60405180910390fd5b6001600360008473ffffffffffffffffffffffffffffffffffffffff1673ffffffffffffffffffffffffffffffffffffffff16815260200190815260200160002060008282540192505081905550816002600083815260200190815260200160002060006101000a81548173ffffffffffffffffffffffffffffffffffffffff021916908373ffffffffffffffffffffffffffffffffffffffff160217905550808273ffffffffffffffffffffffffffffffffffffffff16600073ffffffffffffffffffffffffffffffffffffffff167fddf252ad1be2c89b69c2b068fc378daa952ba7f163c4a11628f55a4df523b3ef60405160405180910390a4612e286000838360016128b1565b5050565b604051806101400160405280600081526020016060815260200160608152602001600073ffffffffffffffffffffffffffffffffffffffff16815260200160008152602001600081526020016000815260200160008152602001606081526020016000151581525090565b6000604051905090565b600080fd5b600080fd5b60007fffffffff0000000000000000000000000000000000000000000000000000000082169050919050565b612ee081612eab565b8114612eeb57600080fd5b50565b600081359050612efd81612ed7565b92915050565b600060208284031215612f1957612f18612ea1565b5b6000612f2784828501612eee565b91505092915050565b60008115159050919050565b612f4581612f30565b82525050565b6000602082019050612f606000830184612f3c565b92915050565b600081519050919050565b600082825260208201905092915050565b60005b83811015612fa0578082015181840152602081019050612f85565b60008484015250505050565b6000601f19601f8301169050919050565b6000612fc882612f66565b612fd28185612f71565b9350612fe2818560208601612f82565b612feb81612fac565b840191505092915050565b600060208201905081810360008301526130108184612fbd565b905092915050565b6000819050919050565b61302b81613018565b811461303657600080fd5b50565b60008135905061304881613022565b92915050565b60006020828403121561306457613063612ea1565b5b600061307284828501613039565b91505092915050565b600073ffffffffffffffffffffffffffffffffffffffff82169050919050565b60006130a68261307b565b9050919050565b6130b68161309b565b82525050565b60006020820190506130d160008301846130ad565b92915050565b6130e08161309b565b81146130eb57600080fd5b50565b6000813590506130fd816130d7565b92915050565b6000806040838503121561311a57613119612ea1565b5b6000613128858286016130ee565b925050602061313985828601613039565b9150509250929050565b60008060006060848603121561315c5761315b612ea1565b5b600061316a868287016130ee565b935050602061317b868287016130ee565b925050604061318c86828701613039565b9150509250925092565b61319f81613018565b82525050565b60006020820190506131ba6000830184613196565b92915050565b6000602082840312156131d6576131d5612ea1565b5b60006131e4848285016130ee565b91505092915050565b6131f681612f30565b811461320157600080fd5b50565b600081359050613213816131ed565b92915050565b600080604083850312156132305761322f612ea1565b5b600061323e858286016130ee565b925050602061324f85828601613204565b9150509250929050565b600080fd5b600080fd5b7f4e487b7100000000000000000000000000000000000000000000000000000000600052604160045260246000fd5b61329b82612fac565b810181811067ffffffffffffffff821117156132ba576132b9613263565b5b80604052505050565b60006132cd612e97565b90506132d98282613292565b919050565b600067ffffffffffffffff8211156132f9576132f8613263565b5b61330282612fac565b9050602081019050919050565b82818337600083830152505050565b600061333161332c846132de565b6132c3565b90508281526020810184848401111561334d5761334c61325e565b5b61335884828561330f565b509392505050565b600082601f83011261337557613374613259565b5b813561338584826020860161331e565b91505092915050565b600080600080608085870312156133a8576133a7612ea1565b5b60006133b6878288016130ee565b94505060206133c7878288016130ee565b93505060406133d887828801613039565b925050606085013567ffffffffffffffff8111156133f9576133f8612ea6565b5b61340587828801613360565b91505092959194509250565b600067ffffffffffffffff82111561342c5761342b613263565b5b61343582612fac565b9050602081019050919050565b600061345561345084613411565b6132c3565b9050828152602081018484840111156134715761347061325e565b5b61347c84828561330f565b509392505050565b600082601f83011261349957613498613259565b5b81356134a9848260208601613442565b91505092915050565b60008060008060008060c087890312156134cf576134ce612ea1565b5b600087013567ffffffffffffffff8111156134ed576134ec612ea6565b5b6134f989828a01613484565b965050602087013567ffffffffffffffff81111561351a57613519612ea6565b5b61352689828a01613484565b955050604061353789828a01613039565b945050606061354889828a01613039565b935050608061355989828a01613039565b92505060a087013567ffffffffffffffff81111561357a57613579612ea6565b5b61358689828a01613484565b9150509295509295509295565b600081519050919050565b600082825260208201905092915050565b6000819050602082019050919050565b6135c881613018565b82525050565b600082825260208201905092915050565b60006135ea82612f66565b6135f481856135ce565b9350613604818560208601612f82565b61360d81612fac565b840191505092915050565b6136218161309b565b82525050565b61363081612f30565b82525050565b60006101408301600083015161364f60008601826135bf565b506020830151848203602086015261366782826135df565b9150506040830151848203604086015261368182826135df565b91505060608301516136966060860182613618565b5060808301516136a960808601826135bf565b5060a08301516136bc60a08601826135bf565b5060c08301516136cf60c08601826135bf565b5060e08301516136e260e08601826135bf565b506101008301518482036101008601526136fc82826135df565b915050610120830151613713610120860182613627565b508091505092915050565b600061372a8383613636565b905092915050565b6000602082019050919050565b600061374a82613593565b613754818561359e565b935083602082028501613766856135af565b8060005b858110156137a25784840389528151613783858261371e565b945061378e83613732565b925060208a0199505060018101905061376a565b50829750879550505050505092915050565b600060208201905081810360008301526137ce818461373f565b905092915050565b600080604083850312156137ed576137ec612ea1565b5b60006137fb858286016130ee565b925050602061380c858286016130ee565b9150509250929050565b7f4e487b7100000000000000000000000000000000000000000000000000000000600052602260045260246000fd5b6000600282049050600182168061385d57607f821691505b6020821081036138705761386f613816565b5b50919050565b7f4552433732313a20617070726f76616c20746f2063757272656e74206f776e6560008201527f7200000000000000000000000000000000000000000000000000000000000000602082015250565b60006138d2602183612f71565b91506138dd82613876565b604082019050919050565b60006020820190508181036000830152613901816138c5565b9050919050565b7f4552433732313a20617070726f76652063616c6c6572206973206e6f7420746f60008201527f6b656e206f776e6572206f7220617070726f76656420666f7220616c6c000000602082015250565b6000613964603d83612f71565b915061396f82613908565b604082019050919050565b6000602082019050818103600083015261399381613957565b9050919050565b7f4552433732313a2063616c6c6572206973206e6f7420746f6b656e206f776e6560008201527f72206f7220617070726f76656400000000000000000000000000000000000000602082015250565b60006139f6602d83612f71565b9150613a018261399a565b604082019050919050565b60006020820190508181036000830152613a25816139e9565b9050919050565b7f4e487b7100000000000000000000000000000000000000000000000000000000600052603260045260246000fd5b7f4e4654206973206e6f7420666f722073616c6500000000000000000000000000600082015250565b6000613a91601383612f71565b9150613a9c82613a5b565b602082019050919050565b60006020820190508181036000830152613ac081613a84565b9050919050565b7f496e636f7272656374207061796d656e7420616d6f756e740000000000000000600082015250565b6000613afd601883612f71565b9150613b0882613ac7565b602082019050919050565b60006020820190508181036000830152613b2c81613af0565b9050919050565b7f4f776e65722063616e27742073656c6c204e465420666f722068696d73656c66600082015250565b6000613b69602083612f71565b9150613b7482613b33565b602082019050919050565b60006020820190508181036000830152613b9881613b5c565b9050919050565b7f4552433732313a20696e76616c696420746f6b656e2049440000000000000000600082015250565b6000613bd5601883612f71565b9150613be082613b9f565b602082019050919050565b60006020820190508181036000830152613c0481613bc8565b9050919050565b7f4552433732313a2061646472657373207a65726f206973206e6f74206120766160008201527f6c6964206f776e65720000000000000000000000000000000000000000000000602082015250565b6000613c67602983612f71565b9150613c7282613c0b565b604082019050919050565b60006020820190508181036000830152613c9681613c5a565b9050919050565b7f496e76616c696420746f6b656e20494400000000000000000000000000000000600082015250565b6000613cd3601083612f71565b9150613cde82613c9d565b602082019050919050565b60006020820190508181036000830152613d0281613cc6565b9050919050565b60008190508160005260206000209050919050565b60006020601f8301049050919050565b600082821b905092915050565b600060088302613d6b7fffffffffffffffffffffffffffffffffffffffffffffffffffffffffffffffff82613d2e565b613d758683613d2e565b95508019841693508086168417925050509392505050565b6000819050919050565b6000613db2613dad613da884613018565b613d8d565b613018565b9050919050565b6000819050919050565b613dcc83613d97565b613de0613dd882613db9565b848454613d3b565b825550505050565b600090565b613df5613de8565b613e00818484613dc3565b505050565b5b81811015613e2457613e19600082613ded565b600181019050613e06565b5050565b601f821115613e6957613e3a81613d09565b613e4384613d1e565b81016020851015613e52578190505b613e66613e5e85613d1e565b830182613e05565b50505b505050565b600082821c905092915050565b6000613e8c60001984600802613e6e565b1980831691505092915050565b6000613ea58383613e7b565b9150826002028217905092915050565b613ebe82612f66565b67ffffffffffffffff811115613ed757613ed6613263565b5b613ee18254613845565b613eec828285613e28565b600060209050601f831160018114613f1f5760008415613f0d578287015190505b613f178582613e99565b865550613f7f565b601f198416613f2d86613d09565b60005b82811015613f5557848901518255600182019150602085019450602081019050613f30565b86831015613f725784890151613f6e601f891682613e7b565b8355505b6001600288020188555050505b505050505050565b7f4e487b7100000000000000000000000000000000000000000000000000000000600052601160045260246000fd5b6000613fc182613018565b91507fffffffffffffffffffffffffffffffffffffffffffffffffffffffffffffffff8203613ff357613ff2613f87565b5b600182019050919050565b600081905092915050565b600061401482612f66565b61401e8185613ffe565b935061402e818560208601612f82565b80840191505092915050565b60006140468285614009565b91506140528284614009565b91508190509392505050565b7f43616c6c6572206973206e6f74206f776e6572206e6f7220617070726f766564600082015250565b6000614094602083612f71565b915061409f8261405e565b602082019050919050565b600060208201905081810360008301526140c381614087565b9050919050565b7f4e465420697320616c726561647920666f722073616c65000000000000000000600082015250565b6000614100601783612f71565b915061410b826140ca565b602082019050919050565b6000602082019050818103600083015261412f816140f3565b9050919050565b7f4f776e61626c653a206e6577206f776e657220697320746865207a65726f206160008201527f6464726573730000000000000000000000000000000000000000000000000000602082015250565b6000614192602683612f71565b915061419d82614136565b604082019050919050565b600060208201905081810360008301526141c181614185565b9050919050565b60006141d382613018565b91506141de83613018565b92508282019050808211156141f6576141f5613f87565b5b92915050565b7f4552433732313a207472616e736665722066726f6d20696e636f72726563742060008201527f6f776e6572000000000000000000000000000000000000000000000000000000602082015250565b6000614258602583612f71565b9150614263826141fc565b604082019050919050565b600060208201905081810360008301526142878161424b565b9050919050565b7f4552433732313a207472616e7366657220746f20746865207a65726f2061646460008201527f7265737300000000000000000000000000000000000000000000000000000000602082015250565b60006142ea602483612f71565b91506142f58261428e565b604082019050919050565b60006020820190508181036000830152614319816142dd565b9050919050565b7f4f776e61626c653a2063616c6c6572206973206e6f7420746865206f776e6572600082015250565b6000614356602083612f71565b915061436182614320565b602082019050919050565b6000602082019050818103600083015261438581614349565b9050919050565b7f4552433732313a20617070726f766520746f2063616c6c657200000000000000600082015250565b60006143c2601983612f71565b91506143cd8261438c565b602082019050919050565b600060208201905081810360008301526143f1816143b5565b9050919050565b7f4552433732313a207472616e7366657220746f206e6f6e20455243373231526560008201527f63656976657220696d706c656d656e7465720000000000000000000000000000602082015250565b6000614454603283612f71565b915061445f826143f8565b604082019050919050565b6000602082019050818103600083015261448381614447565b9050919050565b7f4e487b7100000000000000000000000000000000000000000000000000000000600052601260045260246000fd5b600081519050919050565b600082825260208201905092915050565b60006144e0826144b9565b6144ea81856144c4565b93506144fa818560208601612f82565b61450381612fac565b840191505092915050565b600060808201905061452360008301876130ad565b61453060208301866130ad565b61453d6040830185613196565b818103606083015261454f81846144d5565b905095945050505050565b60008151905061456981612ed7565b92915050565b60006020828403121561458557614584612ea1565b5b60006145938482850161455a565b91505092915050565b7f4552433732313a206d696e7420746f20746865207a65726f2061646472657373600082015250565b60006145d2602083612f71565b91506145dd8261459c565b602082019050919050565b60006020820190508181036000830152614601816145c5565b9050919050565b7f4552433732313a20746f6b656e20616c7265616479206d696e74656400000000600082015250565b600061463e601c83612f71565b915061464982614608565b602082019050919050565b6000602082019050818103600083015261466d81614631565b905091905056fea264697066735822122084d35477fb7a65cab46289f624aad1a0d62c25b0181e751f22abec99935e771864736f6c63430008120033",
  "linkReferences": {},
  "deployedLinkReferences": {}
}