{
  "_format": "hh-sol-artifact-1",
  "contractName": "NFTWheels",
  "sourceName": "contracts/NFTWheels.sol",
  "abi": [
    {
      "inputs": [
        {
          "internalType": "address",
          "name": "erc20TokenAddress",
          "type": "address"
        }
      ],
      "stateMutability": "nonpayable",
      "type": "constructor"
    },
    {
      "anonymous": false,
      "inputs": [
        {
          "indexed": true,
          "internalType": "address",
          "name": "owner",
          "type": "address"
        },
        {
          "indexed": true,
          "internalType": "address",
          "name": "approved",
          "type": "address"
        },
        {
          "indexed": true,
          "internalType": "uint256",
          "name": "tokenId",
          "type": "uint256"
        }
      ],
      "name": "Approval",
      "type": "event"
    },
    {
      "anonymous": false,
      "inputs": [
        {
          "indexed": true,
          "internalType": "address",
          "name": "owner",
          "type": "address"
        },
        {
          "indexed": true,
          "internalType": "address",
          "name": "operator",
          "type": "address"
        },
        {
          "indexed": false,
          "internalType": "bool",
          "name": "approved",
          "type": "bool"
        }
      ],
      "name": "ApprovalForAll",
      "type": "event"
    },
    {
      "anonymous": false,
      "inputs": [
        {
          "indexed": true,
          "internalType": "address",
          "name": "previousOwner",
          "type": "address"
        },
        {
          "indexed": true,
          "internalType": "address",
          "name": "newOwner",
          "type": "address"
        }
      ],
      "name": "OwnershipTransferred",
      "type": "event"
    },
    {
      "anonymous": false,
      "inputs": [
        {
          "indexed": true,
          "internalType": "address",
          "name": "from",
          "type": "address"
        },
        {
          "indexed": true,
          "internalType": "address",
          "name": "to",
          "type": "address"
        },
        {
          "indexed": true,
          "internalType": "uint256",
          "name": "tokenId",
          "type": "uint256"
        }
      ],
      "name": "Transfer",
      "type": "event"
    },
    {
      "inputs": [
        {
          "internalType": "uint256",
          "name": "_tokenId",
          "type": "uint256"
        }
      ],
      "name": "_buy",
      "outputs": [],
      "stateMutability": "payable",
      "type": "function"
    },
    {
      "inputs": [
        {
          "internalType": "uint256",
          "name": "_tokenId",
          "type": "uint256"
        }
      ],
      "name": "_sell",
      "outputs": [
        {
          "internalType": "string",
          "name": "",
          "type": "string"
        }
      ],
      "stateMutability": "nonpayable",
      "type": "function"
    },
    {
      "inputs": [
        {
          "internalType": "address",
          "name": "to",
          "type": "address"
        },
        {
          "internalType": "uint256",
          "name": "tokenId",
          "type": "uint256"
        }
      ],
      "name": "approve",
      "outputs": [],
      "stateMutability": "nonpayable",
      "type": "function"
    },
    {
      "inputs": [
        {
          "internalType": "address",
          "name": "owner",
          "type": "address"
        }
      ],
      "name": "balanceOf",
      "outputs": [
        {
          "internalType": "uint256",
          "name": "",
          "type": "uint256"
        }
      ],
      "stateMutability": "view",
      "type": "function"
    },
    {
      "inputs": [],
      "name": "getAllNFTs",
      "outputs": [
        {
          "components": [
            {
              "internalType": "uint256",
              "name": "id",
              "type": "uint256"
            },
            {
              "internalType": "string",
              "name": "name",
              "type": "string"
            },
            {
              "internalType": "address",
              "name": "owner",
              "type": "address"
            },
            {
              "internalType": "uint256",
              "name": "price",
              "type": "uint256"
            },
            {
              "internalType": "string",
              "name": "metadataURI",
              "type": "string"
            },
            {
              "internalType": "bool",
              "name": "isForSale",
              "type": "bool"
            }
          ],
          "internalType": "struct NFTWheels.Car[]",
          "name": "",
          "type": "tuple[]"
        }
      ],
      "stateMutability": "view",
      "type": "function"
    },
    {
      "inputs": [],
      "name": "getAllNFTsAvailable",
      "outputs": [
        {
          "components": [
            {
              "internalType": "uint256",
              "name": "id",
              "type": "uint256"
            },
            {
              "internalType": "string",
              "name": "name",
              "type": "string"
            },
            {
              "internalType": "address",
              "name": "owner",
              "type": "address"
            },
            {
              "internalType": "uint256",
              "name": "price",
              "type": "uint256"
            },
            {
              "internalType": "string",
              "name": "metadataURI",
              "type": "string"
            },
            {
              "internalType": "bool",
              "name": "isForSale",
              "type": "bool"
            }
          ],
          "internalType": "struct NFTWheels.Car[]",
          "name": "",
          "type": "tuple[]"
        }
      ],
      "stateMutability": "view",
      "type": "function"
    },
    {
      "inputs": [
        {
          "internalType": "uint256",
          "name": "tokenId",
          "type": "uint256"
        }
      ],
      "name": "getApproved",
      "outputs": [
        {
          "internalType": "address",
          "name": "",
          "type": "address"
        }
      ],
      "stateMutability": "view",
      "type": "function"
    },
    {
      "inputs": [
        {
          "internalType": "uint256",
          "name": "_tokenId",
          "type": "uint256"
        }
      ],
      "name": "getNFTPrice",
      "outputs": [
        {
          "internalType": "uint256",
          "name": "",
          "type": "uint256"
        }
      ],
      "stateMutability": "view",
      "type": "function"
    },
    {
      "inputs": [],
      "name": "getOwner",
      "outputs": [
        {
          "internalType": "address",
          "name": "",
          "type": "address"
        }
      ],
      "stateMutability": "view",
      "type": "function"
    },
    {
      "inputs": [
        {
          "internalType": "uint256",
          "name": "_tokenId",
          "type": "uint256"
        }
      ],
      "name": "getOwnerOf",
      "outputs": [
        {
          "internalType": "address",
          "name": "",
          "type": "address"
        }
      ],
      "stateMutability": "view",
      "type": "function"
    },
    {
      "inputs": [
        {
          "internalType": "address",
          "name": "owner",
          "type": "address"
        },
        {
          "internalType": "address",
          "name": "operator",
          "type": "address"
        }
      ],
      "name": "isApprovedForAll",
      "outputs": [
        {
          "internalType": "bool",
          "name": "",
          "type": "bool"
        }
      ],
      "stateMutability": "view",
      "type": "function"
    },
    {
      "inputs": [
        {
          "internalType": "string",
          "name": "name",
          "type": "string"
        },
        {
          "internalType": "uint256",
          "name": "price",
          "type": "uint256"
        },
        {
          "internalType": "string",
          "name": "metadataURI",
          "type": "string"
        }
      ],
      "name": "mint",
      "outputs": [],
      "stateMutability": "nonpayable",
      "type": "function"
    },
    {
      "inputs": [],
      "name": "name",
      "outputs": [
        {
          "internalType": "string",
          "name": "",
          "type": "string"
        }
      ],
      "stateMutability": "view",
      "type": "function"
    },
    {
      "inputs": [],
      "name": "owner",
      "outputs": [
        {
          "internalType": "address",
          "name": "",
          "type": "address"
        }
      ],
      "stateMutability": "view",
      "type": "function"
    },
    {
      "inputs": [
        {
          "internalType": "uint256",
          "name": "tokenId",
          "type": "uint256"
        }
      ],
      "name": "ownerOf",
      "outputs": [
        {
          "internalType": "address",
          "name": "",
          "type": "address"
        }
      ],
      "stateMutability": "view",
      "type": "function"
    },
    {
      "inputs": [
        {
          "internalType": "uint256",
          "name": "_tokenId",
          "type": "uint256"
        }
      ],
      "name": "removeFromSell",
      "outputs": [],
      "stateMutability": "nonpayable",
      "type": "function"
    },
    {
      "inputs": [],
      "name": "renounceOwnership",
      "outputs": [],
      "stateMutability": "nonpayable",
      "type": "function"
    },
    {
      "inputs": [
        {
          "internalType": "address",
          "name": "from",
          "type": "address"
        },
        {
          "internalType": "address",
          "name": "to",
          "type": "address"
        },
        {
          "internalType": "uint256",
          "name": "tokenId",
          "type": "uint256"
        }
      ],
      "name": "safeTransferFrom",
      "outputs": [],
      "stateMutability": "nonpayable",
      "type": "function"
    },
    {
      "inputs": [
        {
          "internalType": "address",
          "name": "from",
          "type": "address"
        },
        {
          "internalType": "address",
          "name": "to",
          "type": "address"
        },
        {
          "internalType": "uint256",
          "name": "tokenId",
          "type": "uint256"
        },
        {
          "internalType": "bytes",
          "name": "data",
          "type": "bytes"
        }
      ],
      "name": "safeTransferFrom",
      "outputs": [],
      "stateMutability": "nonpayable",
      "type": "function"
    },
    {
      "inputs": [
        {
          "internalType": "address",
          "name": "operator",
          "type": "address"
        },
        {
          "internalType": "bool",
          "name": "approved",
          "type": "bool"
        }
      ],
      "name": "setApprovalForAll",
      "outputs": [],
      "stateMutability": "nonpayable",
      "type": "function"
    },
    {
      "inputs": [
        {
          "internalType": "bytes4",
          "name": "interfaceId",
          "type": "bytes4"
        }
      ],
      "name": "supportsInterface",
      "outputs": [
        {
          "internalType": "bool",
          "name": "",
          "type": "bool"
        }
      ],
      "stateMutability": "view",
      "type": "function"
    },
    {
      "inputs": [],
      "name": "symbol",
      "outputs": [
        {
          "internalType": "string",
          "name": "",
          "type": "string"
        }
      ],
      "stateMutability": "view",
      "type": "function"
    },
    {
      "inputs": [
        {
          "internalType": "uint256",
          "name": "tokenId",
          "type": "uint256"
        }
      ],
      "name": "tokenURI",
      "outputs": [
        {
          "internalType": "string",
          "name": "",
          "type": "string"
        }
      ],
      "stateMutability": "view",
      "type": "function"
    },
    {
      "inputs": [
        {
          "internalType": "address",
          "name": "from",
          "type": "address"
        },
        {
          "internalType": "address",
          "name": "to",
          "type": "address"
        },
        {
          "internalType": "uint256",
          "name": "tokenId",
          "type": "uint256"
        }
      ],
      "name": "transferFrom",
      "outputs": [],
      "stateMutability": "nonpayable",
      "type": "function"
    },
    {
      "inputs": [
        {
          "internalType": "address",
          "name": "newOwner",
          "type": "address"
        }
      ],
      "name": "transferOwnership",
      "outputs": [],
      "stateMutability": "nonpayable",
      "type": "function"
    }
  ],
  "bytecode": "0x608060405260006008556002600a553480156200001b57600080fd5b5060405162004d7838038062004d78833981810160405281019062000041919062000273565b6040518060400160405280600a81526020017f4e465420576865656c73000000000000000000000000000000000000000000008152506040518060400160405280600481526020017f4e465753000000000000000000000000000000000000000000000000000000008152508160009081620000be91906200051f565b508060019081620000d091906200051f565b505050620000f3620000e76200013b60201b60201c565b6200014360201b60201c565b80600d60006101000a81548173ffffffffffffffffffffffffffffffffffffffff021916908373ffffffffffffffffffffffffffffffffffffffff1602179055505062000606565b600033905090565b6000600760009054906101000a900473ffffffffffffffffffffffffffffffffffffffff16905081600760006101000a81548173ffffffffffffffffffffffffffffffffffffffff021916908373ffffffffffffffffffffffffffffffffffffffff1602179055508173ffffffffffffffffffffffffffffffffffffffff168173ffffffffffffffffffffffffffffffffffffffff167f8be0079c531659141344cd1fd0a4f28419497f9722a3daafe3b4186f6b6457e060405160405180910390a35050565b600080fd5b600073ffffffffffffffffffffffffffffffffffffffff82169050919050565b60006200023b826200020e565b9050919050565b6200024d816200022e565b81146200025957600080fd5b50565b6000815190506200026d8162000242565b92915050565b6000602082840312156200028c576200028b62000209565b5b60006200029c848285016200025c565b91505092915050565b600081519050919050565b7f4e487b7100000000000000000000000000000000000000000000000000000000600052604160045260246000fd5b7f4e487b7100000000000000000000000000000000000000000000000000000000600052602260045260246000fd5b600060028204905060018216806200032757607f821691505b6020821081036200033d576200033c620002df565b5b50919050565b60008190508160005260206000209050919050565b60006020601f8301049050919050565b600082821b905092915050565b600060088302620003a77fffffffffffffffffffffffffffffffffffffffffffffffffffffffffffffffff8262000368565b620003b3868362000368565b95508019841693508086168417925050509392505050565b6000819050919050565b6000819050919050565b600062000400620003fa620003f484620003cb565b620003d5565b620003cb565b9050919050565b6000819050919050565b6200041c83620003df565b620004346200042b8262000407565b84845462000375565b825550505050565b600090565b6200044b6200043c565b6200045881848462000411565b505050565b5b8181101562000480576200047460008262000441565b6001810190506200045e565b5050565b601f821115620004cf57620004998162000343565b620004a48462000358565b81016020851015620004b4578190505b620004cc620004c38562000358565b8301826200045d565b50505b505050565b600082821c905092915050565b6000620004f460001984600802620004d4565b1980831691505092915050565b60006200050f8383620004e1565b9150826002028217905092915050565b6200052a82620002a5565b67ffffffffffffffff811115620005465762000545620002b0565b5b6200055282546200030e565b6200055f82828562000484565b600060209050601f83116001811462000597576000841562000582578287015190505b6200058e858262000501565b865550620005fe565b601f198416620005a78662000343565b60005b82811015620005d157848901518255600182019150602085019450602081019050620005aa565b86831015620005f15784890151620005ed601f891682620004e1565b8355505b6001600288020188555050505b505050505050565b61476280620006166000396000f3fe6080604052600436106101665760003560e01c8063893d20e8116100d1578063c395d9cc1161008a578063e5d5876d11610064578063e5d5876d1461053f578063e985e9c51461057c578063f2fde38b146105b9578063f92ba429146105e257610166565b8063c395d9cc146104ae578063c87b56dd146104d7578063e0391b091461051457610166565b8063893d20e81461039e5780638da5cb5b146103c957806392976179146103f457806395d89b4114610431578063a22cb4651461045c578063b88d4fde1461048557610166565b8063282303b511610123578063282303b51461028b57806342842e0e146102a75780636352211e146102d057806370a082311461030d578063715018a61461034a578063836387101461036157610166565b806301ffc9a71461016b57806306bdc949146101a857806306fdde03146101d1578063081812fc146101fc578063095ea7b31461023957806323b872dd14610262575b600080fd5b34801561017757600080fd5b50610192600480360381019061018d9190612fd7565b61060d565b60405161019f919061301f565b60405180910390f35b3480156101b457600080fd5b506101cf60048036038101906101ca91906131b6565b6106ef565b005b3480156101dd57600080fd5b506101e661090e565b6040516101f391906132c0565b60405180910390f35b34801561020857600080fd5b50610223600480360381019061021e91906132e2565b6109a0565b6040516102309190613350565b60405180910390f35b34801561024557600080fd5b50610260600480360381019061025b9190613397565b6109e6565b005b34801561026e57600080fd5b50610289600480360381019061028491906133d7565b610afd565b005b6102a560048036038101906102a091906132e2565b610b5d565b005b3480156102b357600080fd5b506102ce60048036038101906102c991906133d7565b610df4565b005b3480156102dc57600080fd5b506102f760048036038101906102f291906132e2565b610e14565b6040516103049190613350565b60405180910390f35b34801561031957600080fd5b50610334600480360381019061032f919061342a565b610e9a565b6040516103419190613466565b60405180910390f35b34801561035657600080fd5b5061035f610f51565b005b34801561036d57600080fd5b50610388600480360381019061038391906132e2565b610f65565b6040516103959190613350565b60405180910390f35b3480156103aa57600080fd5b506103b3610f77565b6040516103c09190613350565b60405180910390f35b3480156103d557600080fd5b506103de610f86565b6040516103eb9190613350565b60405180910390f35b34801561040057600080fd5b5061041b600480360381019061041691906132e2565b610fb0565b6040516104289190613466565b60405180910390f35b34801561043d57600080fd5b506104466111d2565b60405161045391906132c0565b60405180910390f35b34801561046857600080fd5b50610483600480360381019061047e91906134ad565b611264565b005b34801561049157600080fd5b506104ac60048036038101906104a7919061358e565b61127a565b005b3480156104ba57600080fd5b506104d560048036038101906104d091906132e2565b6112dc565b005b3480156104e357600080fd5b506104fe60048036038101906104f991906132e2565b61142b565b60405161050b91906132c0565b60405180910390f35b34801561052057600080fd5b5061052961153d565b60405161053691906137da565b60405180910390f35b34801561054b57600080fd5b50610566600480360381019061056191906132e2565b6119bb565b60405161057391906132c0565b60405180910390f35b34801561058857600080fd5b506105a3600480360381019061059e91906137fc565b611b1a565b6040516105b0919061301f565b60405180910390f35b3480156105c557600080fd5b506105e060048036038101906105db919061342a565b611bae565b005b3480156105ee57600080fd5b506105f7611c31565b60405161060491906137da565b60405180910390f35b60007f80ac58cd000000000000000000000000000000000000000000000000000000007bffffffffffffffffffffffffffffffffffffffffffffffffffffffff1916827bffffffffffffffffffffffffffffffffffffffffffffffffffffffff191614806106d857507f5b5e139f000000000000000000000000000000000000000000000000000000007bffffffffffffffffffffffffffffffffffffffffffffffffffffffff1916827bffffffffffffffffffffffffffffffffffffffffffffffffffffffff1916145b806106e857506106e782611f36565b5b9050919050565b6106f7611fa0565b60006040518060c0016040528060085481526020018581526020013373ffffffffffffffffffffffffffffffffffffffff16815260200184815260200183815260200160001515815250905080600b600060085481526020019081526020016000206000820151816000015560208201518160010190816107789190613a48565b5060408201518160020160006101000a81548173ffffffffffffffffffffffffffffffffffffffff021916908373ffffffffffffffffffffffffffffffffffffffff1602179055506060820151816003015560808201518160040190816107df9190613a48565b5060a08201518160050160006101000a81548160ff02191690831515021790555090505061080f3360085461201e565b600981908060018154018082558091505060019003906000526020600020906006020160009091909190915060008201518160000155602082015181600101908161085a9190613a48565b5060408201518160020160006101000a81548173ffffffffffffffffffffffffffffffffffffffff021916908373ffffffffffffffffffffffffffffffffffffffff1602179055506060820151816003015560808201518160040190816108c19190613a48565b5060a08201518160050160006101000a81548160ff02191690831515021790555050506108f06008548361203c565b6008600081548092919061090390613b49565b919050555050505050565b60606000805461091d9061386b565b80601f01602080910402602001604051908101604052809291908181526020018280546109499061386b565b80156109965780601f1061096b57610100808354040283529160200191610996565b820191906000526020600020905b81548152906001019060200180831161097957829003601f168201915b5050505050905090565b60006109ab826120a9565b6004600083815260200190815260200160002060009054906101000a900473ffffffffffffffffffffffffffffffffffffffff169050919050565b60006109f182610e14565b90508073ffffffffffffffffffffffffffffffffffffffff168373ffffffffffffffffffffffffffffffffffffffff1603610a61576040517f08c379a0000000000000000000000000000000000000000000000000000000008152600401610a5890613c03565b60405180910390fd5b8073ffffffffffffffffffffffffffffffffffffffff16610a806120f4565b73ffffffffffffffffffffffffffffffffffffffff161480610aaf5750610aae81610aa96120f4565b611b1a565b5b610aee576040517f08c379a0000000000000000000000000000000000000000000000000000000008152600401610ae590613c95565b60405180910390fd5b610af883836120fc565b505050565b610b0e610b086120f4565b826121b5565b610b4d576040517f08c379a0000000000000000000000000000000000000000000000000000000008152600401610b4490613d27565b60405180910390fd5b610b5883838361224a565b505050565b600060098281548110610b7357610b72613d47565b5b90600052602060002090600602019050600b600083815260200190815260200160002060050160009054906101000a900460ff16610be6576040517f08c379a0000000000000000000000000000000000000000000000000000000008152600401610bdd90613dc2565b60405180910390fd5b600b6000838152602001908152602001600020600301543414610c3e576040517f08c379a0000000000000000000000000000000000000000000000000000000008152600401610c3590613e2e565b60405180910390fd5b6000610c4983610e14565b90508073ffffffffffffffffffffffffffffffffffffffff163373ffffffffffffffffffffffffffffffffffffffff1603610cb9576040517f08c379a0000000000000000000000000000000000000000000000000000000008152600401610cb090613e9a565b60405180910390fd5b610cc481338561224a565b6000600b600085815260200190815260200160002060050160006101000a81548160ff02191690831515021790555033600b600085815260200190815260200160002060020160006101000a81548173ffffffffffffffffffffffffffffffffffffffff021916908373ffffffffffffffffffffffffffffffffffffffff16021790555060008260050160006101000a81548160ff021916908315150217905550338260020160006101000a81548173ffffffffffffffffffffffffffffffffffffffff021916908373ffffffffffffffffffffffffffffffffffffffff1602179055508073ffffffffffffffffffffffffffffffffffffffff166108fc349081150290604051600060405180830381858888f19350505050158015610dee573d6000803e3d6000fd5b50505050565b610e0f8383836040518060200160405280600081525061127a565b505050565b600080610e2083612543565b9050600073ffffffffffffffffffffffffffffffffffffffff168173ffffffffffffffffffffffffffffffffffffffff1603610e91576040517f08c379a0000000000000000000000000000000000000000000000000000000008152600401610e8890613f06565b60405180910390fd5b80915050919050565b60008073ffffffffffffffffffffffffffffffffffffffff168273ffffffffffffffffffffffffffffffffffffffff1603610f0a576040517f08c379a0000000000000000000000000000000000000000000000000000000008152600401610f0190613f98565b60405180910390fd5b600360008373ffffffffffffffffffffffffffffffffffffffff1673ffffffffffffffffffffffffffffffffffffffff168152602001908152602001600020549050919050565b610f59611fa0565b610f636000612580565b565b6000610f7082610e14565b9050919050565b6000610f81610f86565b905090565b6000600760009054906101000a900473ffffffffffffffffffffffffffffffffffffffff16905090565b6000610fbb82612646565b610ffa576040517f08c379a0000000000000000000000000000000000000000000000000000000008152600401610ff190614004565b60405180910390fd5b6000600b60008481526020019081526020016000206040518060c0016040529081600082015481526020016001820180546110349061386b565b80601f01602080910402602001604051908101604052809291908181526020018280546110609061386b565b80156110ad5780601f10611082576101008083540402835291602001916110ad565b820191906000526020600020905b81548152906001019060200180831161109057829003601f168201915b505050505081526020016002820160009054906101000a900473ffffffffffffffffffffffffffffffffffffffff1673ffffffffffffffffffffffffffffffffffffffff1673ffffffffffffffffffffffffffffffffffffffff168152602001600382015481526020016004820180546111269061386b565b80601f01602080910402602001604051908101604052809291908181526020018280546111529061386b565b801561119f5780601f106111745761010080835404028352916020019161119f565b820191906000526020600020905b81548152906001019060200180831161118257829003601f168201915b505050505081526020016005820160009054906101000a900460ff16151515158152505090508060600151915050919050565b6060600180546111e19061386b565b80601f016020809104026020016040519081016040528092919081815260200182805461120d9061386b565b801561125a5780601f1061122f5761010080835404028352916020019161125a565b820191906000526020600020905b81548152906001019060200180831161123d57829003601f168201915b5050505050905090565b61127661126f6120f4565b8383612687565b5050565b61128b6112856120f4565b836121b5565b6112ca576040517f08c379a00000000000000000000000000000000000000000000000000000000081526004016112c190613d27565b60405180910390fd5b6112d6848484846127f3565b50505050565b6112e581610e14565b73ffffffffffffffffffffffffffffffffffffffff16600b600083815260200190815260200160002060020160009054906101000a900473ffffffffffffffffffffffffffffffffffffffff1673ffffffffffffffffffffffffffffffffffffffff161461135257600080fd5b600b600082815260200190815260200160002060050160009054906101000a900460ff166113b5576040517f08c379a00000000000000000000000000000000000000000000000000000000081526004016113ac90613dc2565b60405180910390fd5b6000600b600083815260200190815260200160002060050160006101000a81548160ff0219169083151502179055506000600982815481106113fa576113f9613d47565b5b9060005260206000209060060201905060008160050160006101000a81548160ff0219169083151502179055505050565b6060611436826120a9565b60006006600084815260200190815260200160002080546114569061386b565b80601f01602080910402602001604051908101604052809291908181526020018280546114829061386b565b80156114cf5780601f106114a4576101008083540402835291602001916114cf565b820191906000526020600020905b8154815290600101906020018083116114b257829003601f168201915b5050505050905060006114e061284f565b905060008151036114f5578192505050611538565b60008251111561152a578082604051602001611512929190614060565b60405160208183030381529060405292505050611538565b61153384612866565b925050505b919050565b6060600060085467ffffffffffffffff81111561155d5761155c613055565b5b60405190808252806020026020018201604052801561159657816020015b611583612f1d565b81526020019060019003908161157b5790505b50905060005b6008548110156117b3576000600982815481106115bc576115bb613d47565b5b90600052602060002090600602019050806040518060c0016040529081600082015481526020016001820180546115f29061386b565b80601f016020809104026020016040519081016040528092919081815260200182805461161e9061386b565b801561166b5780601f106116405761010080835404028352916020019161166b565b820191906000526020600020905b81548152906001019060200180831161164e57829003601f168201915b505050505081526020016002820160009054906101000a900473ffffffffffffffffffffffffffffffffffffffff1673ffffffffffffffffffffffffffffffffffffffff1673ffffffffffffffffffffffffffffffffffffffff168152602001600382015481526020016004820180546116e49061386b565b80601f01602080910402602001604051908101604052809291908181526020018280546117109061386b565b801561175d5780601f106117325761010080835404028352916020019161175d565b820191906000526020600020905b81548152906001019060200180831161174057829003601f168201915b505050505081526020016005820160009054906101000a900460ff16151515158152505083838151811061179457611793613d47565b5b60200260200101819052505080806117ab90613b49565b91505061159c565b506009805480602002602001604051908101604052809291908181526020016000905b828210156119b157838290600052602060002090600602016040518060c0016040529081600082015481526020016001820180546118139061386b565b80601f016020809104026020016040519081016040528092919081815260200182805461183f9061386b565b801561188c5780601f106118615761010080835404028352916020019161188c565b820191906000526020600020905b81548152906001019060200180831161186f57829003601f168201915b505050505081526020016002820160009054906101000a900473ffffffffffffffffffffffffffffffffffffffff1673ffffffffffffffffffffffffffffffffffffffff1673ffffffffffffffffffffffffffffffffffffffff168152602001600382015481526020016004820180546119059061386b565b80601f01602080910402602001604051908101604052809291908181526020018280546119319061386b565b801561197e5780601f106119535761010080835404028352916020019161197e565b820191906000526020600020905b81548152906001019060200180831161196157829003601f168201915b505050505081526020016005820160009054906101000a900460ff161515151581525050815260200190600101906117d6565b5050505091505090565b60606119c733836121b5565b611a06576040517f08c379a00000000000000000000000000000000000000000000000000000000081526004016119fd906140d0565b60405180910390fd5b600b600083815260200190815260200160002060050160009054906101000a900460ff1615611a6a576040517f08c379a0000000000000000000000000000000000000000000000000000000008152600401611a619061413c565b60405180910390fd5b6001600b600084815260200190815260200160002060050160006101000a81548160ff021916908315150217905550600060098381548110611aaf57611aae613d47565b5b9060005260206000209060060201905060018160050160006101000a81548160ff0219169083151502179055506040518060400160405280600381526020017f4963690000000000000000000000000000000000000000000000000000000000815250915050919050565b6000600560008473ffffffffffffffffffffffffffffffffffffffff1673ffffffffffffffffffffffffffffffffffffffff16815260200190815260200160002060008373ffffffffffffffffffffffffffffffffffffffff1673ffffffffffffffffffffffffffffffffffffffff16815260200190815260200160002060009054906101000a900460ff16905092915050565b611bb6611fa0565b600073ffffffffffffffffffffffffffffffffffffffff168173ffffffffffffffffffffffffffffffffffffffff1603611c25576040517f08c379a0000000000000000000000000000000000000000000000000000000008152600401611c1c906141ce565b60405180910390fd5b611c2e81612580565b50565b6060600060098054905067ffffffffffffffff811115611c5457611c53613055565b5b604051908082528060200260200182016040528015611c8d57816020015b611c7a612f1d565b815260200190600190039081611c725790505b5090506000611c9a610f86565b905060005b600980549050811015611f2d578173ffffffffffffffffffffffffffffffffffffffff1660098281548110611cd757611cd6613d47565b5b906000526020600020906006020160020160009054906101000a900473ffffffffffffffffffffffffffffffffffffffff1673ffffffffffffffffffffffffffffffffffffffff1603611f195760098181548110611d3857611d37613d47565b5b90600052602060002090600602016040518060c001604052908160008201548152602001600182018054611d6b9061386b565b80601f0160208091040260200160405190810160405280929190818152602001828054611d979061386b565b8015611de45780601f10611db957610100808354040283529160200191611de4565b820191906000526020600020905b815481529060010190602001808311611dc757829003601f168201915b505050505081526020016002820160009054906101000a900473ffffffffffffffffffffffffffffffffffffffff1673ffffffffffffffffffffffffffffffffffffffff1673ffffffffffffffffffffffffffffffffffffffff16815260200160038201548152602001600482018054611e5d9061386b565b80601f0160208091040260200160405190810160405280929190818152602001828054611e899061386b565b8015611ed65780601f10611eab57610100808354040283529160200191611ed6565b820191906000526020600020905b815481529060010190602001808311611eb957829003601f168201915b505050505081526020016005820160009054906101000a900460ff161515151581525050838281518110611f0d57611f0c613d47565b5b60200260200101819052505b600181611f2691906141ee565b9050611c9f565b50819250505090565b60007f01ffc9a7000000000000000000000000000000000000000000000000000000007bffffffffffffffffffffffffffffffffffffffffffffffffffffffff1916827bffffffffffffffffffffffffffffffffffffffffffffffffffffffff1916149050919050565b611fa86120f4565b73ffffffffffffffffffffffffffffffffffffffff16611fc6610f86565b73ffffffffffffffffffffffffffffffffffffffff161461201c576040517f08c379a00000000000000000000000000000000000000000000000000000000081526004016120139061426e565b60405180910390fd5b565b6120388282604051806020016040528060008152506128ce565b5050565b61204582612646565b612084576040517f08c379a000000000000000000000000000000000000000000000000000000000815260040161207b90614300565b60405180910390fd5b806006600084815260200190815260200160002090816120a49190613a48565b505050565b6120b281612646565b6120f1576040517f08c379a00000000000000000000000000000000000000000000000000000000081526004016120e890613f06565b60405180910390fd5b50565b600033905090565b816004600083815260200190815260200160002060006101000a81548173ffffffffffffffffffffffffffffffffffffffff021916908373ffffffffffffffffffffffffffffffffffffffff160217905550808273ffffffffffffffffffffffffffffffffffffffff1661216f83610e14565b73ffffffffffffffffffffffffffffffffffffffff167f8c5be1e5ebec7d5bd14f71427d1e84f3dd0314c0f7b2291e5b200ac8c7c3b92560405160405180910390a45050565b6000806121c183610e14565b90508073ffffffffffffffffffffffffffffffffffffffff168473ffffffffffffffffffffffffffffffffffffffff16148061220357506122028185611b1a565b5b8061224157508373ffffffffffffffffffffffffffffffffffffffff16612229846109a0565b73ffffffffffffffffffffffffffffffffffffffff16145b91505092915050565b8273ffffffffffffffffffffffffffffffffffffffff1661226a82610e14565b73ffffffffffffffffffffffffffffffffffffffff16146122c0576040517f08c379a00000000000000000000000000000000000000000000000000000000081526004016122b790614392565b60405180910390fd5b600073ffffffffffffffffffffffffffffffffffffffff168273ffffffffffffffffffffffffffffffffffffffff160361232f576040517f08c379a000000000000000000000000000000000000000000000000000000000815260040161232690614424565b60405180910390fd5b61233c8383836001612929565b8273ffffffffffffffffffffffffffffffffffffffff1661235c82610e14565b73ffffffffffffffffffffffffffffffffffffffff16146123b2576040517f08c379a00000000000000000000000000000000000000000000000000000000081526004016123a990614392565b60405180910390fd5b6004600082815260200190815260200160002060006101000a81549073ffffffffffffffffffffffffffffffffffffffff02191690556001600360008573ffffffffffffffffffffffffffffffffffffffff1673ffffffffffffffffffffffffffffffffffffffff168152602001908152602001600020600082825403925050819055506001600360008473ffffffffffffffffffffffffffffffffffffffff1673ffffffffffffffffffffffffffffffffffffffff16815260200190815260200160002060008282540192505081905550816002600083815260200190815260200160002060006101000a81548173ffffffffffffffffffffffffffffffffffffffff021916908373ffffffffffffffffffffffffffffffffffffffff160217905550808273ffffffffffffffffffffffffffffffffffffffff168473ffffffffffffffffffffffffffffffffffffffff167fddf252ad1be2c89b69c2b068fc378daa952ba7f163c4a11628f55a4df523b3ef60405160405180910390a461253e838383600161292f565b505050565b60006002600083815260200190815260200160002060009054906101000a900473ffffffffffffffffffffffffffffffffffffffff169050919050565b6000600760009054906101000a900473ffffffffffffffffffffffffffffffffffffffff16905081600760006101000a81548173ffffffffffffffffffffffffffffffffffffffff021916908373ffffffffffffffffffffffffffffffffffffffff1602179055508173ffffffffffffffffffffffffffffffffffffffff168173ffffffffffffffffffffffffffffffffffffffff167f8be0079c531659141344cd1fd0a4f28419497f9722a3daafe3b4186f6b6457e060405160405180910390a35050565b60008073ffffffffffffffffffffffffffffffffffffffff1661266883612543565b73ffffffffffffffffffffffffffffffffffffffff1614159050919050565b8173ffffffffffffffffffffffffffffffffffffffff168373ffffffffffffffffffffffffffffffffffffffff16036126f5576040517f08c379a00000000000000000000000000000000000000000000000000000000081526004016126ec90614490565b60405180910390fd5b80600560008573ffffffffffffffffffffffffffffffffffffffff1673ffffffffffffffffffffffffffffffffffffffff16815260200190815260200160002060008473ffffffffffffffffffffffffffffffffffffffff1673ffffffffffffffffffffffffffffffffffffffff16815260200190815260200160002060006101000a81548160ff0219169083151502179055508173ffffffffffffffffffffffffffffffffffffffff168373ffffffffffffffffffffffffffffffffffffffff167f17307eab39ab6107e8899845ad3d59bd9653f200f220920489ca2b5937696c31836040516127e6919061301f565b60405180910390a3505050565b6127fe84848461224a565b61280a84848484612935565b612849576040517f08c379a000000000000000000000000000000000000000000000000000000000815260040161284090614522565b60405180910390fd5b50505050565b606060405180602001604052806000815250905090565b6060612871826120a9565b600061287b61284f565b9050600081511161289b57604051806020016040528060008152506128c6565b806128a584612abc565b6040516020016128b6929190614060565b6040516020818303038152906040525b915050919050565b6128d88383612b8a565b6128e56000848484612935565b612924576040517f08c379a000000000000000000000000000000000000000000000000000000000815260040161291b90614522565b60405180910390fd5b505050565b50505050565b50505050565b60006129568473ffffffffffffffffffffffffffffffffffffffff16612da7565b15612aaf578373ffffffffffffffffffffffffffffffffffffffff1663150b7a0261297f6120f4565b8786866040518563ffffffff1660e01b81526004016129a19493929190614597565b6020604051808303816000875af19250505080156129dd57506040513d601f19601f820116820180604052508101906129da91906145f8565b60015b612a5f573d8060008114612a0d576040519150601f19603f3d011682016040523d82523d6000602084013e612a12565b606091505b506000815103612a57576040517f08c379a0000000000000000000000000000000000000000000000000000000008152600401612a4e90614522565b60405180910390fd5b805181602001fd5b63150b7a0260e01b7bffffffffffffffffffffffffffffffffffffffffffffffffffffffff1916817bffffffffffffffffffffffffffffffffffffffffffffffffffffffff191614915050612ab4565b600190505b949350505050565b606060006001612acb84612dca565b01905060008167ffffffffffffffff811115612aea57612ae9613055565b5b6040519080825280601f01601f191660200182016040528015612b1c5781602001600182028036833780820191505090505b509050600082602001820190505b600115612b7f578080600190039150507f3031323334353637383961626364656600000000000000000000000000000000600a86061a8153600a8581612b7357612b72614625565b5b04945060008503612b2a575b819350505050919050565b600073ffffffffffffffffffffffffffffffffffffffff168273ffffffffffffffffffffffffffffffffffffffff1603612bf9576040517f08c379a0000000000000000000000000000000000000000000000000000000008152600401612bf0906146a0565b60405180910390fd5b612c0281612646565b15612c42576040517f08c379a0000000000000000000000000000000000000000000000000000000008152600401612c399061470c565b60405180910390fd5b612c50600083836001612929565b612c5981612646565b15612c99576040517f08c379a0000000000000000000000000000000000000000000000000000000008152600401612c909061470c565b60405180910390fd5b6001600360008473ffffffffffffffffffffffffffffffffffffffff1673ffffffffffffffffffffffffffffffffffffffff16815260200190815260200160002060008282540192505081905550816002600083815260200190815260200160002060006101000a81548173ffffffffffffffffffffffffffffffffffffffff021916908373ffffffffffffffffffffffffffffffffffffffff160217905550808273ffffffffffffffffffffffffffffffffffffffff16600073ffffffffffffffffffffffffffffffffffffffff167fddf252ad1be2c89b69c2b068fc378daa952ba7f163c4a11628f55a4df523b3ef60405160405180910390a4612da360008383600161292f565b5050565b6000808273ffffffffffffffffffffffffffffffffffffffff163b119050919050565b600080600090507a184f03e93ff9f4daa797ed6e38ed64bf6a1f0100000000000000008310612e28577a184f03e93ff9f4daa797ed6e38ed64bf6a1f0100000000000000008381612e1e57612e1d614625565b5b0492506040810190505b6d04ee2d6d415b85acef81000000008310612e65576d04ee2d6d415b85acef81000000008381612e5b57612e5a614625565b5b0492506020810190505b662386f26fc100008310612e9457662386f26fc100008381612e8a57612e89614625565b5b0492506010810190505b6305f5e1008310612ebd576305f5e1008381612eb357612eb2614625565b5b0492506008810190505b6127108310612ee2576127108381612ed857612ed7614625565b5b0492506004810190505b60648310612f055760648381612efb57612efa614625565b5b0492506002810190505b600a8310612f14576001810190505b80915050919050565b6040518060c001604052806000815260200160608152602001600073ffffffffffffffffffffffffffffffffffffffff16815260200160008152602001606081526020016000151581525090565b6000604051905090565b600080fd5b600080fd5b60007fffffffff0000000000000000000000000000000000000000000000000000000082169050919050565b612fb481612f7f565b8114612fbf57600080fd5b50565b600081359050612fd181612fab565b92915050565b600060208284031215612fed57612fec612f75565b5b6000612ffb84828501612fc2565b91505092915050565b60008115159050919050565b61301981613004565b82525050565b60006020820190506130346000830184613010565b92915050565b600080fd5b600080fd5b6000601f19601f8301169050919050565b7f4e487b7100000000000000000000000000000000000000000000000000000000600052604160045260246000fd5b61308d82613044565b810181811067ffffffffffffffff821117156130ac576130ab613055565b5b80604052505050565b60006130bf612f6b565b90506130cb8282613084565b919050565b600067ffffffffffffffff8211156130eb576130ea613055565b5b6130f482613044565b9050602081019050919050565b82818337600083830152505050565b600061312361311e846130d0565b6130b5565b90508281526020810184848401111561313f5761313e61303f565b5b61314a848285613101565b509392505050565b600082601f8301126131675761316661303a565b5b8135613177848260208601613110565b91505092915050565b6000819050919050565b61319381613180565b811461319e57600080fd5b50565b6000813590506131b08161318a565b92915050565b6000806000606084860312156131cf576131ce612f75565b5b600084013567ffffffffffffffff8111156131ed576131ec612f7a565b5b6131f986828701613152565b935050602061320a868287016131a1565b925050604084013567ffffffffffffffff81111561322b5761322a612f7a565b5b61323786828701613152565b9150509250925092565b600081519050919050565b600082825260208201905092915050565b60005b8381101561327b578082015181840152602081019050613260565b60008484015250505050565b600061329282613241565b61329c818561324c565b93506132ac81856020860161325d565b6132b581613044565b840191505092915050565b600060208201905081810360008301526132da8184613287565b905092915050565b6000602082840312156132f8576132f7612f75565b5b6000613306848285016131a1565b91505092915050565b600073ffffffffffffffffffffffffffffffffffffffff82169050919050565b600061333a8261330f565b9050919050565b61334a8161332f565b82525050565b60006020820190506133656000830184613341565b92915050565b6133748161332f565b811461337f57600080fd5b50565b6000813590506133918161336b565b92915050565b600080604083850312156133ae576133ad612f75565b5b60006133bc85828601613382565b92505060206133cd858286016131a1565b9150509250929050565b6000806000606084860312156133f0576133ef612f75565b5b60006133fe86828701613382565b935050602061340f86828701613382565b9250506040613420868287016131a1565b9150509250925092565b6000602082840312156134405761343f612f75565b5b600061344e84828501613382565b91505092915050565b61346081613180565b82525050565b600060208201905061347b6000830184613457565b92915050565b61348a81613004565b811461349557600080fd5b50565b6000813590506134a781613481565b92915050565b600080604083850312156134c4576134c3612f75565b5b60006134d285828601613382565b92505060206134e385828601613498565b9150509250929050565b600067ffffffffffffffff82111561350857613507613055565b5b61351182613044565b9050602081019050919050565b600061353161352c846134ed565b6130b5565b90508281526020810184848401111561354d5761354c61303f565b5b613558848285613101565b509392505050565b600082601f8301126135755761357461303a565b5b813561358584826020860161351e565b91505092915050565b600080600080608085870312156135a8576135a7612f75565b5b60006135b687828801613382565b94505060206135c787828801613382565b93505060406135d8878288016131a1565b925050606085013567ffffffffffffffff8111156135f9576135f8612f7a565b5b61360587828801613560565b91505092959194509250565b600081519050919050565b600082825260208201905092915050565b6000819050602082019050919050565b61364681613180565b82525050565b600082825260208201905092915050565b600061366882613241565b613672818561364c565b935061368281856020860161325d565b61368b81613044565b840191505092915050565b61369f8161332f565b82525050565b6136ae81613004565b82525050565b600060c0830160008301516136cc600086018261363d565b50602083015184820360208601526136e4828261365d565b91505060408301516136f96040860182613696565b50606083015161370c606086018261363d565b5060808301518482036080860152613724828261365d565b91505060a083015161373960a08601826136a5565b508091505092915050565b600061375083836136b4565b905092915050565b6000602082019050919050565b600061377082613611565b61377a818561361c565b93508360208202850161378c8561362d565b8060005b858110156137c857848403895281516137a98582613744565b94506137b483613758565b925060208a01995050600181019050613790565b50829750879550505050505092915050565b600060208201905081810360008301526137f48184613765565b905092915050565b6000806040838503121561381357613812612f75565b5b600061382185828601613382565b925050602061383285828601613382565b9150509250929050565b7f4e487b7100000000000000000000000000000000000000000000000000000000600052602260045260246000fd5b6000600282049050600182168061388357607f821691505b6020821081036138965761389561383c565b5b50919050565b60008190508160005260206000209050919050565b60006020601f8301049050919050565b600082821b905092915050565b6000600883026138fe7fffffffffffffffffffffffffffffffffffffffffffffffffffffffffffffffff826138c1565b61390886836138c1565b95508019841693508086168417925050509392505050565b6000819050919050565b600061394561394061393b84613180565b613920565b613180565b9050919050565b6000819050919050565b61395f8361392a565b61397361396b8261394c565b8484546138ce565b825550505050565b600090565b61398861397b565b613993818484613956565b505050565b5b818110156139b7576139ac600082613980565b600181019050613999565b5050565b601f8211156139fc576139cd8161389c565b6139d6846138b1565b810160208510156139e5578190505b6139f96139f1856138b1565b830182613998565b50505b505050565b600082821c905092915050565b6000613a1f60001984600802613a01565b1980831691505092915050565b6000613a388383613a0e565b9150826002028217905092915050565b613a5182613241565b67ffffffffffffffff811115613a6a57613a69613055565b5b613a74825461386b565b613a7f8282856139bb565b600060209050601f831160018114613ab25760008415613aa0578287015190505b613aaa8582613a2c565b865550613b12565b601f198416613ac08661389c565b60005b82811015613ae857848901518255600182019150602085019450602081019050613ac3565b86831015613b055784890151613b01601f891682613a0e565b8355505b6001600288020188555050505b505050505050565b7f4e487b7100000000000000000000000000000000000000000000000000000000600052601160045260246000fd5b6000613b5482613180565b91507fffffffffffffffffffffffffffffffffffffffffffffffffffffffffffffffff8203613b8657613b85613b1a565b5b600182019050919050565b7f4552433732313a20617070726f76616c20746f2063757272656e74206f776e6560008201527f7200000000000000000000000000000000000000000000000000000000000000602082015250565b6000613bed60218361324c565b9150613bf882613b91565b604082019050919050565b60006020820190508181036000830152613c1c81613be0565b9050919050565b7f4552433732313a20617070726f76652063616c6c6572206973206e6f7420746f60008201527f6b656e206f776e6572206f7220617070726f76656420666f7220616c6c000000602082015250565b6000613c7f603d8361324c565b9150613c8a82613c23565b604082019050919050565b60006020820190508181036000830152613cae81613c72565b9050919050565b7f4552433732313a2063616c6c6572206973206e6f7420746f6b656e206f776e6560008201527f72206f7220617070726f76656400000000000000000000000000000000000000602082015250565b6000613d11602d8361324c565b9150613d1c82613cb5565b604082019050919050565b60006020820190508181036000830152613d4081613d04565b9050919050565b7f4e487b7100000000000000000000000000000000000000000000000000000000600052603260045260246000fd5b7f4e4654206973206e6f7420666f722073616c6500000000000000000000000000600082015250565b6000613dac60138361324c565b9150613db782613d76565b602082019050919050565b60006020820190508181036000830152613ddb81613d9f565b9050919050565b7f496e636f7272656374207061796d656e7420616d6f756e740000000000000000600082015250565b6000613e1860188361324c565b9150613e2382613de2565b602082019050919050565b60006020820190508181036000830152613e4781613e0b565b9050919050565b7f4f776e65722063616e27742073656c6c204e465420666f722068696d73656c66600082015250565b6000613e8460208361324c565b9150613e8f82613e4e565b602082019050919050565b60006020820190508181036000830152613eb381613e77565b9050919050565b7f4552433732313a20696e76616c696420746f6b656e2049440000000000000000600082015250565b6000613ef060188361324c565b9150613efb82613eba565b602082019050919050565b60006020820190508181036000830152613f1f81613ee3565b9050919050565b7f4552433732313a2061646472657373207a65726f206973206e6f74206120766160008201527f6c6964206f776e65720000000000000000000000000000000000000000000000602082015250565b6000613f8260298361324c565b9150613f8d82613f26565b604082019050919050565b60006020820190508181036000830152613fb181613f75565b9050919050565b7f496e76616c696420746f6b656e20494400000000000000000000000000000000600082015250565b6000613fee60108361324c565b9150613ff982613fb8565b602082019050919050565b6000602082019050818103600083015261401d81613fe1565b9050919050565b600081905092915050565b600061403a82613241565b6140448185614024565b935061405481856020860161325d565b80840191505092915050565b600061406c828561402f565b9150614078828461402f565b91508190509392505050565b7f43616c6c6572206973206e6f74206f776e6572206e6f7220617070726f766564600082015250565b60006140ba60208361324c565b91506140c582614084565b602082019050919050565b600060208201905081810360008301526140e9816140ad565b9050919050565b7f4e465420697320616c726561647920666f722073616c65000000000000000000600082015250565b600061412660178361324c565b9150614131826140f0565b602082019050919050565b6000602082019050818103600083015261415581614119565b9050919050565b7f4f776e61626c653a206e6577206f776e657220697320746865207a65726f206160008201527f6464726573730000000000000000000000000000000000000000000000000000602082015250565b60006141b860268361324c565b91506141c38261415c565b604082019050919050565b600060208201905081810360008301526141e7816141ab565b9050919050565b60006141f982613180565b915061420483613180565b925082820190508082111561421c5761421b613b1a565b5b92915050565b7f4f776e61626c653a2063616c6c6572206973206e6f7420746865206f776e6572600082015250565b600061425860208361324c565b915061426382614222565b602082019050919050565b600060208201905081810360008301526142878161424b565b9050919050565b7f45524337323155524953746f726167653a2055524920736574206f66206e6f6e60008201527f6578697374656e7420746f6b656e000000000000000000000000000000000000602082015250565b60006142ea602e8361324c565b91506142f58261428e565b604082019050919050565b60006020820190508181036000830152614319816142dd565b9050919050565b7f4552433732313a207472616e736665722066726f6d20696e636f72726563742060008201527f6f776e6572000000000000000000000000000000000000000000000000000000602082015250565b600061437c60258361324c565b915061438782614320565b604082019050919050565b600060208201905081810360008301526143ab8161436f565b9050919050565b7f4552433732313a207472616e7366657220746f20746865207a65726f2061646460008201527f7265737300000000000000000000000000000000000000000000000000000000602082015250565b600061440e60248361324c565b9150614419826143b2565b604082019050919050565b6000602082019050818103600083015261443d81614401565b9050919050565b7f4552433732313a20617070726f766520746f2063616c6c657200000000000000600082015250565b600061447a60198361324c565b915061448582614444565b602082019050919050565b600060208201905081810360008301526144a98161446d565b9050919050565b7f4552433732313a207472616e7366657220746f206e6f6e20455243373231526560008201527f63656976657220696d706c656d656e7465720000000000000000000000000000602082015250565b600061450c60328361324c565b9150614517826144b0565b604082019050919050565b6000602082019050818103600083015261453b816144ff565b9050919050565b600081519050919050565b600082825260208201905092915050565b600061456982614542565b614573818561454d565b935061458381856020860161325d565b61458c81613044565b840191505092915050565b60006080820190506145ac6000830187613341565b6145b96020830186613341565b6145c66040830185613457565b81810360608301526145d8818461455e565b905095945050505050565b6000815190506145f281612fab565b92915050565b60006020828403121561460e5761460d612f75565b5b600061461c848285016145e3565b91505092915050565b7f4e487b7100000000000000000000000000000000000000000000000000000000600052601260045260246000fd5b7f4552433732313a206d696e7420746f20746865207a65726f2061646472657373600082015250565b600061468a60208361324c565b915061469582614654565b602082019050919050565b600060208201905081810360008301526146b98161467d565b9050919050565b7f4552433732313a20746f6b656e20616c7265616479206d696e74656400000000600082015250565b60006146f6601c8361324c565b9150614701826146c0565b602082019050919050565b60006020820190508181036000830152614725816146e9565b905091905056fea2646970667358221220a08310d3b7e29e92bfab3fba43312b65feb4a66c473357fed1bd5d49a6a2a5da64736f6c63430008120033",
  "linkReferences": {},
  "deployedLinkReferences": {}
}