{
  "_format": "hh-sol-artifact-1",
  "contractName": "NFTWheels",
  "sourceName": "contracts/NFTWheels.sol",
  "abi": [
    {
      "inputs": [
        {
          "internalType": "string",
          "name": "name_",
          "type": "string"
        },
        {
          "internalType": "string",
          "name": "symbol_",
          "type": "string"
        }
      ],
      "stateMutability": "nonpayable",
      "type": "constructor"
    },
    {
      "anonymous": false,
      "inputs": [
        {
          "indexed": true,
          "internalType": "address",
          "name": "owner",
          "type": "address"
        },
        {
          "indexed": true,
          "internalType": "address",
          "name": "approved",
          "type": "address"
        },
        {
          "indexed": true,
          "internalType": "uint256",
          "name": "tokenId",
          "type": "uint256"
        }
      ],
      "name": "Approval",
      "type": "event"
    },
    {
      "anonymous": false,
      "inputs": [
        {
          "indexed": true,
          "internalType": "address",
          "name": "owner",
          "type": "address"
        },
        {
          "indexed": true,
          "internalType": "address",
          "name": "operator",
          "type": "address"
        },
        {
          "indexed": false,
          "internalType": "bool",
          "name": "approved",
          "type": "bool"
        }
      ],
      "name": "ApprovalForAll",
      "type": "event"
    },
    {
      "anonymous": false,
      "inputs": [
        {
          "indexed": true,
          "internalType": "address",
          "name": "previousOwner",
          "type": "address"
        },
        {
          "indexed": true,
          "internalType": "address",
          "name": "newOwner",
          "type": "address"
        }
      ],
      "name": "OwnershipTransferred",
      "type": "event"
    },
    {
      "anonymous": false,
      "inputs": [
        {
          "indexed": true,
          "internalType": "address",
          "name": "from",
          "type": "address"
        },
        {
          "indexed": true,
          "internalType": "address",
          "name": "to",
          "type": "address"
        },
        {
          "indexed": true,
          "internalType": "uint256",
          "name": "tokenId",
          "type": "uint256"
        }
      ],
      "name": "Transfer",
      "type": "event"
    },
    {
      "inputs": [
        {
          "internalType": "uint256",
          "name": "_tokenId",
          "type": "uint256"
        }
      ],
      "name": "_buy",
      "outputs": [],
      "stateMutability": "payable",
      "type": "function"
    },
    {
      "inputs": [
        {
          "internalType": "uint256",
          "name": "_tokenId",
          "type": "uint256"
        }
      ],
      "name": "_sell",
      "outputs": [
        {
          "internalType": "string",
          "name": "",
          "type": "string"
        }
      ],
      "stateMutability": "nonpayable",
      "type": "function"
    },
    {
      "inputs": [
        {
          "internalType": "address",
          "name": "to",
          "type": "address"
        },
        {
          "internalType": "uint256",
          "name": "tokenId",
          "type": "uint256"
        }
      ],
      "name": "approve",
      "outputs": [],
      "stateMutability": "nonpayable",
      "type": "function"
    },
    {
      "inputs": [
        {
          "internalType": "address",
          "name": "owner",
          "type": "address"
        }
      ],
      "name": "balanceOf",
      "outputs": [
        {
          "internalType": "uint256",
          "name": "",
          "type": "uint256"
        }
      ],
      "stateMutability": "view",
      "type": "function"
    },
    {
      "inputs": [],
      "name": "getAllNFTs",
      "outputs": [
        {
          "components": [
            {
              "internalType": "uint256",
              "name": "id",
              "type": "uint256"
            },
            {
              "internalType": "string",
              "name": "marque",
              "type": "string"
            },
            {
              "internalType": "string",
              "name": "modele",
              "type": "string"
            },
            {
              "internalType": "address",
              "name": "owner",
              "type": "address"
            },
            {
              "internalType": "uint256",
              "name": "anne",
              "type": "uint256"
            },
            {
              "internalType": "uint256",
              "name": "puissance",
              "type": "uint256"
            },
            {
              "internalType": "uint256",
              "name": "vitesseMax",
              "type": "uint256"
            },
            {
              "internalType": "uint256",
              "name": "price",
              "type": "uint256"
            },
            {
              "internalType": "string",
              "name": "image",
              "type": "string"
            },
            {
              "internalType": "bool",
              "name": "isForSale",
              "type": "bool"
            }
          ],
          "internalType": "struct NFTWheels.Car[]",
          "name": "",
          "type": "tuple[]"
        }
      ],
      "stateMutability": "view",
      "type": "function"
    },
    {
      "inputs": [
        {
          "internalType": "uint256",
          "name": "tokenId",
          "type": "uint256"
        }
      ],
      "name": "getApproved",
      "outputs": [
        {
          "internalType": "address",
          "name": "",
          "type": "address"
        }
      ],
      "stateMutability": "view",
      "type": "function"
    },
    {
      "inputs": [
        {
          "internalType": "uint256",
          "name": "_tokenId",
          "type": "uint256"
        }
      ],
      "name": "getNFTPrice",
      "outputs": [
        {
          "internalType": "uint256",
          "name": "",
          "type": "uint256"
        }
      ],
      "stateMutability": "view",
      "type": "function"
    },
    {
      "inputs": [],
      "name": "getOwner",
      "outputs": [
        {
          "internalType": "address",
          "name": "",
          "type": "address"
        }
      ],
      "stateMutability": "view",
      "type": "function"
    },
    {
      "inputs": [
        {
          "internalType": "uint256",
          "name": "_tokenId",
          "type": "uint256"
        }
      ],
      "name": "getOwnerOf",
      "outputs": [
        {
          "internalType": "address",
          "name": "",
          "type": "address"
        }
      ],
      "stateMutability": "view",
      "type": "function"
    },
    {
      "inputs": [
        {
          "internalType": "address",
          "name": "owner",
          "type": "address"
        },
        {
          "internalType": "address",
          "name": "operator",
          "type": "address"
        }
      ],
      "name": "isApprovedForAll",
      "outputs": [
        {
          "internalType": "bool",
          "name": "",
          "type": "bool"
        }
      ],
      "stateMutability": "view",
      "type": "function"
    },
    {
      "inputs": [
        {
          "internalType": "string",
          "name": "_marque",
          "type": "string"
        },
        {
          "internalType": "string",
          "name": "_modele",
          "type": "string"
        },
        {
          "internalType": "uint256",
          "name": "_anne",
          "type": "uint256"
        },
        {
          "internalType": "uint256",
          "name": "_puissance",
          "type": "uint256"
        },
        {
          "internalType": "uint256",
          "name": "_vitesseMax",
          "type": "uint256"
        },
        {
          "internalType": "string",
          "name": "_img",
          "type": "string"
        }
      ],
      "name": "mint",
      "outputs": [],
      "stateMutability": "nonpayable",
      "type": "function"
    },
    {
      "inputs": [],
      "name": "name",
      "outputs": [
        {
          "internalType": "string",
          "name": "",
          "type": "string"
        }
      ],
      "stateMutability": "view",
      "type": "function"
    },
    {
      "inputs": [],
      "name": "owner",
      "outputs": [
        {
          "internalType": "address",
          "name": "",
          "type": "address"
        }
      ],
      "stateMutability": "view",
      "type": "function"
    },
    {
      "inputs": [
        {
          "internalType": "uint256",
          "name": "tokenId",
          "type": "uint256"
        }
      ],
      "name": "ownerOf",
      "outputs": [
        {
          "internalType": "address",
          "name": "",
          "type": "address"
        }
      ],
      "stateMutability": "view",
      "type": "function"
    },
    {
      "inputs": [
        {
          "internalType": "uint256",
          "name": "_tokenId",
          "type": "uint256"
        }
      ],
      "name": "removeFromSell",
      "outputs": [],
      "stateMutability": "nonpayable",
      "type": "function"
    },
    {
      "inputs": [],
      "name": "renounceOwnership",
      "outputs": [],
      "stateMutability": "nonpayable",
      "type": "function"
    },
    {
      "inputs": [
        {
          "internalType": "address",
          "name": "from",
          "type": "address"
        },
        {
          "internalType": "address",
          "name": "to",
          "type": "address"
        },
        {
          "internalType": "uint256",
          "name": "tokenId",
          "type": "uint256"
        }
      ],
      "name": "safeTransferFrom",
      "outputs": [],
      "stateMutability": "nonpayable",
      "type": "function"
    },
    {
      "inputs": [
        {
          "internalType": "address",
          "name": "from",
          "type": "address"
        },
        {
          "internalType": "address",
          "name": "to",
          "type": "address"
        },
        {
          "internalType": "uint256",
          "name": "tokenId",
          "type": "uint256"
        },
        {
          "internalType": "bytes",
          "name": "data",
          "type": "bytes"
        }
      ],
      "name": "safeTransferFrom",
      "outputs": [],
      "stateMutability": "nonpayable",
      "type": "function"
    },
    {
      "inputs": [
        {
          "internalType": "address",
          "name": "operator",
          "type": "address"
        },
        {
          "internalType": "bool",
          "name": "approved",
          "type": "bool"
        }
      ],
      "name": "setApprovalForAll",
      "outputs": [],
      "stateMutability": "nonpayable",
      "type": "function"
    },
    {
      "inputs": [
        {
          "internalType": "uint256",
          "name": "_newPrice",
          "type": "uint256"
        }
      ],
      "name": "setDefaultPrice",
      "outputs": [
        {
          "internalType": "uint256",
          "name": "",
          "type": "uint256"
        }
      ],
      "stateMutability": "nonpayable",
      "type": "function"
    },
    {
      "inputs": [
        {
          "internalType": "bytes4",
          "name": "interfaceId",
          "type": "bytes4"
        }
      ],
      "name": "supportsInterface",
      "outputs": [
        {
          "internalType": "bool",
          "name": "",
          "type": "bool"
        }
      ],
      "stateMutability": "view",
      "type": "function"
    },
    {
      "inputs": [],
      "name": "symbol",
      "outputs": [
        {
          "internalType": "string",
          "name": "",
          "type": "string"
        }
      ],
      "stateMutability": "view",
      "type": "function"
    },
    {
      "inputs": [
        {
          "internalType": "uint256",
          "name": "tokenId",
          "type": "uint256"
        }
      ],
      "name": "tokenURI",
      "outputs": [
        {
          "internalType": "string",
          "name": "",
          "type": "string"
        }
      ],
      "stateMutability": "view",
      "type": "function"
    },
    {
      "inputs": [
        {
          "internalType": "address",
          "name": "from",
          "type": "address"
        },
        {
          "internalType": "address",
          "name": "to",
          "type": "address"
        },
        {
          "internalType": "uint256",
          "name": "tokenId",
          "type": "uint256"
        }
      ],
      "name": "transferFrom",
      "outputs": [],
      "stateMutability": "nonpayable",
      "type": "function"
    },
    {
      "inputs": [
        {
          "internalType": "address",
          "name": "newOwner",
          "type": "address"
        }
      ],
      "name": "transferOwnership",
      "outputs": [],
      "stateMutability": "nonpayable",
      "type": "function"
    }
  ],
  "bytecode": "0x60806040526000600755670de0b6b3a76400006008553480156200002257600080fd5b50604051620048cf380380620048cf8339818101604052810190620000489190620002f9565b818181600090816200005b9190620005c9565b5080600190816200006d9190620005c9565b50505062000090620000846200009860201b60201c565b620000a060201b60201c565b5050620006b0565b600033905090565b6000600660009054906101000a900473ffffffffffffffffffffffffffffffffffffffff16905081600660006101000a81548173ffffffffffffffffffffffffffffffffffffffff021916908373ffffffffffffffffffffffffffffffffffffffff1602179055508173ffffffffffffffffffffffffffffffffffffffff168173ffffffffffffffffffffffffffffffffffffffff167f8be0079c531659141344cd1fd0a4f28419497f9722a3daafe3b4186f6b6457e060405160405180910390a35050565b6000604051905090565b600080fd5b600080fd5b600080fd5b600080fd5b6000601f19601f8301169050919050565b7f4e487b7100000000000000000000000000000000000000000000000000000000600052604160045260246000fd5b620001cf8262000184565b810181811067ffffffffffffffff82111715620001f157620001f062000195565b5b80604052505050565b60006200020662000166565b9050620002148282620001c4565b919050565b600067ffffffffffffffff82111562000237576200023662000195565b5b620002428262000184565b9050602081019050919050565b60005b838110156200026f57808201518184015260208101905062000252565b60008484015250505050565b6000620002926200028c8462000219565b620001fa565b905082815260208101848484011115620002b157620002b06200017f565b5b620002be8482856200024f565b509392505050565b600082601f830112620002de57620002dd6200017a565b5b8151620002f08482602086016200027b565b91505092915050565b6000806040838503121562000313576200031262000170565b5b600083015167ffffffffffffffff81111562000334576200033362000175565b5b6200034285828601620002c6565b925050602083015167ffffffffffffffff81111562000366576200036562000175565b5b6200037485828601620002c6565b9150509250929050565b600081519050919050565b7f4e487b7100000000000000000000000000000000000000000000000000000000600052602260045260246000fd5b60006002820490506001821680620003d157607f821691505b602082108103620003e757620003e662000389565b5b50919050565b60008190508160005260206000209050919050565b60006020601f8301049050919050565b600082821b905092915050565b600060088302620004517fffffffffffffffffffffffffffffffffffffffffffffffffffffffffffffffff8262000412565b6200045d868362000412565b95508019841693508086168417925050509392505050565b6000819050919050565b6000819050919050565b6000620004aa620004a46200049e8462000475565b6200047f565b62000475565b9050919050565b6000819050919050565b620004c68362000489565b620004de620004d582620004b1565b8484546200041f565b825550505050565b600090565b620004f5620004e6565b62000502818484620004bb565b505050565b5b818110156200052a576200051e600082620004eb565b60018101905062000508565b5050565b601f82111562000579576200054381620003ed565b6200054e8462000402565b810160208510156200055e578190505b620005766200056d8562000402565b83018262000507565b50505b505050565b600082821c905092915050565b60006200059e600019846008026200057e565b1980831691505092915050565b6000620005b983836200058b565b9150826002028217905092915050565b620005d4826200037e565b67ffffffffffffffff811115620005f057620005ef62000195565b5b620005fc8254620003b8565b620006098282856200052e565b600060209050601f8311600181146200064157600084156200062c578287015190505b620006388582620005ab565b865550620006a8565b601f1984166200065186620003ed565b60005b828110156200067b5784890151825560018201915060208501945060208101905062000654565b868310156200069b578489015162000697601f8916826200058b565b8355505b6001600288020188555050505b505050505050565b61420f80620006c06000396000f3fe6080604052600436106101665760003560e01c8063893d20e8116100d1578063bf57fafe1161008a578063e0391b0911610064578063e0391b0914610551578063e5d5876d1461057c578063e985e9c5146105b9578063f2fde38b146105f657610166565b8063bf57fafe146104c2578063c395d9cc146104eb578063c87b56dd1461051457610166565b8063893d20e8146103b25780638da5cb5b146103dd578063929761791461040857806395d89b4114610445578063a22cb46514610470578063b88d4fde1461049957610166565b806342842e0e1161012357806342842e0e1461027e5780636352211e146102a75780636d3c7ec5146102e457806370a0823114610321578063715018a61461035e578063836387101461037557610166565b806301ffc9a71461016b57806306fdde03146101a8578063081812fc146101d3578063095ea7b31461021057806323b872dd14610239578063282303b514610262575b600080fd5b34801561017757600080fd5b50610192600480360381019061018d9190612a9c565b61061f565b60405161019f9190612ae4565b60405180910390f35b3480156101b457600080fd5b506101bd610701565b6040516101ca9190612b8f565b60405180910390f35b3480156101df57600080fd5b506101fa60048036038101906101f59190612be7565b610793565b6040516102079190612c55565b60405180910390f35b34801561021c57600080fd5b5061023760048036038101906102329190612c9c565b6107d9565b005b34801561024557600080fd5b50610260600480360381019061025b9190612cdc565b6108f0565b005b61027c60048036038101906102779190612be7565b610950565b005b34801561028a57600080fd5b506102a560048036038101906102a09190612cdc565b610be7565b005b3480156102b357600080fd5b506102ce60048036038101906102c99190612be7565b610c07565b6040516102db9190612c55565b60405180910390f35b3480156102f057600080fd5b5061030b60048036038101906103069190612be7565b610c8d565b6040516103189190612d3e565b60405180910390f35b34801561032d57600080fd5b5061034860048036038101906103439190612d59565b610ca8565b6040516103559190612d3e565b60405180910390f35b34801561036a57600080fd5b50610373610d5f565b005b34801561038157600080fd5b5061039c60048036038101906103979190612be7565b610d73565b6040516103a99190612c55565b60405180910390f35b3480156103be57600080fd5b506103c7610d85565b6040516103d49190612c55565b60405180910390f35b3480156103e957600080fd5b506103f2610d94565b6040516103ff9190612c55565b60405180910390f35b34801561041457600080fd5b5061042f600480360381019061042a9190612be7565b610dbe565b60405161043c9190612d3e565b60405180910390f35b34801561045157600080fd5b5061045a611091565b6040516104679190612b8f565b60405180910390f35b34801561047c57600080fd5b5061049760048036038101906104929190612db2565b611123565b005b3480156104a557600080fd5b506104c060048036038101906104bb9190612f27565b611139565b005b3480156104ce57600080fd5b506104e960048036038101906104e4919061304b565b61119b565b005b3480156104f757600080fd5b50610512600480360381019061050d9190612be7565b611438565b005b34801561052057600080fd5b5061053b60048036038101906105369190612be7565b611587565b6040516105489190612b8f565b60405180910390f35b34801561055d57600080fd5b506105666115ef565b604051610573919061334d565b60405180910390f35b34801561058857600080fd5b506105a3600480360381019061059e9190612be7565b6118a8565b6040516105b09190612b8f565b60405180910390f35b3480156105c557600080fd5b506105e060048036038101906105db919061336f565b611a07565b6040516105ed9190612ae4565b60405180910390f35b34801561060257600080fd5b5061061d60048036038101906106189190612d59565b611a9b565b005b60007f80ac58cd000000000000000000000000000000000000000000000000000000007bffffffffffffffffffffffffffffffffffffffffffffffffffffffff1916827bffffffffffffffffffffffffffffffffffffffffffffffffffffffff191614806106ea57507f5b5e139f000000000000000000000000000000000000000000000000000000007bffffffffffffffffffffffffffffffffffffffffffffffffffffffff1916827bffffffffffffffffffffffffffffffffffffffffffffffffffffffff1916145b806106fa57506106f982611b1e565b5b9050919050565b606060008054610710906133de565b80601f016020809104026020016040519081016040528092919081815260200182805461073c906133de565b80156107895780601f1061075e57610100808354040283529160200191610789565b820191906000526020600020905b81548152906001019060200180831161076c57829003601f168201915b5050505050905090565b600061079e82611b88565b6004600083815260200190815260200160002060009054906101000a900473ffffffffffffffffffffffffffffffffffffffff169050919050565b60006107e482610c07565b90508073ffffffffffffffffffffffffffffffffffffffff168373ffffffffffffffffffffffffffffffffffffffff1603610854576040517f08c379a000000000000000000000000000000000000000000000000000000000815260040161084b90613481565b60405180910390fd5b8073ffffffffffffffffffffffffffffffffffffffff16610873611bd3565b73ffffffffffffffffffffffffffffffffffffffff1614806108a257506108a18161089c611bd3565b611a07565b5b6108e1576040517f08c379a00000000000000000000000000000000000000000000000000000000081526004016108d890613513565b60405180910390fd5b6108eb8383611bdb565b505050565b6109016108fb611bd3565b82611c94565b610940576040517f08c379a0000000000000000000000000000000000000000000000000000000008152600401610937906135a5565b60405180910390fd5b61094b838383611d29565b505050565b600060098281548110610966576109656135c5565b5b90600052602060002090600a02019050600a600083815260200190815260200160002060090160009054906101000a900460ff166109d9576040517f08c379a00000000000000000000000000000000000000000000000000000000081526004016109d090613640565b60405180910390fd5b600a6000838152602001908152602001600020600701543414610a31576040517f08c379a0000000000000000000000000000000000000000000000000000000008152600401610a28906136ac565b60405180910390fd5b6000610a3c83610c07565b90508073ffffffffffffffffffffffffffffffffffffffff163373ffffffffffffffffffffffffffffffffffffffff1603610aac576040517f08c379a0000000000000000000000000000000000000000000000000000000008152600401610aa390613718565b60405180910390fd5b610ab7813385611d29565b6000600a600085815260200190815260200160002060090160006101000a81548160ff02191690831515021790555033600a600085815260200190815260200160002060030160006101000a81548173ffffffffffffffffffffffffffffffffffffffff021916908373ffffffffffffffffffffffffffffffffffffffff16021790555060008260090160006101000a81548160ff021916908315150217905550338260030160006101000a81548173ffffffffffffffffffffffffffffffffffffffff021916908373ffffffffffffffffffffffffffffffffffffffff1602179055508073ffffffffffffffffffffffffffffffffffffffff166108fc349081150290604051600060405180830381858888f19350505050158015610be1573d6000803e3d6000fd5b50505050565b610c0283838360405180602001604052806000815250611139565b505050565b600080610c1383612022565b9050600073ffffffffffffffffffffffffffffffffffffffff168173ffffffffffffffffffffffffffffffffffffffff1603610c84576040517f08c379a0000000000000000000000000000000000000000000000000000000008152600401610c7b90613784565b60405180910390fd5b80915050919050565b6000610c9761205f565b816008819055506008549050919050565b60008073ffffffffffffffffffffffffffffffffffffffff168273ffffffffffffffffffffffffffffffffffffffff1603610d18576040517f08c379a0000000000000000000000000000000000000000000000000000000008152600401610d0f90613816565b60405180910390fd5b600360008373ffffffffffffffffffffffffffffffffffffffff1673ffffffffffffffffffffffffffffffffffffffff168152602001908152602001600020549050919050565b610d6761205f565b610d7160006120dd565b565b6000610d7e82610c07565b9050919050565b6000610d8f610d94565b905090565b6000600660009054906101000a900473ffffffffffffffffffffffffffffffffffffffff16905090565b6000610dc9826121a3565b610e08576040517f08c379a0000000000000000000000000000000000000000000000000000000008152600401610dff90613882565b60405180910390fd5b6000600a60008481526020019081526020016000206040518061014001604052908160008201548152602001600182018054610e43906133de565b80601f0160208091040260200160405190810160405280929190818152602001828054610e6f906133de565b8015610ebc5780601f10610e9157610100808354040283529160200191610ebc565b820191906000526020600020905b815481529060010190602001808311610e9f57829003601f168201915b50505050508152602001600282018054610ed5906133de565b80601f0160208091040260200160405190810160405280929190818152602001828054610f01906133de565b8015610f4e5780601f10610f2357610100808354040283529160200191610f4e565b820191906000526020600020905b815481529060010190602001808311610f3157829003601f168201915b505050505081526020016003820160009054906101000a900473ffffffffffffffffffffffffffffffffffffffff1673ffffffffffffffffffffffffffffffffffffffff1673ffffffffffffffffffffffffffffffffffffffff16815260200160048201548152602001600582015481526020016006820154815260200160078201548152602001600882018054610fe5906133de565b80601f0160208091040260200160405190810160405280929190818152602001828054611011906133de565b801561105e5780601f106110335761010080835404028352916020019161105e565b820191906000526020600020905b81548152906001019060200180831161104157829003601f168201915b505050505081526020016009820160009054906101000a900460ff16151515158152505090508060e00151915050919050565b6060600180546110a0906133de565b80601f01602080910402602001604051908101604052809291908181526020018280546110cc906133de565b80156111195780601f106110ee57610100808354040283529160200191611119565b820191906000526020600020905b8154815290600101906020018083116110fc57829003601f168201915b5050505050905090565b61113561112e611bd3565b83836121e4565b5050565b61114a611144611bd3565b83611c94565b611189576040517f08c379a0000000000000000000000000000000000000000000000000000000008152600401611180906135a5565b60405180910390fd5b61119584848484612350565b50505050565b6111a361205f565b600060405180610140016040528060075481526020018881526020018781526020013373ffffffffffffffffffffffffffffffffffffffff168152602001868152602001858152602001848152602001600854815260200183815260200160001515815250905080600a6000600754815260200190815260200160002060008201518160000155602082015181600101908161123f9190613a4e565b5060408201518160020190816112559190613a4e565b5060608201518160030160006101000a81548173ffffffffffffffffffffffffffffffffffffffff021916908373ffffffffffffffffffffffffffffffffffffffff1602179055506080820151816004015560a0820151816005015560c0820151816006015560e082015181600701556101008201518160080190816112db9190613a4e565b506101208201518160090160006101000a81548160ff02191690831515021790555090505061130c336007546123ac565b60098190806001815401808255809150506001900390600052602060002090600a02016000909190919091506000820151816000015560208201518160010190816113579190613a4e565b50604082015181600201908161136d9190613a4e565b5060608201518160030160006101000a81548173ffffffffffffffffffffffffffffffffffffffff021916908373ffffffffffffffffffffffffffffffffffffffff1602179055506080820151816004015560a0820151816005015560c0820151816006015560e082015181600701556101008201518160080190816113f39190613a4e565b506101208201518160090160006101000a81548160ff02191690831515021790555050506007600081548092919061142a90613b4f565b919050555050505050505050565b61144181610c07565b73ffffffffffffffffffffffffffffffffffffffff16600a600083815260200190815260200160002060030160009054906101000a900473ffffffffffffffffffffffffffffffffffffffff1673ffffffffffffffffffffffffffffffffffffffff16146114ae57600080fd5b600a600082815260200190815260200160002060090160009054906101000a900460ff16611511576040517f08c379a000000000000000000000000000000000000000000000000000000000815260040161150890613640565b60405180910390fd5b6000600a600083815260200190815260200160002060090160006101000a81548160ff021916908315150217905550600060098281548110611556576115556135c5565b5b90600052602060002090600a0201905060008160090160006101000a81548160ff0219169083151502179055505050565b606061159282611b88565b600061159c6123ca565b905060008151116115bc57604051806020016040528060008152506115e7565b806115c6846123e1565b6040516020016115d7929190613bd3565b6040516020818303038152906040525b915050919050565b60606009805480602002602001604051908101604052809291908181526020016000905b8282101561189f57838290600052602060002090600a02016040518061014001604052908160008201548152602001600182018054611651906133de565b80601f016020809104026020016040519081016040528092919081815260200182805461167d906133de565b80156116ca5780601f1061169f576101008083540402835291602001916116ca565b820191906000526020600020905b8154815290600101906020018083116116ad57829003601f168201915b505050505081526020016002820180546116e3906133de565b80601f016020809104026020016040519081016040528092919081815260200182805461170f906133de565b801561175c5780601f106117315761010080835404028352916020019161175c565b820191906000526020600020905b81548152906001019060200180831161173f57829003601f168201915b505050505081526020016003820160009054906101000a900473ffffffffffffffffffffffffffffffffffffffff1673ffffffffffffffffffffffffffffffffffffffff1673ffffffffffffffffffffffffffffffffffffffff168152602001600482015481526020016005820154815260200160068201548152602001600782015481526020016008820180546117f3906133de565b80601f016020809104026020016040519081016040528092919081815260200182805461181f906133de565b801561186c5780601f106118415761010080835404028352916020019161186c565b820191906000526020600020905b81548152906001019060200180831161184f57829003601f168201915b505050505081526020016009820160009054906101000a900460ff16151515158152505081526020019060010190611613565b50505050905090565b60606118b43383611c94565b6118f3576040517f08c379a00000000000000000000000000000000000000000000000000000000081526004016118ea90613c43565b60405180910390fd5b600a600083815260200190815260200160002060090160009054906101000a900460ff1615611957576040517f08c379a000000000000000000000000000000000000000000000000000000000815260040161194e90613caf565b60405180910390fd5b6001600a600084815260200190815260200160002060090160006101000a81548160ff02191690831515021790555060006009838154811061199c5761199b6135c5565b5b90600052602060002090600a0201905060018160090160006101000a81548160ff0219169083151502179055506040518060400160405280600381526020017f4963690000000000000000000000000000000000000000000000000000000000815250915050919050565b6000600560008473ffffffffffffffffffffffffffffffffffffffff1673ffffffffffffffffffffffffffffffffffffffff16815260200190815260200160002060008373ffffffffffffffffffffffffffffffffffffffff1673ffffffffffffffffffffffffffffffffffffffff16815260200190815260200160002060009054906101000a900460ff16905092915050565b611aa361205f565b600073ffffffffffffffffffffffffffffffffffffffff168173ffffffffffffffffffffffffffffffffffffffff1603611b12576040517f08c379a0000000000000000000000000000000000000000000000000000000008152600401611b0990613d41565b60405180910390fd5b611b1b816120dd565b50565b60007f01ffc9a7000000000000000000000000000000000000000000000000000000007bffffffffffffffffffffffffffffffffffffffffffffffffffffffff1916827bffffffffffffffffffffffffffffffffffffffffffffffffffffffff1916149050919050565b611b91816121a3565b611bd0576040517f08c379a0000000000000000000000000000000000000000000000000000000008152600401611bc790613784565b60405180910390fd5b50565b600033905090565b816004600083815260200190815260200160002060006101000a81548173ffffffffffffffffffffffffffffffffffffffff021916908373ffffffffffffffffffffffffffffffffffffffff160217905550808273ffffffffffffffffffffffffffffffffffffffff16611c4e83610c07565b73ffffffffffffffffffffffffffffffffffffffff167f8c5be1e5ebec7d5bd14f71427d1e84f3dd0314c0f7b2291e5b200ac8c7c3b92560405160405180910390a45050565b600080611ca083610c07565b90508073ffffffffffffffffffffffffffffffffffffffff168473ffffffffffffffffffffffffffffffffffffffff161480611ce25750611ce18185611a07565b5b80611d2057508373ffffffffffffffffffffffffffffffffffffffff16611d0884610793565b73ffffffffffffffffffffffffffffffffffffffff16145b91505092915050565b8273ffffffffffffffffffffffffffffffffffffffff16611d4982610c07565b73ffffffffffffffffffffffffffffffffffffffff1614611d9f576040517f08c379a0000000000000000000000000000000000000000000000000000000008152600401611d9690613dd3565b60405180910390fd5b600073ffffffffffffffffffffffffffffffffffffffff168273ffffffffffffffffffffffffffffffffffffffff1603611e0e576040517f08c379a0000000000000000000000000000000000000000000000000000000008152600401611e0590613e65565b60405180910390fd5b611e1b83838360016124af565b8273ffffffffffffffffffffffffffffffffffffffff16611e3b82610c07565b73ffffffffffffffffffffffffffffffffffffffff1614611e91576040517f08c379a0000000000000000000000000000000000000000000000000000000008152600401611e8890613dd3565b60405180910390fd5b6004600082815260200190815260200160002060006101000a81549073ffffffffffffffffffffffffffffffffffffffff02191690556001600360008573ffffffffffffffffffffffffffffffffffffffff1673ffffffffffffffffffffffffffffffffffffffff168152602001908152602001600020600082825403925050819055506001600360008473ffffffffffffffffffffffffffffffffffffffff1673ffffffffffffffffffffffffffffffffffffffff16815260200190815260200160002060008282540192505081905550816002600083815260200190815260200160002060006101000a81548173ffffffffffffffffffffffffffffffffffffffff021916908373ffffffffffffffffffffffffffffffffffffffff160217905550808273ffffffffffffffffffffffffffffffffffffffff168473ffffffffffffffffffffffffffffffffffffffff167fddf252ad1be2c89b69c2b068fc378daa952ba7f163c4a11628f55a4df523b3ef60405160405180910390a461201d83838360016124b5565b505050565b60006002600083815260200190815260200160002060009054906101000a900473ffffffffffffffffffffffffffffffffffffffff169050919050565b612067611bd3565b73ffffffffffffffffffffffffffffffffffffffff16612085610d94565b73ffffffffffffffffffffffffffffffffffffffff16146120db576040517f08c379a00000000000000000000000000000000000000000000000000000000081526004016120d290613ed1565b60405180910390fd5b565b6000600660009054906101000a900473ffffffffffffffffffffffffffffffffffffffff16905081600660006101000a81548173ffffffffffffffffffffffffffffffffffffffff021916908373ffffffffffffffffffffffffffffffffffffffff1602179055508173ffffffffffffffffffffffffffffffffffffffff168173ffffffffffffffffffffffffffffffffffffffff167f8be0079c531659141344cd1fd0a4f28419497f9722a3daafe3b4186f6b6457e060405160405180910390a35050565b60008073ffffffffffffffffffffffffffffffffffffffff166121c583612022565b73ffffffffffffffffffffffffffffffffffffffff1614159050919050565b8173ffffffffffffffffffffffffffffffffffffffff168373ffffffffffffffffffffffffffffffffffffffff1603612252576040517f08c379a000000000000000000000000000000000000000000000000000000000815260040161224990613f3d565b60405180910390fd5b80600560008573ffffffffffffffffffffffffffffffffffffffff1673ffffffffffffffffffffffffffffffffffffffff16815260200190815260200160002060008473ffffffffffffffffffffffffffffffffffffffff1673ffffffffffffffffffffffffffffffffffffffff16815260200190815260200160002060006101000a81548160ff0219169083151502179055508173ffffffffffffffffffffffffffffffffffffffff168373ffffffffffffffffffffffffffffffffffffffff167f17307eab39ab6107e8899845ad3d59bd9653f200f220920489ca2b5937696c31836040516123439190612ae4565b60405180910390a3505050565b61235b848484611d29565b612367848484846124bb565b6123a6576040517f08c379a000000000000000000000000000000000000000000000000000000000815260040161239d90613fcf565b60405180910390fd5b50505050565b6123c6828260405180602001604052806000815250612642565b5050565b606060405180602001604052806000815250905090565b6060600060016123f08461269d565b01905060008167ffffffffffffffff81111561240f5761240e612dfc565b5b6040519080825280601f01601f1916602001820160405280156124415781602001600182028036833780820191505090505b509050600082602001820190505b6001156124a4578080600190039150507f3031323334353637383961626364656600000000000000000000000000000000600a86061a8153600a858161249857612497613fef565b5b0494506000850361244f575b819350505050919050565b50505050565b50505050565b60006124dc8473ffffffffffffffffffffffffffffffffffffffff166127f0565b15612635578373ffffffffffffffffffffffffffffffffffffffff1663150b7a02612505611bd3565b8786866040518563ffffffff1660e01b81526004016125279493929190614073565b6020604051808303816000875af192505050801561256357506040513d601f19601f8201168201806040525081019061256091906140d4565b60015b6125e5573d8060008114612593576040519150601f19603f3d011682016040523d82523d6000602084013e612598565b606091505b5060008151036125dd576040517f08c379a00000000000000000000000000000000000000000000000000000000081526004016125d490613fcf565b60405180910390fd5b805181602001fd5b63150b7a0260e01b7bffffffffffffffffffffffffffffffffffffffffffffffffffffffff1916817bffffffffffffffffffffffffffffffffffffffffffffffffffffffff19161491505061263a565b600190505b949350505050565b61264c8383612813565b61265960008484846124bb565b612698576040517f08c379a000000000000000000000000000000000000000000000000000000000815260040161268f90613fcf565b60405180910390fd5b505050565b600080600090507a184f03e93ff9f4daa797ed6e38ed64bf6a1f01000000000000000083106126fb577a184f03e93ff9f4daa797ed6e38ed64bf6a1f01000000000000000083816126f1576126f0613fef565b5b0492506040810190505b6d04ee2d6d415b85acef81000000008310612738576d04ee2d6d415b85acef8100000000838161272e5761272d613fef565b5b0492506020810190505b662386f26fc10000831061276757662386f26fc10000838161275d5761275c613fef565b5b0492506010810190505b6305f5e1008310612790576305f5e100838161278657612785613fef565b5b0492506008810190505b61271083106127b55761271083816127ab576127aa613fef565b5b0492506004810190505b606483106127d857606483816127ce576127cd613fef565b5b0492506002810190505b600a83106127e7576001810190505b80915050919050565b6000808273ffffffffffffffffffffffffffffffffffffffff163b119050919050565b600073ffffffffffffffffffffffffffffffffffffffff168273ffffffffffffffffffffffffffffffffffffffff1603612882576040517f08c379a00000000000000000000000000000000000000000000000000000000081526004016128799061414d565b60405180910390fd5b61288b816121a3565b156128cb576040517f08c379a00000000000000000000000000000000000000000000000000000000081526004016128c2906141b9565b60405180910390fd5b6128d96000838360016124af565b6128e2816121a3565b15612922576040517f08c379a0000000000000000000000000000000000000000000000000000000008152600401612919906141b9565b60405180910390fd5b6001600360008473ffffffffffffffffffffffffffffffffffffffff1673ffffffffffffffffffffffffffffffffffffffff16815260200190815260200160002060008282540192505081905550816002600083815260200190815260200160002060006101000a81548173ffffffffffffffffffffffffffffffffffffffff021916908373ffffffffffffffffffffffffffffffffffffffff160217905550808273ffffffffffffffffffffffffffffffffffffffff16600073ffffffffffffffffffffffffffffffffffffffff167fddf252ad1be2c89b69c2b068fc378daa952ba7f163c4a11628f55a4df523b3ef60405160405180910390a4612a2c6000838360016124b5565b5050565b6000604051905090565b600080fd5b600080fd5b60007fffffffff0000000000000000000000000000000000000000000000000000000082169050919050565b612a7981612a44565b8114612a8457600080fd5b50565b600081359050612a9681612a70565b92915050565b600060208284031215612ab257612ab1612a3a565b5b6000612ac084828501612a87565b91505092915050565b60008115159050919050565b612ade81612ac9565b82525050565b6000602082019050612af96000830184612ad5565b92915050565b600081519050919050565b600082825260208201905092915050565b60005b83811015612b39578082015181840152602081019050612b1e565b60008484015250505050565b6000601f19601f8301169050919050565b6000612b6182612aff565b612b6b8185612b0a565b9350612b7b818560208601612b1b565b612b8481612b45565b840191505092915050565b60006020820190508181036000830152612ba98184612b56565b905092915050565b6000819050919050565b612bc481612bb1565b8114612bcf57600080fd5b50565b600081359050612be181612bbb565b92915050565b600060208284031215612bfd57612bfc612a3a565b5b6000612c0b84828501612bd2565b91505092915050565b600073ffffffffffffffffffffffffffffffffffffffff82169050919050565b6000612c3f82612c14565b9050919050565b612c4f81612c34565b82525050565b6000602082019050612c6a6000830184612c46565b92915050565b612c7981612c34565b8114612c8457600080fd5b50565b600081359050612c9681612c70565b92915050565b60008060408385031215612cb357612cb2612a3a565b5b6000612cc185828601612c87565b9250506020612cd285828601612bd2565b9150509250929050565b600080600060608486031215612cf557612cf4612a3a565b5b6000612d0386828701612c87565b9350506020612d1486828701612c87565b9250506040612d2586828701612bd2565b9150509250925092565b612d3881612bb1565b82525050565b6000602082019050612d536000830184612d2f565b92915050565b600060208284031215612d6f57612d6e612a3a565b5b6000612d7d84828501612c87565b91505092915050565b612d8f81612ac9565b8114612d9a57600080fd5b50565b600081359050612dac81612d86565b92915050565b60008060408385031215612dc957612dc8612a3a565b5b6000612dd785828601612c87565b9250506020612de885828601612d9d565b9150509250929050565b600080fd5b600080fd5b7f4e487b7100000000000000000000000000000000000000000000000000000000600052604160045260246000fd5b612e3482612b45565b810181811067ffffffffffffffff82111715612e5357612e52612dfc565b5b80604052505050565b6000612e66612a30565b9050612e728282612e2b565b919050565b600067ffffffffffffffff821115612e9257612e91612dfc565b5b612e9b82612b45565b9050602081019050919050565b82818337600083830152505050565b6000612eca612ec584612e77565b612e5c565b905082815260208101848484011115612ee657612ee5612df7565b5b612ef1848285612ea8565b509392505050565b600082601f830112612f0e57612f0d612df2565b5b8135612f1e848260208601612eb7565b91505092915050565b60008060008060808587031215612f4157612f40612a3a565b5b6000612f4f87828801612c87565b9450506020612f6087828801612c87565b9350506040612f7187828801612bd2565b925050606085013567ffffffffffffffff811115612f9257612f91612a3f565b5b612f9e87828801612ef9565b91505092959194509250565b600067ffffffffffffffff821115612fc557612fc4612dfc565b5b612fce82612b45565b9050602081019050919050565b6000612fee612fe984612faa565b612e5c565b90508281526020810184848401111561300a57613009612df7565b5b613015848285612ea8565b509392505050565b600082601f83011261303257613031612df2565b5b8135613042848260208601612fdb565b91505092915050565b60008060008060008060c0878903121561306857613067612a3a565b5b600087013567ffffffffffffffff81111561308657613085612a3f565b5b61309289828a0161301d565b965050602087013567ffffffffffffffff8111156130b3576130b2612a3f565b5b6130bf89828a0161301d565b95505060406130d089828a01612bd2565b94505060606130e189828a01612bd2565b93505060806130f289828a01612bd2565b92505060a087013567ffffffffffffffff81111561311357613112612a3f565b5b61311f89828a0161301d565b9150509295509295509295565b600081519050919050565b600082825260208201905092915050565b6000819050602082019050919050565b61316181612bb1565b82525050565b600082825260208201905092915050565b600061318382612aff565b61318d8185613167565b935061319d818560208601612b1b565b6131a681612b45565b840191505092915050565b6131ba81612c34565b82525050565b6131c981612ac9565b82525050565b6000610140830160008301516131e86000860182613158565b50602083015184820360208601526132008282613178565b9150506040830151848203604086015261321a8282613178565b915050606083015161322f60608601826131b1565b5060808301516132426080860182613158565b5060a083015161325560a0860182613158565b5060c083015161326860c0860182613158565b5060e083015161327b60e0860182613158565b506101008301518482036101008601526132958282613178565b9150506101208301516132ac6101208601826131c0565b508091505092915050565b60006132c383836131cf565b905092915050565b6000602082019050919050565b60006132e38261312c565b6132ed8185613137565b9350836020820285016132ff85613148565b8060005b8581101561333b578484038952815161331c85826132b7565b9450613327836132cb565b925060208a01995050600181019050613303565b50829750879550505050505092915050565b6000602082019050818103600083015261336781846132d8565b905092915050565b6000806040838503121561338657613385612a3a565b5b600061339485828601612c87565b92505060206133a585828601612c87565b9150509250929050565b7f4e487b7100000000000000000000000000000000000000000000000000000000600052602260045260246000fd5b600060028204905060018216806133f657607f821691505b602082108103613409576134086133af565b5b50919050565b7f4552433732313a20617070726f76616c20746f2063757272656e74206f776e6560008201527f7200000000000000000000000000000000000000000000000000000000000000602082015250565b600061346b602183612b0a565b91506134768261340f565b604082019050919050565b6000602082019050818103600083015261349a8161345e565b9050919050565b7f4552433732313a20617070726f76652063616c6c6572206973206e6f7420746f60008201527f6b656e206f776e6572206f7220617070726f76656420666f7220616c6c000000602082015250565b60006134fd603d83612b0a565b9150613508826134a1565b604082019050919050565b6000602082019050818103600083015261352c816134f0565b9050919050565b7f4552433732313a2063616c6c6572206973206e6f7420746f6b656e206f776e6560008201527f72206f7220617070726f76656400000000000000000000000000000000000000602082015250565b600061358f602d83612b0a565b915061359a82613533565b604082019050919050565b600060208201905081810360008301526135be81613582565b9050919050565b7f4e487b7100000000000000000000000000000000000000000000000000000000600052603260045260246000fd5b7f4e4654206973206e6f7420666f722073616c6500000000000000000000000000600082015250565b600061362a601383612b0a565b9150613635826135f4565b602082019050919050565b600060208201905081810360008301526136598161361d565b9050919050565b7f496e636f7272656374207061796d656e7420616d6f756e740000000000000000600082015250565b6000613696601883612b0a565b91506136a182613660565b602082019050919050565b600060208201905081810360008301526136c581613689565b9050919050565b7f4f776e65722063616e27742073656c6c204e465420666f722068696d73656c66600082015250565b6000613702602083612b0a565b915061370d826136cc565b602082019050919050565b60006020820190508181036000830152613731816136f5565b9050919050565b7f4552433732313a20696e76616c696420746f6b656e2049440000000000000000600082015250565b600061376e601883612b0a565b915061377982613738565b602082019050919050565b6000602082019050818103600083015261379d81613761565b9050919050565b7f4552433732313a2061646472657373207a65726f206973206e6f74206120766160008201527f6c6964206f776e65720000000000000000000000000000000000000000000000602082015250565b6000613800602983612b0a565b915061380b826137a4565b604082019050919050565b6000602082019050818103600083015261382f816137f3565b9050919050565b7f496e76616c696420746f6b656e20494400000000000000000000000000000000600082015250565b600061386c601083612b0a565b915061387782613836565b602082019050919050565b6000602082019050818103600083015261389b8161385f565b9050919050565b60008190508160005260206000209050919050565b60006020601f8301049050919050565b600082821b905092915050565b6000600883026139047fffffffffffffffffffffffffffffffffffffffffffffffffffffffffffffffff826138c7565b61390e86836138c7565b95508019841693508086168417925050509392505050565b6000819050919050565b600061394b61394661394184612bb1565b613926565b612bb1565b9050919050565b6000819050919050565b61396583613930565b61397961397182613952565b8484546138d4565b825550505050565b600090565b61398e613981565b61399981848461395c565b505050565b5b818110156139bd576139b2600082613986565b60018101905061399f565b5050565b601f821115613a02576139d3816138a2565b6139dc846138b7565b810160208510156139eb578190505b6139ff6139f7856138b7565b83018261399e565b50505b505050565b600082821c905092915050565b6000613a2560001984600802613a07565b1980831691505092915050565b6000613a3e8383613a14565b9150826002028217905092915050565b613a5782612aff565b67ffffffffffffffff811115613a7057613a6f612dfc565b5b613a7a82546133de565b613a858282856139c1565b600060209050601f831160018114613ab85760008415613aa6578287015190505b613ab08582613a32565b865550613b18565b601f198416613ac6866138a2565b60005b82811015613aee57848901518255600182019150602085019450602081019050613ac9565b86831015613b0b5784890151613b07601f891682613a14565b8355505b6001600288020188555050505b505050505050565b7f4e487b7100000000000000000000000000000000000000000000000000000000600052601160045260246000fd5b6000613b5a82612bb1565b91507fffffffffffffffffffffffffffffffffffffffffffffffffffffffffffffffff8203613b8c57613b8b613b20565b5b600182019050919050565b600081905092915050565b6000613bad82612aff565b613bb78185613b97565b9350613bc7818560208601612b1b565b80840191505092915050565b6000613bdf8285613ba2565b9150613beb8284613ba2565b91508190509392505050565b7f43616c6c6572206973206e6f74206f776e6572206e6f7220617070726f766564600082015250565b6000613c2d602083612b0a565b9150613c3882613bf7565b602082019050919050565b60006020820190508181036000830152613c5c81613c20565b9050919050565b7f4e465420697320616c726561647920666f722073616c65000000000000000000600082015250565b6000613c99601783612b0a565b9150613ca482613c63565b602082019050919050565b60006020820190508181036000830152613cc881613c8c565b9050919050565b7f4f776e61626c653a206e6577206f776e657220697320746865207a65726f206160008201527f6464726573730000000000000000000000000000000000000000000000000000602082015250565b6000613d2b602683612b0a565b9150613d3682613ccf565b604082019050919050565b60006020820190508181036000830152613d5a81613d1e565b9050919050565b7f4552433732313a207472616e736665722066726f6d20696e636f72726563742060008201527f6f776e6572000000000000000000000000000000000000000000000000000000602082015250565b6000613dbd602583612b0a565b9150613dc882613d61565b604082019050919050565b60006020820190508181036000830152613dec81613db0565b9050919050565b7f4552433732313a207472616e7366657220746f20746865207a65726f2061646460008201527f7265737300000000000000000000000000000000000000000000000000000000602082015250565b6000613e4f602483612b0a565b9150613e5a82613df3565b604082019050919050565b60006020820190508181036000830152613e7e81613e42565b9050919050565b7f4f776e61626c653a2063616c6c6572206973206e6f7420746865206f776e6572600082015250565b6000613ebb602083612b0a565b9150613ec682613e85565b602082019050919050565b60006020820190508181036000830152613eea81613eae565b9050919050565b7f4552433732313a20617070726f766520746f2063616c6c657200000000000000600082015250565b6000613f27601983612b0a565b9150613f3282613ef1565b602082019050919050565b60006020820190508181036000830152613f5681613f1a565b9050919050565b7f4552433732313a207472616e7366657220746f206e6f6e20455243373231526560008201527f63656976657220696d706c656d656e7465720000000000000000000000000000602082015250565b6000613fb9603283612b0a565b9150613fc482613f5d565b604082019050919050565b60006020820190508181036000830152613fe881613fac565b9050919050565b7f4e487b7100000000000000000000000000000000000000000000000000000000600052601260045260246000fd5b600081519050919050565b600082825260208201905092915050565b60006140458261401e565b61404f8185614029565b935061405f818560208601612b1b565b61406881612b45565b840191505092915050565b60006080820190506140886000830187612c46565b6140956020830186612c46565b6140a26040830185612d2f565b81810360608301526140b4818461403a565b905095945050505050565b6000815190506140ce81612a70565b92915050565b6000602082840312156140ea576140e9612a3a565b5b60006140f8848285016140bf565b91505092915050565b7f4552433732313a206d696e7420746f20746865207a65726f2061646472657373600082015250565b6000614137602083612b0a565b915061414282614101565b602082019050919050565b600060208201905081810360008301526141668161412a565b9050919050565b7f4552433732313a20746f6b656e20616c7265616479206d696e74656400000000600082015250565b60006141a3601c83612b0a565b91506141ae8261416d565b602082019050919050565b600060208201905081810360008301526141d281614196565b905091905056fea2646970667358221220a2ff945ea2ad9f854844566c44de132c6a4d60dc79b0e26f8ef841be81f34d7564736f6c63430008120033",
  "linkReferences": {},
  "deployedLinkReferences": {}
}