{
  "_format": "hh-sol-artifact-1",
  "contractName": "NFTWheels",
  "sourceName": "contracts/NFTWheels.sol",
  "abi": [
    {
      "inputs": [
        {
          "internalType": "string",
          "name": "name_",
          "type": "string"
        },
        {
          "internalType": "string",
          "name": "symbol_",
          "type": "string"
        }
      ],
      "stateMutability": "nonpayable",
      "type": "constructor"
    },
    {
      "anonymous": false,
      "inputs": [
        {
          "indexed": true,
          "internalType": "address",
          "name": "owner",
          "type": "address"
        },
        {
          "indexed": true,
          "internalType": "address",
          "name": "approved",
          "type": "address"
        },
        {
          "indexed": true,
          "internalType": "uint256",
          "name": "tokenId",
          "type": "uint256"
        }
      ],
      "name": "Approval",
      "type": "event"
    },
    {
      "anonymous": false,
      "inputs": [
        {
          "indexed": true,
          "internalType": "address",
          "name": "owner",
          "type": "address"
        },
        {
          "indexed": true,
          "internalType": "address",
          "name": "operator",
          "type": "address"
        },
        {
          "indexed": false,
          "internalType": "bool",
          "name": "approved",
          "type": "bool"
        }
      ],
      "name": "ApprovalForAll",
      "type": "event"
    },
    {
      "anonymous": false,
      "inputs": [
        {
          "indexed": true,
          "internalType": "address",
          "name": "previousOwner",
          "type": "address"
        },
        {
          "indexed": true,
          "internalType": "address",
          "name": "newOwner",
          "type": "address"
        }
      ],
      "name": "OwnershipTransferred",
      "type": "event"
    },
    {
      "anonymous": false,
      "inputs": [
        {
          "indexed": true,
          "internalType": "address",
          "name": "from",
          "type": "address"
        },
        {
          "indexed": true,
          "internalType": "address",
          "name": "to",
          "type": "address"
        },
        {
          "indexed": true,
          "internalType": "uint256",
          "name": "tokenId",
          "type": "uint256"
        }
      ],
      "name": "Transfer",
      "type": "event"
    },
    {
      "inputs": [
        {
          "internalType": "uint256",
          "name": "_tokenId",
          "type": "uint256"
        }
      ],
      "name": "_buy",
      "outputs": [],
      "stateMutability": "payable",
      "type": "function"
    },
    {
      "inputs": [
        {
          "internalType": "uint256",
          "name": "_tokenId",
          "type": "uint256"
        }
      ],
      "name": "_sell",
      "outputs": [
        {
          "internalType": "string",
          "name": "",
          "type": "string"
        }
      ],
      "stateMutability": "nonpayable",
      "type": "function"
    },
    {
      "inputs": [
        {
          "internalType": "address",
          "name": "to",
          "type": "address"
        },
        {
          "internalType": "uint256",
          "name": "tokenId",
          "type": "uint256"
        }
      ],
      "name": "approve",
      "outputs": [],
      "stateMutability": "nonpayable",
      "type": "function"
    },
    {
      "inputs": [
        {
          "internalType": "address",
          "name": "owner",
          "type": "address"
        }
      ],
      "name": "balanceOf",
      "outputs": [
        {
          "internalType": "uint256",
          "name": "",
          "type": "uint256"
        }
      ],
      "stateMutability": "view",
      "type": "function"
    },
    {
      "inputs": [],
      "name": "getAllNFTs",
      "outputs": [
        {
          "components": [
            {
              "internalType": "uint256",
              "name": "id",
              "type": "uint256"
            },
            {
              "internalType": "string",
              "name": "marque",
              "type": "string"
            },
            {
              "internalType": "string",
              "name": "modele",
              "type": "string"
            },
            {
              "internalType": "address",
              "name": "owner",
              "type": "address"
            },
            {
              "internalType": "uint256",
              "name": "anne",
              "type": "uint256"
            },
            {
              "internalType": "uint256",
              "name": "puissance",
              "type": "uint256"
            },
            {
              "internalType": "uint256",
              "name": "vitesseMax",
              "type": "uint256"
            },
            {
              "internalType": "uint256",
              "name": "price",
              "type": "uint256"
            },
            {
              "internalType": "string",
              "name": "image",
              "type": "string"
            },
            {
              "internalType": "bool",
              "name": "isForSale",
              "type": "bool"
            }
          ],
          "internalType": "struct NFTWheels.Car[]",
          "name": "",
          "type": "tuple[]"
        }
      ],
      "stateMutability": "view",
      "type": "function"
    },
    {
      "inputs": [
        {
          "internalType": "uint256",
          "name": "tokenId",
          "type": "uint256"
        }
      ],
      "name": "getApproved",
      "outputs": [
        {
          "internalType": "address",
          "name": "",
          "type": "address"
        }
      ],
      "stateMutability": "view",
      "type": "function"
    },
    {
      "inputs": [
        {
          "internalType": "uint256",
          "name": "_tokenId",
          "type": "uint256"
        }
      ],
      "name": "getNFTPrice",
      "outputs": [
        {
          "internalType": "uint256",
          "name": "",
          "type": "uint256"
        }
      ],
      "stateMutability": "view",
      "type": "function"
    },
    {
      "inputs": [
        {
          "internalType": "uint256",
          "name": "_tokenId",
          "type": "uint256"
        }
      ],
      "name": "getOwnerOf",
      "outputs": [
        {
          "internalType": "address",
          "name": "",
          "type": "address"
        }
      ],
      "stateMutability": "view",
      "type": "function"
    },
    {
      "inputs": [
        {
          "internalType": "address",
          "name": "owner",
          "type": "address"
        },
        {
          "internalType": "address",
          "name": "operator",
          "type": "address"
        }
      ],
      "name": "isApprovedForAll",
      "outputs": [
        {
          "internalType": "bool",
          "name": "",
          "type": "bool"
        }
      ],
      "stateMutability": "view",
      "type": "function"
    },
    {
      "inputs": [
        {
          "internalType": "string",
          "name": "_marque",
          "type": "string"
        },
        {
          "internalType": "string",
          "name": "_modele",
          "type": "string"
        },
        {
          "internalType": "uint256",
          "name": "_anne",
          "type": "uint256"
        },
        {
          "internalType": "uint256",
          "name": "_puissance",
          "type": "uint256"
        },
        {
          "internalType": "uint256",
          "name": "_vitesseMax",
          "type": "uint256"
        },
        {
          "internalType": "string",
          "name": "_img",
          "type": "string"
        }
      ],
      "name": "mint",
      "outputs": [],
      "stateMutability": "nonpayable",
      "type": "function"
    },
    {
      "inputs": [],
      "name": "name",
      "outputs": [
        {
          "internalType": "string",
          "name": "",
          "type": "string"
        }
      ],
      "stateMutability": "view",
      "type": "function"
    },
    {
      "inputs": [],
      "name": "owner",
      "outputs": [
        {
          "internalType": "address",
          "name": "",
          "type": "address"
        }
      ],
      "stateMutability": "view",
      "type": "function"
    },
    {
      "inputs": [
        {
          "internalType": "uint256",
          "name": "tokenId",
          "type": "uint256"
        }
      ],
      "name": "ownerOf",
      "outputs": [
        {
          "internalType": "address",
          "name": "",
          "type": "address"
        }
      ],
      "stateMutability": "view",
      "type": "function"
    },
    {
      "inputs": [
        {
          "internalType": "uint256",
          "name": "_tokenId",
          "type": "uint256"
        }
      ],
      "name": "removeFromSell",
      "outputs": [],
      "stateMutability": "nonpayable",
      "type": "function"
    },
    {
      "inputs": [],
      "name": "renounceOwnership",
      "outputs": [],
      "stateMutability": "nonpayable",
      "type": "function"
    },
    {
      "inputs": [
        {
          "internalType": "address",
          "name": "from",
          "type": "address"
        },
        {
          "internalType": "address",
          "name": "to",
          "type": "address"
        },
        {
          "internalType": "uint256",
          "name": "tokenId",
          "type": "uint256"
        }
      ],
      "name": "safeTransferFrom",
      "outputs": [],
      "stateMutability": "nonpayable",
      "type": "function"
    },
    {
      "inputs": [
        {
          "internalType": "address",
          "name": "from",
          "type": "address"
        },
        {
          "internalType": "address",
          "name": "to",
          "type": "address"
        },
        {
          "internalType": "uint256",
          "name": "tokenId",
          "type": "uint256"
        },
        {
          "internalType": "bytes",
          "name": "data",
          "type": "bytes"
        }
      ],
      "name": "safeTransferFrom",
      "outputs": [],
      "stateMutability": "nonpayable",
      "type": "function"
    },
    {
      "inputs": [
        {
          "internalType": "address",
          "name": "operator",
          "type": "address"
        },
        {
          "internalType": "bool",
          "name": "approved",
          "type": "bool"
        }
      ],
      "name": "setApprovalForAll",
      "outputs": [],
      "stateMutability": "nonpayable",
      "type": "function"
    },
    {
      "inputs": [
        {
          "internalType": "uint256",
          "name": "_newPrice",
          "type": "uint256"
        }
      ],
      "name": "setDefaultPrice",
      "outputs": [
        {
          "internalType": "uint256",
          "name": "",
          "type": "uint256"
        }
      ],
      "stateMutability": "nonpayable",
      "type": "function"
    },
    {
      "inputs": [
        {
          "internalType": "bytes4",
          "name": "interfaceId",
          "type": "bytes4"
        }
      ],
      "name": "supportsInterface",
      "outputs": [
        {
          "internalType": "bool",
          "name": "",
          "type": "bool"
        }
      ],
      "stateMutability": "view",
      "type": "function"
    },
    {
      "inputs": [],
      "name": "symbol",
      "outputs": [
        {
          "internalType": "string",
          "name": "",
          "type": "string"
        }
      ],
      "stateMutability": "view",
      "type": "function"
    },
    {
      "inputs": [
        {
          "internalType": "uint256",
          "name": "tokenId",
          "type": "uint256"
        }
      ],
      "name": "tokenURI",
      "outputs": [
        {
          "internalType": "string",
          "name": "",
          "type": "string"
        }
      ],
      "stateMutability": "view",
      "type": "function"
    },
    {
      "inputs": [
        {
          "internalType": "address",
          "name": "from",
          "type": "address"
        },
        {
          "internalType": "address",
          "name": "to",
          "type": "address"
        },
        {
          "internalType": "uint256",
          "name": "tokenId",
          "type": "uint256"
        }
      ],
      "name": "transferFrom",
      "outputs": [],
      "stateMutability": "nonpayable",
      "type": "function"
    },
    {
      "inputs": [
        {
          "internalType": "address",
          "name": "newOwner",
          "type": "address"
        }
      ],
      "name": "transferOwnership",
      "outputs": [],
      "stateMutability": "nonpayable",
      "type": "function"
    }
  ],
  "bytecode": "0x60806040526000600755670de0b6b3a76400006008553480156200002257600080fd5b506040516200487a3803806200487a8339818101604052810190620000489190620002f9565b818181600090816200005b9190620005c9565b5080600190816200006d9190620005c9565b50505062000090620000846200009860201b60201c565b620000a060201b60201c565b5050620006b0565b600033905090565b6000600660009054906101000a900473ffffffffffffffffffffffffffffffffffffffff16905081600660006101000a81548173ffffffffffffffffffffffffffffffffffffffff021916908373ffffffffffffffffffffffffffffffffffffffff1602179055508173ffffffffffffffffffffffffffffffffffffffff168173ffffffffffffffffffffffffffffffffffffffff167f8be0079c531659141344cd1fd0a4f28419497f9722a3daafe3b4186f6b6457e060405160405180910390a35050565b6000604051905090565b600080fd5b600080fd5b600080fd5b600080fd5b6000601f19601f8301169050919050565b7f4e487b7100000000000000000000000000000000000000000000000000000000600052604160045260246000fd5b620001cf8262000184565b810181811067ffffffffffffffff82111715620001f157620001f062000195565b5b80604052505050565b60006200020662000166565b9050620002148282620001c4565b919050565b600067ffffffffffffffff82111562000237576200023662000195565b5b620002428262000184565b9050602081019050919050565b60005b838110156200026f57808201518184015260208101905062000252565b60008484015250505050565b6000620002926200028c8462000219565b620001fa565b905082815260208101848484011115620002b157620002b06200017f565b5b620002be8482856200024f565b509392505050565b600082601f830112620002de57620002dd6200017a565b5b8151620002f08482602086016200027b565b91505092915050565b6000806040838503121562000313576200031262000170565b5b600083015167ffffffffffffffff81111562000334576200033362000175565b5b6200034285828601620002c6565b925050602083015167ffffffffffffffff81111562000366576200036562000175565b5b6200037485828601620002c6565b9150509250929050565b600081519050919050565b7f4e487b7100000000000000000000000000000000000000000000000000000000600052602260045260246000fd5b60006002820490506001821680620003d157607f821691505b602082108103620003e757620003e662000389565b5b50919050565b60008190508160005260206000209050919050565b60006020601f8301049050919050565b600082821b905092915050565b600060088302620004517fffffffffffffffffffffffffffffffffffffffffffffffffffffffffffffffff8262000412565b6200045d868362000412565b95508019841693508086168417925050509392505050565b6000819050919050565b6000819050919050565b6000620004aa620004a46200049e8462000475565b6200047f565b62000475565b9050919050565b6000819050919050565b620004c68362000489565b620004de620004d582620004b1565b8484546200041f565b825550505050565b600090565b620004f5620004e6565b62000502818484620004bb565b505050565b5b818110156200052a576200051e600082620004eb565b60018101905062000508565b5050565b601f82111562000579576200054381620003ed565b6200054e8462000402565b810160208510156200055e578190505b620005766200056d8562000402565b83018262000507565b50505b505050565b600082821c905092915050565b60006200059e600019846008026200057e565b1980831691505092915050565b6000620005b983836200058b565b9150826002028217905092915050565b620005d4826200037e565b67ffffffffffffffff811115620005f057620005ef62000195565b5b620005fc8254620003b8565b620006098282856200052e565b600060209050601f8311600181146200064157600084156200062c578287015190505b620006388582620005ab565b865550620006a8565b601f1984166200065186620003ed565b60005b828110156200067b5784890151825560018201915060208501945060208101905062000654565b868310156200069b578489015162000697601f8916826200058b565b8355505b6001600288020188555050505b505050505050565b6141ba80620006c06000396000f3fe60806040526004361061014b5760003560e01c80638da5cb5b116100b6578063c395d9cc1161006f578063c395d9cc146104a5578063c87b56dd146104ce578063e0391b091461050b578063e5d5876d14610536578063e985e9c514610573578063f2fde38b146105b05761014b565b80638da5cb5b1461039757806392976179146103c257806395d89b41146103ff578063a22cb4651461042a578063b88d4fde14610453578063bf57fafe1461047c5761014b565b806342842e0e1161010857806342842e0e146102635780636352211e1461028c5780636d3c7ec5146102c957806370a0823114610306578063715018a614610343578063836387101461035a5761014b565b806301ffc9a71461015057806306fdde031461018d578063081812fc146101b8578063095ea7b3146101f557806323b872dd1461021e578063282303b514610247575b600080fd5b34801561015c57600080fd5b5061017760048036038101906101729190612a47565b6105d9565b6040516101849190612a8f565b60405180910390f35b34801561019957600080fd5b506101a26106bb565b6040516101af9190612b3a565b60405180910390f35b3480156101c457600080fd5b506101df60048036038101906101da9190612b92565b61074d565b6040516101ec9190612c00565b60405180910390f35b34801561020157600080fd5b5061021c60048036038101906102179190612c47565b610793565b005b34801561022a57600080fd5b5061024560048036038101906102409190612c87565b6108aa565b005b610261600480360381019061025c9190612b92565b61090a565b005b34801561026f57600080fd5b5061028a60048036038101906102859190612c87565b610ba1565b005b34801561029857600080fd5b506102b360048036038101906102ae9190612b92565b610bc1565b6040516102c09190612c00565b60405180910390f35b3480156102d557600080fd5b506102f060048036038101906102eb9190612b92565b610c47565b6040516102fd9190612ce9565b60405180910390f35b34801561031257600080fd5b5061032d60048036038101906103289190612d04565b610c62565b60405161033a9190612ce9565b60405180910390f35b34801561034f57600080fd5b50610358610d19565b005b34801561036657600080fd5b50610381600480360381019061037c9190612b92565b610d2d565b60405161038e9190612c00565b60405180910390f35b3480156103a357600080fd5b506103ac610d3f565b6040516103b99190612c00565b60405180910390f35b3480156103ce57600080fd5b506103e960048036038101906103e49190612b92565b610d69565b6040516103f69190612ce9565b60405180910390f35b34801561040b57600080fd5b5061041461103c565b6040516104219190612b3a565b60405180910390f35b34801561043657600080fd5b50610451600480360381019061044c9190612d5d565b6110ce565b005b34801561045f57600080fd5b5061047a60048036038101906104759190612ed2565b6110e4565b005b34801561048857600080fd5b506104a3600480360381019061049e9190612ff6565b611146565b005b3480156104b157600080fd5b506104cc60048036038101906104c79190612b92565b6113e3565b005b3480156104da57600080fd5b506104f560048036038101906104f09190612b92565b611532565b6040516105029190612b3a565b60405180910390f35b34801561051757600080fd5b5061052061159a565b60405161052d91906132f8565b60405180910390f35b34801561054257600080fd5b5061055d60048036038101906105589190612b92565b611853565b60405161056a9190612b3a565b60405180910390f35b34801561057f57600080fd5b5061059a6004803603810190610595919061331a565b6119b2565b6040516105a79190612a8f565b60405180910390f35b3480156105bc57600080fd5b506105d760048036038101906105d29190612d04565b611a46565b005b60007f80ac58cd000000000000000000000000000000000000000000000000000000007bffffffffffffffffffffffffffffffffffffffffffffffffffffffff1916827bffffffffffffffffffffffffffffffffffffffffffffffffffffffff191614806106a457507f5b5e139f000000000000000000000000000000000000000000000000000000007bffffffffffffffffffffffffffffffffffffffffffffffffffffffff1916827bffffffffffffffffffffffffffffffffffffffffffffffffffffffff1916145b806106b457506106b382611ac9565b5b9050919050565b6060600080546106ca90613389565b80601f01602080910402602001604051908101604052809291908181526020018280546106f690613389565b80156107435780601f1061071857610100808354040283529160200191610743565b820191906000526020600020905b81548152906001019060200180831161072657829003601f168201915b5050505050905090565b600061075882611b33565b6004600083815260200190815260200160002060009054906101000a900473ffffffffffffffffffffffffffffffffffffffff169050919050565b600061079e82610bc1565b90508073ffffffffffffffffffffffffffffffffffffffff168373ffffffffffffffffffffffffffffffffffffffff160361080e576040517f08c379a00000000000000000000000000000000000000000000000000000000081526004016108059061342c565b60405180910390fd5b8073ffffffffffffffffffffffffffffffffffffffff1661082d611b7e565b73ffffffffffffffffffffffffffffffffffffffff16148061085c575061085b81610856611b7e565b6119b2565b5b61089b576040517f08c379a0000000000000000000000000000000000000000000000000000000008152600401610892906134be565b60405180910390fd5b6108a58383611b86565b505050565b6108bb6108b5611b7e565b82611c3f565b6108fa576040517f08c379a00000000000000000000000000000000000000000000000000000000081526004016108f190613550565b60405180910390fd5b610905838383611cd4565b505050565b6000600982815481106109205761091f613570565b5b90600052602060002090600a02019050600a600083815260200190815260200160002060090160009054906101000a900460ff16610993576040517f08c379a000000000000000000000000000000000000000000000000000000000815260040161098a906135eb565b60405180910390fd5b600a60008381526020019081526020016000206007015434146109eb576040517f08c379a00000000000000000000000000000000000000000000000000000000081526004016109e290613657565b60405180910390fd5b60006109f683610bc1565b90508073ffffffffffffffffffffffffffffffffffffffff163373ffffffffffffffffffffffffffffffffffffffff1603610a66576040517f08c379a0000000000000000000000000000000000000000000000000000000008152600401610a5d906136c3565b60405180910390fd5b610a71813385611cd4565b6000600a600085815260200190815260200160002060090160006101000a81548160ff02191690831515021790555033600a600085815260200190815260200160002060030160006101000a81548173ffffffffffffffffffffffffffffffffffffffff021916908373ffffffffffffffffffffffffffffffffffffffff16021790555060008260090160006101000a81548160ff021916908315150217905550338260030160006101000a81548173ffffffffffffffffffffffffffffffffffffffff021916908373ffffffffffffffffffffffffffffffffffffffff1602179055508073ffffffffffffffffffffffffffffffffffffffff166108fc349081150290604051600060405180830381858888f19350505050158015610b9b573d6000803e3d6000fd5b50505050565b610bbc838383604051806020016040528060008152506110e4565b505050565b600080610bcd83611fcd565b9050600073ffffffffffffffffffffffffffffffffffffffff168173ffffffffffffffffffffffffffffffffffffffff1603610c3e576040517f08c379a0000000000000000000000000000000000000000000000000000000008152600401610c359061372f565b60405180910390fd5b80915050919050565b6000610c5161200a565b816008819055506008549050919050565b60008073ffffffffffffffffffffffffffffffffffffffff168273ffffffffffffffffffffffffffffffffffffffff1603610cd2576040517f08c379a0000000000000000000000000000000000000000000000000000000008152600401610cc9906137c1565b60405180910390fd5b600360008373ffffffffffffffffffffffffffffffffffffffff1673ffffffffffffffffffffffffffffffffffffffff168152602001908152602001600020549050919050565b610d2161200a565b610d2b6000612088565b565b6000610d3882610bc1565b9050919050565b6000600660009054906101000a900473ffffffffffffffffffffffffffffffffffffffff16905090565b6000610d748261214e565b610db3576040517f08c379a0000000000000000000000000000000000000000000000000000000008152600401610daa9061382d565b60405180910390fd5b6000600a60008481526020019081526020016000206040518061014001604052908160008201548152602001600182018054610dee90613389565b80601f0160208091040260200160405190810160405280929190818152602001828054610e1a90613389565b8015610e675780601f10610e3c57610100808354040283529160200191610e67565b820191906000526020600020905b815481529060010190602001808311610e4a57829003601f168201915b50505050508152602001600282018054610e8090613389565b80601f0160208091040260200160405190810160405280929190818152602001828054610eac90613389565b8015610ef95780601f10610ece57610100808354040283529160200191610ef9565b820191906000526020600020905b815481529060010190602001808311610edc57829003601f168201915b505050505081526020016003820160009054906101000a900473ffffffffffffffffffffffffffffffffffffffff1673ffffffffffffffffffffffffffffffffffffffff1673ffffffffffffffffffffffffffffffffffffffff16815260200160048201548152602001600582015481526020016006820154815260200160078201548152602001600882018054610f9090613389565b80601f0160208091040260200160405190810160405280929190818152602001828054610fbc90613389565b80156110095780601f10610fde57610100808354040283529160200191611009565b820191906000526020600020905b815481529060010190602001808311610fec57829003601f168201915b505050505081526020016009820160009054906101000a900460ff16151515158152505090508060e00151915050919050565b60606001805461104b90613389565b80601f016020809104026020016040519081016040528092919081815260200182805461107790613389565b80156110c45780601f10611099576101008083540402835291602001916110c4565b820191906000526020600020905b8154815290600101906020018083116110a757829003601f168201915b5050505050905090565b6110e06110d9611b7e565b838361218f565b5050565b6110f56110ef611b7e565b83611c3f565b611134576040517f08c379a000000000000000000000000000000000000000000000000000000000815260040161112b90613550565b60405180910390fd5b611140848484846122fb565b50505050565b61114e61200a565b600060405180610140016040528060075481526020018881526020018781526020013373ffffffffffffffffffffffffffffffffffffffff168152602001868152602001858152602001848152602001600854815260200183815260200160001515815250905080600a600060075481526020019081526020016000206000820151816000015560208201518160010190816111ea91906139f9565b50604082015181600201908161120091906139f9565b5060608201518160030160006101000a81548173ffffffffffffffffffffffffffffffffffffffff021916908373ffffffffffffffffffffffffffffffffffffffff1602179055506080820151816004015560a0820151816005015560c0820151816006015560e0820151816007015561010082015181600801908161128691906139f9565b506101208201518160090160006101000a81548160ff0219169083151502179055509050506112b733600754612357565b60098190806001815401808255809150506001900390600052602060002090600a020160009091909190915060008201518160000155602082015181600101908161130291906139f9565b50604082015181600201908161131891906139f9565b5060608201518160030160006101000a81548173ffffffffffffffffffffffffffffffffffffffff021916908373ffffffffffffffffffffffffffffffffffffffff1602179055506080820151816004015560a0820151816005015560c0820151816006015560e0820151816007015561010082015181600801908161139e91906139f9565b506101208201518160090160006101000a81548160ff0219169083151502179055505050600760008154809291906113d590613afa565b919050555050505050505050565b6113ec81610bc1565b73ffffffffffffffffffffffffffffffffffffffff16600a600083815260200190815260200160002060030160009054906101000a900473ffffffffffffffffffffffffffffffffffffffff1673ffffffffffffffffffffffffffffffffffffffff161461145957600080fd5b600a600082815260200190815260200160002060090160009054906101000a900460ff166114bc576040517f08c379a00000000000000000000000000000000000000000000000000000000081526004016114b3906135eb565b60405180910390fd5b6000600a600083815260200190815260200160002060090160006101000a81548160ff02191690831515021790555060006009828154811061150157611500613570565b5b90600052602060002090600a0201905060008160090160006101000a81548160ff0219169083151502179055505050565b606061153d82611b33565b6000611547612375565b905060008151116115675760405180602001604052806000815250611592565b806115718461238c565b604051602001611582929190613b7e565b6040516020818303038152906040525b915050919050565b60606009805480602002602001604051908101604052809291908181526020016000905b8282101561184a57838290600052602060002090600a020160405180610140016040529081600082015481526020016001820180546115fc90613389565b80601f016020809104026020016040519081016040528092919081815260200182805461162890613389565b80156116755780601f1061164a57610100808354040283529160200191611675565b820191906000526020600020905b81548152906001019060200180831161165857829003601f168201915b5050505050815260200160028201805461168e90613389565b80601f01602080910402602001604051908101604052809291908181526020018280546116ba90613389565b80156117075780601f106116dc57610100808354040283529160200191611707565b820191906000526020600020905b8154815290600101906020018083116116ea57829003601f168201915b505050505081526020016003820160009054906101000a900473ffffffffffffffffffffffffffffffffffffffff1673ffffffffffffffffffffffffffffffffffffffff1673ffffffffffffffffffffffffffffffffffffffff1681526020016004820154815260200160058201548152602001600682015481526020016007820154815260200160088201805461179e90613389565b80601f01602080910402602001604051908101604052809291908181526020018280546117ca90613389565b80156118175780601f106117ec57610100808354040283529160200191611817565b820191906000526020600020905b8154815290600101906020018083116117fa57829003601f168201915b505050505081526020016009820160009054906101000a900460ff161515151581525050815260200190600101906115be565b50505050905090565b606061185f3383611c3f565b61189e576040517f08c379a000000000000000000000000000000000000000000000000000000000815260040161189590613bee565b60405180910390fd5b600a600083815260200190815260200160002060090160009054906101000a900460ff1615611902576040517f08c379a00000000000000000000000000000000000000000000000000000000081526004016118f990613c5a565b60405180910390fd5b6001600a600084815260200190815260200160002060090160006101000a81548160ff02191690831515021790555060006009838154811061194757611946613570565b5b90600052602060002090600a0201905060018160090160006101000a81548160ff0219169083151502179055506040518060400160405280600381526020017f4963690000000000000000000000000000000000000000000000000000000000815250915050919050565b6000600560008473ffffffffffffffffffffffffffffffffffffffff1673ffffffffffffffffffffffffffffffffffffffff16815260200190815260200160002060008373ffffffffffffffffffffffffffffffffffffffff1673ffffffffffffffffffffffffffffffffffffffff16815260200190815260200160002060009054906101000a900460ff16905092915050565b611a4e61200a565b600073ffffffffffffffffffffffffffffffffffffffff168173ffffffffffffffffffffffffffffffffffffffff1603611abd576040517f08c379a0000000000000000000000000000000000000000000000000000000008152600401611ab490613cec565b60405180910390fd5b611ac681612088565b50565b60007f01ffc9a7000000000000000000000000000000000000000000000000000000007bffffffffffffffffffffffffffffffffffffffffffffffffffffffff1916827bffffffffffffffffffffffffffffffffffffffffffffffffffffffff1916149050919050565b611b3c8161214e565b611b7b576040517f08c379a0000000000000000000000000000000000000000000000000000000008152600401611b729061372f565b60405180910390fd5b50565b600033905090565b816004600083815260200190815260200160002060006101000a81548173ffffffffffffffffffffffffffffffffffffffff021916908373ffffffffffffffffffffffffffffffffffffffff160217905550808273ffffffffffffffffffffffffffffffffffffffff16611bf983610bc1565b73ffffffffffffffffffffffffffffffffffffffff167f8c5be1e5ebec7d5bd14f71427d1e84f3dd0314c0f7b2291e5b200ac8c7c3b92560405160405180910390a45050565b600080611c4b83610bc1565b90508073ffffffffffffffffffffffffffffffffffffffff168473ffffffffffffffffffffffffffffffffffffffff161480611c8d5750611c8c81856119b2565b5b80611ccb57508373ffffffffffffffffffffffffffffffffffffffff16611cb38461074d565b73ffffffffffffffffffffffffffffffffffffffff16145b91505092915050565b8273ffffffffffffffffffffffffffffffffffffffff16611cf482610bc1565b73ffffffffffffffffffffffffffffffffffffffff1614611d4a576040517f08c379a0000000000000000000000000000000000000000000000000000000008152600401611d4190613d7e565b60405180910390fd5b600073ffffffffffffffffffffffffffffffffffffffff168273ffffffffffffffffffffffffffffffffffffffff1603611db9576040517f08c379a0000000000000000000000000000000000000000000000000000000008152600401611db090613e10565b60405180910390fd5b611dc6838383600161245a565b8273ffffffffffffffffffffffffffffffffffffffff16611de682610bc1565b73ffffffffffffffffffffffffffffffffffffffff1614611e3c576040517f08c379a0000000000000000000000000000000000000000000000000000000008152600401611e3390613d7e565b60405180910390fd5b6004600082815260200190815260200160002060006101000a81549073ffffffffffffffffffffffffffffffffffffffff02191690556001600360008573ffffffffffffffffffffffffffffffffffffffff1673ffffffffffffffffffffffffffffffffffffffff168152602001908152602001600020600082825403925050819055506001600360008473ffffffffffffffffffffffffffffffffffffffff1673ffffffffffffffffffffffffffffffffffffffff16815260200190815260200160002060008282540192505081905550816002600083815260200190815260200160002060006101000a81548173ffffffffffffffffffffffffffffffffffffffff021916908373ffffffffffffffffffffffffffffffffffffffff160217905550808273ffffffffffffffffffffffffffffffffffffffff168473ffffffffffffffffffffffffffffffffffffffff167fddf252ad1be2c89b69c2b068fc378daa952ba7f163c4a11628f55a4df523b3ef60405160405180910390a4611fc88383836001612460565b505050565b60006002600083815260200190815260200160002060009054906101000a900473ffffffffffffffffffffffffffffffffffffffff169050919050565b612012611b7e565b73ffffffffffffffffffffffffffffffffffffffff16612030610d3f565b73ffffffffffffffffffffffffffffffffffffffff1614612086576040517f08c379a000000000000000000000000000000000000000000000000000000000815260040161207d90613e7c565b60405180910390fd5b565b6000600660009054906101000a900473ffffffffffffffffffffffffffffffffffffffff16905081600660006101000a81548173ffffffffffffffffffffffffffffffffffffffff021916908373ffffffffffffffffffffffffffffffffffffffff1602179055508173ffffffffffffffffffffffffffffffffffffffff168173ffffffffffffffffffffffffffffffffffffffff167f8be0079c531659141344cd1fd0a4f28419497f9722a3daafe3b4186f6b6457e060405160405180910390a35050565b60008073ffffffffffffffffffffffffffffffffffffffff1661217083611fcd565b73ffffffffffffffffffffffffffffffffffffffff1614159050919050565b8173ffffffffffffffffffffffffffffffffffffffff168373ffffffffffffffffffffffffffffffffffffffff16036121fd576040517f08c379a00000000000000000000000000000000000000000000000000000000081526004016121f490613ee8565b60405180910390fd5b80600560008573ffffffffffffffffffffffffffffffffffffffff1673ffffffffffffffffffffffffffffffffffffffff16815260200190815260200160002060008473ffffffffffffffffffffffffffffffffffffffff1673ffffffffffffffffffffffffffffffffffffffff16815260200190815260200160002060006101000a81548160ff0219169083151502179055508173ffffffffffffffffffffffffffffffffffffffff168373ffffffffffffffffffffffffffffffffffffffff167f17307eab39ab6107e8899845ad3d59bd9653f200f220920489ca2b5937696c31836040516122ee9190612a8f565b60405180910390a3505050565b612306848484611cd4565b61231284848484612466565b612351576040517f08c379a000000000000000000000000000000000000000000000000000000000815260040161234890613f7a565b60405180910390fd5b50505050565b6123718282604051806020016040528060008152506125ed565b5050565b606060405180602001604052806000815250905090565b60606000600161239b84612648565b01905060008167ffffffffffffffff8111156123ba576123b9612da7565b5b6040519080825280601f01601f1916602001820160405280156123ec5781602001600182028036833780820191505090505b509050600082602001820190505b60011561244f578080600190039150507f3031323334353637383961626364656600000000000000000000000000000000600a86061a8153600a858161244357612442613f9a565b5b049450600085036123fa575b819350505050919050565b50505050565b50505050565b60006124878473ffffffffffffffffffffffffffffffffffffffff1661279b565b156125e0578373ffffffffffffffffffffffffffffffffffffffff1663150b7a026124b0611b7e565b8786866040518563ffffffff1660e01b81526004016124d2949392919061401e565b6020604051808303816000875af192505050801561250e57506040513d601f19601f8201168201806040525081019061250b919061407f565b60015b612590573d806000811461253e576040519150601f19603f3d011682016040523d82523d6000602084013e612543565b606091505b506000815103612588576040517f08c379a000000000000000000000000000000000000000000000000000000000815260040161257f90613f7a565b60405180910390fd5b805181602001fd5b63150b7a0260e01b7bffffffffffffffffffffffffffffffffffffffffffffffffffffffff1916817bffffffffffffffffffffffffffffffffffffffffffffffffffffffff1916149150506125e5565b600190505b949350505050565b6125f783836127be565b6126046000848484612466565b612643576040517f08c379a000000000000000000000000000000000000000000000000000000000815260040161263a90613f7a565b60405180910390fd5b505050565b600080600090507a184f03e93ff9f4daa797ed6e38ed64bf6a1f01000000000000000083106126a6577a184f03e93ff9f4daa797ed6e38ed64bf6a1f010000000000000000838161269c5761269b613f9a565b5b0492506040810190505b6d04ee2d6d415b85acef810000000083106126e3576d04ee2d6d415b85acef810000000083816126d9576126d8613f9a565b5b0492506020810190505b662386f26fc10000831061271257662386f26fc10000838161270857612707613f9a565b5b0492506010810190505b6305f5e100831061273b576305f5e100838161273157612730613f9a565b5b0492506008810190505b612710831061276057612710838161275657612755613f9a565b5b0492506004810190505b60648310612783576064838161277957612778613f9a565b5b0492506002810190505b600a8310612792576001810190505b80915050919050565b6000808273ffffffffffffffffffffffffffffffffffffffff163b119050919050565b600073ffffffffffffffffffffffffffffffffffffffff168273ffffffffffffffffffffffffffffffffffffffff160361282d576040517f08c379a0000000000000000000000000000000000000000000000000000000008152600401612824906140f8565b60405180910390fd5b6128368161214e565b15612876576040517f08c379a000000000000000000000000000000000000000000000000000000000815260040161286d90614164565b60405180910390fd5b61288460008383600161245a565b61288d8161214e565b156128cd576040517f08c379a00000000000000000000000000000000000000000000000000000000081526004016128c490614164565b60405180910390fd5b6001600360008473ffffffffffffffffffffffffffffffffffffffff1673ffffffffffffffffffffffffffffffffffffffff16815260200190815260200160002060008282540192505081905550816002600083815260200190815260200160002060006101000a81548173ffffffffffffffffffffffffffffffffffffffff021916908373ffffffffffffffffffffffffffffffffffffffff160217905550808273ffffffffffffffffffffffffffffffffffffffff16600073ffffffffffffffffffffffffffffffffffffffff167fddf252ad1be2c89b69c2b068fc378daa952ba7f163c4a11628f55a4df523b3ef60405160405180910390a46129d7600083836001612460565b5050565b6000604051905090565b600080fd5b600080fd5b60007fffffffff0000000000000000000000000000000000000000000000000000000082169050919050565b612a24816129ef565b8114612a2f57600080fd5b50565b600081359050612a4181612a1b565b92915050565b600060208284031215612a5d57612a5c6129e5565b5b6000612a6b84828501612a32565b91505092915050565b60008115159050919050565b612a8981612a74565b82525050565b6000602082019050612aa46000830184612a80565b92915050565b600081519050919050565b600082825260208201905092915050565b60005b83811015612ae4578082015181840152602081019050612ac9565b60008484015250505050565b6000601f19601f8301169050919050565b6000612b0c82612aaa565b612b168185612ab5565b9350612b26818560208601612ac6565b612b2f81612af0565b840191505092915050565b60006020820190508181036000830152612b548184612b01565b905092915050565b6000819050919050565b612b6f81612b5c565b8114612b7a57600080fd5b50565b600081359050612b8c81612b66565b92915050565b600060208284031215612ba857612ba76129e5565b5b6000612bb684828501612b7d565b91505092915050565b600073ffffffffffffffffffffffffffffffffffffffff82169050919050565b6000612bea82612bbf565b9050919050565b612bfa81612bdf565b82525050565b6000602082019050612c156000830184612bf1565b92915050565b612c2481612bdf565b8114612c2f57600080fd5b50565b600081359050612c4181612c1b565b92915050565b60008060408385031215612c5e57612c5d6129e5565b5b6000612c6c85828601612c32565b9250506020612c7d85828601612b7d565b9150509250929050565b600080600060608486031215612ca057612c9f6129e5565b5b6000612cae86828701612c32565b9350506020612cbf86828701612c32565b9250506040612cd086828701612b7d565b9150509250925092565b612ce381612b5c565b82525050565b6000602082019050612cfe6000830184612cda565b92915050565b600060208284031215612d1a57612d196129e5565b5b6000612d2884828501612c32565b91505092915050565b612d3a81612a74565b8114612d4557600080fd5b50565b600081359050612d5781612d31565b92915050565b60008060408385031215612d7457612d736129e5565b5b6000612d8285828601612c32565b9250506020612d9385828601612d48565b9150509250929050565b600080fd5b600080fd5b7f4e487b7100000000000000000000000000000000000000000000000000000000600052604160045260246000fd5b612ddf82612af0565b810181811067ffffffffffffffff82111715612dfe57612dfd612da7565b5b80604052505050565b6000612e116129db565b9050612e1d8282612dd6565b919050565b600067ffffffffffffffff821115612e3d57612e3c612da7565b5b612e4682612af0565b9050602081019050919050565b82818337600083830152505050565b6000612e75612e7084612e22565b612e07565b905082815260208101848484011115612e9157612e90612da2565b5b612e9c848285612e53565b509392505050565b600082601f830112612eb957612eb8612d9d565b5b8135612ec9848260208601612e62565b91505092915050565b60008060008060808587031215612eec57612eeb6129e5565b5b6000612efa87828801612c32565b9450506020612f0b87828801612c32565b9350506040612f1c87828801612b7d565b925050606085013567ffffffffffffffff811115612f3d57612f3c6129ea565b5b612f4987828801612ea4565b91505092959194509250565b600067ffffffffffffffff821115612f7057612f6f612da7565b5b612f7982612af0565b9050602081019050919050565b6000612f99612f9484612f55565b612e07565b905082815260208101848484011115612fb557612fb4612da2565b5b612fc0848285612e53565b509392505050565b600082601f830112612fdd57612fdc612d9d565b5b8135612fed848260208601612f86565b91505092915050565b60008060008060008060c08789031215613013576130126129e5565b5b600087013567ffffffffffffffff811115613031576130306129ea565b5b61303d89828a01612fc8565b965050602087013567ffffffffffffffff81111561305e5761305d6129ea565b5b61306a89828a01612fc8565b955050604061307b89828a01612b7d565b945050606061308c89828a01612b7d565b935050608061309d89828a01612b7d565b92505060a087013567ffffffffffffffff8111156130be576130bd6129ea565b5b6130ca89828a01612fc8565b9150509295509295509295565b600081519050919050565b600082825260208201905092915050565b6000819050602082019050919050565b61310c81612b5c565b82525050565b600082825260208201905092915050565b600061312e82612aaa565b6131388185613112565b9350613148818560208601612ac6565b61315181612af0565b840191505092915050565b61316581612bdf565b82525050565b61317481612a74565b82525050565b6000610140830160008301516131936000860182613103565b50602083015184820360208601526131ab8282613123565b915050604083015184820360408601526131c58282613123565b91505060608301516131da606086018261315c565b5060808301516131ed6080860182613103565b5060a083015161320060a0860182613103565b5060c083015161321360c0860182613103565b5060e083015161322660e0860182613103565b506101008301518482036101008601526132408282613123565b91505061012083015161325761012086018261316b565b508091505092915050565b600061326e838361317a565b905092915050565b6000602082019050919050565b600061328e826130d7565b61329881856130e2565b9350836020820285016132aa856130f3565b8060005b858110156132e657848403895281516132c78582613262565b94506132d283613276565b925060208a019950506001810190506132ae565b50829750879550505050505092915050565b600060208201905081810360008301526133128184613283565b905092915050565b60008060408385031215613331576133306129e5565b5b600061333f85828601612c32565b925050602061335085828601612c32565b9150509250929050565b7f4e487b7100000000000000000000000000000000000000000000000000000000600052602260045260246000fd5b600060028204905060018216806133a157607f821691505b6020821081036133b4576133b361335a565b5b50919050565b7f4552433732313a20617070726f76616c20746f2063757272656e74206f776e6560008201527f7200000000000000000000000000000000000000000000000000000000000000602082015250565b6000613416602183612ab5565b9150613421826133ba565b604082019050919050565b6000602082019050818103600083015261344581613409565b9050919050565b7f4552433732313a20617070726f76652063616c6c6572206973206e6f7420746f60008201527f6b656e206f776e6572206f7220617070726f76656420666f7220616c6c000000602082015250565b60006134a8603d83612ab5565b91506134b38261344c565b604082019050919050565b600060208201905081810360008301526134d78161349b565b9050919050565b7f4552433732313a2063616c6c6572206973206e6f7420746f6b656e206f776e6560008201527f72206f7220617070726f76656400000000000000000000000000000000000000602082015250565b600061353a602d83612ab5565b9150613545826134de565b604082019050919050565b600060208201905081810360008301526135698161352d565b9050919050565b7f4e487b7100000000000000000000000000000000000000000000000000000000600052603260045260246000fd5b7f4e4654206973206e6f7420666f722073616c6500000000000000000000000000600082015250565b60006135d5601383612ab5565b91506135e08261359f565b602082019050919050565b60006020820190508181036000830152613604816135c8565b9050919050565b7f496e636f7272656374207061796d656e7420616d6f756e740000000000000000600082015250565b6000613641601883612ab5565b915061364c8261360b565b602082019050919050565b6000602082019050818103600083015261367081613634565b9050919050565b7f4f776e65722063616e27742073656c6c204e465420666f722068696d73656c66600082015250565b60006136ad602083612ab5565b91506136b882613677565b602082019050919050565b600060208201905081810360008301526136dc816136a0565b9050919050565b7f4552433732313a20696e76616c696420746f6b656e2049440000000000000000600082015250565b6000613719601883612ab5565b9150613724826136e3565b602082019050919050565b600060208201905081810360008301526137488161370c565b9050919050565b7f4552433732313a2061646472657373207a65726f206973206e6f74206120766160008201527f6c6964206f776e65720000000000000000000000000000000000000000000000602082015250565b60006137ab602983612ab5565b91506137b68261374f565b604082019050919050565b600060208201905081810360008301526137da8161379e565b9050919050565b7f496e76616c696420746f6b656e20494400000000000000000000000000000000600082015250565b6000613817601083612ab5565b9150613822826137e1565b602082019050919050565b600060208201905081810360008301526138468161380a565b9050919050565b60008190508160005260206000209050919050565b60006020601f8301049050919050565b600082821b905092915050565b6000600883026138af7fffffffffffffffffffffffffffffffffffffffffffffffffffffffffffffffff82613872565b6138b98683613872565b95508019841693508086168417925050509392505050565b6000819050919050565b60006138f66138f16138ec84612b5c565b6138d1565b612b5c565b9050919050565b6000819050919050565b613910836138db565b61392461391c826138fd565b84845461387f565b825550505050565b600090565b61393961392c565b613944818484613907565b505050565b5b818110156139685761395d600082613931565b60018101905061394a565b5050565b601f8211156139ad5761397e8161384d565b61398784613862565b81016020851015613996578190505b6139aa6139a285613862565b830182613949565b50505b505050565b600082821c905092915050565b60006139d0600019846008026139b2565b1980831691505092915050565b60006139e983836139bf565b9150826002028217905092915050565b613a0282612aaa565b67ffffffffffffffff811115613a1b57613a1a612da7565b5b613a258254613389565b613a3082828561396c565b600060209050601f831160018114613a635760008415613a51578287015190505b613a5b85826139dd565b865550613ac3565b601f198416613a718661384d565b60005b82811015613a9957848901518255600182019150602085019450602081019050613a74565b86831015613ab65784890151613ab2601f8916826139bf565b8355505b6001600288020188555050505b505050505050565b7f4e487b7100000000000000000000000000000000000000000000000000000000600052601160045260246000fd5b6000613b0582612b5c565b91507fffffffffffffffffffffffffffffffffffffffffffffffffffffffffffffffff8203613b3757613b36613acb565b5b600182019050919050565b600081905092915050565b6000613b5882612aaa565b613b628185613b42565b9350613b72818560208601612ac6565b80840191505092915050565b6000613b8a8285613b4d565b9150613b968284613b4d565b91508190509392505050565b7f43616c6c6572206973206e6f74206f776e6572206e6f7220617070726f766564600082015250565b6000613bd8602083612ab5565b9150613be382613ba2565b602082019050919050565b60006020820190508181036000830152613c0781613bcb565b9050919050565b7f4e465420697320616c726561647920666f722073616c65000000000000000000600082015250565b6000613c44601783612ab5565b9150613c4f82613c0e565b602082019050919050565b60006020820190508181036000830152613c7381613c37565b9050919050565b7f4f776e61626c653a206e6577206f776e657220697320746865207a65726f206160008201527f6464726573730000000000000000000000000000000000000000000000000000602082015250565b6000613cd6602683612ab5565b9150613ce182613c7a565b604082019050919050565b60006020820190508181036000830152613d0581613cc9565b9050919050565b7f4552433732313a207472616e736665722066726f6d20696e636f72726563742060008201527f6f776e6572000000000000000000000000000000000000000000000000000000602082015250565b6000613d68602583612ab5565b9150613d7382613d0c565b604082019050919050565b60006020820190508181036000830152613d9781613d5b565b9050919050565b7f4552433732313a207472616e7366657220746f20746865207a65726f2061646460008201527f7265737300000000000000000000000000000000000000000000000000000000602082015250565b6000613dfa602483612ab5565b9150613e0582613d9e565b604082019050919050565b60006020820190508181036000830152613e2981613ded565b9050919050565b7f4f776e61626c653a2063616c6c6572206973206e6f7420746865206f776e6572600082015250565b6000613e66602083612ab5565b9150613e7182613e30565b602082019050919050565b60006020820190508181036000830152613e9581613e59565b9050919050565b7f4552433732313a20617070726f766520746f2063616c6c657200000000000000600082015250565b6000613ed2601983612ab5565b9150613edd82613e9c565b602082019050919050565b60006020820190508181036000830152613f0181613ec5565b9050919050565b7f4552433732313a207472616e7366657220746f206e6f6e20455243373231526560008201527f63656976657220696d706c656d656e7465720000000000000000000000000000602082015250565b6000613f64603283612ab5565b9150613f6f82613f08565b604082019050919050565b60006020820190508181036000830152613f9381613f57565b9050919050565b7f4e487b7100000000000000000000000000000000000000000000000000000000600052601260045260246000fd5b600081519050919050565b600082825260208201905092915050565b6000613ff082613fc9565b613ffa8185613fd4565b935061400a818560208601612ac6565b61401381612af0565b840191505092915050565b60006080820190506140336000830187612bf1565b6140406020830186612bf1565b61404d6040830185612cda565b818103606083015261405f8184613fe5565b905095945050505050565b60008151905061407981612a1b565b92915050565b600060208284031215614095576140946129e5565b5b60006140a38482850161406a565b91505092915050565b7f4552433732313a206d696e7420746f20746865207a65726f2061646472657373600082015250565b60006140e2602083612ab5565b91506140ed826140ac565b602082019050919050565b60006020820190508181036000830152614111816140d5565b9050919050565b7f4552433732313a20746f6b656e20616c7265616479206d696e74656400000000600082015250565b600061414e601c83612ab5565b915061415982614118565b602082019050919050565b6000602082019050818103600083015261417d81614141565b905091905056fea26469706673582212205394e17e6f09f2a58ea2f47969fd8c5a44ca646aa06f44630ecb8495ea59991f64736f6c63430008120033",
  "linkReferences": {},
  "deployedLinkReferences": {}
}