{"contracts/NFTWheels.sol":{"NFTWheels":{"abi":[{"inputs":[{"internalType":"string","name":"name_","type":"string"},{"internalType":"string","name":"symbol_","type":"string"}],"stateMutability":"nonpayable","type":"constructor"},{"anonymous":false,"inputs":[{"indexed":true,"internalType":"address","name":"owner","type":"address"},{"indexed":true,"internalType":"address","name":"approved","type":"address"},{"indexed":true,"internalType":"uint256","name":"tokenId","type":"uint256"}],"name":"Approval","type":"event"},{"anonymous":false,"inputs":[{"indexed":true,"internalType":"address","name":"owner","type":"address"},{"indexed":true,"internalType":"address","name":"operator","type":"address"},{"indexed":false,"internalType":"bool","name":"approved","type":"bool"}],"name":"ApprovalForAll","type":"event"},{"anonymous":false,"inputs":[{"indexed":true,"internalType":"address","name":"previousOwner","type":"address"},{"indexed":true,"internalType":"address","name":"newOwner","type":"address"}],"name":"OwnershipTransferred","type":"event"},{"anonymous":false,"inputs":[{"indexed":true,"internalType":"address","name":"from","type":"address"},{"indexed":true,"internalType":"address","name":"to","type":"address"},{"indexed":true,"internalType":"uint256","name":"tokenId","type":"uint256"}],"name":"Transfer","type":"event"},{"inputs":[{"internalType":"uint256","name":"_tokenId","type":"uint256"}],"name":"_buy","outputs":[],"stateMutability":"payable","type":"function"},{"inputs":[{"internalType":"uint256","name":"_tokenId","type":"uint256"}],"name":"_sell","outputs":[{"internalType":"string","name":"","type":"string"}],"stateMutability":"nonpayable","type":"function"},{"inputs":[{"internalType":"address","name":"to","type":"address"},{"internalType":"uint256","name":"tokenId","type":"uint256"}],"name":"approve","outputs":[],"stateMutability":"nonpayable","type":"function"},{"inputs":[{"internalType":"address","name":"owner","type":"address"}],"name":"balanceOf","outputs":[{"internalType":"uint256","name":"","type":"uint256"}],"stateMutability":"view","type":"function"},{"inputs":[],"name":"getAllNFTs","outputs":[{"components":[{"internalType":"uint256","name":"id","type":"uint256"},{"internalType":"string","name":"marque","type":"string"},{"internalType":"string","name":"modele","type":"string"},{"internalType":"address","name":"owner","type":"address"},{"internalType":"uint256","name":"anne","type":"uint256"},{"internalType":"uint256","name":"puissance","type":"uint256"},{"internalType":"uint256","name":"vitesseMax","type":"uint256"},{"internalType":"uint256","name":"price","type":"uint256"},{"internalType":"string","name":"image","type":"string"},{"internalType":"bool","name":"isForSale","type":"bool"}],"internalType":"struct NFTWheels.Car[]","name":"","type":"tuple[]"}],"stateMutability":"view","type":"function"},{"inputs":[{"internalType":"uint256","name":"tokenId","type":"uint256"}],"name":"getApproved","outputs":[{"internalType":"address","name":"","type":"address"}],"stateMutability":"view","type":"function"},{"inputs":[{"internalType":"uint256","name":"_tokenId","type":"uint256"}],"name":"getNFTPrice","outputs":[{"internalType":"uint256","name":"","type":"uint256"}],"stateMutability":"view","type":"function"},{"inputs":[],"name":"getOwner","outputs":[{"internalType":"address","name":"meomry","type":"address"}],"stateMutability":"view","type":"function"},{"inputs":[{"internalType":"uint256","name":"_tokenId","type":"uint256"}],"name":"getOwnerOf","outputs":[{"internalType":"address","name":"","type":"address"}],"stateMutability":"view","type":"function"},{"inputs":[{"internalType":"address","name":"owner","type":"address"},{"internalType":"address","name":"operator","type":"address"}],"name":"isApprovedForAll","outputs":[{"internalType":"bool","name":"","type":"bool"}],"stateMutability":"view","type":"function"},{"inputs":[{"internalType":"string","name":"_marque","type":"string"},{"internalType":"string","name":"_modele","type":"string"},{"internalType":"uint256","name":"_anne","type":"uint256"},{"internalType":"uint256","name":"_puissance","type":"uint256"},{"internalType":"uint256","name":"_vitesseMax","type":"uint256"},{"internalType":"string","name":"_img","type":"string"}],"name":"mint","outputs":[],"stateMutability":"nonpayable","type":"function"},{"inputs":[],"name":"name","outputs":[{"internalType":"string","name":"","type":"string"}],"stateMutability":"view","type":"function"},{"inputs":[],"name":"owner","outputs":[{"internalType":"address","name":"","type":"address"}],"stateMutability":"view","type":"function"},{"inputs":[{"internalType":"uint256","name":"tokenId","type":"uint256"}],"name":"ownerOf","outputs":[{"internalType":"address","name":"","type":"address"}],"stateMutability":"view","type":"function"},{"inputs":[{"internalType":"uint256","name":"_tokenId","type":"uint256"}],"name":"removeFromSell","outputs":[],"stateMutability":"nonpayable","type":"function"},{"inputs":[],"name":"renounceOwnership","outputs":[],"stateMutability":"nonpayable","type":"function"},{"inputs":[{"internalType":"address","name":"from","type":"address"},{"internalType":"address","name":"to","type":"address"},{"internalType":"uint256","name":"tokenId","type":"uint256"}],"name":"safeTransferFrom","outputs":[],"stateMutability":"nonpayable","type":"function"},{"inputs":[{"internalType":"address","name":"from","type":"address"},{"internalType":"address","name":"to","type":"address"},{"internalType":"uint256","name":"tokenId","type":"uint256"},{"internalType":"bytes","name":"data","type":"bytes"}],"name":"safeTransferFrom","outputs":[],"stateMutability":"nonpayable","type":"function"},{"inputs":[{"internalType":"address","name":"operator","type":"address"},{"internalType":"bool","name":"approved","type":"bool"}],"name":"setApprovalForAll","outputs":[],"stateMutability":"nonpayable","type":"function"},{"inputs":[{"internalType":"uint256","name":"_newPrice","type":"uint256"}],"name":"setDefaultPrice","outputs":[{"internalType":"uint256","name":"","type":"uint256"}],"stateMutability":"nonpayable","type":"function"},{"inputs":[{"internalType":"bytes4","name":"interfaceId","type":"bytes4"}],"name":"supportsInterface","outputs":[{"internalType":"bool","name":"","type":"bool"}],"stateMutability":"view","type":"function"},{"inputs":[],"name":"symbol","outputs":[{"internalType":"string","name":"","type":"string"}],"stateMutability":"view","type":"function"},{"inputs":[{"internalType":"uint256","name":"tokenId","type":"uint256"}],"name":"tokenURI","outputs":[{"internalType":"string","name":"","type":"string"}],"stateMutability":"view","type":"function"},{"inputs":[{"internalType":"address","name":"from","type":"address"},{"internalType":"address","name":"to","type":"address"},{"internalType":"uint256","name":"tokenId","type":"uint256"}],"name":"transferFrom","outputs":[],"stateMutability":"nonpayable","type":"function"},{"inputs":[{"internalType":"address","name":"newOwner","type":"address"}],"name":"transferOwnership","outputs":[],"stateMutability":"nonpayable","type":"function"}],"evm":{"bytecode":{"linkReferences":{},"object":"60806040526000600755670de0b6b3a76400006008553480156200002257600080fd5b50604051620048cf380380620048cf8339818101604052810190620000489190620002f9565b818181600090816200005b9190620005c9565b5080600190816200006d9190620005c9565b50505062000090620000846200009860201b60201c565b620000a060201b60201c565b5050620006b0565b600033905090565b6000600660009054906101000a900473ffffffffffffffffffffffffffffffffffffffff16905081600660006101000a81548173ffffffffffffffffffffffffffffffffffffffff021916908373ffffffffffffffffffffffffffffffffffffffff1602179055508173ffffffffffffffffffffffffffffffffffffffff168173ffffffffffffffffffffffffffffffffffffffff167f8be0079c531659141344cd1fd0a4f28419497f9722a3daafe3b4186f6b6457e060405160405180910390a35050565b6000604051905090565b600080fd5b600080fd5b600080fd5b600080fd5b6000601f19601f8301169050919050565b7f4e487b7100000000000000000000000000000000000000000000000000000000600052604160045260246000fd5b620001cf8262000184565b810181811067ffffffffffffffff82111715620001f157620001f062000195565b5b80604052505050565b60006200020662000166565b9050620002148282620001c4565b919050565b600067ffffffffffffffff82111562000237576200023662000195565b5b620002428262000184565b9050602081019050919050565b60005b838110156200026f57808201518184015260208101905062000252565b60008484015250505050565b6000620002926200028c8462000219565b620001fa565b905082815260208101848484011115620002b157620002b06200017f565b5b620002be8482856200024f565b509392505050565b600082601f830112620002de57620002dd6200017a565b5b8151620002f08482602086016200027b565b91505092915050565b6000806040838503121562000313576200031262000170565b5b600083015167ffffffffffffffff81111562000334576200033362000175565b5b6200034285828601620002c6565b925050602083015167ffffffffffffffff81111562000366576200036562000175565b5b6200037485828601620002c6565b9150509250929050565b600081519050919050565b7f4e487b7100000000000000000000000000000000000000000000000000000000600052602260045260246000fd5b60006002820490506001821680620003d157607f821691505b602082108103620003e757620003e662000389565b5b50919050565b60008190508160005260206000209050919050565b60006020601f8301049050919050565b600082821b905092915050565b600060088302620004517fffffffffffffffffffffffffffffffffffffffffffffffffffffffffffffffff8262000412565b6200045d868362000412565b95508019841693508086168417925050509392505050565b6000819050919050565b6000819050919050565b6000620004aa620004a46200049e8462000475565b6200047f565b62000475565b9050919050565b6000819050919050565b620004c68362000489565b620004de620004d582620004b1565b8484546200041f565b825550505050565b600090565b620004f5620004e6565b62000502818484620004bb565b505050565b5b818110156200052a576200051e600082620004eb565b60018101905062000508565b5050565b601f82111562000579576200054381620003ed565b6200054e8462000402565b810160208510156200055e578190505b620005766200056d8562000402565b83018262000507565b50505b505050565b600082821c905092915050565b60006200059e600019846008026200057e565b1980831691505092915050565b6000620005b983836200058b565b9150826002028217905092915050565b620005d4826200037e565b67ffffffffffffffff811115620005f057620005ef62000195565b5b620005fc8254620003b8565b620006098282856200052e565b600060209050601f8311600181146200064157600084156200062c578287015190505b620006388582620005ab565b865550620006a8565b601f1984166200065186620003ed565b60005b828110156200067b5784890151825560018201915060208501945060208101905062000654565b868310156200069b578489015162000697601f8916826200058b565b8355505b6001600288020188555050505b505050505050565b61420f80620006c06000396000f3fe6080604052600436106101665760003560e01c8063893d20e8116100d1578063bf57fafe1161008a578063e0391b0911610064578063e0391b0914610551578063e5d5876d1461057c578063e985e9c5146105b9578063f2fde38b146105f657610166565b8063bf57fafe146104c2578063c395d9cc146104eb578063c87b56dd1461051457610166565b8063893d20e8146103b25780638da5cb5b146103dd578063929761791461040857806395d89b4114610445578063a22cb46514610470578063b88d4fde1461049957610166565b806342842e0e1161012357806342842e0e1461027e5780636352211e146102a75780636d3c7ec5146102e457806370a0823114610321578063715018a61461035e578063836387101461037557610166565b806301ffc9a71461016b57806306fdde03146101a8578063081812fc146101d3578063095ea7b31461021057806323b872dd14610239578063282303b514610262575b600080fd5b34801561017757600080fd5b50610192600480360381019061018d9190612a9c565b61061f565b60405161019f9190612ae4565b60405180910390f35b3480156101b457600080fd5b506101bd610701565b6040516101ca9190612b8f565b60405180910390f35b3480156101df57600080fd5b506101fa60048036038101906101f59190612be7565b610793565b6040516102079190612c55565b60405180910390f35b34801561021c57600080fd5b5061023760048036038101906102329190612c9c565b6107d9565b005b34801561024557600080fd5b50610260600480360381019061025b9190612cdc565b6108f0565b005b61027c60048036038101906102779190612be7565b610950565b005b34801561028a57600080fd5b506102a560048036038101906102a09190612cdc565b610be7565b005b3480156102b357600080fd5b506102ce60048036038101906102c99190612be7565b610c07565b6040516102db9190612c55565b60405180910390f35b3480156102f057600080fd5b5061030b60048036038101906103069190612be7565b610c8d565b6040516103189190612d3e565b60405180910390f35b34801561032d57600080fd5b5061034860048036038101906103439190612d59565b610ca8565b6040516103559190612d3e565b60405180910390f35b34801561036a57600080fd5b50610373610d5f565b005b34801561038157600080fd5b5061039c60048036038101906103979190612be7565b610d73565b6040516103a99190612c55565b60405180910390f35b3480156103be57600080fd5b506103c7610d85565b6040516103d49190612c55565b60405180910390f35b3480156103e957600080fd5b506103f2610d94565b6040516103ff9190612c55565b60405180910390f35b34801561041457600080fd5b5061042f600480360381019061042a9190612be7565b610dbe565b60405161043c9190612d3e565b60405180910390f35b34801561045157600080fd5b5061045a611091565b6040516104679190612b8f565b60405180910390f35b34801561047c57600080fd5b5061049760048036038101906104929190612db2565b611123565b005b3480156104a557600080fd5b506104c060048036038101906104bb9190612f27565b611139565b005b3480156104ce57600080fd5b506104e960048036038101906104e4919061304b565b61119b565b005b3480156104f757600080fd5b50610512600480360381019061050d9190612be7565b611438565b005b34801561052057600080fd5b5061053b60048036038101906105369190612be7565b611587565b6040516105489190612b8f565b60405180910390f35b34801561055d57600080fd5b506105666115ef565b604051610573919061334d565b60405180910390f35b34801561058857600080fd5b506105a3600480360381019061059e9190612be7565b6118a8565b6040516105b09190612b8f565b60405180910390f35b3480156105c557600080fd5b506105e060048036038101906105db919061336f565b611a07565b6040516105ed9190612ae4565b60405180910390f35b34801561060257600080fd5b5061061d60048036038101906106189190612d59565b611a9b565b005b60007f80ac58cd000000000000000000000000000000000000000000000000000000007bffffffffffffffffffffffffffffffffffffffffffffffffffffffff1916827bffffffffffffffffffffffffffffffffffffffffffffffffffffffff191614806106ea57507f5b5e139f000000000000000000000000000000000000000000000000000000007bffffffffffffffffffffffffffffffffffffffffffffffffffffffff1916827bffffffffffffffffffffffffffffffffffffffffffffffffffffffff1916145b806106fa57506106f982611b1e565b5b9050919050565b606060008054610710906133de565b80601f016020809104026020016040519081016040528092919081815260200182805461073c906133de565b80156107895780601f1061075e57610100808354040283529160200191610789565b820191906000526020600020905b81548152906001019060200180831161076c57829003601f168201915b5050505050905090565b600061079e82611b88565b6004600083815260200190815260200160002060009054906101000a900473ffffffffffffffffffffffffffffffffffffffff169050919050565b60006107e482610c07565b90508073ffffffffffffffffffffffffffffffffffffffff168373ffffffffffffffffffffffffffffffffffffffff1603610854576040517f08c379a000000000000000000000000000000000000000000000000000000000815260040161084b90613481565b60405180910390fd5b8073ffffffffffffffffffffffffffffffffffffffff16610873611bd3565b73ffffffffffffffffffffffffffffffffffffffff1614806108a257506108a18161089c611bd3565b611a07565b5b6108e1576040517f08c379a00000000000000000000000000000000000000000000000000000000081526004016108d890613513565b60405180910390fd5b6108eb8383611bdb565b505050565b6109016108fb611bd3565b82611c94565b610940576040517f08c379a0000000000000000000000000000000000000000000000000000000008152600401610937906135a5565b60405180910390fd5b61094b838383611d29565b505050565b600060098281548110610966576109656135c5565b5b90600052602060002090600a02019050600a600083815260200190815260200160002060090160009054906101000a900460ff166109d9576040517f08c379a00000000000000000000000000000000000000000000000000000000081526004016109d090613640565b60405180910390fd5b600a6000838152602001908152602001600020600701543414610a31576040517f08c379a0000000000000000000000000000000000000000000000000000000008152600401610a28906136ac565b60405180910390fd5b6000610a3c83610c07565b90508073ffffffffffffffffffffffffffffffffffffffff163373ffffffffffffffffffffffffffffffffffffffff1603610aac576040517f08c379a0000000000000000000000000000000000000000000000000000000008152600401610aa390613718565b60405180910390fd5b610ab7813385611d29565b6000600a600085815260200190815260200160002060090160006101000a81548160ff02191690831515021790555033600a600085815260200190815260200160002060030160006101000a81548173ffffffffffffffffffffffffffffffffffffffff021916908373ffffffffffffffffffffffffffffffffffffffff16021790555060008260090160006101000a81548160ff021916908315150217905550338260030160006101000a81548173ffffffffffffffffffffffffffffffffffffffff021916908373ffffffffffffffffffffffffffffffffffffffff1602179055508073ffffffffffffffffffffffffffffffffffffffff166108fc349081150290604051600060405180830381858888f19350505050158015610be1573d6000803e3d6000fd5b50505050565b610c0283838360405180602001604052806000815250611139565b505050565b600080610c1383612022565b9050600073ffffffffffffffffffffffffffffffffffffffff168173ffffffffffffffffffffffffffffffffffffffff1603610c84576040517f08c379a0000000000000000000000000000000000000000000000000000000008152600401610c7b90613784565b60405180910390fd5b80915050919050565b6000610c9761205f565b816008819055506008549050919050565b60008073ffffffffffffffffffffffffffffffffffffffff168273ffffffffffffffffffffffffffffffffffffffff1603610d18576040517f08c379a0000000000000000000000000000000000000000000000000000000008152600401610d0f90613816565b60405180910390fd5b600360008373ffffffffffffffffffffffffffffffffffffffff1673ffffffffffffffffffffffffffffffffffffffff168152602001908152602001600020549050919050565b610d6761205f565b610d7160006120dd565b565b6000610d7e82610c07565b9050919050565b6000610d8f610d94565b905090565b6000600660009054906101000a900473ffffffffffffffffffffffffffffffffffffffff16905090565b6000610dc9826121a3565b610e08576040517f08c379a0000000000000000000000000000000000000000000000000000000008152600401610dff90613882565b60405180910390fd5b6000600a60008481526020019081526020016000206040518061014001604052908160008201548152602001600182018054610e43906133de565b80601f0160208091040260200160405190810160405280929190818152602001828054610e6f906133de565b8015610ebc5780601f10610e9157610100808354040283529160200191610ebc565b820191906000526020600020905b815481529060010190602001808311610e9f57829003601f168201915b50505050508152602001600282018054610ed5906133de565b80601f0160208091040260200160405190810160405280929190818152602001828054610f01906133de565b8015610f4e5780601f10610f2357610100808354040283529160200191610f4e565b820191906000526020600020905b815481529060010190602001808311610f3157829003601f168201915b505050505081526020016003820160009054906101000a900473ffffffffffffffffffffffffffffffffffffffff1673ffffffffffffffffffffffffffffffffffffffff1673ffffffffffffffffffffffffffffffffffffffff16815260200160048201548152602001600582015481526020016006820154815260200160078201548152602001600882018054610fe5906133de565b80601f0160208091040260200160405190810160405280929190818152602001828054611011906133de565b801561105e5780601f106110335761010080835404028352916020019161105e565b820191906000526020600020905b81548152906001019060200180831161104157829003601f168201915b505050505081526020016009820160009054906101000a900460ff16151515158152505090508060e00151915050919050565b6060600180546110a0906133de565b80601f01602080910402602001604051908101604052809291908181526020018280546110cc906133de565b80156111195780601f106110ee57610100808354040283529160200191611119565b820191906000526020600020905b8154815290600101906020018083116110fc57829003601f168201915b5050505050905090565b61113561112e611bd3565b83836121e4565b5050565b61114a611144611bd3565b83611c94565b611189576040517f08c379a0000000000000000000000000000000000000000000000000000000008152600401611180906135a5565b60405180910390fd5b61119584848484612350565b50505050565b6111a361205f565b600060405180610140016040528060075481526020018881526020018781526020013373ffffffffffffffffffffffffffffffffffffffff168152602001868152602001858152602001848152602001600854815260200183815260200160001515815250905080600a6000600754815260200190815260200160002060008201518160000155602082015181600101908161123f9190613a4e565b5060408201518160020190816112559190613a4e565b5060608201518160030160006101000a81548173ffffffffffffffffffffffffffffffffffffffff021916908373ffffffffffffffffffffffffffffffffffffffff1602179055506080820151816004015560a0820151816005015560c0820151816006015560e082015181600701556101008201518160080190816112db9190613a4e565b506101208201518160090160006101000a81548160ff02191690831515021790555090505061130c336007546123ac565b60098190806001815401808255809150506001900390600052602060002090600a02016000909190919091506000820151816000015560208201518160010190816113579190613a4e565b50604082015181600201908161136d9190613a4e565b5060608201518160030160006101000a81548173ffffffffffffffffffffffffffffffffffffffff021916908373ffffffffffffffffffffffffffffffffffffffff1602179055506080820151816004015560a0820151816005015560c0820151816006015560e082015181600701556101008201518160080190816113f39190613a4e565b506101208201518160090160006101000a81548160ff02191690831515021790555050506007600081548092919061142a90613b4f565b919050555050505050505050565b61144181610c07565b73ffffffffffffffffffffffffffffffffffffffff16600a600083815260200190815260200160002060030160009054906101000a900473ffffffffffffffffffffffffffffffffffffffff1673ffffffffffffffffffffffffffffffffffffffff16146114ae57600080fd5b600a600082815260200190815260200160002060090160009054906101000a900460ff16611511576040517f08c379a000000000000000000000000000000000000000000000000000000000815260040161150890613640565b60405180910390fd5b6000600a600083815260200190815260200160002060090160006101000a81548160ff021916908315150217905550600060098281548110611556576115556135c5565b5b90600052602060002090600a0201905060008160090160006101000a81548160ff0219169083151502179055505050565b606061159282611b88565b600061159c6123ca565b905060008151116115bc57604051806020016040528060008152506115e7565b806115c6846123e1565b6040516020016115d7929190613bd3565b6040516020818303038152906040525b915050919050565b60606009805480602002602001604051908101604052809291908181526020016000905b8282101561189f57838290600052602060002090600a02016040518061014001604052908160008201548152602001600182018054611651906133de565b80601f016020809104026020016040519081016040528092919081815260200182805461167d906133de565b80156116ca5780601f1061169f576101008083540402835291602001916116ca565b820191906000526020600020905b8154815290600101906020018083116116ad57829003601f168201915b505050505081526020016002820180546116e3906133de565b80601f016020809104026020016040519081016040528092919081815260200182805461170f906133de565b801561175c5780601f106117315761010080835404028352916020019161175c565b820191906000526020600020905b81548152906001019060200180831161173f57829003601f168201915b505050505081526020016003820160009054906101000a900473ffffffffffffffffffffffffffffffffffffffff1673ffffffffffffffffffffffffffffffffffffffff1673ffffffffffffffffffffffffffffffffffffffff168152602001600482015481526020016005820154815260200160068201548152602001600782015481526020016008820180546117f3906133de565b80601f016020809104026020016040519081016040528092919081815260200182805461181f906133de565b801561186c5780601f106118415761010080835404028352916020019161186c565b820191906000526020600020905b81548152906001019060200180831161184f57829003601f168201915b505050505081526020016009820160009054906101000a900460ff16151515158152505081526020019060010190611613565b50505050905090565b60606118b43383611c94565b6118f3576040517f08c379a00000000000000000000000000000000000000000000000000000000081526004016118ea90613c43565b60405180910390fd5b600a600083815260200190815260200160002060090160009054906101000a900460ff1615611957576040517f08c379a000000000000000000000000000000000000000000000000000000000815260040161194e90613caf565b60405180910390fd5b6001600a600084815260200190815260200160002060090160006101000a81548160ff02191690831515021790555060006009838154811061199c5761199b6135c5565b5b90600052602060002090600a0201905060018160090160006101000a81548160ff0219169083151502179055506040518060400160405280600381526020017f4963690000000000000000000000000000000000000000000000000000000000815250915050919050565b6000600560008473ffffffffffffffffffffffffffffffffffffffff1673ffffffffffffffffffffffffffffffffffffffff16815260200190815260200160002060008373ffffffffffffffffffffffffffffffffffffffff1673ffffffffffffffffffffffffffffffffffffffff16815260200190815260200160002060009054906101000a900460ff16905092915050565b611aa361205f565b600073ffffffffffffffffffffffffffffffffffffffff168173ffffffffffffffffffffffffffffffffffffffff1603611b12576040517f08c379a0000000000000000000000000000000000000000000000000000000008152600401611b0990613d41565b60405180910390fd5b611b1b816120dd565b50565b60007f01ffc9a7000000000000000000000000000000000000000000000000000000007bffffffffffffffffffffffffffffffffffffffffffffffffffffffff1916827bffffffffffffffffffffffffffffffffffffffffffffffffffffffff1916149050919050565b611b91816121a3565b611bd0576040517f08c379a0000000000000000000000000000000000000000000000000000000008152600401611bc790613784565b60405180910390fd5b50565b600033905090565b816004600083815260200190815260200160002060006101000a81548173ffffffffffffffffffffffffffffffffffffffff021916908373ffffffffffffffffffffffffffffffffffffffff160217905550808273ffffffffffffffffffffffffffffffffffffffff16611c4e83610c07565b73ffffffffffffffffffffffffffffffffffffffff167f8c5be1e5ebec7d5bd14f71427d1e84f3dd0314c0f7b2291e5b200ac8c7c3b92560405160405180910390a45050565b600080611ca083610c07565b90508073ffffffffffffffffffffffffffffffffffffffff168473ffffffffffffffffffffffffffffffffffffffff161480611ce25750611ce18185611a07565b5b80611d2057508373ffffffffffffffffffffffffffffffffffffffff16611d0884610793565b73ffffffffffffffffffffffffffffffffffffffff16145b91505092915050565b8273ffffffffffffffffffffffffffffffffffffffff16611d4982610c07565b73ffffffffffffffffffffffffffffffffffffffff1614611d9f576040517f08c379a0000000000000000000000000000000000000000000000000000000008152600401611d9690613dd3565b60405180910390fd5b600073ffffffffffffffffffffffffffffffffffffffff168273ffffffffffffffffffffffffffffffffffffffff1603611e0e576040517f08c379a0000000000000000000000000000000000000000000000000000000008152600401611e0590613e65565b60405180910390fd5b611e1b83838360016124af565b8273ffffffffffffffffffffffffffffffffffffffff16611e3b82610c07565b73ffffffffffffffffffffffffffffffffffffffff1614611e91576040517f08c379a0000000000000000000000000000000000000000000000000000000008152600401611e8890613dd3565b60405180910390fd5b6004600082815260200190815260200160002060006101000a81549073ffffffffffffffffffffffffffffffffffffffff02191690556001600360008573ffffffffffffffffffffffffffffffffffffffff1673ffffffffffffffffffffffffffffffffffffffff168152602001908152602001600020600082825403925050819055506001600360008473ffffffffffffffffffffffffffffffffffffffff1673ffffffffffffffffffffffffffffffffffffffff16815260200190815260200160002060008282540192505081905550816002600083815260200190815260200160002060006101000a81548173ffffffffffffffffffffffffffffffffffffffff021916908373ffffffffffffffffffffffffffffffffffffffff160217905550808273ffffffffffffffffffffffffffffffffffffffff168473ffffffffffffffffffffffffffffffffffffffff167fddf252ad1be2c89b69c2b068fc378daa952ba7f163c4a11628f55a4df523b3ef60405160405180910390a461201d83838360016124b5565b505050565b60006002600083815260200190815260200160002060009054906101000a900473ffffffffffffffffffffffffffffffffffffffff169050919050565b612067611bd3565b73ffffffffffffffffffffffffffffffffffffffff16612085610d94565b73ffffffffffffffffffffffffffffffffffffffff16146120db576040517f08c379a00000000000000000000000000000000000000000000000000000000081526004016120d290613ed1565b60405180910390fd5b565b6000600660009054906101000a900473ffffffffffffffffffffffffffffffffffffffff16905081600660006101000a81548173ffffffffffffffffffffffffffffffffffffffff021916908373ffffffffffffffffffffffffffffffffffffffff1602179055508173ffffffffffffffffffffffffffffffffffffffff168173ffffffffffffffffffffffffffffffffffffffff167f8be0079c531659141344cd1fd0a4f28419497f9722a3daafe3b4186f6b6457e060405160405180910390a35050565b60008073ffffffffffffffffffffffffffffffffffffffff166121c583612022565b73ffffffffffffffffffffffffffffffffffffffff1614159050919050565b8173ffffffffffffffffffffffffffffffffffffffff168373ffffffffffffffffffffffffffffffffffffffff1603612252576040517f08c379a000000000000000000000000000000000000000000000000000000000815260040161224990613f3d565b60405180910390fd5b80600560008573ffffffffffffffffffffffffffffffffffffffff1673ffffffffffffffffffffffffffffffffffffffff16815260200190815260200160002060008473ffffffffffffffffffffffffffffffffffffffff1673ffffffffffffffffffffffffffffffffffffffff16815260200190815260200160002060006101000a81548160ff0219169083151502179055508173ffffffffffffffffffffffffffffffffffffffff168373ffffffffffffffffffffffffffffffffffffffff167f17307eab39ab6107e8899845ad3d59bd9653f200f220920489ca2b5937696c31836040516123439190612ae4565b60405180910390a3505050565b61235b848484611d29565b612367848484846124bb565b6123a6576040517f08c379a000000000000000000000000000000000000000000000000000000000815260040161239d90613fcf565b60405180910390fd5b50505050565b6123c6828260405180602001604052806000815250612642565b5050565b606060405180602001604052806000815250905090565b6060600060016123f08461269d565b01905060008167ffffffffffffffff81111561240f5761240e612dfc565b5b6040519080825280601f01601f1916602001820160405280156124415781602001600182028036833780820191505090505b509050600082602001820190505b6001156124a4578080600190039150507f3031323334353637383961626364656600000000000000000000000000000000600a86061a8153600a858161249857612497613fef565b5b0494506000850361244f575b819350505050919050565b50505050565b50505050565b60006124dc8473ffffffffffffffffffffffffffffffffffffffff166127f0565b15612635578373ffffffffffffffffffffffffffffffffffffffff1663150b7a02612505611bd3565b8786866040518563ffffffff1660e01b81526004016125279493929190614073565b6020604051808303816000875af192505050801561256357506040513d601f19601f8201168201806040525081019061256091906140d4565b60015b6125e5573d8060008114612593576040519150601f19603f3d011682016040523d82523d6000602084013e612598565b606091505b5060008151036125dd576040517f08c379a00000000000000000000000000000000000000000000000000000000081526004016125d490613fcf565b60405180910390fd5b805181602001fd5b63150b7a0260e01b7bffffffffffffffffffffffffffffffffffffffffffffffffffffffff1916817bffffffffffffffffffffffffffffffffffffffffffffffffffffffff19161491505061263a565b600190505b949350505050565b61264c8383612813565b61265960008484846124bb565b612698576040517f08c379a000000000000000000000000000000000000000000000000000000000815260040161268f90613fcf565b60405180910390fd5b505050565b600080600090507a184f03e93ff9f4daa797ed6e38ed64bf6a1f01000000000000000083106126fb577a184f03e93ff9f4daa797ed6e38ed64bf6a1f01000000000000000083816126f1576126f0613fef565b5b0492506040810190505b6d04ee2d6d415b85acef81000000008310612738576d04ee2d6d415b85acef8100000000838161272e5761272d613fef565b5b0492506020810190505b662386f26fc10000831061276757662386f26fc10000838161275d5761275c613fef565b5b0492506010810190505b6305f5e1008310612790576305f5e100838161278657612785613fef565b5b0492506008810190505b61271083106127b55761271083816127ab576127aa613fef565b5b0492506004810190505b606483106127d857606483816127ce576127cd613fef565b5b0492506002810190505b600a83106127e7576001810190505b80915050919050565b6000808273ffffffffffffffffffffffffffffffffffffffff163b119050919050565b600073ffffffffffffffffffffffffffffffffffffffff168273ffffffffffffffffffffffffffffffffffffffff1603612882576040517f08c379a00000000000000000000000000000000000000000000000000000000081526004016128799061414d565b60405180910390fd5b61288b816121a3565b156128cb576040517f08c379a00000000000000000000000000000000000000000000000000000000081526004016128c2906141b9565b60405180910390fd5b6128d96000838360016124af565b6128e2816121a3565b15612922576040517f08c379a0000000000000000000000000000000000000000000000000000000008152600401612919906141b9565b60405180910390fd5b6001600360008473ffffffffffffffffffffffffffffffffffffffff1673ffffffffffffffffffffffffffffffffffffffff16815260200190815260200160002060008282540192505081905550816002600083815260200190815260200160002060006101000a81548173ffffffffffffffffffffffffffffffffffffffff021916908373ffffffffffffffffffffffffffffffffffffffff160217905550808273ffffffffffffffffffffffffffffffffffffffff16600073ffffffffffffffffffffffffffffffffffffffff167fddf252ad1be2c89b69c2b068fc378daa952ba7f163c4a11628f55a4df523b3ef60405160405180910390a4612a2c6000838360016124b5565b5050565b6000604051905090565b600080fd5b600080fd5b60007fffffffff0000000000000000000000000000000000000000000000000000000082169050919050565b612a7981612a44565b8114612a8457600080fd5b50565b600081359050612a9681612a70565b92915050565b600060208284031215612ab257612ab1612a3a565b5b6000612ac084828501612a87565b91505092915050565b60008115159050919050565b612ade81612ac9565b82525050565b6000602082019050612af96000830184612ad5565b92915050565b600081519050919050565b600082825260208201905092915050565b60005b83811015612b39578082015181840152602081019050612b1e565b60008484015250505050565b6000601f19601f8301169050919050565b6000612b6182612aff565b612b6b8185612b0a565b9350612b7b818560208601612b1b565b612b8481612b45565b840191505092915050565b60006020820190508181036000830152612ba98184612b56565b905092915050565b6000819050919050565b612bc481612bb1565b8114612bcf57600080fd5b50565b600081359050612be181612bbb565b92915050565b600060208284031215612bfd57612bfc612a3a565b5b6000612c0b84828501612bd2565b91505092915050565b600073ffffffffffffffffffffffffffffffffffffffff82169050919050565b6000612c3f82612c14565b9050919050565b612c4f81612c34565b82525050565b6000602082019050612c6a6000830184612c46565b92915050565b612c7981612c34565b8114612c8457600080fd5b50565b600081359050612c9681612c70565b92915050565b60008060408385031215612cb357612cb2612a3a565b5b6000612cc185828601612c87565b9250506020612cd285828601612bd2565b9150509250929050565b600080600060608486031215612cf557612cf4612a3a565b5b6000612d0386828701612c87565b9350506020612d1486828701612c87565b9250506040612d2586828701612bd2565b9150509250925092565b612d3881612bb1565b82525050565b6000602082019050612d536000830184612d2f565b92915050565b600060208284031215612d6f57612d6e612a3a565b5b6000612d7d84828501612c87565b91505092915050565b612d8f81612ac9565b8114612d9a57600080fd5b50565b600081359050612dac81612d86565b92915050565b60008060408385031215612dc957612dc8612a3a565b5b6000612dd785828601612c87565b9250506020612de885828601612d9d565b9150509250929050565b600080fd5b600080fd5b7f4e487b7100000000000000000000000000000000000000000000000000000000600052604160045260246000fd5b612e3482612b45565b810181811067ffffffffffffffff82111715612e5357612e52612dfc565b5b80604052505050565b6000612e66612a30565b9050612e728282612e2b565b919050565b600067ffffffffffffffff821115612e9257612e91612dfc565b5b612e9b82612b45565b9050602081019050919050565b82818337600083830152505050565b6000612eca612ec584612e77565b612e5c565b905082815260208101848484011115612ee657612ee5612df7565b5b612ef1848285612ea8565b509392505050565b600082601f830112612f0e57612f0d612df2565b5b8135612f1e848260208601612eb7565b91505092915050565b60008060008060808587031215612f4157612f40612a3a565b5b6000612f4f87828801612c87565b9450506020612f6087828801612c87565b9350506040612f7187828801612bd2565b925050606085013567ffffffffffffffff811115612f9257612f91612a3f565b5b612f9e87828801612ef9565b91505092959194509250565b600067ffffffffffffffff821115612fc557612fc4612dfc565b5b612fce82612b45565b9050602081019050919050565b6000612fee612fe984612faa565b612e5c565b90508281526020810184848401111561300a57613009612df7565b5b613015848285612ea8565b509392505050565b600082601f83011261303257613031612df2565b5b8135613042848260208601612fdb565b91505092915050565b60008060008060008060c0878903121561306857613067612a3a565b5b600087013567ffffffffffffffff81111561308657613085612a3f565b5b61309289828a0161301d565b965050602087013567ffffffffffffffff8111156130b3576130b2612a3f565b5b6130bf89828a0161301d565b95505060406130d089828a01612bd2565b94505060606130e189828a01612bd2565b93505060806130f289828a01612bd2565b92505060a087013567ffffffffffffffff81111561311357613112612a3f565b5b61311f89828a0161301d565b9150509295509295509295565b600081519050919050565b600082825260208201905092915050565b6000819050602082019050919050565b61316181612bb1565b82525050565b600082825260208201905092915050565b600061318382612aff565b61318d8185613167565b935061319d818560208601612b1b565b6131a681612b45565b840191505092915050565b6131ba81612c34565b82525050565b6131c981612ac9565b82525050565b6000610140830160008301516131e86000860182613158565b50602083015184820360208601526132008282613178565b9150506040830151848203604086015261321a8282613178565b915050606083015161322f60608601826131b1565b5060808301516132426080860182613158565b5060a083015161325560a0860182613158565b5060c083015161326860c0860182613158565b5060e083015161327b60e0860182613158565b506101008301518482036101008601526132958282613178565b9150506101208301516132ac6101208601826131c0565b508091505092915050565b60006132c383836131cf565b905092915050565b6000602082019050919050565b60006132e38261312c565b6132ed8185613137565b9350836020820285016132ff85613148565b8060005b8581101561333b578484038952815161331c85826132b7565b9450613327836132cb565b925060208a01995050600181019050613303565b50829750879550505050505092915050565b6000602082019050818103600083015261336781846132d8565b905092915050565b6000806040838503121561338657613385612a3a565b5b600061339485828601612c87565b92505060206133a585828601612c87565b9150509250929050565b7f4e487b7100000000000000000000000000000000000000000000000000000000600052602260045260246000fd5b600060028204905060018216806133f657607f821691505b602082108103613409576134086133af565b5b50919050565b7f4552433732313a20617070726f76616c20746f2063757272656e74206f776e6560008201527f7200000000000000000000000000000000000000000000000000000000000000602082015250565b600061346b602183612b0a565b91506134768261340f565b604082019050919050565b6000602082019050818103600083015261349a8161345e565b9050919050565b7f4552433732313a20617070726f76652063616c6c6572206973206e6f7420746f60008201527f6b656e206f776e6572206f7220617070726f76656420666f7220616c6c000000602082015250565b60006134fd603d83612b0a565b9150613508826134a1565b604082019050919050565b6000602082019050818103600083015261352c816134f0565b9050919050565b7f4552433732313a2063616c6c6572206973206e6f7420746f6b656e206f776e6560008201527f72206f7220617070726f76656400000000000000000000000000000000000000602082015250565b600061358f602d83612b0a565b915061359a82613533565b604082019050919050565b600060208201905081810360008301526135be81613582565b9050919050565b7f4e487b7100000000000000000000000000000000000000000000000000000000600052603260045260246000fd5b7f4e4654206973206e6f7420666f722073616c6500000000000000000000000000600082015250565b600061362a601383612b0a565b9150613635826135f4565b602082019050919050565b600060208201905081810360008301526136598161361d565b9050919050565b7f496e636f7272656374207061796d656e7420616d6f756e740000000000000000600082015250565b6000613696601883612b0a565b91506136a182613660565b602082019050919050565b600060208201905081810360008301526136c581613689565b9050919050565b7f4f776e65722063616e27742073656c6c204e465420666f722068696d73656c66600082015250565b6000613702602083612b0a565b915061370d826136cc565b602082019050919050565b60006020820190508181036000830152613731816136f5565b9050919050565b7f4552433732313a20696e76616c696420746f6b656e2049440000000000000000600082015250565b600061376e601883612b0a565b915061377982613738565b602082019050919050565b6000602082019050818103600083015261379d81613761565b9050919050565b7f4552433732313a2061646472657373207a65726f206973206e6f74206120766160008201527f6c6964206f776e65720000000000000000000000000000000000000000000000602082015250565b6000613800602983612b0a565b915061380b826137a4565b604082019050919050565b6000602082019050818103600083015261382f816137f3565b9050919050565b7f496e76616c696420746f6b656e20494400000000000000000000000000000000600082015250565b600061386c601083612b0a565b915061387782613836565b602082019050919050565b6000602082019050818103600083015261389b8161385f565b9050919050565b60008190508160005260206000209050919050565b60006020601f8301049050919050565b600082821b905092915050565b6000600883026139047fffffffffffffffffffffffffffffffffffffffffffffffffffffffffffffffff826138c7565b61390e86836138c7565b95508019841693508086168417925050509392505050565b6000819050919050565b600061394b61394661394184612bb1565b613926565b612bb1565b9050919050565b6000819050919050565b61396583613930565b61397961397182613952565b8484546138d4565b825550505050565b600090565b61398e613981565b61399981848461395c565b505050565b5b818110156139bd576139b2600082613986565b60018101905061399f565b5050565b601f821115613a02576139d3816138a2565b6139dc846138b7565b810160208510156139eb578190505b6139ff6139f7856138b7565b83018261399e565b50505b505050565b600082821c905092915050565b6000613a2560001984600802613a07565b1980831691505092915050565b6000613a3e8383613a14565b9150826002028217905092915050565b613a5782612aff565b67ffffffffffffffff811115613a7057613a6f612dfc565b5b613a7a82546133de565b613a858282856139c1565b600060209050601f831160018114613ab85760008415613aa6578287015190505b613ab08582613a32565b865550613b18565b601f198416613ac6866138a2565b60005b82811015613aee57848901518255600182019150602085019450602081019050613ac9565b86831015613b0b5784890151613b07601f891682613a14565b8355505b6001600288020188555050505b505050505050565b7f4e487b7100000000000000000000000000000000000000000000000000000000600052601160045260246000fd5b6000613b5a82612bb1565b91507fffffffffffffffffffffffffffffffffffffffffffffffffffffffffffffffff8203613b8c57613b8b613b20565b5b600182019050919050565b600081905092915050565b6000613bad82612aff565b613bb78185613b97565b9350613bc7818560208601612b1b565b80840191505092915050565b6000613bdf8285613ba2565b9150613beb8284613ba2565b91508190509392505050565b7f43616c6c6572206973206e6f74206f776e6572206e6f7220617070726f766564600082015250565b6000613c2d602083612b0a565b9150613c3882613bf7565b602082019050919050565b60006020820190508181036000830152613c5c81613c20565b9050919050565b7f4e465420697320616c726561647920666f722073616c65000000000000000000600082015250565b6000613c99601783612b0a565b9150613ca482613c63565b602082019050919050565b60006020820190508181036000830152613cc881613c8c565b9050919050565b7f4f776e61626c653a206e6577206f776e657220697320746865207a65726f206160008201527f6464726573730000000000000000000000000000000000000000000000000000602082015250565b6000613d2b602683612b0a565b9150613d3682613ccf565b604082019050919050565b60006020820190508181036000830152613d5a81613d1e565b9050919050565b7f4552433732313a207472616e736665722066726f6d20696e636f72726563742060008201527f6f776e6572000000000000000000000000000000000000000000000000000000602082015250565b6000613dbd602583612b0a565b9150613dc882613d61565b604082019050919050565b60006020820190508181036000830152613dec81613db0565b9050919050565b7f4552433732313a207472616e7366657220746f20746865207a65726f2061646460008201527f7265737300000000000000000000000000000000000000000000000000000000602082015250565b6000613e4f602483612b0a565b9150613e5a82613df3565b604082019050919050565b60006020820190508181036000830152613e7e81613e42565b9050919050565b7f4f776e61626c653a2063616c6c6572206973206e6f7420746865206f776e6572600082015250565b6000613ebb602083612b0a565b9150613ec682613e85565b602082019050919050565b60006020820190508181036000830152613eea81613eae565b9050919050565b7f4552433732313a20617070726f766520746f2063616c6c657200000000000000600082015250565b6000613f27601983612b0a565b9150613f3282613ef1565b602082019050919050565b60006020820190508181036000830152613f5681613f1a565b9050919050565b7f4552433732313a207472616e7366657220746f206e6f6e20455243373231526560008201527f63656976657220696d706c656d656e7465720000000000000000000000000000602082015250565b6000613fb9603283612b0a565b9150613fc482613f5d565b604082019050919050565b60006020820190508181036000830152613fe881613fac565b9050919050565b7f4e487b7100000000000000000000000000000000000000000000000000000000600052601260045260246000fd5b600081519050919050565b600082825260208201905092915050565b60006140458261401e565b61404f8185614029565b935061405f818560208601612b1b565b61406881612b45565b840191505092915050565b60006080820190506140886000830187612c46565b6140956020830186612c46565b6140a26040830185612d2f565b81810360608301526140b4818461403a565b905095945050505050565b6000815190506140ce81612a70565b92915050565b6000602082840312156140ea576140e9612a3a565b5b60006140f8848285016140bf565b91505092915050565b7f4552433732313a206d696e7420746f20746865207a65726f2061646472657373600082015250565b6000614137602083612b0a565b915061414282614101565b602082019050919050565b600060208201905081810360008301526141668161412a565b9050919050565b7f4552433732313a20746f6b656e20616c7265616479206d696e74656400000000600082015250565b60006141a3601c83612b0a565b91506141ae8261416d565b602082019050919050565b600060208201905081810360008301526141d281614196565b905091905056fea2646970667358221220ec5424dd27ef62da85ce65a5ba75d976c8ce7f3375ee17e210cc2c5da4efbfc664736f6c63430008120033","opcodes":"PUSH1 0x80 PUSH1 0x40 MSTORE PUSH1 0x0 PUSH1 0x7 SSTORE PUSH8 0xDE0B6B3A7640000 PUSH1 0x8 SSTORE CALLVALUE DUP1 ISZERO PUSH3 0x22 JUMPI PUSH1 0x0 DUP1 REVERT JUMPDEST POP PUSH1 0x40 MLOAD PUSH3 0x48CF CODESIZE SUB DUP1 PUSH3 0x48CF DUP4 CODECOPY DUP2 DUP2 ADD PUSH1 0x40 MSTORE DUP2 ADD SWAP1 PUSH3 0x48 SWAP2 SWAP1 PUSH3 0x2F9 JUMP JUMPDEST DUP2 DUP2 DUP2 PUSH1 0x0 SWAP1 DUP2 PUSH3 0x5B SWAP2 SWAP1 PUSH3 0x5C9 JUMP JUMPDEST POP DUP1 PUSH1 0x1 SWAP1 DUP2 PUSH3 0x6D SWAP2 SWAP1 PUSH3 0x5C9 JUMP JUMPDEST POP POP POP PUSH3 0x90 PUSH3 0x84 PUSH3 0x98 PUSH1 0x20 SHL PUSH1 0x20 SHR JUMP JUMPDEST PUSH3 0xA0 PUSH1 0x20 SHL PUSH1 0x20 SHR JUMP JUMPDEST POP POP PUSH3 0x6B0 JUMP JUMPDEST PUSH1 0x0 CALLER SWAP1 POP SWAP1 JUMP JUMPDEST PUSH1 0x0 PUSH1 0x6 PUSH1 0x0 SWAP1 SLOAD SWAP1 PUSH2 0x100 EXP SWAP1 DIV PUSH20 0xFFFFFFFFFFFFFFFFFFFFFFFFFFFFFFFFFFFFFFFF AND SWAP1 POP DUP2 PUSH1 0x6 PUSH1 0x0 PUSH2 0x100 EXP DUP2 SLOAD DUP2 PUSH20 0xFFFFFFFFFFFFFFFFFFFFFFFFFFFFFFFFFFFFFFFF MUL NOT AND SWAP1 DUP4 PUSH20 0xFFFFFFFFFFFFFFFFFFFFFFFFFFFFFFFFFFFFFFFF AND MUL OR SWAP1 SSTORE POP DUP2 PUSH20 0xFFFFFFFFFFFFFFFFFFFFFFFFFFFFFFFFFFFFFFFF AND DUP2 PUSH20 0xFFFFFFFFFFFFFFFFFFFFFFFFFFFFFFFFFFFFFFFF AND PUSH32 0x8BE0079C531659141344CD1FD0A4F28419497F9722A3DAAFE3B4186F6B6457E0 PUSH1 0x40 MLOAD PUSH1 0x40 MLOAD DUP1 SWAP2 SUB SWAP1 LOG3 POP POP JUMP JUMPDEST PUSH1 0x0 PUSH1 0x40 MLOAD SWAP1 POP SWAP1 JUMP JUMPDEST PUSH1 0x0 DUP1 REVERT JUMPDEST PUSH1 0x0 DUP1 REVERT JUMPDEST PUSH1 0x0 DUP1 REVERT JUMPDEST PUSH1 0x0 DUP1 REVERT JUMPDEST PUSH1 0x0 PUSH1 0x1F NOT PUSH1 0x1F DUP4 ADD AND SWAP1 POP SWAP2 SWAP1 POP JUMP JUMPDEST PUSH32 0x4E487B7100000000000000000000000000000000000000000000000000000000 PUSH1 0x0 MSTORE PUSH1 0x41 PUSH1 0x4 MSTORE PUSH1 0x24 PUSH1 0x0 REVERT JUMPDEST PUSH3 0x1CF DUP3 PUSH3 0x184 JUMP JUMPDEST DUP2 ADD DUP2 DUP2 LT PUSH8 0xFFFFFFFFFFFFFFFF DUP3 GT OR ISZERO PUSH3 0x1F1 JUMPI PUSH3 0x1F0 PUSH3 0x195 JUMP JUMPDEST JUMPDEST DUP1 PUSH1 0x40 MSTORE POP POP POP JUMP JUMPDEST PUSH1 0x0 PUSH3 0x206 PUSH3 0x166 JUMP JUMPDEST SWAP1 POP PUSH3 0x214 DUP3 DUP3 PUSH3 0x1C4 JUMP JUMPDEST SWAP2 SWAP1 POP JUMP JUMPDEST PUSH1 0x0 PUSH8 0xFFFFFFFFFFFFFFFF DUP3 GT ISZERO PUSH3 0x237 JUMPI PUSH3 0x236 PUSH3 0x195 JUMP JUMPDEST JUMPDEST PUSH3 0x242 DUP3 PUSH3 0x184 JUMP JUMPDEST SWAP1 POP PUSH1 0x20 DUP2 ADD SWAP1 POP SWAP2 SWAP1 POP JUMP JUMPDEST PUSH1 0x0 JUMPDEST DUP4 DUP2 LT ISZERO PUSH3 0x26F JUMPI DUP1 DUP3 ADD MLOAD DUP2 DUP5 ADD MSTORE PUSH1 0x20 DUP2 ADD SWAP1 POP PUSH3 0x252 JUMP JUMPDEST PUSH1 0x0 DUP5 DUP5 ADD MSTORE POP POP POP POP JUMP JUMPDEST PUSH1 0x0 PUSH3 0x292 PUSH3 0x28C DUP5 PUSH3 0x219 JUMP JUMPDEST PUSH3 0x1FA JUMP JUMPDEST SWAP1 POP DUP3 DUP2 MSTORE PUSH1 0x20 DUP2 ADD DUP5 DUP5 DUP5 ADD GT ISZERO PUSH3 0x2B1 JUMPI PUSH3 0x2B0 PUSH3 0x17F JUMP JUMPDEST JUMPDEST PUSH3 0x2BE DUP5 DUP3 DUP6 PUSH3 0x24F JUMP JUMPDEST POP SWAP4 SWAP3 POP POP POP JUMP JUMPDEST PUSH1 0x0 DUP3 PUSH1 0x1F DUP4 ADD SLT PUSH3 0x2DE JUMPI PUSH3 0x2DD PUSH3 0x17A JUMP JUMPDEST JUMPDEST DUP2 MLOAD PUSH3 0x2F0 DUP5 DUP3 PUSH1 0x20 DUP7 ADD PUSH3 0x27B JUMP JUMPDEST SWAP2 POP POP SWAP3 SWAP2 POP POP JUMP JUMPDEST PUSH1 0x0 DUP1 PUSH1 0x40 DUP4 DUP6 SUB SLT ISZERO PUSH3 0x313 JUMPI PUSH3 0x312 PUSH3 0x170 JUMP JUMPDEST JUMPDEST PUSH1 0x0 DUP4 ADD MLOAD PUSH8 0xFFFFFFFFFFFFFFFF DUP2 GT ISZERO PUSH3 0x334 JUMPI PUSH3 0x333 PUSH3 0x175 JUMP JUMPDEST JUMPDEST PUSH3 0x342 DUP6 DUP3 DUP7 ADD PUSH3 0x2C6 JUMP JUMPDEST SWAP3 POP POP PUSH1 0x20 DUP4 ADD MLOAD PUSH8 0xFFFFFFFFFFFFFFFF DUP2 GT ISZERO PUSH3 0x366 JUMPI PUSH3 0x365 PUSH3 0x175 JUMP JUMPDEST JUMPDEST PUSH3 0x374 DUP6 DUP3 DUP7 ADD PUSH3 0x2C6 JUMP JUMPDEST SWAP2 POP POP SWAP3 POP SWAP3 SWAP1 POP JUMP JUMPDEST PUSH1 0x0 DUP2 MLOAD SWAP1 POP SWAP2 SWAP1 POP JUMP JUMPDEST PUSH32 0x4E487B7100000000000000000000000000000000000000000000000000000000 PUSH1 0x0 MSTORE PUSH1 0x22 PUSH1 0x4 MSTORE PUSH1 0x24 PUSH1 0x0 REVERT JUMPDEST PUSH1 0x0 PUSH1 0x2 DUP3 DIV SWAP1 POP PUSH1 0x1 DUP3 AND DUP1 PUSH3 0x3D1 JUMPI PUSH1 0x7F DUP3 AND SWAP2 POP JUMPDEST PUSH1 0x20 DUP3 LT DUP2 SUB PUSH3 0x3E7 JUMPI PUSH3 0x3E6 PUSH3 0x389 JUMP JUMPDEST JUMPDEST POP SWAP2 SWAP1 POP JUMP JUMPDEST PUSH1 0x0 DUP2 SWAP1 POP DUP2 PUSH1 0x0 MSTORE PUSH1 0x20 PUSH1 0x0 KECCAK256 SWAP1 POP SWAP2 SWAP1 POP JUMP JUMPDEST PUSH1 0x0 PUSH1 0x20 PUSH1 0x1F DUP4 ADD DIV SWAP1 POP SWAP2 SWAP1 POP JUMP JUMPDEST PUSH1 0x0 DUP3 DUP3 SHL SWAP1 POP SWAP3 SWAP2 POP POP JUMP JUMPDEST PUSH1 0x0 PUSH1 0x8 DUP4 MUL PUSH3 0x451 PUSH32 0xFFFFFFFFFFFFFFFFFFFFFFFFFFFFFFFFFFFFFFFFFFFFFFFFFFFFFFFFFFFFFFFF DUP3 PUSH3 0x412 JUMP JUMPDEST PUSH3 0x45D DUP7 DUP4 PUSH3 0x412 JUMP JUMPDEST SWAP6 POP DUP1 NOT DUP5 AND SWAP4 POP DUP1 DUP7 AND DUP5 OR SWAP3 POP POP POP SWAP4 SWAP3 POP POP POP JUMP JUMPDEST PUSH1 0x0 DUP2 SWAP1 POP SWAP2 SWAP1 POP JUMP JUMPDEST PUSH1 0x0 DUP2 SWAP1 POP SWAP2 SWAP1 POP JUMP JUMPDEST PUSH1 0x0 PUSH3 0x4AA PUSH3 0x4A4 PUSH3 0x49E DUP5 PUSH3 0x475 JUMP JUMPDEST PUSH3 0x47F JUMP JUMPDEST PUSH3 0x475 JUMP JUMPDEST SWAP1 POP SWAP2 SWAP1 POP JUMP JUMPDEST PUSH1 0x0 DUP2 SWAP1 POP SWAP2 SWAP1 POP JUMP JUMPDEST PUSH3 0x4C6 DUP4 PUSH3 0x489 JUMP JUMPDEST PUSH3 0x4DE PUSH3 0x4D5 DUP3 PUSH3 0x4B1 JUMP JUMPDEST DUP5 DUP5 SLOAD PUSH3 0x41F JUMP JUMPDEST DUP3 SSTORE POP POP POP POP JUMP JUMPDEST PUSH1 0x0 SWAP1 JUMP JUMPDEST PUSH3 0x4F5 PUSH3 0x4E6 JUMP JUMPDEST PUSH3 0x502 DUP2 DUP5 DUP5 PUSH3 0x4BB JUMP JUMPDEST POP POP POP JUMP JUMPDEST JUMPDEST DUP2 DUP2 LT ISZERO PUSH3 0x52A JUMPI PUSH3 0x51E PUSH1 0x0 DUP3 PUSH3 0x4EB JUMP JUMPDEST PUSH1 0x1 DUP2 ADD SWAP1 POP PUSH3 0x508 JUMP JUMPDEST POP POP JUMP JUMPDEST PUSH1 0x1F DUP3 GT ISZERO PUSH3 0x579 JUMPI PUSH3 0x543 DUP2 PUSH3 0x3ED JUMP JUMPDEST PUSH3 0x54E DUP5 PUSH3 0x402 JUMP JUMPDEST DUP2 ADD PUSH1 0x20 DUP6 LT ISZERO PUSH3 0x55E JUMPI DUP2 SWAP1 POP JUMPDEST PUSH3 0x576 PUSH3 0x56D DUP6 PUSH3 0x402 JUMP JUMPDEST DUP4 ADD DUP3 PUSH3 0x507 JUMP JUMPDEST POP POP JUMPDEST POP POP POP JUMP JUMPDEST PUSH1 0x0 DUP3 DUP3 SHR SWAP1 POP SWAP3 SWAP2 POP POP JUMP JUMPDEST PUSH1 0x0 PUSH3 0x59E PUSH1 0x0 NOT DUP5 PUSH1 0x8 MUL PUSH3 0x57E JUMP JUMPDEST NOT DUP1 DUP4 AND SWAP2 POP POP SWAP3 SWAP2 POP POP JUMP JUMPDEST PUSH1 0x0 PUSH3 0x5B9 DUP4 DUP4 PUSH3 0x58B JUMP JUMPDEST SWAP2 POP DUP3 PUSH1 0x2 MUL DUP3 OR SWAP1 POP SWAP3 SWAP2 POP POP JUMP JUMPDEST PUSH3 0x5D4 DUP3 PUSH3 0x37E JUMP JUMPDEST PUSH8 0xFFFFFFFFFFFFFFFF DUP2 GT ISZERO PUSH3 0x5F0 JUMPI PUSH3 0x5EF PUSH3 0x195 JUMP JUMPDEST JUMPDEST PUSH3 0x5FC DUP3 SLOAD PUSH3 0x3B8 JUMP JUMPDEST PUSH3 0x609 DUP3 DUP3 DUP6 PUSH3 0x52E JUMP JUMPDEST PUSH1 0x0 PUSH1 0x20 SWAP1 POP PUSH1 0x1F DUP4 GT PUSH1 0x1 DUP2 EQ PUSH3 0x641 JUMPI PUSH1 0x0 DUP5 ISZERO PUSH3 0x62C JUMPI DUP3 DUP8 ADD MLOAD SWAP1 POP JUMPDEST PUSH3 0x638 DUP6 DUP3 PUSH3 0x5AB JUMP JUMPDEST DUP7 SSTORE POP PUSH3 0x6A8 JUMP JUMPDEST PUSH1 0x1F NOT DUP5 AND PUSH3 0x651 DUP7 PUSH3 0x3ED JUMP JUMPDEST PUSH1 0x0 JUMPDEST DUP3 DUP2 LT ISZERO PUSH3 0x67B JUMPI DUP5 DUP10 ADD MLOAD DUP3 SSTORE PUSH1 0x1 DUP3 ADD SWAP2 POP PUSH1 0x20 DUP6 ADD SWAP5 POP PUSH1 0x20 DUP2 ADD SWAP1 POP PUSH3 0x654 JUMP JUMPDEST DUP7 DUP4 LT ISZERO PUSH3 0x69B JUMPI DUP5 DUP10 ADD MLOAD PUSH3 0x697 PUSH1 0x1F DUP10 AND DUP3 PUSH3 0x58B JUMP JUMPDEST DUP4 SSTORE POP JUMPDEST PUSH1 0x1 PUSH1 0x2 DUP9 MUL ADD DUP9 SSTORE POP POP POP JUMPDEST POP POP POP POP POP POP JUMP JUMPDEST PUSH2 0x420F DUP1 PUSH3 0x6C0 PUSH1 0x0 CODECOPY PUSH1 0x0 RETURN INVALID PUSH1 0x80 PUSH1 0x40 MSTORE PUSH1 0x4 CALLDATASIZE LT PUSH2 0x166 JUMPI PUSH1 0x0 CALLDATALOAD PUSH1 0xE0 SHR DUP1 PUSH4 0x893D20E8 GT PUSH2 0xD1 JUMPI DUP1 PUSH4 0xBF57FAFE GT PUSH2 0x8A JUMPI DUP1 PUSH4 0xE0391B09 GT PUSH2 0x64 JUMPI DUP1 PUSH4 0xE0391B09 EQ PUSH2 0x551 JUMPI DUP1 PUSH4 0xE5D5876D EQ PUSH2 0x57C JUMPI DUP1 PUSH4 0xE985E9C5 EQ PUSH2 0x5B9 JUMPI DUP1 PUSH4 0xF2FDE38B EQ PUSH2 0x5F6 JUMPI PUSH2 0x166 JUMP JUMPDEST DUP1 PUSH4 0xBF57FAFE EQ PUSH2 0x4C2 JUMPI DUP1 PUSH4 0xC395D9CC EQ PUSH2 0x4EB JUMPI DUP1 PUSH4 0xC87B56DD EQ PUSH2 0x514 JUMPI PUSH2 0x166 JUMP JUMPDEST DUP1 PUSH4 0x893D20E8 EQ PUSH2 0x3B2 JUMPI DUP1 PUSH4 0x8DA5CB5B EQ PUSH2 0x3DD JUMPI DUP1 PUSH4 0x92976179 EQ PUSH2 0x408 JUMPI DUP1 PUSH4 0x95D89B41 EQ PUSH2 0x445 JUMPI DUP1 PUSH4 0xA22CB465 EQ PUSH2 0x470 JUMPI DUP1 PUSH4 0xB88D4FDE EQ PUSH2 0x499 JUMPI PUSH2 0x166 JUMP JUMPDEST DUP1 PUSH4 0x42842E0E GT PUSH2 0x123 JUMPI DUP1 PUSH4 0x42842E0E EQ PUSH2 0x27E JUMPI DUP1 PUSH4 0x6352211E EQ PUSH2 0x2A7 JUMPI DUP1 PUSH4 0x6D3C7EC5 EQ PUSH2 0x2E4 JUMPI DUP1 PUSH4 0x70A08231 EQ PUSH2 0x321 JUMPI DUP1 PUSH4 0x715018A6 EQ PUSH2 0x35E JUMPI DUP1 PUSH4 0x83638710 EQ PUSH2 0x375 JUMPI PUSH2 0x166 JUMP JUMPDEST DUP1 PUSH4 0x1FFC9A7 EQ PUSH2 0x16B JUMPI DUP1 PUSH4 0x6FDDE03 EQ PUSH2 0x1A8 JUMPI DUP1 PUSH4 0x81812FC EQ PUSH2 0x1D3 JUMPI DUP1 PUSH4 0x95EA7B3 EQ PUSH2 0x210 JUMPI DUP1 PUSH4 0x23B872DD EQ PUSH2 0x239 JUMPI DUP1 PUSH4 0x282303B5 EQ PUSH2 0x262 JUMPI JUMPDEST PUSH1 0x0 DUP1 REVERT JUMPDEST CALLVALUE DUP1 ISZERO PUSH2 0x177 JUMPI PUSH1 0x0 DUP1 REVERT JUMPDEST POP PUSH2 0x192 PUSH1 0x4 DUP1 CALLDATASIZE SUB DUP2 ADD SWAP1 PUSH2 0x18D SWAP2 SWAP1 PUSH2 0x2A9C JUMP JUMPDEST PUSH2 0x61F JUMP JUMPDEST PUSH1 0x40 MLOAD PUSH2 0x19F SWAP2 SWAP1 PUSH2 0x2AE4 JUMP JUMPDEST PUSH1 0x40 MLOAD DUP1 SWAP2 SUB SWAP1 RETURN JUMPDEST CALLVALUE DUP1 ISZERO PUSH2 0x1B4 JUMPI PUSH1 0x0 DUP1 REVERT JUMPDEST POP PUSH2 0x1BD PUSH2 0x701 JUMP JUMPDEST PUSH1 0x40 MLOAD PUSH2 0x1CA SWAP2 SWAP1 PUSH2 0x2B8F JUMP JUMPDEST PUSH1 0x40 MLOAD DUP1 SWAP2 SUB SWAP1 RETURN JUMPDEST CALLVALUE DUP1 ISZERO PUSH2 0x1DF JUMPI PUSH1 0x0 DUP1 REVERT JUMPDEST POP PUSH2 0x1FA PUSH1 0x4 DUP1 CALLDATASIZE SUB DUP2 ADD SWAP1 PUSH2 0x1F5 SWAP2 SWAP1 PUSH2 0x2BE7 JUMP JUMPDEST PUSH2 0x793 JUMP JUMPDEST PUSH1 0x40 MLOAD PUSH2 0x207 SWAP2 SWAP1 PUSH2 0x2C55 JUMP JUMPDEST PUSH1 0x40 MLOAD DUP1 SWAP2 SUB SWAP1 RETURN JUMPDEST CALLVALUE DUP1 ISZERO PUSH2 0x21C JUMPI PUSH1 0x0 DUP1 REVERT JUMPDEST POP PUSH2 0x237 PUSH1 0x4 DUP1 CALLDATASIZE SUB DUP2 ADD SWAP1 PUSH2 0x232 SWAP2 SWAP1 PUSH2 0x2C9C JUMP JUMPDEST PUSH2 0x7D9 JUMP JUMPDEST STOP JUMPDEST CALLVALUE DUP1 ISZERO PUSH2 0x245 JUMPI PUSH1 0x0 DUP1 REVERT JUMPDEST POP PUSH2 0x260 PUSH1 0x4 DUP1 CALLDATASIZE SUB DUP2 ADD SWAP1 PUSH2 0x25B SWAP2 SWAP1 PUSH2 0x2CDC JUMP JUMPDEST PUSH2 0x8F0 JUMP JUMPDEST STOP JUMPDEST PUSH2 0x27C PUSH1 0x4 DUP1 CALLDATASIZE SUB DUP2 ADD SWAP1 PUSH2 0x277 SWAP2 SWAP1 PUSH2 0x2BE7 JUMP JUMPDEST PUSH2 0x950 JUMP JUMPDEST STOP JUMPDEST CALLVALUE DUP1 ISZERO PUSH2 0x28A JUMPI PUSH1 0x0 DUP1 REVERT JUMPDEST POP PUSH2 0x2A5 PUSH1 0x4 DUP1 CALLDATASIZE SUB DUP2 ADD SWAP1 PUSH2 0x2A0 SWAP2 SWAP1 PUSH2 0x2CDC JUMP JUMPDEST PUSH2 0xBE7 JUMP JUMPDEST STOP JUMPDEST CALLVALUE DUP1 ISZERO PUSH2 0x2B3 JUMPI PUSH1 0x0 DUP1 REVERT JUMPDEST POP PUSH2 0x2CE PUSH1 0x4 DUP1 CALLDATASIZE SUB DUP2 ADD SWAP1 PUSH2 0x2C9 SWAP2 SWAP1 PUSH2 0x2BE7 JUMP JUMPDEST PUSH2 0xC07 JUMP JUMPDEST PUSH1 0x40 MLOAD PUSH2 0x2DB SWAP2 SWAP1 PUSH2 0x2C55 JUMP JUMPDEST PUSH1 0x40 MLOAD DUP1 SWAP2 SUB SWAP1 RETURN JUMPDEST CALLVALUE DUP1 ISZERO PUSH2 0x2F0 JUMPI PUSH1 0x0 DUP1 REVERT JUMPDEST POP PUSH2 0x30B PUSH1 0x4 DUP1 CALLDATASIZE SUB DUP2 ADD SWAP1 PUSH2 0x306 SWAP2 SWAP1 PUSH2 0x2BE7 JUMP JUMPDEST PUSH2 0xC8D JUMP JUMPDEST PUSH1 0x40 MLOAD PUSH2 0x318 SWAP2 SWAP1 PUSH2 0x2D3E JUMP JUMPDEST PUSH1 0x40 MLOAD DUP1 SWAP2 SUB SWAP1 RETURN JUMPDEST CALLVALUE DUP1 ISZERO PUSH2 0x32D JUMPI PUSH1 0x0 DUP1 REVERT JUMPDEST POP PUSH2 0x348 PUSH1 0x4 DUP1 CALLDATASIZE SUB DUP2 ADD SWAP1 PUSH2 0x343 SWAP2 SWAP1 PUSH2 0x2D59 JUMP JUMPDEST PUSH2 0xCA8 JUMP JUMPDEST PUSH1 0x40 MLOAD PUSH2 0x355 SWAP2 SWAP1 PUSH2 0x2D3E JUMP JUMPDEST PUSH1 0x40 MLOAD DUP1 SWAP2 SUB SWAP1 RETURN JUMPDEST CALLVALUE DUP1 ISZERO PUSH2 0x36A JUMPI PUSH1 0x0 DUP1 REVERT JUMPDEST POP PUSH2 0x373 PUSH2 0xD5F JUMP JUMPDEST STOP JUMPDEST CALLVALUE DUP1 ISZERO PUSH2 0x381 JUMPI PUSH1 0x0 DUP1 REVERT JUMPDEST POP PUSH2 0x39C PUSH1 0x4 DUP1 CALLDATASIZE SUB DUP2 ADD SWAP1 PUSH2 0x397 SWAP2 SWAP1 PUSH2 0x2BE7 JUMP JUMPDEST PUSH2 0xD73 JUMP JUMPDEST PUSH1 0x40 MLOAD PUSH2 0x3A9 SWAP2 SWAP1 PUSH2 0x2C55 JUMP JUMPDEST PUSH1 0x40 MLOAD DUP1 SWAP2 SUB SWAP1 RETURN JUMPDEST CALLVALUE DUP1 ISZERO PUSH2 0x3BE JUMPI PUSH1 0x0 DUP1 REVERT JUMPDEST POP PUSH2 0x3C7 PUSH2 0xD85 JUMP JUMPDEST PUSH1 0x40 MLOAD PUSH2 0x3D4 SWAP2 SWAP1 PUSH2 0x2C55 JUMP JUMPDEST PUSH1 0x40 MLOAD DUP1 SWAP2 SUB SWAP1 RETURN JUMPDEST CALLVALUE DUP1 ISZERO PUSH2 0x3E9 JUMPI PUSH1 0x0 DUP1 REVERT JUMPDEST POP PUSH2 0x3F2 PUSH2 0xD94 JUMP JUMPDEST PUSH1 0x40 MLOAD PUSH2 0x3FF SWAP2 SWAP1 PUSH2 0x2C55 JUMP JUMPDEST PUSH1 0x40 MLOAD DUP1 SWAP2 SUB SWAP1 RETURN JUMPDEST CALLVALUE DUP1 ISZERO PUSH2 0x414 JUMPI PUSH1 0x0 DUP1 REVERT JUMPDEST POP PUSH2 0x42F PUSH1 0x4 DUP1 CALLDATASIZE SUB DUP2 ADD SWAP1 PUSH2 0x42A SWAP2 SWAP1 PUSH2 0x2BE7 JUMP JUMPDEST PUSH2 0xDBE JUMP JUMPDEST PUSH1 0x40 MLOAD PUSH2 0x43C SWAP2 SWAP1 PUSH2 0x2D3E JUMP JUMPDEST PUSH1 0x40 MLOAD DUP1 SWAP2 SUB SWAP1 RETURN JUMPDEST CALLVALUE DUP1 ISZERO PUSH2 0x451 JUMPI PUSH1 0x0 DUP1 REVERT JUMPDEST POP PUSH2 0x45A PUSH2 0x1091 JUMP JUMPDEST PUSH1 0x40 MLOAD PUSH2 0x467 SWAP2 SWAP1 PUSH2 0x2B8F JUMP JUMPDEST PUSH1 0x40 MLOAD DUP1 SWAP2 SUB SWAP1 RETURN JUMPDEST CALLVALUE DUP1 ISZERO PUSH2 0x47C JUMPI PUSH1 0x0 DUP1 REVERT JUMPDEST POP PUSH2 0x497 PUSH1 0x4 DUP1 CALLDATASIZE SUB DUP2 ADD SWAP1 PUSH2 0x492 SWAP2 SWAP1 PUSH2 0x2DB2 JUMP JUMPDEST PUSH2 0x1123 JUMP JUMPDEST STOP JUMPDEST CALLVALUE DUP1 ISZERO PUSH2 0x4A5 JUMPI PUSH1 0x0 DUP1 REVERT JUMPDEST POP PUSH2 0x4C0 PUSH1 0x4 DUP1 CALLDATASIZE SUB DUP2 ADD SWAP1 PUSH2 0x4BB SWAP2 SWAP1 PUSH2 0x2F27 JUMP JUMPDEST PUSH2 0x1139 JUMP JUMPDEST STOP JUMPDEST CALLVALUE DUP1 ISZERO PUSH2 0x4CE JUMPI PUSH1 0x0 DUP1 REVERT JUMPDEST POP PUSH2 0x4E9 PUSH1 0x4 DUP1 CALLDATASIZE SUB DUP2 ADD SWAP1 PUSH2 0x4E4 SWAP2 SWAP1 PUSH2 0x304B JUMP JUMPDEST PUSH2 0x119B JUMP JUMPDEST STOP JUMPDEST CALLVALUE DUP1 ISZERO PUSH2 0x4F7 JUMPI PUSH1 0x0 DUP1 REVERT JUMPDEST POP PUSH2 0x512 PUSH1 0x4 DUP1 CALLDATASIZE SUB DUP2 ADD SWAP1 PUSH2 0x50D SWAP2 SWAP1 PUSH2 0x2BE7 JUMP JUMPDEST PUSH2 0x1438 JUMP JUMPDEST STOP JUMPDEST CALLVALUE DUP1 ISZERO PUSH2 0x520 JUMPI PUSH1 0x0 DUP1 REVERT JUMPDEST POP PUSH2 0x53B PUSH1 0x4 DUP1 CALLDATASIZE SUB DUP2 ADD SWAP1 PUSH2 0x536 SWAP2 SWAP1 PUSH2 0x2BE7 JUMP JUMPDEST PUSH2 0x1587 JUMP JUMPDEST PUSH1 0x40 MLOAD PUSH2 0x548 SWAP2 SWAP1 PUSH2 0x2B8F JUMP JUMPDEST PUSH1 0x40 MLOAD DUP1 SWAP2 SUB SWAP1 RETURN JUMPDEST CALLVALUE DUP1 ISZERO PUSH2 0x55D JUMPI PUSH1 0x0 DUP1 REVERT JUMPDEST POP PUSH2 0x566 PUSH2 0x15EF JUMP JUMPDEST PUSH1 0x40 MLOAD PUSH2 0x573 SWAP2 SWAP1 PUSH2 0x334D JUMP JUMPDEST PUSH1 0x40 MLOAD DUP1 SWAP2 SUB SWAP1 RETURN JUMPDEST CALLVALUE DUP1 ISZERO PUSH2 0x588 JUMPI PUSH1 0x0 DUP1 REVERT JUMPDEST POP PUSH2 0x5A3 PUSH1 0x4 DUP1 CALLDATASIZE SUB DUP2 ADD SWAP1 PUSH2 0x59E SWAP2 SWAP1 PUSH2 0x2BE7 JUMP JUMPDEST PUSH2 0x18A8 JUMP JUMPDEST PUSH1 0x40 MLOAD PUSH2 0x5B0 SWAP2 SWAP1 PUSH2 0x2B8F JUMP JUMPDEST PUSH1 0x40 MLOAD DUP1 SWAP2 SUB SWAP1 RETURN JUMPDEST CALLVALUE DUP1 ISZERO PUSH2 0x5C5 JUMPI PUSH1 0x0 DUP1 REVERT JUMPDEST POP PUSH2 0x5E0 PUSH1 0x4 DUP1 CALLDATASIZE SUB DUP2 ADD SWAP1 PUSH2 0x5DB SWAP2 SWAP1 PUSH2 0x336F JUMP JUMPDEST PUSH2 0x1A07 JUMP JUMPDEST PUSH1 0x40 MLOAD PUSH2 0x5ED SWAP2 SWAP1 PUSH2 0x2AE4 JUMP JUMPDEST PUSH1 0x40 MLOAD DUP1 SWAP2 SUB SWAP1 RETURN JUMPDEST CALLVALUE DUP1 ISZERO PUSH2 0x602 JUMPI PUSH1 0x0 DUP1 REVERT JUMPDEST POP PUSH2 0x61D PUSH1 0x4 DUP1 CALLDATASIZE SUB DUP2 ADD SWAP1 PUSH2 0x618 SWAP2 SWAP1 PUSH2 0x2D59 JUMP JUMPDEST PUSH2 0x1A9B JUMP JUMPDEST STOP JUMPDEST PUSH1 0x0 PUSH32 0x80AC58CD00000000000000000000000000000000000000000000000000000000 PUSH28 0xFFFFFFFFFFFFFFFFFFFFFFFFFFFFFFFFFFFFFFFFFFFFFFFFFFFFFFFF NOT AND DUP3 PUSH28 0xFFFFFFFFFFFFFFFFFFFFFFFFFFFFFFFFFFFFFFFFFFFFFFFFFFFFFFFF NOT AND EQ DUP1 PUSH2 0x6EA JUMPI POP PUSH32 0x5B5E139F00000000000000000000000000000000000000000000000000000000 PUSH28 0xFFFFFFFFFFFFFFFFFFFFFFFFFFFFFFFFFFFFFFFFFFFFFFFFFFFFFFFF NOT AND DUP3 PUSH28 0xFFFFFFFFFFFFFFFFFFFFFFFFFFFFFFFFFFFFFFFFFFFFFFFFFFFFFFFF NOT AND EQ JUMPDEST DUP1 PUSH2 0x6FA JUMPI POP PUSH2 0x6F9 DUP3 PUSH2 0x1B1E JUMP JUMPDEST JUMPDEST SWAP1 POP SWAP2 SWAP1 POP JUMP JUMPDEST PUSH1 0x60 PUSH1 0x0 DUP1 SLOAD PUSH2 0x710 SWAP1 PUSH2 0x33DE JUMP JUMPDEST DUP1 PUSH1 0x1F ADD PUSH1 0x20 DUP1 SWAP2 DIV MUL PUSH1 0x20 ADD PUSH1 0x40 MLOAD SWAP1 DUP2 ADD PUSH1 0x40 MSTORE DUP1 SWAP3 SWAP2 SWAP1 DUP2 DUP2 MSTORE PUSH1 0x20 ADD DUP3 DUP1 SLOAD PUSH2 0x73C SWAP1 PUSH2 0x33DE JUMP JUMPDEST DUP1 ISZERO PUSH2 0x789 JUMPI DUP1 PUSH1 0x1F LT PUSH2 0x75E JUMPI PUSH2 0x100 DUP1 DUP4 SLOAD DIV MUL DUP4 MSTORE SWAP2 PUSH1 0x20 ADD SWAP2 PUSH2 0x789 JUMP JUMPDEST DUP3 ADD SWAP2 SWAP1 PUSH1 0x0 MSTORE PUSH1 0x20 PUSH1 0x0 KECCAK256 SWAP1 JUMPDEST DUP2 SLOAD DUP2 MSTORE SWAP1 PUSH1 0x1 ADD SWAP1 PUSH1 0x20 ADD DUP1 DUP4 GT PUSH2 0x76C JUMPI DUP3 SWAP1 SUB PUSH1 0x1F AND DUP3 ADD SWAP2 JUMPDEST POP POP POP POP POP SWAP1 POP SWAP1 JUMP JUMPDEST PUSH1 0x0 PUSH2 0x79E DUP3 PUSH2 0x1B88 JUMP JUMPDEST PUSH1 0x4 PUSH1 0x0 DUP4 DUP2 MSTORE PUSH1 0x20 ADD SWAP1 DUP2 MSTORE PUSH1 0x20 ADD PUSH1 0x0 KECCAK256 PUSH1 0x0 SWAP1 SLOAD SWAP1 PUSH2 0x100 EXP SWAP1 DIV PUSH20 0xFFFFFFFFFFFFFFFFFFFFFFFFFFFFFFFFFFFFFFFF AND SWAP1 POP SWAP2 SWAP1 POP JUMP JUMPDEST PUSH1 0x0 PUSH2 0x7E4 DUP3 PUSH2 0xC07 JUMP JUMPDEST SWAP1 POP DUP1 PUSH20 0xFFFFFFFFFFFFFFFFFFFFFFFFFFFFFFFFFFFFFFFF AND DUP4 PUSH20 0xFFFFFFFFFFFFFFFFFFFFFFFFFFFFFFFFFFFFFFFF AND SUB PUSH2 0x854 JUMPI PUSH1 0x40 MLOAD PUSH32 0x8C379A000000000000000000000000000000000000000000000000000000000 DUP2 MSTORE PUSH1 0x4 ADD PUSH2 0x84B SWAP1 PUSH2 0x3481 JUMP JUMPDEST PUSH1 0x40 MLOAD DUP1 SWAP2 SUB SWAP1 REVERT JUMPDEST DUP1 PUSH20 0xFFFFFFFFFFFFFFFFFFFFFFFFFFFFFFFFFFFFFFFF AND PUSH2 0x873 PUSH2 0x1BD3 JUMP JUMPDEST PUSH20 0xFFFFFFFFFFFFFFFFFFFFFFFFFFFFFFFFFFFFFFFF AND EQ DUP1 PUSH2 0x8A2 JUMPI POP PUSH2 0x8A1 DUP2 PUSH2 0x89C PUSH2 0x1BD3 JUMP JUMPDEST PUSH2 0x1A07 JUMP JUMPDEST JUMPDEST PUSH2 0x8E1 JUMPI PUSH1 0x40 MLOAD PUSH32 0x8C379A000000000000000000000000000000000000000000000000000000000 DUP2 MSTORE PUSH1 0x4 ADD PUSH2 0x8D8 SWAP1 PUSH2 0x3513 JUMP JUMPDEST PUSH1 0x40 MLOAD DUP1 SWAP2 SUB SWAP1 REVERT JUMPDEST PUSH2 0x8EB DUP4 DUP4 PUSH2 0x1BDB JUMP JUMPDEST POP POP POP JUMP JUMPDEST PUSH2 0x901 PUSH2 0x8FB PUSH2 0x1BD3 JUMP JUMPDEST DUP3 PUSH2 0x1C94 JUMP JUMPDEST PUSH2 0x940 JUMPI PUSH1 0x40 MLOAD PUSH32 0x8C379A000000000000000000000000000000000000000000000000000000000 DUP2 MSTORE PUSH1 0x4 ADD PUSH2 0x937 SWAP1 PUSH2 0x35A5 JUMP JUMPDEST PUSH1 0x40 MLOAD DUP1 SWAP2 SUB SWAP1 REVERT JUMPDEST PUSH2 0x94B DUP4 DUP4 DUP4 PUSH2 0x1D29 JUMP JUMPDEST POP POP POP JUMP JUMPDEST PUSH1 0x0 PUSH1 0x9 DUP3 DUP2 SLOAD DUP2 LT PUSH2 0x966 JUMPI PUSH2 0x965 PUSH2 0x35C5 JUMP JUMPDEST JUMPDEST SWAP1 PUSH1 0x0 MSTORE PUSH1 0x20 PUSH1 0x0 KECCAK256 SWAP1 PUSH1 0xA MUL ADD SWAP1 POP PUSH1 0xA PUSH1 0x0 DUP4 DUP2 MSTORE PUSH1 0x20 ADD SWAP1 DUP2 MSTORE PUSH1 0x20 ADD PUSH1 0x0 KECCAK256 PUSH1 0x9 ADD PUSH1 0x0 SWAP1 SLOAD SWAP1 PUSH2 0x100 EXP SWAP1 DIV PUSH1 0xFF AND PUSH2 0x9D9 JUMPI PUSH1 0x40 MLOAD PUSH32 0x8C379A000000000000000000000000000000000000000000000000000000000 DUP2 MSTORE PUSH1 0x4 ADD PUSH2 0x9D0 SWAP1 PUSH2 0x3640 JUMP JUMPDEST PUSH1 0x40 MLOAD DUP1 SWAP2 SUB SWAP1 REVERT JUMPDEST PUSH1 0xA PUSH1 0x0 DUP4 DUP2 MSTORE PUSH1 0x20 ADD SWAP1 DUP2 MSTORE PUSH1 0x20 ADD PUSH1 0x0 KECCAK256 PUSH1 0x7 ADD SLOAD CALLVALUE EQ PUSH2 0xA31 JUMPI PUSH1 0x40 MLOAD PUSH32 0x8C379A000000000000000000000000000000000000000000000000000000000 DUP2 MSTORE PUSH1 0x4 ADD PUSH2 0xA28 SWAP1 PUSH2 0x36AC JUMP JUMPDEST PUSH1 0x40 MLOAD DUP1 SWAP2 SUB SWAP1 REVERT JUMPDEST PUSH1 0x0 PUSH2 0xA3C DUP4 PUSH2 0xC07 JUMP JUMPDEST SWAP1 POP DUP1 PUSH20 0xFFFFFFFFFFFFFFFFFFFFFFFFFFFFFFFFFFFFFFFF AND CALLER PUSH20 0xFFFFFFFFFFFFFFFFFFFFFFFFFFFFFFFFFFFFFFFF AND SUB PUSH2 0xAAC JUMPI PUSH1 0x40 MLOAD PUSH32 0x8C379A000000000000000000000000000000000000000000000000000000000 DUP2 MSTORE PUSH1 0x4 ADD PUSH2 0xAA3 SWAP1 PUSH2 0x3718 JUMP JUMPDEST PUSH1 0x40 MLOAD DUP1 SWAP2 SUB SWAP1 REVERT JUMPDEST PUSH2 0xAB7 DUP2 CALLER DUP6 PUSH2 0x1D29 JUMP JUMPDEST PUSH1 0x0 PUSH1 0xA PUSH1 0x0 DUP6 DUP2 MSTORE PUSH1 0x20 ADD SWAP1 DUP2 MSTORE PUSH1 0x20 ADD PUSH1 0x0 KECCAK256 PUSH1 0x9 ADD PUSH1 0x0 PUSH2 0x100 EXP DUP2 SLOAD DUP2 PUSH1 0xFF MUL NOT AND SWAP1 DUP4 ISZERO ISZERO MUL OR SWAP1 SSTORE POP CALLER PUSH1 0xA PUSH1 0x0 DUP6 DUP2 MSTORE PUSH1 0x20 ADD SWAP1 DUP2 MSTORE PUSH1 0x20 ADD PUSH1 0x0 KECCAK256 PUSH1 0x3 ADD PUSH1 0x0 PUSH2 0x100 EXP DUP2 SLOAD DUP2 PUSH20 0xFFFFFFFFFFFFFFFFFFFFFFFFFFFFFFFFFFFFFFFF MUL NOT AND SWAP1 DUP4 PUSH20 0xFFFFFFFFFFFFFFFFFFFFFFFFFFFFFFFFFFFFFFFF AND MUL OR SWAP1 SSTORE POP PUSH1 0x0 DUP3 PUSH1 0x9 ADD PUSH1 0x0 PUSH2 0x100 EXP DUP2 SLOAD DUP2 PUSH1 0xFF MUL NOT AND SWAP1 DUP4 ISZERO ISZERO MUL OR SWAP1 SSTORE POP CALLER DUP3 PUSH1 0x3 ADD PUSH1 0x0 PUSH2 0x100 EXP DUP2 SLOAD DUP2 PUSH20 0xFFFFFFFFFFFFFFFFFFFFFFFFFFFFFFFFFFFFFFFF MUL NOT AND SWAP1 DUP4 PUSH20 0xFFFFFFFFFFFFFFFFFFFFFFFFFFFFFFFFFFFFFFFF AND MUL OR SWAP1 SSTORE POP DUP1 PUSH20 0xFFFFFFFFFFFFFFFFFFFFFFFFFFFFFFFFFFFFFFFF AND PUSH2 0x8FC CALLVALUE SWAP1 DUP2 ISZERO MUL SWAP1 PUSH1 0x40 MLOAD PUSH1 0x0 PUSH1 0x40 MLOAD DUP1 DUP4 SUB DUP2 DUP6 DUP9 DUP9 CALL SWAP4 POP POP POP POP ISZERO DUP1 ISZERO PUSH2 0xBE1 JUMPI RETURNDATASIZE PUSH1 0x0 DUP1 RETURNDATACOPY RETURNDATASIZE PUSH1 0x0 REVERT JUMPDEST POP POP POP POP JUMP JUMPDEST PUSH2 0xC02 DUP4 DUP4 DUP4 PUSH1 0x40 MLOAD DUP1 PUSH1 0x20 ADD PUSH1 0x40 MSTORE DUP1 PUSH1 0x0 DUP2 MSTORE POP PUSH2 0x1139 JUMP JUMPDEST POP POP POP JUMP JUMPDEST PUSH1 0x0 DUP1 PUSH2 0xC13 DUP4 PUSH2 0x2022 JUMP JUMPDEST SWAP1 POP PUSH1 0x0 PUSH20 0xFFFFFFFFFFFFFFFFFFFFFFFFFFFFFFFFFFFFFFFF AND DUP2 PUSH20 0xFFFFFFFFFFFFFFFFFFFFFFFFFFFFFFFFFFFFFFFF AND SUB PUSH2 0xC84 JUMPI PUSH1 0x40 MLOAD PUSH32 0x8C379A000000000000000000000000000000000000000000000000000000000 DUP2 MSTORE PUSH1 0x4 ADD PUSH2 0xC7B SWAP1 PUSH2 0x3784 JUMP JUMPDEST PUSH1 0x40 MLOAD DUP1 SWAP2 SUB SWAP1 REVERT JUMPDEST DUP1 SWAP2 POP POP SWAP2 SWAP1 POP JUMP JUMPDEST PUSH1 0x0 PUSH2 0xC97 PUSH2 0x205F JUMP JUMPDEST DUP2 PUSH1 0x8 DUP2 SWAP1 SSTORE POP PUSH1 0x8 SLOAD SWAP1 POP SWAP2 SWAP1 POP JUMP JUMPDEST PUSH1 0x0 DUP1 PUSH20 0xFFFFFFFFFFFFFFFFFFFFFFFFFFFFFFFFFFFFFFFF AND DUP3 PUSH20 0xFFFFFFFFFFFFFFFFFFFFFFFFFFFFFFFFFFFFFFFF AND SUB PUSH2 0xD18 JUMPI PUSH1 0x40 MLOAD PUSH32 0x8C379A000000000000000000000000000000000000000000000000000000000 DUP2 MSTORE PUSH1 0x4 ADD PUSH2 0xD0F SWAP1 PUSH2 0x3816 JUMP JUMPDEST PUSH1 0x40 MLOAD DUP1 SWAP2 SUB SWAP1 REVERT JUMPDEST PUSH1 0x3 PUSH1 0x0 DUP4 PUSH20 0xFFFFFFFFFFFFFFFFFFFFFFFFFFFFFFFFFFFFFFFF AND PUSH20 0xFFFFFFFFFFFFFFFFFFFFFFFFFFFFFFFFFFFFFFFF AND DUP2 MSTORE PUSH1 0x20 ADD SWAP1 DUP2 MSTORE PUSH1 0x20 ADD PUSH1 0x0 KECCAK256 SLOAD SWAP1 POP SWAP2 SWAP1 POP JUMP JUMPDEST PUSH2 0xD67 PUSH2 0x205F JUMP JUMPDEST PUSH2 0xD71 PUSH1 0x0 PUSH2 0x20DD JUMP JUMPDEST JUMP JUMPDEST PUSH1 0x0 PUSH2 0xD7E DUP3 PUSH2 0xC07 JUMP JUMPDEST SWAP1 POP SWAP2 SWAP1 POP JUMP JUMPDEST PUSH1 0x0 PUSH2 0xD8F PUSH2 0xD94 JUMP JUMPDEST SWAP1 POP SWAP1 JUMP JUMPDEST PUSH1 0x0 PUSH1 0x6 PUSH1 0x0 SWAP1 SLOAD SWAP1 PUSH2 0x100 EXP SWAP1 DIV PUSH20 0xFFFFFFFFFFFFFFFFFFFFFFFFFFFFFFFFFFFFFFFF AND SWAP1 POP SWAP1 JUMP JUMPDEST PUSH1 0x0 PUSH2 0xDC9 DUP3 PUSH2 0x21A3 JUMP JUMPDEST PUSH2 0xE08 JUMPI PUSH1 0x40 MLOAD PUSH32 0x8C379A000000000000000000000000000000000000000000000000000000000 DUP2 MSTORE PUSH1 0x4 ADD PUSH2 0xDFF SWAP1 PUSH2 0x3882 JUMP JUMPDEST PUSH1 0x40 MLOAD DUP1 SWAP2 SUB SWAP1 REVERT JUMPDEST PUSH1 0x0 PUSH1 0xA PUSH1 0x0 DUP5 DUP2 MSTORE PUSH1 0x20 ADD SWAP1 DUP2 MSTORE PUSH1 0x20 ADD PUSH1 0x0 KECCAK256 PUSH1 0x40 MLOAD DUP1 PUSH2 0x140 ADD PUSH1 0x40 MSTORE SWAP1 DUP2 PUSH1 0x0 DUP3 ADD SLOAD DUP2 MSTORE PUSH1 0x20 ADD PUSH1 0x1 DUP3 ADD DUP1 SLOAD PUSH2 0xE43 SWAP1 PUSH2 0x33DE JUMP JUMPDEST DUP1 PUSH1 0x1F ADD PUSH1 0x20 DUP1 SWAP2 DIV MUL PUSH1 0x20 ADD PUSH1 0x40 MLOAD SWAP1 DUP2 ADD PUSH1 0x40 MSTORE DUP1 SWAP3 SWAP2 SWAP1 DUP2 DUP2 MSTORE PUSH1 0x20 ADD DUP3 DUP1 SLOAD PUSH2 0xE6F SWAP1 PUSH2 0x33DE JUMP JUMPDEST DUP1 ISZERO PUSH2 0xEBC JUMPI DUP1 PUSH1 0x1F LT PUSH2 0xE91 JUMPI PUSH2 0x100 DUP1 DUP4 SLOAD DIV MUL DUP4 MSTORE SWAP2 PUSH1 0x20 ADD SWAP2 PUSH2 0xEBC JUMP JUMPDEST DUP3 ADD SWAP2 SWAP1 PUSH1 0x0 MSTORE PUSH1 0x20 PUSH1 0x0 KECCAK256 SWAP1 JUMPDEST DUP2 SLOAD DUP2 MSTORE SWAP1 PUSH1 0x1 ADD SWAP1 PUSH1 0x20 ADD DUP1 DUP4 GT PUSH2 0xE9F JUMPI DUP3 SWAP1 SUB PUSH1 0x1F AND DUP3 ADD SWAP2 JUMPDEST POP POP POP POP POP DUP2 MSTORE PUSH1 0x20 ADD PUSH1 0x2 DUP3 ADD DUP1 SLOAD PUSH2 0xED5 SWAP1 PUSH2 0x33DE JUMP JUMPDEST DUP1 PUSH1 0x1F ADD PUSH1 0x20 DUP1 SWAP2 DIV MUL PUSH1 0x20 ADD PUSH1 0x40 MLOAD SWAP1 DUP2 ADD PUSH1 0x40 MSTORE DUP1 SWAP3 SWAP2 SWAP1 DUP2 DUP2 MSTORE PUSH1 0x20 ADD DUP3 DUP1 SLOAD PUSH2 0xF01 SWAP1 PUSH2 0x33DE JUMP JUMPDEST DUP1 ISZERO PUSH2 0xF4E JUMPI DUP1 PUSH1 0x1F LT PUSH2 0xF23 JUMPI PUSH2 0x100 DUP1 DUP4 SLOAD DIV MUL DUP4 MSTORE SWAP2 PUSH1 0x20 ADD SWAP2 PUSH2 0xF4E JUMP JUMPDEST DUP3 ADD SWAP2 SWAP1 PUSH1 0x0 MSTORE PUSH1 0x20 PUSH1 0x0 KECCAK256 SWAP1 JUMPDEST DUP2 SLOAD DUP2 MSTORE SWAP1 PUSH1 0x1 ADD SWAP1 PUSH1 0x20 ADD DUP1 DUP4 GT PUSH2 0xF31 JUMPI DUP3 SWAP1 SUB PUSH1 0x1F AND DUP3 ADD SWAP2 JUMPDEST POP POP POP POP POP DUP2 MSTORE PUSH1 0x20 ADD PUSH1 0x3 DUP3 ADD PUSH1 0x0 SWAP1 SLOAD SWAP1 PUSH2 0x100 EXP SWAP1 DIV PUSH20 0xFFFFFFFFFFFFFFFFFFFFFFFFFFFFFFFFFFFFFFFF AND PUSH20 0xFFFFFFFFFFFFFFFFFFFFFFFFFFFFFFFFFFFFFFFF AND PUSH20 0xFFFFFFFFFFFFFFFFFFFFFFFFFFFFFFFFFFFFFFFF AND DUP2 MSTORE PUSH1 0x20 ADD PUSH1 0x4 DUP3 ADD SLOAD DUP2 MSTORE PUSH1 0x20 ADD PUSH1 0x5 DUP3 ADD SLOAD DUP2 MSTORE PUSH1 0x20 ADD PUSH1 0x6 DUP3 ADD SLOAD DUP2 MSTORE PUSH1 0x20 ADD PUSH1 0x7 DUP3 ADD SLOAD DUP2 MSTORE PUSH1 0x20 ADD PUSH1 0x8 DUP3 ADD DUP1 SLOAD PUSH2 0xFE5 SWAP1 PUSH2 0x33DE JUMP JUMPDEST DUP1 PUSH1 0x1F ADD PUSH1 0x20 DUP1 SWAP2 DIV MUL PUSH1 0x20 ADD PUSH1 0x40 MLOAD SWAP1 DUP2 ADD PUSH1 0x40 MSTORE DUP1 SWAP3 SWAP2 SWAP1 DUP2 DUP2 MSTORE PUSH1 0x20 ADD DUP3 DUP1 SLOAD PUSH2 0x1011 SWAP1 PUSH2 0x33DE JUMP JUMPDEST DUP1 ISZERO PUSH2 0x105E JUMPI DUP1 PUSH1 0x1F LT PUSH2 0x1033 JUMPI PUSH2 0x100 DUP1 DUP4 SLOAD DIV MUL DUP4 MSTORE SWAP2 PUSH1 0x20 ADD SWAP2 PUSH2 0x105E JUMP JUMPDEST DUP3 ADD SWAP2 SWAP1 PUSH1 0x0 MSTORE PUSH1 0x20 PUSH1 0x0 KECCAK256 SWAP1 JUMPDEST DUP2 SLOAD DUP2 MSTORE SWAP1 PUSH1 0x1 ADD SWAP1 PUSH1 0x20 ADD DUP1 DUP4 GT PUSH2 0x1041 JUMPI DUP3 SWAP1 SUB PUSH1 0x1F AND DUP3 ADD SWAP2 JUMPDEST POP POP POP POP POP DUP2 MSTORE PUSH1 0x20 ADD PUSH1 0x9 DUP3 ADD PUSH1 0x0 SWAP1 SLOAD SWAP1 PUSH2 0x100 EXP SWAP1 DIV PUSH1 0xFF AND ISZERO ISZERO ISZERO ISZERO DUP2 MSTORE POP POP SWAP1 POP DUP1 PUSH1 0xE0 ADD MLOAD SWAP2 POP POP SWAP2 SWAP1 POP JUMP JUMPDEST PUSH1 0x60 PUSH1 0x1 DUP1 SLOAD PUSH2 0x10A0 SWAP1 PUSH2 0x33DE JUMP JUMPDEST DUP1 PUSH1 0x1F ADD PUSH1 0x20 DUP1 SWAP2 DIV MUL PUSH1 0x20 ADD PUSH1 0x40 MLOAD SWAP1 DUP2 ADD PUSH1 0x40 MSTORE DUP1 SWAP3 SWAP2 SWAP1 DUP2 DUP2 MSTORE PUSH1 0x20 ADD DUP3 DUP1 SLOAD PUSH2 0x10CC SWAP1 PUSH2 0x33DE JUMP JUMPDEST DUP1 ISZERO PUSH2 0x1119 JUMPI DUP1 PUSH1 0x1F LT PUSH2 0x10EE JUMPI PUSH2 0x100 DUP1 DUP4 SLOAD DIV MUL DUP4 MSTORE SWAP2 PUSH1 0x20 ADD SWAP2 PUSH2 0x1119 JUMP JUMPDEST DUP3 ADD SWAP2 SWAP1 PUSH1 0x0 MSTORE PUSH1 0x20 PUSH1 0x0 KECCAK256 SWAP1 JUMPDEST DUP2 SLOAD DUP2 MSTORE SWAP1 PUSH1 0x1 ADD SWAP1 PUSH1 0x20 ADD DUP1 DUP4 GT PUSH2 0x10FC JUMPI DUP3 SWAP1 SUB PUSH1 0x1F AND DUP3 ADD SWAP2 JUMPDEST POP POP POP POP POP SWAP1 POP SWAP1 JUMP JUMPDEST PUSH2 0x1135 PUSH2 0x112E PUSH2 0x1BD3 JUMP JUMPDEST DUP4 DUP4 PUSH2 0x21E4 JUMP JUMPDEST POP POP JUMP JUMPDEST PUSH2 0x114A PUSH2 0x1144 PUSH2 0x1BD3 JUMP JUMPDEST DUP4 PUSH2 0x1C94 JUMP JUMPDEST PUSH2 0x1189 JUMPI PUSH1 0x40 MLOAD PUSH32 0x8C379A000000000000000000000000000000000000000000000000000000000 DUP2 MSTORE PUSH1 0x4 ADD PUSH2 0x1180 SWAP1 PUSH2 0x35A5 JUMP JUMPDEST PUSH1 0x40 MLOAD DUP1 SWAP2 SUB SWAP1 REVERT JUMPDEST PUSH2 0x1195 DUP5 DUP5 DUP5 DUP5 PUSH2 0x2350 JUMP JUMPDEST POP POP POP POP JUMP JUMPDEST PUSH2 0x11A3 PUSH2 0x205F JUMP JUMPDEST PUSH1 0x0 PUSH1 0x40 MLOAD DUP1 PUSH2 0x140 ADD PUSH1 0x40 MSTORE DUP1 PUSH1 0x7 SLOAD DUP2 MSTORE PUSH1 0x20 ADD DUP9 DUP2 MSTORE PUSH1 0x20 ADD DUP8 DUP2 MSTORE PUSH1 0x20 ADD CALLER PUSH20 0xFFFFFFFFFFFFFFFFFFFFFFFFFFFFFFFFFFFFFFFF AND DUP2 MSTORE PUSH1 0x20 ADD DUP7 DUP2 MSTORE PUSH1 0x20 ADD DUP6 DUP2 MSTORE PUSH1 0x20 ADD DUP5 DUP2 MSTORE PUSH1 0x20 ADD PUSH1 0x8 SLOAD DUP2 MSTORE PUSH1 0x20 ADD DUP4 DUP2 MSTORE PUSH1 0x20 ADD PUSH1 0x0 ISZERO ISZERO DUP2 MSTORE POP SWAP1 POP DUP1 PUSH1 0xA PUSH1 0x0 PUSH1 0x7 SLOAD DUP2 MSTORE PUSH1 0x20 ADD SWAP1 DUP2 MSTORE PUSH1 0x20 ADD PUSH1 0x0 KECCAK256 PUSH1 0x0 DUP3 ADD MLOAD DUP2 PUSH1 0x0 ADD SSTORE PUSH1 0x20 DUP3 ADD MLOAD DUP2 PUSH1 0x1 ADD SWAP1 DUP2 PUSH2 0x123F SWAP2 SWAP1 PUSH2 0x3A4E JUMP JUMPDEST POP PUSH1 0x40 DUP3 ADD MLOAD DUP2 PUSH1 0x2 ADD SWAP1 DUP2 PUSH2 0x1255 SWAP2 SWAP1 PUSH2 0x3A4E JUMP JUMPDEST POP PUSH1 0x60 DUP3 ADD MLOAD DUP2 PUSH1 0x3 ADD PUSH1 0x0 PUSH2 0x100 EXP DUP2 SLOAD DUP2 PUSH20 0xFFFFFFFFFFFFFFFFFFFFFFFFFFFFFFFFFFFFFFFF MUL NOT AND SWAP1 DUP4 PUSH20 0xFFFFFFFFFFFFFFFFFFFFFFFFFFFFFFFFFFFFFFFF AND MUL OR SWAP1 SSTORE POP PUSH1 0x80 DUP3 ADD MLOAD DUP2 PUSH1 0x4 ADD SSTORE PUSH1 0xA0 DUP3 ADD MLOAD DUP2 PUSH1 0x5 ADD SSTORE PUSH1 0xC0 DUP3 ADD MLOAD DUP2 PUSH1 0x6 ADD SSTORE PUSH1 0xE0 DUP3 ADD MLOAD DUP2 PUSH1 0x7 ADD SSTORE PUSH2 0x100 DUP3 ADD MLOAD DUP2 PUSH1 0x8 ADD SWAP1 DUP2 PUSH2 0x12DB SWAP2 SWAP1 PUSH2 0x3A4E JUMP JUMPDEST POP PUSH2 0x120 DUP3 ADD MLOAD DUP2 PUSH1 0x9 ADD PUSH1 0x0 PUSH2 0x100 EXP DUP2 SLOAD DUP2 PUSH1 0xFF MUL NOT AND SWAP1 DUP4 ISZERO ISZERO MUL OR SWAP1 SSTORE POP SWAP1 POP POP PUSH2 0x130C CALLER PUSH1 0x7 SLOAD PUSH2 0x23AC JUMP JUMPDEST PUSH1 0x9 DUP2 SWAP1 DUP1 PUSH1 0x1 DUP2 SLOAD ADD DUP1 DUP3 SSTORE DUP1 SWAP2 POP POP PUSH1 0x1 SWAP1 SUB SWAP1 PUSH1 0x0 MSTORE PUSH1 0x20 PUSH1 0x0 KECCAK256 SWAP1 PUSH1 0xA MUL ADD PUSH1 0x0 SWAP1 SWAP2 SWAP1 SWAP2 SWAP1 SWAP2 POP PUSH1 0x0 DUP3 ADD MLOAD DUP2 PUSH1 0x0 ADD SSTORE PUSH1 0x20 DUP3 ADD MLOAD DUP2 PUSH1 0x1 ADD SWAP1 DUP2 PUSH2 0x1357 SWAP2 SWAP1 PUSH2 0x3A4E JUMP JUMPDEST POP PUSH1 0x40 DUP3 ADD MLOAD DUP2 PUSH1 0x2 ADD SWAP1 DUP2 PUSH2 0x136D SWAP2 SWAP1 PUSH2 0x3A4E JUMP JUMPDEST POP PUSH1 0x60 DUP3 ADD MLOAD DUP2 PUSH1 0x3 ADD PUSH1 0x0 PUSH2 0x100 EXP DUP2 SLOAD DUP2 PUSH20 0xFFFFFFFFFFFFFFFFFFFFFFFFFFFFFFFFFFFFFFFF MUL NOT AND SWAP1 DUP4 PUSH20 0xFFFFFFFFFFFFFFFFFFFFFFFFFFFFFFFFFFFFFFFF AND MUL OR SWAP1 SSTORE POP PUSH1 0x80 DUP3 ADD MLOAD DUP2 PUSH1 0x4 ADD SSTORE PUSH1 0xA0 DUP3 ADD MLOAD DUP2 PUSH1 0x5 ADD SSTORE PUSH1 0xC0 DUP3 ADD MLOAD DUP2 PUSH1 0x6 ADD SSTORE PUSH1 0xE0 DUP3 ADD MLOAD DUP2 PUSH1 0x7 ADD SSTORE PUSH2 0x100 DUP3 ADD MLOAD DUP2 PUSH1 0x8 ADD SWAP1 DUP2 PUSH2 0x13F3 SWAP2 SWAP1 PUSH2 0x3A4E JUMP JUMPDEST POP PUSH2 0x120 DUP3 ADD MLOAD DUP2 PUSH1 0x9 ADD PUSH1 0x0 PUSH2 0x100 EXP DUP2 SLOAD DUP2 PUSH1 0xFF MUL NOT AND SWAP1 DUP4 ISZERO ISZERO MUL OR SWAP1 SSTORE POP POP POP PUSH1 0x7 PUSH1 0x0 DUP2 SLOAD DUP1 SWAP3 SWAP2 SWAP1 PUSH2 0x142A SWAP1 PUSH2 0x3B4F JUMP JUMPDEST SWAP2 SWAP1 POP SSTORE POP POP POP POP POP POP POP POP JUMP JUMPDEST PUSH2 0x1441 DUP2 PUSH2 0xC07 JUMP JUMPDEST PUSH20 0xFFFFFFFFFFFFFFFFFFFFFFFFFFFFFFFFFFFFFFFF AND PUSH1 0xA PUSH1 0x0 DUP4 DUP2 MSTORE PUSH1 0x20 ADD SWAP1 DUP2 MSTORE PUSH1 0x20 ADD PUSH1 0x0 KECCAK256 PUSH1 0x3 ADD PUSH1 0x0 SWAP1 SLOAD SWAP1 PUSH2 0x100 EXP SWAP1 DIV PUSH20 0xFFFFFFFFFFFFFFFFFFFFFFFFFFFFFFFFFFFFFFFF AND PUSH20 0xFFFFFFFFFFFFFFFFFFFFFFFFFFFFFFFFFFFFFFFF AND EQ PUSH2 0x14AE JUMPI PUSH1 0x0 DUP1 REVERT JUMPDEST PUSH1 0xA PUSH1 0x0 DUP3 DUP2 MSTORE PUSH1 0x20 ADD SWAP1 DUP2 MSTORE PUSH1 0x20 ADD PUSH1 0x0 KECCAK256 PUSH1 0x9 ADD PUSH1 0x0 SWAP1 SLOAD SWAP1 PUSH2 0x100 EXP SWAP1 DIV PUSH1 0xFF AND PUSH2 0x1511 JUMPI PUSH1 0x40 MLOAD PUSH32 0x8C379A000000000000000000000000000000000000000000000000000000000 DUP2 MSTORE PUSH1 0x4 ADD PUSH2 0x1508 SWAP1 PUSH2 0x3640 JUMP JUMPDEST PUSH1 0x40 MLOAD DUP1 SWAP2 SUB SWAP1 REVERT JUMPDEST PUSH1 0x0 PUSH1 0xA PUSH1 0x0 DUP4 DUP2 MSTORE PUSH1 0x20 ADD SWAP1 DUP2 MSTORE PUSH1 0x20 ADD PUSH1 0x0 KECCAK256 PUSH1 0x9 ADD PUSH1 0x0 PUSH2 0x100 EXP DUP2 SLOAD DUP2 PUSH1 0xFF MUL NOT AND SWAP1 DUP4 ISZERO ISZERO MUL OR SWAP1 SSTORE POP PUSH1 0x0 PUSH1 0x9 DUP3 DUP2 SLOAD DUP2 LT PUSH2 0x1556 JUMPI PUSH2 0x1555 PUSH2 0x35C5 JUMP JUMPDEST JUMPDEST SWAP1 PUSH1 0x0 MSTORE PUSH1 0x20 PUSH1 0x0 KECCAK256 SWAP1 PUSH1 0xA MUL ADD SWAP1 POP PUSH1 0x0 DUP2 PUSH1 0x9 ADD PUSH1 0x0 PUSH2 0x100 EXP DUP2 SLOAD DUP2 PUSH1 0xFF MUL NOT AND SWAP1 DUP4 ISZERO ISZERO MUL OR SWAP1 SSTORE POP POP POP JUMP JUMPDEST PUSH1 0x60 PUSH2 0x1592 DUP3 PUSH2 0x1B88 JUMP JUMPDEST PUSH1 0x0 PUSH2 0x159C PUSH2 0x23CA JUMP JUMPDEST SWAP1 POP PUSH1 0x0 DUP2 MLOAD GT PUSH2 0x15BC JUMPI PUSH1 0x40 MLOAD DUP1 PUSH1 0x20 ADD PUSH1 0x40 MSTORE DUP1 PUSH1 0x0 DUP2 MSTORE POP PUSH2 0x15E7 JUMP JUMPDEST DUP1 PUSH2 0x15C6 DUP5 PUSH2 0x23E1 JUMP JUMPDEST PUSH1 0x40 MLOAD PUSH1 0x20 ADD PUSH2 0x15D7 SWAP3 SWAP2 SWAP1 PUSH2 0x3BD3 JUMP JUMPDEST PUSH1 0x40 MLOAD PUSH1 0x20 DUP2 DUP4 SUB SUB DUP2 MSTORE SWAP1 PUSH1 0x40 MSTORE JUMPDEST SWAP2 POP POP SWAP2 SWAP1 POP JUMP JUMPDEST PUSH1 0x60 PUSH1 0x9 DUP1 SLOAD DUP1 PUSH1 0x20 MUL PUSH1 0x20 ADD PUSH1 0x40 MLOAD SWAP1 DUP2 ADD PUSH1 0x40 MSTORE DUP1 SWAP3 SWAP2 SWAP1 DUP2 DUP2 MSTORE PUSH1 0x20 ADD PUSH1 0x0 SWAP1 JUMPDEST DUP3 DUP3 LT ISZERO PUSH2 0x189F JUMPI DUP4 DUP3 SWAP1 PUSH1 0x0 MSTORE PUSH1 0x20 PUSH1 0x0 KECCAK256 SWAP1 PUSH1 0xA MUL ADD PUSH1 0x40 MLOAD DUP1 PUSH2 0x140 ADD PUSH1 0x40 MSTORE SWAP1 DUP2 PUSH1 0x0 DUP3 ADD SLOAD DUP2 MSTORE PUSH1 0x20 ADD PUSH1 0x1 DUP3 ADD DUP1 SLOAD PUSH2 0x1651 SWAP1 PUSH2 0x33DE JUMP JUMPDEST DUP1 PUSH1 0x1F ADD PUSH1 0x20 DUP1 SWAP2 DIV MUL PUSH1 0x20 ADD PUSH1 0x40 MLOAD SWAP1 DUP2 ADD PUSH1 0x40 MSTORE DUP1 SWAP3 SWAP2 SWAP1 DUP2 DUP2 MSTORE PUSH1 0x20 ADD DUP3 DUP1 SLOAD PUSH2 0x167D SWAP1 PUSH2 0x33DE JUMP JUMPDEST DUP1 ISZERO PUSH2 0x16CA JUMPI DUP1 PUSH1 0x1F LT PUSH2 0x169F JUMPI PUSH2 0x100 DUP1 DUP4 SLOAD DIV MUL DUP4 MSTORE SWAP2 PUSH1 0x20 ADD SWAP2 PUSH2 0x16CA JUMP JUMPDEST DUP3 ADD SWAP2 SWAP1 PUSH1 0x0 MSTORE PUSH1 0x20 PUSH1 0x0 KECCAK256 SWAP1 JUMPDEST DUP2 SLOAD DUP2 MSTORE SWAP1 PUSH1 0x1 ADD SWAP1 PUSH1 0x20 ADD DUP1 DUP4 GT PUSH2 0x16AD JUMPI DUP3 SWAP1 SUB PUSH1 0x1F AND DUP3 ADD SWAP2 JUMPDEST POP POP POP POP POP DUP2 MSTORE PUSH1 0x20 ADD PUSH1 0x2 DUP3 ADD DUP1 SLOAD PUSH2 0x16E3 SWAP1 PUSH2 0x33DE JUMP JUMPDEST DUP1 PUSH1 0x1F ADD PUSH1 0x20 DUP1 SWAP2 DIV MUL PUSH1 0x20 ADD PUSH1 0x40 MLOAD SWAP1 DUP2 ADD PUSH1 0x40 MSTORE DUP1 SWAP3 SWAP2 SWAP1 DUP2 DUP2 MSTORE PUSH1 0x20 ADD DUP3 DUP1 SLOAD PUSH2 0x170F SWAP1 PUSH2 0x33DE JUMP JUMPDEST DUP1 ISZERO PUSH2 0x175C JUMPI DUP1 PUSH1 0x1F LT PUSH2 0x1731 JUMPI PUSH2 0x100 DUP1 DUP4 SLOAD DIV MUL DUP4 MSTORE SWAP2 PUSH1 0x20 ADD SWAP2 PUSH2 0x175C JUMP JUMPDEST DUP3 ADD SWAP2 SWAP1 PUSH1 0x0 MSTORE PUSH1 0x20 PUSH1 0x0 KECCAK256 SWAP1 JUMPDEST DUP2 SLOAD DUP2 MSTORE SWAP1 PUSH1 0x1 ADD SWAP1 PUSH1 0x20 ADD DUP1 DUP4 GT PUSH2 0x173F JUMPI DUP3 SWAP1 SUB PUSH1 0x1F AND DUP3 ADD SWAP2 JUMPDEST POP POP POP POP POP DUP2 MSTORE PUSH1 0x20 ADD PUSH1 0x3 DUP3 ADD PUSH1 0x0 SWAP1 SLOAD SWAP1 PUSH2 0x100 EXP SWAP1 DIV PUSH20 0xFFFFFFFFFFFFFFFFFFFFFFFFFFFFFFFFFFFFFFFF AND PUSH20 0xFFFFFFFFFFFFFFFFFFFFFFFFFFFFFFFFFFFFFFFF AND PUSH20 0xFFFFFFFFFFFFFFFFFFFFFFFFFFFFFFFFFFFFFFFF AND DUP2 MSTORE PUSH1 0x20 ADD PUSH1 0x4 DUP3 ADD SLOAD DUP2 MSTORE PUSH1 0x20 ADD PUSH1 0x5 DUP3 ADD SLOAD DUP2 MSTORE PUSH1 0x20 ADD PUSH1 0x6 DUP3 ADD SLOAD DUP2 MSTORE PUSH1 0x20 ADD PUSH1 0x7 DUP3 ADD SLOAD DUP2 MSTORE PUSH1 0x20 ADD PUSH1 0x8 DUP3 ADD DUP1 SLOAD PUSH2 0x17F3 SWAP1 PUSH2 0x33DE JUMP JUMPDEST DUP1 PUSH1 0x1F ADD PUSH1 0x20 DUP1 SWAP2 DIV MUL PUSH1 0x20 ADD PUSH1 0x40 MLOAD SWAP1 DUP2 ADD PUSH1 0x40 MSTORE DUP1 SWAP3 SWAP2 SWAP1 DUP2 DUP2 MSTORE PUSH1 0x20 ADD DUP3 DUP1 SLOAD PUSH2 0x181F SWAP1 PUSH2 0x33DE JUMP JUMPDEST DUP1 ISZERO PUSH2 0x186C JUMPI DUP1 PUSH1 0x1F LT PUSH2 0x1841 JUMPI PUSH2 0x100 DUP1 DUP4 SLOAD DIV MUL DUP4 MSTORE SWAP2 PUSH1 0x20 ADD SWAP2 PUSH2 0x186C JUMP JUMPDEST DUP3 ADD SWAP2 SWAP1 PUSH1 0x0 MSTORE PUSH1 0x20 PUSH1 0x0 KECCAK256 SWAP1 JUMPDEST DUP2 SLOAD DUP2 MSTORE SWAP1 PUSH1 0x1 ADD SWAP1 PUSH1 0x20 ADD DUP1 DUP4 GT PUSH2 0x184F JUMPI DUP3 SWAP1 SUB PUSH1 0x1F AND DUP3 ADD SWAP2 JUMPDEST POP POP POP POP POP DUP2 MSTORE PUSH1 0x20 ADD PUSH1 0x9 DUP3 ADD PUSH1 0x0 SWAP1 SLOAD SWAP1 PUSH2 0x100 EXP SWAP1 DIV PUSH1 0xFF AND ISZERO ISZERO ISZERO ISZERO DUP2 MSTORE POP POP DUP2 MSTORE PUSH1 0x20 ADD SWAP1 PUSH1 0x1 ADD SWAP1 PUSH2 0x1613 JUMP JUMPDEST POP POP POP POP SWAP1 POP SWAP1 JUMP JUMPDEST PUSH1 0x60 PUSH2 0x18B4 CALLER DUP4 PUSH2 0x1C94 JUMP JUMPDEST PUSH2 0x18F3 JUMPI PUSH1 0x40 MLOAD PUSH32 0x8C379A000000000000000000000000000000000000000000000000000000000 DUP2 MSTORE PUSH1 0x4 ADD PUSH2 0x18EA SWAP1 PUSH2 0x3C43 JUMP JUMPDEST PUSH1 0x40 MLOAD DUP1 SWAP2 SUB SWAP1 REVERT JUMPDEST PUSH1 0xA PUSH1 0x0 DUP4 DUP2 MSTORE PUSH1 0x20 ADD SWAP1 DUP2 MSTORE PUSH1 0x20 ADD PUSH1 0x0 KECCAK256 PUSH1 0x9 ADD PUSH1 0x0 SWAP1 SLOAD SWAP1 PUSH2 0x100 EXP SWAP1 DIV PUSH1 0xFF AND ISZERO PUSH2 0x1957 JUMPI PUSH1 0x40 MLOAD PUSH32 0x8C379A000000000000000000000000000000000000000000000000000000000 DUP2 MSTORE PUSH1 0x4 ADD PUSH2 0x194E SWAP1 PUSH2 0x3CAF JUMP JUMPDEST PUSH1 0x40 MLOAD DUP1 SWAP2 SUB SWAP1 REVERT JUMPDEST PUSH1 0x1 PUSH1 0xA PUSH1 0x0 DUP5 DUP2 MSTORE PUSH1 0x20 ADD SWAP1 DUP2 MSTORE PUSH1 0x20 ADD PUSH1 0x0 KECCAK256 PUSH1 0x9 ADD PUSH1 0x0 PUSH2 0x100 EXP DUP2 SLOAD DUP2 PUSH1 0xFF MUL NOT AND SWAP1 DUP4 ISZERO ISZERO MUL OR SWAP1 SSTORE POP PUSH1 0x0 PUSH1 0x9 DUP4 DUP2 SLOAD DUP2 LT PUSH2 0x199C JUMPI PUSH2 0x199B PUSH2 0x35C5 JUMP JUMPDEST JUMPDEST SWAP1 PUSH1 0x0 MSTORE PUSH1 0x20 PUSH1 0x0 KECCAK256 SWAP1 PUSH1 0xA MUL ADD SWAP1 POP PUSH1 0x1 DUP2 PUSH1 0x9 ADD PUSH1 0x0 PUSH2 0x100 EXP DUP2 SLOAD DUP2 PUSH1 0xFF MUL NOT AND SWAP1 DUP4 ISZERO ISZERO MUL OR SWAP1 SSTORE POP PUSH1 0x40 MLOAD DUP1 PUSH1 0x40 ADD PUSH1 0x40 MSTORE DUP1 PUSH1 0x3 DUP2 MSTORE PUSH1 0x20 ADD PUSH32 0x4963690000000000000000000000000000000000000000000000000000000000 DUP2 MSTORE POP SWAP2 POP POP SWAP2 SWAP1 POP JUMP JUMPDEST PUSH1 0x0 PUSH1 0x5 PUSH1 0x0 DUP5 PUSH20 0xFFFFFFFFFFFFFFFFFFFFFFFFFFFFFFFFFFFFFFFF AND PUSH20 0xFFFFFFFFFFFFFFFFFFFFFFFFFFFFFFFFFFFFFFFF AND DUP2 MSTORE PUSH1 0x20 ADD SWAP1 DUP2 MSTORE PUSH1 0x20 ADD PUSH1 0x0 KECCAK256 PUSH1 0x0 DUP4 PUSH20 0xFFFFFFFFFFFFFFFFFFFFFFFFFFFFFFFFFFFFFFFF AND PUSH20 0xFFFFFFFFFFFFFFFFFFFFFFFFFFFFFFFFFFFFFFFF AND DUP2 MSTORE PUSH1 0x20 ADD SWAP1 DUP2 MSTORE PUSH1 0x20 ADD PUSH1 0x0 KECCAK256 PUSH1 0x0 SWAP1 SLOAD SWAP1 PUSH2 0x100 EXP SWAP1 DIV PUSH1 0xFF AND SWAP1 POP SWAP3 SWAP2 POP POP JUMP JUMPDEST PUSH2 0x1AA3 PUSH2 0x205F JUMP JUMPDEST PUSH1 0x0 PUSH20 0xFFFFFFFFFFFFFFFFFFFFFFFFFFFFFFFFFFFFFFFF AND DUP2 PUSH20 0xFFFFFFFFFFFFFFFFFFFFFFFFFFFFFFFFFFFFFFFF AND SUB PUSH2 0x1B12 JUMPI PUSH1 0x40 MLOAD PUSH32 0x8C379A000000000000000000000000000000000000000000000000000000000 DUP2 MSTORE PUSH1 0x4 ADD PUSH2 0x1B09 SWAP1 PUSH2 0x3D41 JUMP JUMPDEST PUSH1 0x40 MLOAD DUP1 SWAP2 SUB SWAP1 REVERT JUMPDEST PUSH2 0x1B1B DUP2 PUSH2 0x20DD JUMP JUMPDEST POP JUMP JUMPDEST PUSH1 0x0 PUSH32 0x1FFC9A700000000000000000000000000000000000000000000000000000000 PUSH28 0xFFFFFFFFFFFFFFFFFFFFFFFFFFFFFFFFFFFFFFFFFFFFFFFFFFFFFFFF NOT AND DUP3 PUSH28 0xFFFFFFFFFFFFFFFFFFFFFFFFFFFFFFFFFFFFFFFFFFFFFFFFFFFFFFFF NOT AND EQ SWAP1 POP SWAP2 SWAP1 POP JUMP JUMPDEST PUSH2 0x1B91 DUP2 PUSH2 0x21A3 JUMP JUMPDEST PUSH2 0x1BD0 JUMPI PUSH1 0x40 MLOAD PUSH32 0x8C379A000000000000000000000000000000000000000000000000000000000 DUP2 MSTORE PUSH1 0x4 ADD PUSH2 0x1BC7 SWAP1 PUSH2 0x3784 JUMP JUMPDEST PUSH1 0x40 MLOAD DUP1 SWAP2 SUB SWAP1 REVERT JUMPDEST POP JUMP JUMPDEST PUSH1 0x0 CALLER SWAP1 POP SWAP1 JUMP JUMPDEST DUP2 PUSH1 0x4 PUSH1 0x0 DUP4 DUP2 MSTORE PUSH1 0x20 ADD SWAP1 DUP2 MSTORE PUSH1 0x20 ADD PUSH1 0x0 KECCAK256 PUSH1 0x0 PUSH2 0x100 EXP DUP2 SLOAD DUP2 PUSH20 0xFFFFFFFFFFFFFFFFFFFFFFFFFFFFFFFFFFFFFFFF MUL NOT AND SWAP1 DUP4 PUSH20 0xFFFFFFFFFFFFFFFFFFFFFFFFFFFFFFFFFFFFFFFF AND MUL OR SWAP1 SSTORE POP DUP1 DUP3 PUSH20 0xFFFFFFFFFFFFFFFFFFFFFFFFFFFFFFFFFFFFFFFF AND PUSH2 0x1C4E DUP4 PUSH2 0xC07 JUMP JUMPDEST PUSH20 0xFFFFFFFFFFFFFFFFFFFFFFFFFFFFFFFFFFFFFFFF AND PUSH32 0x8C5BE1E5EBEC7D5BD14F71427D1E84F3DD0314C0F7B2291E5B200AC8C7C3B925 PUSH1 0x40 MLOAD PUSH1 0x40 MLOAD DUP1 SWAP2 SUB SWAP1 LOG4 POP POP JUMP JUMPDEST PUSH1 0x0 DUP1 PUSH2 0x1CA0 DUP4 PUSH2 0xC07 JUMP JUMPDEST SWAP1 POP DUP1 PUSH20 0xFFFFFFFFFFFFFFFFFFFFFFFFFFFFFFFFFFFFFFFF AND DUP5 PUSH20 0xFFFFFFFFFFFFFFFFFFFFFFFFFFFFFFFFFFFFFFFF AND EQ DUP1 PUSH2 0x1CE2 JUMPI POP PUSH2 0x1CE1 DUP2 DUP6 PUSH2 0x1A07 JUMP JUMPDEST JUMPDEST DUP1 PUSH2 0x1D20 JUMPI POP DUP4 PUSH20 0xFFFFFFFFFFFFFFFFFFFFFFFFFFFFFFFFFFFFFFFF AND PUSH2 0x1D08 DUP5 PUSH2 0x793 JUMP JUMPDEST PUSH20 0xFFFFFFFFFFFFFFFFFFFFFFFFFFFFFFFFFFFFFFFF AND EQ JUMPDEST SWAP2 POP POP SWAP3 SWAP2 POP POP JUMP JUMPDEST DUP3 PUSH20 0xFFFFFFFFFFFFFFFFFFFFFFFFFFFFFFFFFFFFFFFF AND PUSH2 0x1D49 DUP3 PUSH2 0xC07 JUMP JUMPDEST PUSH20 0xFFFFFFFFFFFFFFFFFFFFFFFFFFFFFFFFFFFFFFFF AND EQ PUSH2 0x1D9F JUMPI PUSH1 0x40 MLOAD PUSH32 0x8C379A000000000000000000000000000000000000000000000000000000000 DUP2 MSTORE PUSH1 0x4 ADD PUSH2 0x1D96 SWAP1 PUSH2 0x3DD3 JUMP JUMPDEST PUSH1 0x40 MLOAD DUP1 SWAP2 SUB SWAP1 REVERT JUMPDEST PUSH1 0x0 PUSH20 0xFFFFFFFFFFFFFFFFFFFFFFFFFFFFFFFFFFFFFFFF AND DUP3 PUSH20 0xFFFFFFFFFFFFFFFFFFFFFFFFFFFFFFFFFFFFFFFF AND SUB PUSH2 0x1E0E JUMPI PUSH1 0x40 MLOAD PUSH32 0x8C379A000000000000000000000000000000000000000000000000000000000 DUP2 MSTORE PUSH1 0x4 ADD PUSH2 0x1E05 SWAP1 PUSH2 0x3E65 JUMP JUMPDEST PUSH1 0x40 MLOAD DUP1 SWAP2 SUB SWAP1 REVERT JUMPDEST PUSH2 0x1E1B DUP4 DUP4 DUP4 PUSH1 0x1 PUSH2 0x24AF JUMP JUMPDEST DUP3 PUSH20 0xFFFFFFFFFFFFFFFFFFFFFFFFFFFFFFFFFFFFFFFF AND PUSH2 0x1E3B DUP3 PUSH2 0xC07 JUMP JUMPDEST PUSH20 0xFFFFFFFFFFFFFFFFFFFFFFFFFFFFFFFFFFFFFFFF AND EQ PUSH2 0x1E91 JUMPI PUSH1 0x40 MLOAD PUSH32 0x8C379A000000000000000000000000000000000000000000000000000000000 DUP2 MSTORE PUSH1 0x4 ADD PUSH2 0x1E88 SWAP1 PUSH2 0x3DD3 JUMP JUMPDEST PUSH1 0x40 MLOAD DUP1 SWAP2 SUB SWAP1 REVERT JUMPDEST PUSH1 0x4 PUSH1 0x0 DUP3 DUP2 MSTORE PUSH1 0x20 ADD SWAP1 DUP2 MSTORE PUSH1 0x20 ADD PUSH1 0x0 KECCAK256 PUSH1 0x0 PUSH2 0x100 EXP DUP2 SLOAD SWAP1 PUSH20 0xFFFFFFFFFFFFFFFFFFFFFFFFFFFFFFFFFFFFFFFF MUL NOT AND SWAP1 SSTORE PUSH1 0x1 PUSH1 0x3 PUSH1 0x0 DUP6 PUSH20 0xFFFFFFFFFFFFFFFFFFFFFFFFFFFFFFFFFFFFFFFF AND PUSH20 0xFFFFFFFFFFFFFFFFFFFFFFFFFFFFFFFFFFFFFFFF AND DUP2 MSTORE PUSH1 0x20 ADD SWAP1 DUP2 MSTORE PUSH1 0x20 ADD PUSH1 0x0 KECCAK256 PUSH1 0x0 DUP3 DUP3 SLOAD SUB SWAP3 POP POP DUP2 SWAP1 SSTORE POP PUSH1 0x1 PUSH1 0x3 PUSH1 0x0 DUP5 PUSH20 0xFFFFFFFFFFFFFFFFFFFFFFFFFFFFFFFFFFFFFFFF AND PUSH20 0xFFFFFFFFFFFFFFFFFFFFFFFFFFFFFFFFFFFFFFFF AND DUP2 MSTORE PUSH1 0x20 ADD SWAP1 DUP2 MSTORE PUSH1 0x20 ADD PUSH1 0x0 KECCAK256 PUSH1 0x0 DUP3 DUP3 SLOAD ADD SWAP3 POP POP DUP2 SWAP1 SSTORE POP DUP2 PUSH1 0x2 PUSH1 0x0 DUP4 DUP2 MSTORE PUSH1 0x20 ADD SWAP1 DUP2 MSTORE PUSH1 0x20 ADD PUSH1 0x0 KECCAK256 PUSH1 0x0 PUSH2 0x100 EXP DUP2 SLOAD DUP2 PUSH20 0xFFFFFFFFFFFFFFFFFFFFFFFFFFFFFFFFFFFFFFFF MUL NOT AND SWAP1 DUP4 PUSH20 0xFFFFFFFFFFFFFFFFFFFFFFFFFFFFFFFFFFFFFFFF AND MUL OR SWAP1 SSTORE POP DUP1 DUP3 PUSH20 0xFFFFFFFFFFFFFFFFFFFFFFFFFFFFFFFFFFFFFFFF AND DUP5 PUSH20 0xFFFFFFFFFFFFFFFFFFFFFFFFFFFFFFFFFFFFFFFF AND PUSH32 0xDDF252AD1BE2C89B69C2B068FC378DAA952BA7F163C4A11628F55A4DF523B3EF PUSH1 0x40 MLOAD PUSH1 0x40 MLOAD DUP1 SWAP2 SUB SWAP1 LOG4 PUSH2 0x201D DUP4 DUP4 DUP4 PUSH1 0x1 PUSH2 0x24B5 JUMP JUMPDEST POP POP POP JUMP JUMPDEST PUSH1 0x0 PUSH1 0x2 PUSH1 0x0 DUP4 DUP2 MSTORE PUSH1 0x20 ADD SWAP1 DUP2 MSTORE PUSH1 0x20 ADD PUSH1 0x0 KECCAK256 PUSH1 0x0 SWAP1 SLOAD SWAP1 PUSH2 0x100 EXP SWAP1 DIV PUSH20 0xFFFFFFFFFFFFFFFFFFFFFFFFFFFFFFFFFFFFFFFF AND SWAP1 POP SWAP2 SWAP1 POP JUMP JUMPDEST PUSH2 0x2067 PUSH2 0x1BD3 JUMP JUMPDEST PUSH20 0xFFFFFFFFFFFFFFFFFFFFFFFFFFFFFFFFFFFFFFFF AND PUSH2 0x2085 PUSH2 0xD94 JUMP JUMPDEST PUSH20 0xFFFFFFFFFFFFFFFFFFFFFFFFFFFFFFFFFFFFFFFF AND EQ PUSH2 0x20DB JUMPI PUSH1 0x40 MLOAD PUSH32 0x8C379A000000000000000000000000000000000000000000000000000000000 DUP2 MSTORE PUSH1 0x4 ADD PUSH2 0x20D2 SWAP1 PUSH2 0x3ED1 JUMP JUMPDEST PUSH1 0x40 MLOAD DUP1 SWAP2 SUB SWAP1 REVERT JUMPDEST JUMP JUMPDEST PUSH1 0x0 PUSH1 0x6 PUSH1 0x0 SWAP1 SLOAD SWAP1 PUSH2 0x100 EXP SWAP1 DIV PUSH20 0xFFFFFFFFFFFFFFFFFFFFFFFFFFFFFFFFFFFFFFFF AND SWAP1 POP DUP2 PUSH1 0x6 PUSH1 0x0 PUSH2 0x100 EXP DUP2 SLOAD DUP2 PUSH20 0xFFFFFFFFFFFFFFFFFFFFFFFFFFFFFFFFFFFFFFFF MUL NOT AND SWAP1 DUP4 PUSH20 0xFFFFFFFFFFFFFFFFFFFFFFFFFFFFFFFFFFFFFFFF AND MUL OR SWAP1 SSTORE POP DUP2 PUSH20 0xFFFFFFFFFFFFFFFFFFFFFFFFFFFFFFFFFFFFFFFF AND DUP2 PUSH20 0xFFFFFFFFFFFFFFFFFFFFFFFFFFFFFFFFFFFFFFFF AND PUSH32 0x8BE0079C531659141344CD1FD0A4F28419497F9722A3DAAFE3B4186F6B6457E0 PUSH1 0x40 MLOAD PUSH1 0x40 MLOAD DUP1 SWAP2 SUB SWAP1 LOG3 POP POP JUMP JUMPDEST PUSH1 0x0 DUP1 PUSH20 0xFFFFFFFFFFFFFFFFFFFFFFFFFFFFFFFFFFFFFFFF AND PUSH2 0x21C5 DUP4 PUSH2 0x2022 JUMP JUMPDEST PUSH20 0xFFFFFFFFFFFFFFFFFFFFFFFFFFFFFFFFFFFFFFFF AND EQ ISZERO SWAP1 POP SWAP2 SWAP1 POP JUMP JUMPDEST DUP2 PUSH20 0xFFFFFFFFFFFFFFFFFFFFFFFFFFFFFFFFFFFFFFFF AND DUP4 PUSH20 0xFFFFFFFFFFFFFFFFFFFFFFFFFFFFFFFFFFFFFFFF AND SUB PUSH2 0x2252 JUMPI PUSH1 0x40 MLOAD PUSH32 0x8C379A000000000000000000000000000000000000000000000000000000000 DUP2 MSTORE PUSH1 0x4 ADD PUSH2 0x2249 SWAP1 PUSH2 0x3F3D JUMP JUMPDEST PUSH1 0x40 MLOAD DUP1 SWAP2 SUB SWAP1 REVERT JUMPDEST DUP1 PUSH1 0x5 PUSH1 0x0 DUP6 PUSH20 0xFFFFFFFFFFFFFFFFFFFFFFFFFFFFFFFFFFFFFFFF AND PUSH20 0xFFFFFFFFFFFFFFFFFFFFFFFFFFFFFFFFFFFFFFFF AND DUP2 MSTORE PUSH1 0x20 ADD SWAP1 DUP2 MSTORE PUSH1 0x20 ADD PUSH1 0x0 KECCAK256 PUSH1 0x0 DUP5 PUSH20 0xFFFFFFFFFFFFFFFFFFFFFFFFFFFFFFFFFFFFFFFF AND PUSH20 0xFFFFFFFFFFFFFFFFFFFFFFFFFFFFFFFFFFFFFFFF AND DUP2 MSTORE PUSH1 0x20 ADD SWAP1 DUP2 MSTORE PUSH1 0x20 ADD PUSH1 0x0 KECCAK256 PUSH1 0x0 PUSH2 0x100 EXP DUP2 SLOAD DUP2 PUSH1 0xFF MUL NOT AND SWAP1 DUP4 ISZERO ISZERO MUL OR SWAP1 SSTORE POP DUP2 PUSH20 0xFFFFFFFFFFFFFFFFFFFFFFFFFFFFFFFFFFFFFFFF AND DUP4 PUSH20 0xFFFFFFFFFFFFFFFFFFFFFFFFFFFFFFFFFFFFFFFF AND PUSH32 0x17307EAB39AB6107E8899845AD3D59BD9653F200F220920489CA2B5937696C31 DUP4 PUSH1 0x40 MLOAD PUSH2 0x2343 SWAP2 SWAP1 PUSH2 0x2AE4 JUMP JUMPDEST PUSH1 0x40 MLOAD DUP1 SWAP2 SUB SWAP1 LOG3 POP POP POP JUMP JUMPDEST PUSH2 0x235B DUP5 DUP5 DUP5 PUSH2 0x1D29 JUMP JUMPDEST PUSH2 0x2367 DUP5 DUP5 DUP5 DUP5 PUSH2 0x24BB JUMP JUMPDEST PUSH2 0x23A6 JUMPI PUSH1 0x40 MLOAD PUSH32 0x8C379A000000000000000000000000000000000000000000000000000000000 DUP2 MSTORE PUSH1 0x4 ADD PUSH2 0x239D SWAP1 PUSH2 0x3FCF JUMP JUMPDEST PUSH1 0x40 MLOAD DUP1 SWAP2 SUB SWAP1 REVERT JUMPDEST POP POP POP POP JUMP JUMPDEST PUSH2 0x23C6 DUP3 DUP3 PUSH1 0x40 MLOAD DUP1 PUSH1 0x20 ADD PUSH1 0x40 MSTORE DUP1 PUSH1 0x0 DUP2 MSTORE POP PUSH2 0x2642 JUMP JUMPDEST POP POP JUMP JUMPDEST PUSH1 0x60 PUSH1 0x40 MLOAD DUP1 PUSH1 0x20 ADD PUSH1 0x40 MSTORE DUP1 PUSH1 0x0 DUP2 MSTORE POP SWAP1 POP SWAP1 JUMP JUMPDEST PUSH1 0x60 PUSH1 0x0 PUSH1 0x1 PUSH2 0x23F0 DUP5 PUSH2 0x269D JUMP JUMPDEST ADD SWAP1 POP PUSH1 0x0 DUP2 PUSH8 0xFFFFFFFFFFFFFFFF DUP2 GT ISZERO PUSH2 0x240F JUMPI PUSH2 0x240E PUSH2 0x2DFC JUMP JUMPDEST JUMPDEST PUSH1 0x40 MLOAD SWAP1 DUP1 DUP3 MSTORE DUP1 PUSH1 0x1F ADD PUSH1 0x1F NOT AND PUSH1 0x20 ADD DUP3 ADD PUSH1 0x40 MSTORE DUP1 ISZERO PUSH2 0x2441 JUMPI DUP2 PUSH1 0x20 ADD PUSH1 0x1 DUP3 MUL DUP1 CALLDATASIZE DUP4 CALLDATACOPY DUP1 DUP3 ADD SWAP2 POP POP SWAP1 POP JUMPDEST POP SWAP1 POP PUSH1 0x0 DUP3 PUSH1 0x20 ADD DUP3 ADD SWAP1 POP JUMPDEST PUSH1 0x1 ISZERO PUSH2 0x24A4 JUMPI DUP1 DUP1 PUSH1 0x1 SWAP1 SUB SWAP2 POP POP PUSH32 0x3031323334353637383961626364656600000000000000000000000000000000 PUSH1 0xA DUP7 MOD BYTE DUP2 MSTORE8 PUSH1 0xA DUP6 DUP2 PUSH2 0x2498 JUMPI PUSH2 0x2497 PUSH2 0x3FEF JUMP JUMPDEST JUMPDEST DIV SWAP5 POP PUSH1 0x0 DUP6 SUB PUSH2 0x244F JUMPI JUMPDEST DUP2 SWAP4 POP POP POP POP SWAP2 SWAP1 POP JUMP JUMPDEST POP POP POP POP JUMP JUMPDEST POP POP POP POP JUMP JUMPDEST PUSH1 0x0 PUSH2 0x24DC DUP5 PUSH20 0xFFFFFFFFFFFFFFFFFFFFFFFFFFFFFFFFFFFFFFFF AND PUSH2 0x27F0 JUMP JUMPDEST ISZERO PUSH2 0x2635 JUMPI DUP4 PUSH20 0xFFFFFFFFFFFFFFFFFFFFFFFFFFFFFFFFFFFFFFFF AND PUSH4 0x150B7A02 PUSH2 0x2505 PUSH2 0x1BD3 JUMP JUMPDEST DUP8 DUP7 DUP7 PUSH1 0x40 MLOAD DUP6 PUSH4 0xFFFFFFFF AND PUSH1 0xE0 SHL DUP2 MSTORE PUSH1 0x4 ADD PUSH2 0x2527 SWAP5 SWAP4 SWAP3 SWAP2 SWAP1 PUSH2 0x4073 JUMP JUMPDEST PUSH1 0x20 PUSH1 0x40 MLOAD DUP1 DUP4 SUB DUP2 PUSH1 0x0 DUP8 GAS CALL SWAP3 POP POP POP DUP1 ISZERO PUSH2 0x2563 JUMPI POP PUSH1 0x40 MLOAD RETURNDATASIZE PUSH1 0x1F NOT PUSH1 0x1F DUP3 ADD AND DUP3 ADD DUP1 PUSH1 0x40 MSTORE POP DUP2 ADD SWAP1 PUSH2 0x2560 SWAP2 SWAP1 PUSH2 0x40D4 JUMP JUMPDEST PUSH1 0x1 JUMPDEST PUSH2 0x25E5 JUMPI RETURNDATASIZE DUP1 PUSH1 0x0 DUP2 EQ PUSH2 0x2593 JUMPI PUSH1 0x40 MLOAD SWAP2 POP PUSH1 0x1F NOT PUSH1 0x3F RETURNDATASIZE ADD AND DUP3 ADD PUSH1 0x40 MSTORE RETURNDATASIZE DUP3 MSTORE RETURNDATASIZE PUSH1 0x0 PUSH1 0x20 DUP5 ADD RETURNDATACOPY PUSH2 0x2598 JUMP JUMPDEST PUSH1 0x60 SWAP2 POP JUMPDEST POP PUSH1 0x0 DUP2 MLOAD SUB PUSH2 0x25DD JUMPI PUSH1 0x40 MLOAD PUSH32 0x8C379A000000000000000000000000000000000000000000000000000000000 DUP2 MSTORE PUSH1 0x4 ADD PUSH2 0x25D4 SWAP1 PUSH2 0x3FCF JUMP JUMPDEST PUSH1 0x40 MLOAD DUP1 SWAP2 SUB SWAP1 REVERT JUMPDEST DUP1 MLOAD DUP2 PUSH1 0x20 ADD REVERT JUMPDEST PUSH4 0x150B7A02 PUSH1 0xE0 SHL PUSH28 0xFFFFFFFFFFFFFFFFFFFFFFFFFFFFFFFFFFFFFFFFFFFFFFFFFFFFFFFF NOT AND DUP2 PUSH28 0xFFFFFFFFFFFFFFFFFFFFFFFFFFFFFFFFFFFFFFFFFFFFFFFFFFFFFFFF NOT AND EQ SWAP2 POP POP PUSH2 0x263A JUMP JUMPDEST PUSH1 0x1 SWAP1 POP JUMPDEST SWAP5 SWAP4 POP POP POP POP JUMP JUMPDEST PUSH2 0x264C DUP4 DUP4 PUSH2 0x2813 JUMP JUMPDEST PUSH2 0x2659 PUSH1 0x0 DUP5 DUP5 DUP5 PUSH2 0x24BB JUMP JUMPDEST PUSH2 0x2698 JUMPI PUSH1 0x40 MLOAD PUSH32 0x8C379A000000000000000000000000000000000000000000000000000000000 DUP2 MSTORE PUSH1 0x4 ADD PUSH2 0x268F SWAP1 PUSH2 0x3FCF JUMP JUMPDEST PUSH1 0x40 MLOAD DUP1 SWAP2 SUB SWAP1 REVERT JUMPDEST POP POP POP JUMP JUMPDEST PUSH1 0x0 DUP1 PUSH1 0x0 SWAP1 POP PUSH27 0x184F03E93FF9F4DAA797ED6E38ED64BF6A1F010000000000000000 DUP4 LT PUSH2 0x26FB JUMPI PUSH27 0x184F03E93FF9F4DAA797ED6E38ED64BF6A1F010000000000000000 DUP4 DUP2 PUSH2 0x26F1 JUMPI PUSH2 0x26F0 PUSH2 0x3FEF JUMP JUMPDEST JUMPDEST DIV SWAP3 POP PUSH1 0x40 DUP2 ADD SWAP1 POP JUMPDEST PUSH14 0x4EE2D6D415B85ACEF8100000000 DUP4 LT PUSH2 0x2738 JUMPI PUSH14 0x4EE2D6D415B85ACEF8100000000 DUP4 DUP2 PUSH2 0x272E JUMPI PUSH2 0x272D PUSH2 0x3FEF JUMP JUMPDEST JUMPDEST DIV SWAP3 POP PUSH1 0x20 DUP2 ADD SWAP1 POP JUMPDEST PUSH7 0x2386F26FC10000 DUP4 LT PUSH2 0x2767 JUMPI PUSH7 0x2386F26FC10000 DUP4 DUP2 PUSH2 0x275D JUMPI PUSH2 0x275C PUSH2 0x3FEF JUMP JUMPDEST JUMPDEST DIV SWAP3 POP PUSH1 0x10 DUP2 ADD SWAP1 POP JUMPDEST PUSH4 0x5F5E100 DUP4 LT PUSH2 0x2790 JUMPI PUSH4 0x5F5E100 DUP4 DUP2 PUSH2 0x2786 JUMPI PUSH2 0x2785 PUSH2 0x3FEF JUMP JUMPDEST JUMPDEST DIV SWAP3 POP PUSH1 0x8 DUP2 ADD SWAP1 POP JUMPDEST PUSH2 0x2710 DUP4 LT PUSH2 0x27B5 JUMPI PUSH2 0x2710 DUP4 DUP2 PUSH2 0x27AB JUMPI PUSH2 0x27AA PUSH2 0x3FEF JUMP JUMPDEST JUMPDEST DIV SWAP3 POP PUSH1 0x4 DUP2 ADD SWAP1 POP JUMPDEST PUSH1 0x64 DUP4 LT PUSH2 0x27D8 JUMPI PUSH1 0x64 DUP4 DUP2 PUSH2 0x27CE JUMPI PUSH2 0x27CD PUSH2 0x3FEF JUMP JUMPDEST JUMPDEST DIV SWAP3 POP PUSH1 0x2 DUP2 ADD SWAP1 POP JUMPDEST PUSH1 0xA DUP4 LT PUSH2 0x27E7 JUMPI PUSH1 0x1 DUP2 ADD SWAP1 POP JUMPDEST DUP1 SWAP2 POP POP SWAP2 SWAP1 POP JUMP JUMPDEST PUSH1 0x0 DUP1 DUP3 PUSH20 0xFFFFFFFFFFFFFFFFFFFFFFFFFFFFFFFFFFFFFFFF AND EXTCODESIZE GT SWAP1 POP SWAP2 SWAP1 POP JUMP JUMPDEST PUSH1 0x0 PUSH20 0xFFFFFFFFFFFFFFFFFFFFFFFFFFFFFFFFFFFFFFFF AND DUP3 PUSH20 0xFFFFFFFFFFFFFFFFFFFFFFFFFFFFFFFFFFFFFFFF AND SUB PUSH2 0x2882 JUMPI PUSH1 0x40 MLOAD PUSH32 0x8C379A000000000000000000000000000000000000000000000000000000000 DUP2 MSTORE PUSH1 0x4 ADD PUSH2 0x2879 SWAP1 PUSH2 0x414D JUMP JUMPDEST PUSH1 0x40 MLOAD DUP1 SWAP2 SUB SWAP1 REVERT JUMPDEST PUSH2 0x288B DUP2 PUSH2 0x21A3 JUMP JUMPDEST ISZERO PUSH2 0x28CB JUMPI PUSH1 0x40 MLOAD PUSH32 0x8C379A000000000000000000000000000000000000000000000000000000000 DUP2 MSTORE PUSH1 0x4 ADD PUSH2 0x28C2 SWAP1 PUSH2 0x41B9 JUMP JUMPDEST PUSH1 0x40 MLOAD DUP1 SWAP2 SUB SWAP1 REVERT JUMPDEST PUSH2 0x28D9 PUSH1 0x0 DUP4 DUP4 PUSH1 0x1 PUSH2 0x24AF JUMP JUMPDEST PUSH2 0x28E2 DUP2 PUSH2 0x21A3 JUMP JUMPDEST ISZERO PUSH2 0x2922 JUMPI PUSH1 0x40 MLOAD PUSH32 0x8C379A000000000000000000000000000000000000000000000000000000000 DUP2 MSTORE PUSH1 0x4 ADD PUSH2 0x2919 SWAP1 PUSH2 0x41B9 JUMP JUMPDEST PUSH1 0x40 MLOAD DUP1 SWAP2 SUB SWAP1 REVERT JUMPDEST PUSH1 0x1 PUSH1 0x3 PUSH1 0x0 DUP5 PUSH20 0xFFFFFFFFFFFFFFFFFFFFFFFFFFFFFFFFFFFFFFFF AND PUSH20 0xFFFFFFFFFFFFFFFFFFFFFFFFFFFFFFFFFFFFFFFF AND DUP2 MSTORE PUSH1 0x20 ADD SWAP1 DUP2 MSTORE PUSH1 0x20 ADD PUSH1 0x0 KECCAK256 PUSH1 0x0 DUP3 DUP3 SLOAD ADD SWAP3 POP POP DUP2 SWAP1 SSTORE POP DUP2 PUSH1 0x2 PUSH1 0x0 DUP4 DUP2 MSTORE PUSH1 0x20 ADD SWAP1 DUP2 MSTORE PUSH1 0x20 ADD PUSH1 0x0 KECCAK256 PUSH1 0x0 PUSH2 0x100 EXP DUP2 SLOAD DUP2 PUSH20 0xFFFFFFFFFFFFFFFFFFFFFFFFFFFFFFFFFFFFFFFF MUL NOT AND SWAP1 DUP4 PUSH20 0xFFFFFFFFFFFFFFFFFFFFFFFFFFFFFFFFFFFFFFFF AND MUL OR SWAP1 SSTORE POP DUP1 DUP3 PUSH20 0xFFFFFFFFFFFFFFFFFFFFFFFFFFFFFFFFFFFFFFFF AND PUSH1 0x0 PUSH20 0xFFFFFFFFFFFFFFFFFFFFFFFFFFFFFFFFFFFFFFFF AND PUSH32 0xDDF252AD1BE2C89B69C2B068FC378DAA952BA7F163C4A11628F55A4DF523B3EF PUSH1 0x40 MLOAD PUSH1 0x40 MLOAD DUP1 SWAP2 SUB SWAP1 LOG4 PUSH2 0x2A2C PUSH1 0x0 DUP4 DUP4 PUSH1 0x1 PUSH2 0x24B5 JUMP JUMPDEST POP POP JUMP JUMPDEST PUSH1 0x0 PUSH1 0x40 MLOAD SWAP1 POP SWAP1 JUMP JUMPDEST PUSH1 0x0 DUP1 REVERT JUMPDEST PUSH1 0x0 DUP1 REVERT JUMPDEST PUSH1 0x0 PUSH32 0xFFFFFFFF00000000000000000000000000000000000000000000000000000000 DUP3 AND SWAP1 POP SWAP2 SWAP1 POP JUMP JUMPDEST PUSH2 0x2A79 DUP2 PUSH2 0x2A44 JUMP JUMPDEST DUP2 EQ PUSH2 0x2A84 JUMPI PUSH1 0x0 DUP1 REVERT JUMPDEST POP JUMP JUMPDEST PUSH1 0x0 DUP2 CALLDATALOAD SWAP1 POP PUSH2 0x2A96 DUP2 PUSH2 0x2A70 JUMP JUMPDEST SWAP3 SWAP2 POP POP JUMP JUMPDEST PUSH1 0x0 PUSH1 0x20 DUP3 DUP5 SUB SLT ISZERO PUSH2 0x2AB2 JUMPI PUSH2 0x2AB1 PUSH2 0x2A3A JUMP JUMPDEST JUMPDEST PUSH1 0x0 PUSH2 0x2AC0 DUP5 DUP3 DUP6 ADD PUSH2 0x2A87 JUMP JUMPDEST SWAP2 POP POP SWAP3 SWAP2 POP POP JUMP JUMPDEST PUSH1 0x0 DUP2 ISZERO ISZERO SWAP1 POP SWAP2 SWAP1 POP JUMP JUMPDEST PUSH2 0x2ADE DUP2 PUSH2 0x2AC9 JUMP JUMPDEST DUP3 MSTORE POP POP JUMP JUMPDEST PUSH1 0x0 PUSH1 0x20 DUP3 ADD SWAP1 POP PUSH2 0x2AF9 PUSH1 0x0 DUP4 ADD DUP5 PUSH2 0x2AD5 JUMP JUMPDEST SWAP3 SWAP2 POP POP JUMP JUMPDEST PUSH1 0x0 DUP2 MLOAD SWAP1 POP SWAP2 SWAP1 POP JUMP JUMPDEST PUSH1 0x0 DUP3 DUP3 MSTORE PUSH1 0x20 DUP3 ADD SWAP1 POP SWAP3 SWAP2 POP POP JUMP JUMPDEST PUSH1 0x0 JUMPDEST DUP4 DUP2 LT ISZERO PUSH2 0x2B39 JUMPI DUP1 DUP3 ADD MLOAD DUP2 DUP5 ADD MSTORE PUSH1 0x20 DUP2 ADD SWAP1 POP PUSH2 0x2B1E JUMP JUMPDEST PUSH1 0x0 DUP5 DUP5 ADD MSTORE POP POP POP POP JUMP JUMPDEST PUSH1 0x0 PUSH1 0x1F NOT PUSH1 0x1F DUP4 ADD AND SWAP1 POP SWAP2 SWAP1 POP JUMP JUMPDEST PUSH1 0x0 PUSH2 0x2B61 DUP3 PUSH2 0x2AFF JUMP JUMPDEST PUSH2 0x2B6B DUP2 DUP6 PUSH2 0x2B0A JUMP JUMPDEST SWAP4 POP PUSH2 0x2B7B DUP2 DUP6 PUSH1 0x20 DUP7 ADD PUSH2 0x2B1B JUMP JUMPDEST PUSH2 0x2B84 DUP2 PUSH2 0x2B45 JUMP JUMPDEST DUP5 ADD SWAP2 POP POP SWAP3 SWAP2 POP POP JUMP JUMPDEST PUSH1 0x0 PUSH1 0x20 DUP3 ADD SWAP1 POP DUP2 DUP2 SUB PUSH1 0x0 DUP4 ADD MSTORE PUSH2 0x2BA9 DUP2 DUP5 PUSH2 0x2B56 JUMP JUMPDEST SWAP1 POP SWAP3 SWAP2 POP POP JUMP JUMPDEST PUSH1 0x0 DUP2 SWAP1 POP SWAP2 SWAP1 POP JUMP JUMPDEST PUSH2 0x2BC4 DUP2 PUSH2 0x2BB1 JUMP JUMPDEST DUP2 EQ PUSH2 0x2BCF JUMPI PUSH1 0x0 DUP1 REVERT JUMPDEST POP JUMP JUMPDEST PUSH1 0x0 DUP2 CALLDATALOAD SWAP1 POP PUSH2 0x2BE1 DUP2 PUSH2 0x2BBB JUMP JUMPDEST SWAP3 SWAP2 POP POP JUMP JUMPDEST PUSH1 0x0 PUSH1 0x20 DUP3 DUP5 SUB SLT ISZERO PUSH2 0x2BFD JUMPI PUSH2 0x2BFC PUSH2 0x2A3A JUMP JUMPDEST JUMPDEST PUSH1 0x0 PUSH2 0x2C0B DUP5 DUP3 DUP6 ADD PUSH2 0x2BD2 JUMP JUMPDEST SWAP2 POP POP SWAP3 SWAP2 POP POP JUMP JUMPDEST PUSH1 0x0 PUSH20 0xFFFFFFFFFFFFFFFFFFFFFFFFFFFFFFFFFFFFFFFF DUP3 AND SWAP1 POP SWAP2 SWAP1 POP JUMP JUMPDEST PUSH1 0x0 PUSH2 0x2C3F DUP3 PUSH2 0x2C14 JUMP JUMPDEST SWAP1 POP SWAP2 SWAP1 POP JUMP JUMPDEST PUSH2 0x2C4F DUP2 PUSH2 0x2C34 JUMP JUMPDEST DUP3 MSTORE POP POP JUMP JUMPDEST PUSH1 0x0 PUSH1 0x20 DUP3 ADD SWAP1 POP PUSH2 0x2C6A PUSH1 0x0 DUP4 ADD DUP5 PUSH2 0x2C46 JUMP JUMPDEST SWAP3 SWAP2 POP POP JUMP JUMPDEST PUSH2 0x2C79 DUP2 PUSH2 0x2C34 JUMP JUMPDEST DUP2 EQ PUSH2 0x2C84 JUMPI PUSH1 0x0 DUP1 REVERT JUMPDEST POP JUMP JUMPDEST PUSH1 0x0 DUP2 CALLDATALOAD SWAP1 POP PUSH2 0x2C96 DUP2 PUSH2 0x2C70 JUMP JUMPDEST SWAP3 SWAP2 POP POP JUMP JUMPDEST PUSH1 0x0 DUP1 PUSH1 0x40 DUP4 DUP6 SUB SLT ISZERO PUSH2 0x2CB3 JUMPI PUSH2 0x2CB2 PUSH2 0x2A3A JUMP JUMPDEST JUMPDEST PUSH1 0x0 PUSH2 0x2CC1 DUP6 DUP3 DUP7 ADD PUSH2 0x2C87 JUMP JUMPDEST SWAP3 POP POP PUSH1 0x20 PUSH2 0x2CD2 DUP6 DUP3 DUP7 ADD PUSH2 0x2BD2 JUMP JUMPDEST SWAP2 POP POP SWAP3 POP SWAP3 SWAP1 POP JUMP JUMPDEST PUSH1 0x0 DUP1 PUSH1 0x0 PUSH1 0x60 DUP5 DUP7 SUB SLT ISZERO PUSH2 0x2CF5 JUMPI PUSH2 0x2CF4 PUSH2 0x2A3A JUMP JUMPDEST JUMPDEST PUSH1 0x0 PUSH2 0x2D03 DUP7 DUP3 DUP8 ADD PUSH2 0x2C87 JUMP JUMPDEST SWAP4 POP POP PUSH1 0x20 PUSH2 0x2D14 DUP7 DUP3 DUP8 ADD PUSH2 0x2C87 JUMP JUMPDEST SWAP3 POP POP PUSH1 0x40 PUSH2 0x2D25 DUP7 DUP3 DUP8 ADD PUSH2 0x2BD2 JUMP JUMPDEST SWAP2 POP POP SWAP3 POP SWAP3 POP SWAP3 JUMP JUMPDEST PUSH2 0x2D38 DUP2 PUSH2 0x2BB1 JUMP JUMPDEST DUP3 MSTORE POP POP JUMP JUMPDEST PUSH1 0x0 PUSH1 0x20 DUP3 ADD SWAP1 POP PUSH2 0x2D53 PUSH1 0x0 DUP4 ADD DUP5 PUSH2 0x2D2F JUMP JUMPDEST SWAP3 SWAP2 POP POP JUMP JUMPDEST PUSH1 0x0 PUSH1 0x20 DUP3 DUP5 SUB SLT ISZERO PUSH2 0x2D6F JUMPI PUSH2 0x2D6E PUSH2 0x2A3A JUMP JUMPDEST JUMPDEST PUSH1 0x0 PUSH2 0x2D7D DUP5 DUP3 DUP6 ADD PUSH2 0x2C87 JUMP JUMPDEST SWAP2 POP POP SWAP3 SWAP2 POP POP JUMP JUMPDEST PUSH2 0x2D8F DUP2 PUSH2 0x2AC9 JUMP JUMPDEST DUP2 EQ PUSH2 0x2D9A JUMPI PUSH1 0x0 DUP1 REVERT JUMPDEST POP JUMP JUMPDEST PUSH1 0x0 DUP2 CALLDATALOAD SWAP1 POP PUSH2 0x2DAC DUP2 PUSH2 0x2D86 JUMP JUMPDEST SWAP3 SWAP2 POP POP JUMP JUMPDEST PUSH1 0x0 DUP1 PUSH1 0x40 DUP4 DUP6 SUB SLT ISZERO PUSH2 0x2DC9 JUMPI PUSH2 0x2DC8 PUSH2 0x2A3A JUMP JUMPDEST JUMPDEST PUSH1 0x0 PUSH2 0x2DD7 DUP6 DUP3 DUP7 ADD PUSH2 0x2C87 JUMP JUMPDEST SWAP3 POP POP PUSH1 0x20 PUSH2 0x2DE8 DUP6 DUP3 DUP7 ADD PUSH2 0x2D9D JUMP JUMPDEST SWAP2 POP POP SWAP3 POP SWAP3 SWAP1 POP JUMP JUMPDEST PUSH1 0x0 DUP1 REVERT JUMPDEST PUSH1 0x0 DUP1 REVERT JUMPDEST PUSH32 0x4E487B7100000000000000000000000000000000000000000000000000000000 PUSH1 0x0 MSTORE PUSH1 0x41 PUSH1 0x4 MSTORE PUSH1 0x24 PUSH1 0x0 REVERT JUMPDEST PUSH2 0x2E34 DUP3 PUSH2 0x2B45 JUMP JUMPDEST DUP2 ADD DUP2 DUP2 LT PUSH8 0xFFFFFFFFFFFFFFFF DUP3 GT OR ISZERO PUSH2 0x2E53 JUMPI PUSH2 0x2E52 PUSH2 0x2DFC JUMP JUMPDEST JUMPDEST DUP1 PUSH1 0x40 MSTORE POP POP POP JUMP JUMPDEST PUSH1 0x0 PUSH2 0x2E66 PUSH2 0x2A30 JUMP JUMPDEST SWAP1 POP PUSH2 0x2E72 DUP3 DUP3 PUSH2 0x2E2B JUMP JUMPDEST SWAP2 SWAP1 POP JUMP JUMPDEST PUSH1 0x0 PUSH8 0xFFFFFFFFFFFFFFFF DUP3 GT ISZERO PUSH2 0x2E92 JUMPI PUSH2 0x2E91 PUSH2 0x2DFC JUMP JUMPDEST JUMPDEST PUSH2 0x2E9B DUP3 PUSH2 0x2B45 JUMP JUMPDEST SWAP1 POP PUSH1 0x20 DUP2 ADD SWAP1 POP SWAP2 SWAP1 POP JUMP JUMPDEST DUP3 DUP2 DUP4 CALLDATACOPY PUSH1 0x0 DUP4 DUP4 ADD MSTORE POP POP POP JUMP JUMPDEST PUSH1 0x0 PUSH2 0x2ECA PUSH2 0x2EC5 DUP5 PUSH2 0x2E77 JUMP JUMPDEST PUSH2 0x2E5C JUMP JUMPDEST SWAP1 POP DUP3 DUP2 MSTORE PUSH1 0x20 DUP2 ADD DUP5 DUP5 DUP5 ADD GT ISZERO PUSH2 0x2EE6 JUMPI PUSH2 0x2EE5 PUSH2 0x2DF7 JUMP JUMPDEST JUMPDEST PUSH2 0x2EF1 DUP5 DUP3 DUP6 PUSH2 0x2EA8 JUMP JUMPDEST POP SWAP4 SWAP3 POP POP POP JUMP JUMPDEST PUSH1 0x0 DUP3 PUSH1 0x1F DUP4 ADD SLT PUSH2 0x2F0E JUMPI PUSH2 0x2F0D PUSH2 0x2DF2 JUMP JUMPDEST JUMPDEST DUP2 CALLDATALOAD PUSH2 0x2F1E DUP5 DUP3 PUSH1 0x20 DUP7 ADD PUSH2 0x2EB7 JUMP JUMPDEST SWAP2 POP POP SWAP3 SWAP2 POP POP JUMP JUMPDEST PUSH1 0x0 DUP1 PUSH1 0x0 DUP1 PUSH1 0x80 DUP6 DUP8 SUB SLT ISZERO PUSH2 0x2F41 JUMPI PUSH2 0x2F40 PUSH2 0x2A3A JUMP JUMPDEST JUMPDEST PUSH1 0x0 PUSH2 0x2F4F DUP8 DUP3 DUP9 ADD PUSH2 0x2C87 JUMP JUMPDEST SWAP5 POP POP PUSH1 0x20 PUSH2 0x2F60 DUP8 DUP3 DUP9 ADD PUSH2 0x2C87 JUMP JUMPDEST SWAP4 POP POP PUSH1 0x40 PUSH2 0x2F71 DUP8 DUP3 DUP9 ADD PUSH2 0x2BD2 JUMP JUMPDEST SWAP3 POP POP PUSH1 0x60 DUP6 ADD CALLDATALOAD PUSH8 0xFFFFFFFFFFFFFFFF DUP2 GT ISZERO PUSH2 0x2F92 JUMPI PUSH2 0x2F91 PUSH2 0x2A3F JUMP JUMPDEST JUMPDEST PUSH2 0x2F9E DUP8 DUP3 DUP9 ADD PUSH2 0x2EF9 JUMP JUMPDEST SWAP2 POP POP SWAP3 SWAP6 SWAP2 SWAP5 POP SWAP3 POP JUMP JUMPDEST PUSH1 0x0 PUSH8 0xFFFFFFFFFFFFFFFF DUP3 GT ISZERO PUSH2 0x2FC5 JUMPI PUSH2 0x2FC4 PUSH2 0x2DFC JUMP JUMPDEST JUMPDEST PUSH2 0x2FCE DUP3 PUSH2 0x2B45 JUMP JUMPDEST SWAP1 POP PUSH1 0x20 DUP2 ADD SWAP1 POP SWAP2 SWAP1 POP JUMP JUMPDEST PUSH1 0x0 PUSH2 0x2FEE PUSH2 0x2FE9 DUP5 PUSH2 0x2FAA JUMP JUMPDEST PUSH2 0x2E5C JUMP JUMPDEST SWAP1 POP DUP3 DUP2 MSTORE PUSH1 0x20 DUP2 ADD DUP5 DUP5 DUP5 ADD GT ISZERO PUSH2 0x300A JUMPI PUSH2 0x3009 PUSH2 0x2DF7 JUMP JUMPDEST JUMPDEST PUSH2 0x3015 DUP5 DUP3 DUP6 PUSH2 0x2EA8 JUMP JUMPDEST POP SWAP4 SWAP3 POP POP POP JUMP JUMPDEST PUSH1 0x0 DUP3 PUSH1 0x1F DUP4 ADD SLT PUSH2 0x3032 JUMPI PUSH2 0x3031 PUSH2 0x2DF2 JUMP JUMPDEST JUMPDEST DUP2 CALLDATALOAD PUSH2 0x3042 DUP5 DUP3 PUSH1 0x20 DUP7 ADD PUSH2 0x2FDB JUMP JUMPDEST SWAP2 POP POP SWAP3 SWAP2 POP POP JUMP JUMPDEST PUSH1 0x0 DUP1 PUSH1 0x0 DUP1 PUSH1 0x0 DUP1 PUSH1 0xC0 DUP8 DUP10 SUB SLT ISZERO PUSH2 0x3068 JUMPI PUSH2 0x3067 PUSH2 0x2A3A JUMP JUMPDEST JUMPDEST PUSH1 0x0 DUP8 ADD CALLDATALOAD PUSH8 0xFFFFFFFFFFFFFFFF DUP2 GT ISZERO PUSH2 0x3086 JUMPI PUSH2 0x3085 PUSH2 0x2A3F JUMP JUMPDEST JUMPDEST PUSH2 0x3092 DUP10 DUP3 DUP11 ADD PUSH2 0x301D JUMP JUMPDEST SWAP7 POP POP PUSH1 0x20 DUP8 ADD CALLDATALOAD PUSH8 0xFFFFFFFFFFFFFFFF DUP2 GT ISZERO PUSH2 0x30B3 JUMPI PUSH2 0x30B2 PUSH2 0x2A3F JUMP JUMPDEST JUMPDEST PUSH2 0x30BF DUP10 DUP3 DUP11 ADD PUSH2 0x301D JUMP JUMPDEST SWAP6 POP POP PUSH1 0x40 PUSH2 0x30D0 DUP10 DUP3 DUP11 ADD PUSH2 0x2BD2 JUMP JUMPDEST SWAP5 POP POP PUSH1 0x60 PUSH2 0x30E1 DUP10 DUP3 DUP11 ADD PUSH2 0x2BD2 JUMP JUMPDEST SWAP4 POP POP PUSH1 0x80 PUSH2 0x30F2 DUP10 DUP3 DUP11 ADD PUSH2 0x2BD2 JUMP JUMPDEST SWAP3 POP POP PUSH1 0xA0 DUP8 ADD CALLDATALOAD PUSH8 0xFFFFFFFFFFFFFFFF DUP2 GT ISZERO PUSH2 0x3113 JUMPI PUSH2 0x3112 PUSH2 0x2A3F JUMP JUMPDEST JUMPDEST PUSH2 0x311F DUP10 DUP3 DUP11 ADD PUSH2 0x301D JUMP JUMPDEST SWAP2 POP POP SWAP3 SWAP6 POP SWAP3 SWAP6 POP SWAP3 SWAP6 JUMP JUMPDEST PUSH1 0x0 DUP2 MLOAD SWAP1 POP SWAP2 SWAP1 POP JUMP JUMPDEST PUSH1 0x0 DUP3 DUP3 MSTORE PUSH1 0x20 DUP3 ADD SWAP1 POP SWAP3 SWAP2 POP POP JUMP JUMPDEST PUSH1 0x0 DUP2 SWAP1 POP PUSH1 0x20 DUP3 ADD SWAP1 POP SWAP2 SWAP1 POP JUMP JUMPDEST PUSH2 0x3161 DUP2 PUSH2 0x2BB1 JUMP JUMPDEST DUP3 MSTORE POP POP JUMP JUMPDEST PUSH1 0x0 DUP3 DUP3 MSTORE PUSH1 0x20 DUP3 ADD SWAP1 POP SWAP3 SWAP2 POP POP JUMP JUMPDEST PUSH1 0x0 PUSH2 0x3183 DUP3 PUSH2 0x2AFF JUMP JUMPDEST PUSH2 0x318D DUP2 DUP6 PUSH2 0x3167 JUMP JUMPDEST SWAP4 POP PUSH2 0x319D DUP2 DUP6 PUSH1 0x20 DUP7 ADD PUSH2 0x2B1B JUMP JUMPDEST PUSH2 0x31A6 DUP2 PUSH2 0x2B45 JUMP JUMPDEST DUP5 ADD SWAP2 POP POP SWAP3 SWAP2 POP POP JUMP JUMPDEST PUSH2 0x31BA DUP2 PUSH2 0x2C34 JUMP JUMPDEST DUP3 MSTORE POP POP JUMP JUMPDEST PUSH2 0x31C9 DUP2 PUSH2 0x2AC9 JUMP JUMPDEST DUP3 MSTORE POP POP JUMP JUMPDEST PUSH1 0x0 PUSH2 0x140 DUP4 ADD PUSH1 0x0 DUP4 ADD MLOAD PUSH2 0x31E8 PUSH1 0x0 DUP7 ADD DUP3 PUSH2 0x3158 JUMP JUMPDEST POP PUSH1 0x20 DUP4 ADD MLOAD DUP5 DUP3 SUB PUSH1 0x20 DUP7 ADD MSTORE PUSH2 0x3200 DUP3 DUP3 PUSH2 0x3178 JUMP JUMPDEST SWAP2 POP POP PUSH1 0x40 DUP4 ADD MLOAD DUP5 DUP3 SUB PUSH1 0x40 DUP7 ADD MSTORE PUSH2 0x321A DUP3 DUP3 PUSH2 0x3178 JUMP JUMPDEST SWAP2 POP POP PUSH1 0x60 DUP4 ADD MLOAD PUSH2 0x322F PUSH1 0x60 DUP7 ADD DUP3 PUSH2 0x31B1 JUMP JUMPDEST POP PUSH1 0x80 DUP4 ADD MLOAD PUSH2 0x3242 PUSH1 0x80 DUP7 ADD DUP3 PUSH2 0x3158 JUMP JUMPDEST POP PUSH1 0xA0 DUP4 ADD MLOAD PUSH2 0x3255 PUSH1 0xA0 DUP7 ADD DUP3 PUSH2 0x3158 JUMP JUMPDEST POP PUSH1 0xC0 DUP4 ADD MLOAD PUSH2 0x3268 PUSH1 0xC0 DUP7 ADD DUP3 PUSH2 0x3158 JUMP JUMPDEST POP PUSH1 0xE0 DUP4 ADD MLOAD PUSH2 0x327B PUSH1 0xE0 DUP7 ADD DUP3 PUSH2 0x3158 JUMP JUMPDEST POP PUSH2 0x100 DUP4 ADD MLOAD DUP5 DUP3 SUB PUSH2 0x100 DUP7 ADD MSTORE PUSH2 0x3295 DUP3 DUP3 PUSH2 0x3178 JUMP JUMPDEST SWAP2 POP POP PUSH2 0x120 DUP4 ADD MLOAD PUSH2 0x32AC PUSH2 0x120 DUP7 ADD DUP3 PUSH2 0x31C0 JUMP JUMPDEST POP DUP1 SWAP2 POP POP SWAP3 SWAP2 POP POP JUMP JUMPDEST PUSH1 0x0 PUSH2 0x32C3 DUP4 DUP4 PUSH2 0x31CF JUMP JUMPDEST SWAP1 POP SWAP3 SWAP2 POP POP JUMP JUMPDEST PUSH1 0x0 PUSH1 0x20 DUP3 ADD SWAP1 POP SWAP2 SWAP1 POP JUMP JUMPDEST PUSH1 0x0 PUSH2 0x32E3 DUP3 PUSH2 0x312C JUMP JUMPDEST PUSH2 0x32ED DUP2 DUP6 PUSH2 0x3137 JUMP JUMPDEST SWAP4 POP DUP4 PUSH1 0x20 DUP3 MUL DUP6 ADD PUSH2 0x32FF DUP6 PUSH2 0x3148 JUMP JUMPDEST DUP1 PUSH1 0x0 JUMPDEST DUP6 DUP2 LT ISZERO PUSH2 0x333B JUMPI DUP5 DUP5 SUB DUP10 MSTORE DUP2 MLOAD PUSH2 0x331C DUP6 DUP3 PUSH2 0x32B7 JUMP JUMPDEST SWAP5 POP PUSH2 0x3327 DUP4 PUSH2 0x32CB JUMP JUMPDEST SWAP3 POP PUSH1 0x20 DUP11 ADD SWAP10 POP POP PUSH1 0x1 DUP2 ADD SWAP1 POP PUSH2 0x3303 JUMP JUMPDEST POP DUP3 SWAP8 POP DUP8 SWAP6 POP POP POP POP POP POP SWAP3 SWAP2 POP POP JUMP JUMPDEST PUSH1 0x0 PUSH1 0x20 DUP3 ADD SWAP1 POP DUP2 DUP2 SUB PUSH1 0x0 DUP4 ADD MSTORE PUSH2 0x3367 DUP2 DUP5 PUSH2 0x32D8 JUMP JUMPDEST SWAP1 POP SWAP3 SWAP2 POP POP JUMP JUMPDEST PUSH1 0x0 DUP1 PUSH1 0x40 DUP4 DUP6 SUB SLT ISZERO PUSH2 0x3386 JUMPI PUSH2 0x3385 PUSH2 0x2A3A JUMP JUMPDEST JUMPDEST PUSH1 0x0 PUSH2 0x3394 DUP6 DUP3 DUP7 ADD PUSH2 0x2C87 JUMP JUMPDEST SWAP3 POP POP PUSH1 0x20 PUSH2 0x33A5 DUP6 DUP3 DUP7 ADD PUSH2 0x2C87 JUMP JUMPDEST SWAP2 POP POP SWAP3 POP SWAP3 SWAP1 POP JUMP JUMPDEST PUSH32 0x4E487B7100000000000000000000000000000000000000000000000000000000 PUSH1 0x0 MSTORE PUSH1 0x22 PUSH1 0x4 MSTORE PUSH1 0x24 PUSH1 0x0 REVERT JUMPDEST PUSH1 0x0 PUSH1 0x2 DUP3 DIV SWAP1 POP PUSH1 0x1 DUP3 AND DUP1 PUSH2 0x33F6 JUMPI PUSH1 0x7F DUP3 AND SWAP2 POP JUMPDEST PUSH1 0x20 DUP3 LT DUP2 SUB PUSH2 0x3409 JUMPI PUSH2 0x3408 PUSH2 0x33AF JUMP JUMPDEST JUMPDEST POP SWAP2 SWAP1 POP JUMP JUMPDEST PUSH32 0x4552433732313A20617070726F76616C20746F2063757272656E74206F776E65 PUSH1 0x0 DUP3 ADD MSTORE PUSH32 0x7200000000000000000000000000000000000000000000000000000000000000 PUSH1 0x20 DUP3 ADD MSTORE POP JUMP JUMPDEST PUSH1 0x0 PUSH2 0x346B PUSH1 0x21 DUP4 PUSH2 0x2B0A JUMP JUMPDEST SWAP2 POP PUSH2 0x3476 DUP3 PUSH2 0x340F JUMP JUMPDEST PUSH1 0x40 DUP3 ADD SWAP1 POP SWAP2 SWAP1 POP JUMP JUMPDEST PUSH1 0x0 PUSH1 0x20 DUP3 ADD SWAP1 POP DUP2 DUP2 SUB PUSH1 0x0 DUP4 ADD MSTORE PUSH2 0x349A DUP2 PUSH2 0x345E JUMP JUMPDEST SWAP1 POP SWAP2 SWAP1 POP JUMP JUMPDEST PUSH32 0x4552433732313A20617070726F76652063616C6C6572206973206E6F7420746F PUSH1 0x0 DUP3 ADD MSTORE PUSH32 0x6B656E206F776E6572206F7220617070726F76656420666F7220616C6C000000 PUSH1 0x20 DUP3 ADD MSTORE POP JUMP JUMPDEST PUSH1 0x0 PUSH2 0x34FD PUSH1 0x3D DUP4 PUSH2 0x2B0A JUMP JUMPDEST SWAP2 POP PUSH2 0x3508 DUP3 PUSH2 0x34A1 JUMP JUMPDEST PUSH1 0x40 DUP3 ADD SWAP1 POP SWAP2 SWAP1 POP JUMP JUMPDEST PUSH1 0x0 PUSH1 0x20 DUP3 ADD SWAP1 POP DUP2 DUP2 SUB PUSH1 0x0 DUP4 ADD MSTORE PUSH2 0x352C DUP2 PUSH2 0x34F0 JUMP JUMPDEST SWAP1 POP SWAP2 SWAP1 POP JUMP JUMPDEST PUSH32 0x4552433732313A2063616C6C6572206973206E6F7420746F6B656E206F776E65 PUSH1 0x0 DUP3 ADD MSTORE PUSH32 0x72206F7220617070726F76656400000000000000000000000000000000000000 PUSH1 0x20 DUP3 ADD MSTORE POP JUMP JUMPDEST PUSH1 0x0 PUSH2 0x358F PUSH1 0x2D DUP4 PUSH2 0x2B0A JUMP JUMPDEST SWAP2 POP PUSH2 0x359A DUP3 PUSH2 0x3533 JUMP JUMPDEST PUSH1 0x40 DUP3 ADD SWAP1 POP SWAP2 SWAP1 POP JUMP JUMPDEST PUSH1 0x0 PUSH1 0x20 DUP3 ADD SWAP1 POP DUP2 DUP2 SUB PUSH1 0x0 DUP4 ADD MSTORE PUSH2 0x35BE DUP2 PUSH2 0x3582 JUMP JUMPDEST SWAP1 POP SWAP2 SWAP1 POP JUMP JUMPDEST PUSH32 0x4E487B7100000000000000000000000000000000000000000000000000000000 PUSH1 0x0 MSTORE PUSH1 0x32 PUSH1 0x4 MSTORE PUSH1 0x24 PUSH1 0x0 REVERT JUMPDEST PUSH32 0x4E4654206973206E6F7420666F722073616C6500000000000000000000000000 PUSH1 0x0 DUP3 ADD MSTORE POP JUMP JUMPDEST PUSH1 0x0 PUSH2 0x362A PUSH1 0x13 DUP4 PUSH2 0x2B0A JUMP JUMPDEST SWAP2 POP PUSH2 0x3635 DUP3 PUSH2 0x35F4 JUMP JUMPDEST PUSH1 0x20 DUP3 ADD SWAP1 POP SWAP2 SWAP1 POP JUMP JUMPDEST PUSH1 0x0 PUSH1 0x20 DUP3 ADD SWAP1 POP DUP2 DUP2 SUB PUSH1 0x0 DUP4 ADD MSTORE PUSH2 0x3659 DUP2 PUSH2 0x361D JUMP JUMPDEST SWAP1 POP SWAP2 SWAP1 POP JUMP JUMPDEST PUSH32 0x496E636F7272656374207061796D656E7420616D6F756E740000000000000000 PUSH1 0x0 DUP3 ADD MSTORE POP JUMP JUMPDEST PUSH1 0x0 PUSH2 0x3696 PUSH1 0x18 DUP4 PUSH2 0x2B0A JUMP JUMPDEST SWAP2 POP PUSH2 0x36A1 DUP3 PUSH2 0x3660 JUMP JUMPDEST PUSH1 0x20 DUP3 ADD SWAP1 POP SWAP2 SWAP1 POP JUMP JUMPDEST PUSH1 0x0 PUSH1 0x20 DUP3 ADD SWAP1 POP DUP2 DUP2 SUB PUSH1 0x0 DUP4 ADD MSTORE PUSH2 0x36C5 DUP2 PUSH2 0x3689 JUMP JUMPDEST SWAP1 POP SWAP2 SWAP1 POP JUMP JUMPDEST PUSH32 0x4F776E65722063616E27742073656C6C204E465420666F722068696D73656C66 PUSH1 0x0 DUP3 ADD MSTORE POP JUMP JUMPDEST PUSH1 0x0 PUSH2 0x3702 PUSH1 0x20 DUP4 PUSH2 0x2B0A JUMP JUMPDEST SWAP2 POP PUSH2 0x370D DUP3 PUSH2 0x36CC JUMP JUMPDEST PUSH1 0x20 DUP3 ADD SWAP1 POP SWAP2 SWAP1 POP JUMP JUMPDEST PUSH1 0x0 PUSH1 0x20 DUP3 ADD SWAP1 POP DUP2 DUP2 SUB PUSH1 0x0 DUP4 ADD MSTORE PUSH2 0x3731 DUP2 PUSH2 0x36F5 JUMP JUMPDEST SWAP1 POP SWAP2 SWAP1 POP JUMP JUMPDEST PUSH32 0x4552433732313A20696E76616C696420746F6B656E2049440000000000000000 PUSH1 0x0 DUP3 ADD MSTORE POP JUMP JUMPDEST PUSH1 0x0 PUSH2 0x376E PUSH1 0x18 DUP4 PUSH2 0x2B0A JUMP JUMPDEST SWAP2 POP PUSH2 0x3779 DUP3 PUSH2 0x3738 JUMP JUMPDEST PUSH1 0x20 DUP3 ADD SWAP1 POP SWAP2 SWAP1 POP JUMP JUMPDEST PUSH1 0x0 PUSH1 0x20 DUP3 ADD SWAP1 POP DUP2 DUP2 SUB PUSH1 0x0 DUP4 ADD MSTORE PUSH2 0x379D DUP2 PUSH2 0x3761 JUMP JUMPDEST SWAP1 POP SWAP2 SWAP1 POP JUMP JUMPDEST PUSH32 0x4552433732313A2061646472657373207A65726F206973206E6F742061207661 PUSH1 0x0 DUP3 ADD MSTORE PUSH32 0x6C6964206F776E65720000000000000000000000000000000000000000000000 PUSH1 0x20 DUP3 ADD MSTORE POP JUMP JUMPDEST PUSH1 0x0 PUSH2 0x3800 PUSH1 0x29 DUP4 PUSH2 0x2B0A JUMP JUMPDEST SWAP2 POP PUSH2 0x380B DUP3 PUSH2 0x37A4 JUMP JUMPDEST PUSH1 0x40 DUP3 ADD SWAP1 POP SWAP2 SWAP1 POP JUMP JUMPDEST PUSH1 0x0 PUSH1 0x20 DUP3 ADD SWAP1 POP DUP2 DUP2 SUB PUSH1 0x0 DUP4 ADD MSTORE PUSH2 0x382F DUP2 PUSH2 0x37F3 JUMP JUMPDEST SWAP1 POP SWAP2 SWAP1 POP JUMP JUMPDEST PUSH32 0x496E76616C696420746F6B656E20494400000000000000000000000000000000 PUSH1 0x0 DUP3 ADD MSTORE POP JUMP JUMPDEST PUSH1 0x0 PUSH2 0x386C PUSH1 0x10 DUP4 PUSH2 0x2B0A JUMP JUMPDEST SWAP2 POP PUSH2 0x3877 DUP3 PUSH2 0x3836 JUMP JUMPDEST PUSH1 0x20 DUP3 ADD SWAP1 POP SWAP2 SWAP1 POP JUMP JUMPDEST PUSH1 0x0 PUSH1 0x20 DUP3 ADD SWAP1 POP DUP2 DUP2 SUB PUSH1 0x0 DUP4 ADD MSTORE PUSH2 0x389B DUP2 PUSH2 0x385F JUMP JUMPDEST SWAP1 POP SWAP2 SWAP1 POP JUMP JUMPDEST PUSH1 0x0 DUP2 SWAP1 POP DUP2 PUSH1 0x0 MSTORE PUSH1 0x20 PUSH1 0x0 KECCAK256 SWAP1 POP SWAP2 SWAP1 POP JUMP JUMPDEST PUSH1 0x0 PUSH1 0x20 PUSH1 0x1F DUP4 ADD DIV SWAP1 POP SWAP2 SWAP1 POP JUMP JUMPDEST PUSH1 0x0 DUP3 DUP3 SHL SWAP1 POP SWAP3 SWAP2 POP POP JUMP JUMPDEST PUSH1 0x0 PUSH1 0x8 DUP4 MUL PUSH2 0x3904 PUSH32 0xFFFFFFFFFFFFFFFFFFFFFFFFFFFFFFFFFFFFFFFFFFFFFFFFFFFFFFFFFFFFFFFF DUP3 PUSH2 0x38C7 JUMP JUMPDEST PUSH2 0x390E DUP7 DUP4 PUSH2 0x38C7 JUMP JUMPDEST SWAP6 POP DUP1 NOT DUP5 AND SWAP4 POP DUP1 DUP7 AND DUP5 OR SWAP3 POP POP POP SWAP4 SWAP3 POP POP POP JUMP JUMPDEST PUSH1 0x0 DUP2 SWAP1 POP SWAP2 SWAP1 POP JUMP JUMPDEST PUSH1 0x0 PUSH2 0x394B PUSH2 0x3946 PUSH2 0x3941 DUP5 PUSH2 0x2BB1 JUMP JUMPDEST PUSH2 0x3926 JUMP JUMPDEST PUSH2 0x2BB1 JUMP JUMPDEST SWAP1 POP SWAP2 SWAP1 POP JUMP JUMPDEST PUSH1 0x0 DUP2 SWAP1 POP SWAP2 SWAP1 POP JUMP JUMPDEST PUSH2 0x3965 DUP4 PUSH2 0x3930 JUMP JUMPDEST PUSH2 0x3979 PUSH2 0x3971 DUP3 PUSH2 0x3952 JUMP JUMPDEST DUP5 DUP5 SLOAD PUSH2 0x38D4 JUMP JUMPDEST DUP3 SSTORE POP POP POP POP JUMP JUMPDEST PUSH1 0x0 SWAP1 JUMP JUMPDEST PUSH2 0x398E PUSH2 0x3981 JUMP JUMPDEST PUSH2 0x3999 DUP2 DUP5 DUP5 PUSH2 0x395C JUMP JUMPDEST POP POP POP JUMP JUMPDEST JUMPDEST DUP2 DUP2 LT ISZERO PUSH2 0x39BD JUMPI PUSH2 0x39B2 PUSH1 0x0 DUP3 PUSH2 0x3986 JUMP JUMPDEST PUSH1 0x1 DUP2 ADD SWAP1 POP PUSH2 0x399F JUMP JUMPDEST POP POP JUMP JUMPDEST PUSH1 0x1F DUP3 GT ISZERO PUSH2 0x3A02 JUMPI PUSH2 0x39D3 DUP2 PUSH2 0x38A2 JUMP JUMPDEST PUSH2 0x39DC DUP5 PUSH2 0x38B7 JUMP JUMPDEST DUP2 ADD PUSH1 0x20 DUP6 LT ISZERO PUSH2 0x39EB JUMPI DUP2 SWAP1 POP JUMPDEST PUSH2 0x39FF PUSH2 0x39F7 DUP6 PUSH2 0x38B7 JUMP JUMPDEST DUP4 ADD DUP3 PUSH2 0x399E JUMP JUMPDEST POP POP JUMPDEST POP POP POP JUMP JUMPDEST PUSH1 0x0 DUP3 DUP3 SHR SWAP1 POP SWAP3 SWAP2 POP POP JUMP JUMPDEST PUSH1 0x0 PUSH2 0x3A25 PUSH1 0x0 NOT DUP5 PUSH1 0x8 MUL PUSH2 0x3A07 JUMP JUMPDEST NOT DUP1 DUP4 AND SWAP2 POP POP SWAP3 SWAP2 POP POP JUMP JUMPDEST PUSH1 0x0 PUSH2 0x3A3E DUP4 DUP4 PUSH2 0x3A14 JUMP JUMPDEST SWAP2 POP DUP3 PUSH1 0x2 MUL DUP3 OR SWAP1 POP SWAP3 SWAP2 POP POP JUMP JUMPDEST PUSH2 0x3A57 DUP3 PUSH2 0x2AFF JUMP JUMPDEST PUSH8 0xFFFFFFFFFFFFFFFF DUP2 GT ISZERO PUSH2 0x3A70 JUMPI PUSH2 0x3A6F PUSH2 0x2DFC JUMP JUMPDEST JUMPDEST PUSH2 0x3A7A DUP3 SLOAD PUSH2 0x33DE JUMP JUMPDEST PUSH2 0x3A85 DUP3 DUP3 DUP6 PUSH2 0x39C1 JUMP JUMPDEST PUSH1 0x0 PUSH1 0x20 SWAP1 POP PUSH1 0x1F DUP4 GT PUSH1 0x1 DUP2 EQ PUSH2 0x3AB8 JUMPI PUSH1 0x0 DUP5 ISZERO PUSH2 0x3AA6 JUMPI DUP3 DUP8 ADD MLOAD SWAP1 POP JUMPDEST PUSH2 0x3AB0 DUP6 DUP3 PUSH2 0x3A32 JUMP JUMPDEST DUP7 SSTORE POP PUSH2 0x3B18 JUMP JUMPDEST PUSH1 0x1F NOT DUP5 AND PUSH2 0x3AC6 DUP7 PUSH2 0x38A2 JUMP JUMPDEST PUSH1 0x0 JUMPDEST DUP3 DUP2 LT ISZERO PUSH2 0x3AEE JUMPI DUP5 DUP10 ADD MLOAD DUP3 SSTORE PUSH1 0x1 DUP3 ADD SWAP2 POP PUSH1 0x20 DUP6 ADD SWAP5 POP PUSH1 0x20 DUP2 ADD SWAP1 POP PUSH2 0x3AC9 JUMP JUMPDEST DUP7 DUP4 LT ISZERO PUSH2 0x3B0B JUMPI DUP5 DUP10 ADD MLOAD PUSH2 0x3B07 PUSH1 0x1F DUP10 AND DUP3 PUSH2 0x3A14 JUMP JUMPDEST DUP4 SSTORE POP JUMPDEST PUSH1 0x1 PUSH1 0x2 DUP9 MUL ADD DUP9 SSTORE POP POP POP JUMPDEST POP POP POP POP POP POP JUMP JUMPDEST PUSH32 0x4E487B7100000000000000000000000000000000000000000000000000000000 PUSH1 0x0 MSTORE PUSH1 0x11 PUSH1 0x4 MSTORE PUSH1 0x24 PUSH1 0x0 REVERT JUMPDEST PUSH1 0x0 PUSH2 0x3B5A DUP3 PUSH2 0x2BB1 JUMP JUMPDEST SWAP2 POP PUSH32 0xFFFFFFFFFFFFFFFFFFFFFFFFFFFFFFFFFFFFFFFFFFFFFFFFFFFFFFFFFFFFFFFF DUP3 SUB PUSH2 0x3B8C JUMPI PUSH2 0x3B8B PUSH2 0x3B20 JUMP JUMPDEST JUMPDEST PUSH1 0x1 DUP3 ADD SWAP1 POP SWAP2 SWAP1 POP JUMP JUMPDEST PUSH1 0x0 DUP2 SWAP1 POP SWAP3 SWAP2 POP POP JUMP JUMPDEST PUSH1 0x0 PUSH2 0x3BAD DUP3 PUSH2 0x2AFF JUMP JUMPDEST PUSH2 0x3BB7 DUP2 DUP6 PUSH2 0x3B97 JUMP JUMPDEST SWAP4 POP PUSH2 0x3BC7 DUP2 DUP6 PUSH1 0x20 DUP7 ADD PUSH2 0x2B1B JUMP JUMPDEST DUP1 DUP5 ADD SWAP2 POP POP SWAP3 SWAP2 POP POP JUMP JUMPDEST PUSH1 0x0 PUSH2 0x3BDF DUP3 DUP6 PUSH2 0x3BA2 JUMP JUMPDEST SWAP2 POP PUSH2 0x3BEB DUP3 DUP5 PUSH2 0x3BA2 JUMP JUMPDEST SWAP2 POP DUP2 SWAP1 POP SWAP4 SWAP3 POP POP POP JUMP JUMPDEST PUSH32 0x43616C6C6572206973206E6F74206F776E6572206E6F7220617070726F766564 PUSH1 0x0 DUP3 ADD MSTORE POP JUMP JUMPDEST PUSH1 0x0 PUSH2 0x3C2D PUSH1 0x20 DUP4 PUSH2 0x2B0A JUMP JUMPDEST SWAP2 POP PUSH2 0x3C38 DUP3 PUSH2 0x3BF7 JUMP JUMPDEST PUSH1 0x20 DUP3 ADD SWAP1 POP SWAP2 SWAP1 POP JUMP JUMPDEST PUSH1 0x0 PUSH1 0x20 DUP3 ADD SWAP1 POP DUP2 DUP2 SUB PUSH1 0x0 DUP4 ADD MSTORE PUSH2 0x3C5C DUP2 PUSH2 0x3C20 JUMP JUMPDEST SWAP1 POP SWAP2 SWAP1 POP JUMP JUMPDEST PUSH32 0x4E465420697320616C726561647920666F722073616C65000000000000000000 PUSH1 0x0 DUP3 ADD MSTORE POP JUMP JUMPDEST PUSH1 0x0 PUSH2 0x3C99 PUSH1 0x17 DUP4 PUSH2 0x2B0A JUMP JUMPDEST SWAP2 POP PUSH2 0x3CA4 DUP3 PUSH2 0x3C63 JUMP JUMPDEST PUSH1 0x20 DUP3 ADD SWAP1 POP SWAP2 SWAP1 POP JUMP JUMPDEST PUSH1 0x0 PUSH1 0x20 DUP3 ADD SWAP1 POP DUP2 DUP2 SUB PUSH1 0x0 DUP4 ADD MSTORE PUSH2 0x3CC8 DUP2 PUSH2 0x3C8C JUMP JUMPDEST SWAP1 POP SWAP2 SWAP1 POP JUMP JUMPDEST PUSH32 0x4F776E61626C653A206E6577206F776E657220697320746865207A65726F2061 PUSH1 0x0 DUP3 ADD MSTORE PUSH32 0x6464726573730000000000000000000000000000000000000000000000000000 PUSH1 0x20 DUP3 ADD MSTORE POP JUMP JUMPDEST PUSH1 0x0 PUSH2 0x3D2B PUSH1 0x26 DUP4 PUSH2 0x2B0A JUMP JUMPDEST SWAP2 POP PUSH2 0x3D36 DUP3 PUSH2 0x3CCF JUMP JUMPDEST PUSH1 0x40 DUP3 ADD SWAP1 POP SWAP2 SWAP1 POP JUMP JUMPDEST PUSH1 0x0 PUSH1 0x20 DUP3 ADD SWAP1 POP DUP2 DUP2 SUB PUSH1 0x0 DUP4 ADD MSTORE PUSH2 0x3D5A DUP2 PUSH2 0x3D1E JUMP JUMPDEST SWAP1 POP SWAP2 SWAP1 POP JUMP JUMPDEST PUSH32 0x4552433732313A207472616E736665722066726F6D20696E636F727265637420 PUSH1 0x0 DUP3 ADD MSTORE PUSH32 0x6F776E6572000000000000000000000000000000000000000000000000000000 PUSH1 0x20 DUP3 ADD MSTORE POP JUMP JUMPDEST PUSH1 0x0 PUSH2 0x3DBD PUSH1 0x25 DUP4 PUSH2 0x2B0A JUMP JUMPDEST SWAP2 POP PUSH2 0x3DC8 DUP3 PUSH2 0x3D61 JUMP JUMPDEST PUSH1 0x40 DUP3 ADD SWAP1 POP SWAP2 SWAP1 POP JUMP JUMPDEST PUSH1 0x0 PUSH1 0x20 DUP3 ADD SWAP1 POP DUP2 DUP2 SUB PUSH1 0x0 DUP4 ADD MSTORE PUSH2 0x3DEC DUP2 PUSH2 0x3DB0 JUMP JUMPDEST SWAP1 POP SWAP2 SWAP1 POP JUMP JUMPDEST PUSH32 0x4552433732313A207472616E7366657220746F20746865207A65726F20616464 PUSH1 0x0 DUP3 ADD MSTORE PUSH32 0x7265737300000000000000000000000000000000000000000000000000000000 PUSH1 0x20 DUP3 ADD MSTORE POP JUMP JUMPDEST PUSH1 0x0 PUSH2 0x3E4F PUSH1 0x24 DUP4 PUSH2 0x2B0A JUMP JUMPDEST SWAP2 POP PUSH2 0x3E5A DUP3 PUSH2 0x3DF3 JUMP JUMPDEST PUSH1 0x40 DUP3 ADD SWAP1 POP SWAP2 SWAP1 POP JUMP JUMPDEST PUSH1 0x0 PUSH1 0x20 DUP3 ADD SWAP1 POP DUP2 DUP2 SUB PUSH1 0x0 DUP4 ADD MSTORE PUSH2 0x3E7E DUP2 PUSH2 0x3E42 JUMP JUMPDEST SWAP1 POP SWAP2 SWAP1 POP JUMP JUMPDEST PUSH32 0x4F776E61626C653A2063616C6C6572206973206E6F7420746865206F776E6572 PUSH1 0x0 DUP3 ADD MSTORE POP JUMP JUMPDEST PUSH1 0x0 PUSH2 0x3EBB PUSH1 0x20 DUP4 PUSH2 0x2B0A JUMP JUMPDEST SWAP2 POP PUSH2 0x3EC6 DUP3 PUSH2 0x3E85 JUMP JUMPDEST PUSH1 0x20 DUP3 ADD SWAP1 POP SWAP2 SWAP1 POP JUMP JUMPDEST PUSH1 0x0 PUSH1 0x20 DUP3 ADD SWAP1 POP DUP2 DUP2 SUB PUSH1 0x0 DUP4 ADD MSTORE PUSH2 0x3EEA DUP2 PUSH2 0x3EAE JUMP JUMPDEST SWAP1 POP SWAP2 SWAP1 POP JUMP JUMPDEST PUSH32 0x4552433732313A20617070726F766520746F2063616C6C657200000000000000 PUSH1 0x0 DUP3 ADD MSTORE POP JUMP JUMPDEST PUSH1 0x0 PUSH2 0x3F27 PUSH1 0x19 DUP4 PUSH2 0x2B0A JUMP JUMPDEST SWAP2 POP PUSH2 0x3F32 DUP3 PUSH2 0x3EF1 JUMP JUMPDEST PUSH1 0x20 DUP3 ADD SWAP1 POP SWAP2 SWAP1 POP JUMP JUMPDEST PUSH1 0x0 PUSH1 0x20 DUP3 ADD SWAP1 POP DUP2 DUP2 SUB PUSH1 0x0 DUP4 ADD MSTORE PUSH2 0x3F56 DUP2 PUSH2 0x3F1A JUMP JUMPDEST SWAP1 POP SWAP2 SWAP1 POP JUMP JUMPDEST PUSH32 0x4552433732313A207472616E7366657220746F206E6F6E204552433732315265 PUSH1 0x0 DUP3 ADD MSTORE PUSH32 0x63656976657220696D706C656D656E7465720000000000000000000000000000 PUSH1 0x20 DUP3 ADD MSTORE POP JUMP JUMPDEST PUSH1 0x0 PUSH2 0x3FB9 PUSH1 0x32 DUP4 PUSH2 0x2B0A JUMP JUMPDEST SWAP2 POP PUSH2 0x3FC4 DUP3 PUSH2 0x3F5D JUMP JUMPDEST PUSH1 0x40 DUP3 ADD SWAP1 POP SWAP2 SWAP1 POP JUMP JUMPDEST PUSH1 0x0 PUSH1 0x20 DUP3 ADD SWAP1 POP DUP2 DUP2 SUB PUSH1 0x0 DUP4 ADD MSTORE PUSH2 0x3FE8 DUP2 PUSH2 0x3FAC JUMP JUMPDEST SWAP1 POP SWAP2 SWAP1 POP JUMP JUMPDEST PUSH32 0x4E487B7100000000000000000000000000000000000000000000000000000000 PUSH1 0x0 MSTORE PUSH1 0x12 PUSH1 0x4 MSTORE PUSH1 0x24 PUSH1 0x0 REVERT JUMPDEST PUSH1 0x0 DUP2 MLOAD SWAP1 POP SWAP2 SWAP1 POP JUMP JUMPDEST PUSH1 0x0 DUP3 DUP3 MSTORE PUSH1 0x20 DUP3 ADD SWAP1 POP SWAP3 SWAP2 POP POP JUMP JUMPDEST PUSH1 0x0 PUSH2 0x4045 DUP3 PUSH2 0x401E JUMP JUMPDEST PUSH2 0x404F DUP2 DUP6 PUSH2 0x4029 JUMP JUMPDEST SWAP4 POP PUSH2 0x405F DUP2 DUP6 PUSH1 0x20 DUP7 ADD PUSH2 0x2B1B JUMP JUMPDEST PUSH2 0x4068 DUP2 PUSH2 0x2B45 JUMP JUMPDEST DUP5 ADD SWAP2 POP POP SWAP3 SWAP2 POP POP JUMP JUMPDEST PUSH1 0x0 PUSH1 0x80 DUP3 ADD SWAP1 POP PUSH2 0x4088 PUSH1 0x0 DUP4 ADD DUP8 PUSH2 0x2C46 JUMP JUMPDEST PUSH2 0x4095 PUSH1 0x20 DUP4 ADD DUP7 PUSH2 0x2C46 JUMP JUMPDEST PUSH2 0x40A2 PUSH1 0x40 DUP4 ADD DUP6 PUSH2 0x2D2F JUMP JUMPDEST DUP2 DUP2 SUB PUSH1 0x60 DUP4 ADD MSTORE PUSH2 0x40B4 DUP2 DUP5 PUSH2 0x403A JUMP JUMPDEST SWAP1 POP SWAP6 SWAP5 POP POP POP POP POP JUMP JUMPDEST PUSH1 0x0 DUP2 MLOAD SWAP1 POP PUSH2 0x40CE DUP2 PUSH2 0x2A70 JUMP JUMPDEST SWAP3 SWAP2 POP POP JUMP JUMPDEST PUSH1 0x0 PUSH1 0x20 DUP3 DUP5 SUB SLT ISZERO PUSH2 0x40EA JUMPI PUSH2 0x40E9 PUSH2 0x2A3A JUMP JUMPDEST JUMPDEST PUSH1 0x0 PUSH2 0x40F8 DUP5 DUP3 DUP6 ADD PUSH2 0x40BF JUMP JUMPDEST SWAP2 POP POP SWAP3 SWAP2 POP POP JUMP JUMPDEST PUSH32 0x4552433732313A206D696E7420746F20746865207A65726F2061646472657373 PUSH1 0x0 DUP3 ADD MSTORE POP JUMP JUMPDEST PUSH1 0x0 PUSH2 0x4137 PUSH1 0x20 DUP4 PUSH2 0x2B0A JUMP JUMPDEST SWAP2 POP PUSH2 0x4142 DUP3 PUSH2 0x4101 JUMP JUMPDEST PUSH1 0x20 DUP3 ADD SWAP1 POP SWAP2 SWAP1 POP JUMP JUMPDEST PUSH1 0x0 PUSH1 0x20 DUP3 ADD SWAP1 POP DUP2 DUP2 SUB PUSH1 0x0 DUP4 ADD MSTORE PUSH2 0x4166 DUP2 PUSH2 0x412A JUMP JUMPDEST SWAP1 POP SWAP2 SWAP1 POP JUMP JUMPDEST PUSH32 0x4552433732313A20746F6B656E20616C7265616479206D696E74656400000000 PUSH1 0x0 DUP3 ADD MSTORE POP JUMP JUMPDEST PUSH1 0x0 PUSH2 0x41A3 PUSH1 0x1C DUP4 PUSH2 0x2B0A JUMP JUMPDEST SWAP2 POP PUSH2 0x41AE DUP3 PUSH2 0x416D JUMP JUMPDEST PUSH1 0x20 DUP3 ADD SWAP1 POP SWAP2 SWAP1 POP JUMP JUMPDEST PUSH1 0x0 PUSH1 0x20 DUP3 ADD SWAP1 POP DUP2 DUP2 SUB PUSH1 0x0 DUP4 ADD MSTORE PUSH2 0x41D2 DUP2 PUSH2 0x4196 JUMP JUMPDEST SWAP1 POP SWAP2 SWAP1 POP JUMP INVALID LOG2 PUSH5 0x6970667358 0x22 SLT KECCAK256 0xEC SLOAD 0x24 0xDD 0x27 0xEF PUSH3 0xDA85CE PUSH6 0xA5BA75D976C8 0xCE PUSH32 0x3375EE17E210CC2C5DA4EFBFC664736F6C634300081200330000000000000000 "},"methodIdentifiers":{"_buy(uint256)":"282303b5","_sell(uint256)":"e5d5876d","approve(address,uint256)":"095ea7b3","balanceOf(address)":"70a08231","getAllNFTs()":"e0391b09","getApproved(uint256)":"081812fc","getNFTPrice(uint256)":"92976179","getOwner()":"893d20e8","getOwnerOf(uint256)":"83638710","isApprovedForAll(address,address)":"e985e9c5","mint(string,string,uint256,uint256,uint256,string)":"bf57fafe","name()":"06fdde03","owner()":"8da5cb5b","ownerOf(uint256)":"6352211e","removeFromSell(uint256)":"c395d9cc","renounceOwnership()":"715018a6","safeTransferFrom(address,address,uint256)":"42842e0e","safeTransferFrom(address,address,uint256,bytes)":"b88d4fde","setApprovalForAll(address,bool)":"a22cb465","setDefaultPrice(uint256)":"6d3c7ec5","supportsInterface(bytes4)":"01ffc9a7","symbol()":"95d89b41","tokenURI(uint256)":"c87b56dd","transferFrom(address,address,uint256)":"23b872dd","transferOwnership(address)":"f2fde38b"}}}}}