{"contracts/NFTWheels.sol":{"NFTWheels":{"abi":[{"inputs":[{"internalType":"address","name":"erc20TokenAddress","type":"address"}],"stateMutability":"nonpayable","type":"constructor"},{"anonymous":false,"inputs":[{"indexed":true,"internalType":"address","name":"owner","type":"address"},{"indexed":true,"internalType":"address","name":"approved","type":"address"},{"indexed":true,"internalType":"uint256","name":"tokenId","type":"uint256"}],"name":"Approval","type":"event"},{"anonymous":false,"inputs":[{"indexed":true,"internalType":"address","name":"owner","type":"address"},{"indexed":true,"internalType":"address","name":"operator","type":"address"},{"indexed":false,"internalType":"bool","name":"approved","type":"bool"}],"name":"ApprovalForAll","type":"event"},{"anonymous":false,"inputs":[{"indexed":true,"internalType":"address","name":"previousOwner","type":"address"},{"indexed":true,"internalType":"address","name":"newOwner","type":"address"}],"name":"OwnershipTransferred","type":"event"},{"anonymous":false,"inputs":[{"indexed":true,"internalType":"address","name":"from","type":"address"},{"indexed":true,"internalType":"address","name":"to","type":"address"},{"indexed":true,"internalType":"uint256","name":"tokenId","type":"uint256"}],"name":"Transfer","type":"event"},{"inputs":[{"internalType":"uint256","name":"_tokenId","type":"uint256"}],"name":"_buy","outputs":[],"stateMutability":"payable","type":"function"},{"inputs":[{"internalType":"uint256","name":"_tokenId","type":"uint256"}],"name":"_sell","outputs":[{"internalType":"string","name":"","type":"string"}],"stateMutability":"nonpayable","type":"function"},{"inputs":[{"internalType":"address","name":"to","type":"address"},{"internalType":"uint256","name":"tokenId","type":"uint256"}],"name":"approve","outputs":[],"stateMutability":"nonpayable","type":"function"},{"inputs":[{"internalType":"address","name":"owner","type":"address"}],"name":"balanceOf","outputs":[{"internalType":"uint256","name":"","type":"uint256"}],"stateMutability":"view","type":"function"},{"inputs":[],"name":"getAllNFTs","outputs":[{"components":[{"internalType":"uint256","name":"id","type":"uint256"},{"internalType":"string","name":"name","type":"string"},{"internalType":"address","name":"owner","type":"address"},{"internalType":"uint256","name":"price","type":"uint256"},{"internalType":"string","name":"metadataURI","type":"string"},{"internalType":"bool","name":"isForSale","type":"bool"}],"internalType":"struct NFTWheels.Car[]","name":"","type":"tuple[]"}],"stateMutability":"view","type":"function"},{"inputs":[],"name":"getAllNFTsAvailable","outputs":[{"components":[{"internalType":"uint256","name":"id","type":"uint256"},{"internalType":"string","name":"name","type":"string"},{"internalType":"address","name":"owner","type":"address"},{"internalType":"uint256","name":"price","type":"uint256"},{"internalType":"string","name":"metadataURI","type":"string"},{"internalType":"bool","name":"isForSale","type":"bool"}],"internalType":"struct NFTWheels.Car[]","name":"","type":"tuple[]"}],"stateMutability":"view","type":"function"},{"inputs":[{"internalType":"uint256","name":"tokenId","type":"uint256"}],"name":"getApproved","outputs":[{"internalType":"address","name":"","type":"address"}],"stateMutability":"view","type":"function"},{"inputs":[{"internalType":"uint256","name":"_tokenId","type":"uint256"}],"name":"getNFTPrice","outputs":[{"internalType":"uint256","name":"","type":"uint256"}],"stateMutability":"view","type":"function"},{"inputs":[],"name":"getOwner","outputs":[{"internalType":"address","name":"","type":"address"}],"stateMutability":"view","type":"function"},{"inputs":[{"internalType":"uint256","name":"_tokenId","type":"uint256"}],"name":"getOwnerOf","outputs":[{"internalType":"address","name":"","type":"address"}],"stateMutability":"view","type":"function"},{"inputs":[{"internalType":"address","name":"owner","type":"address"},{"internalType":"address","name":"operator","type":"address"}],"name":"isApprovedForAll","outputs":[{"internalType":"bool","name":"","type":"bool"}],"stateMutability":"view","type":"function"},{"inputs":[{"internalType":"string","name":"name","type":"string"},{"internalType":"uint256","name":"price","type":"uint256"},{"internalType":"string","name":"metadataURI","type":"string"}],"name":"mint","outputs":[],"stateMutability":"nonpayable","type":"function"},{"inputs":[],"name":"name","outputs":[{"internalType":"string","name":"","type":"string"}],"stateMutability":"view","type":"function"},{"inputs":[],"name":"owner","outputs":[{"internalType":"address","name":"","type":"address"}],"stateMutability":"view","type":"function"},{"inputs":[{"internalType":"uint256","name":"tokenId","type":"uint256"}],"name":"ownerOf","outputs":[{"internalType":"address","name":"","type":"address"}],"stateMutability":"view","type":"function"},{"inputs":[{"internalType":"uint256","name":"_tokenId","type":"uint256"}],"name":"removeFromSell","outputs":[],"stateMutability":"nonpayable","type":"function"},{"inputs":[],"name":"renounceOwnership","outputs":[],"stateMutability":"nonpayable","type":"function"},{"inputs":[{"internalType":"address","name":"from","type":"address"},{"internalType":"address","name":"to","type":"address"},{"internalType":"uint256","name":"tokenId","type":"uint256"}],"name":"safeTransferFrom","outputs":[],"stateMutability":"nonpayable","type":"function"},{"inputs":[{"internalType":"address","name":"from","type":"address"},{"internalType":"address","name":"to","type":"address"},{"internalType":"uint256","name":"tokenId","type":"uint256"},{"internalType":"bytes","name":"data","type":"bytes"}],"name":"safeTransferFrom","outputs":[],"stateMutability":"nonpayable","type":"function"},{"inputs":[{"internalType":"address","name":"operator","type":"address"},{"internalType":"bool","name":"approved","type":"bool"}],"name":"setApprovalForAll","outputs":[],"stateMutability":"nonpayable","type":"function"},{"inputs":[{"internalType":"bytes4","name":"interfaceId","type":"bytes4"}],"name":"supportsInterface","outputs":[{"internalType":"bool","name":"","type":"bool"}],"stateMutability":"view","type":"function"},{"inputs":[],"name":"symbol","outputs":[{"internalType":"string","name":"","type":"string"}],"stateMutability":"view","type":"function"},{"inputs":[{"internalType":"uint256","name":"tokenId","type":"uint256"}],"name":"tokenURI","outputs":[{"internalType":"string","name":"","type":"string"}],"stateMutability":"view","type":"function"},{"inputs":[{"internalType":"address","name":"from","type":"address"},{"internalType":"address","name":"to","type":"address"},{"internalType":"uint256","name":"tokenId","type":"uint256"}],"name":"transferFrom","outputs":[],"stateMutability":"nonpayable","type":"function"},{"inputs":[{"internalType":"address","name":"newOwner","type":"address"}],"name":"transferOwnership","outputs":[],"stateMutability":"nonpayable","type":"function"}],"evm":{"bytecode":{"linkReferences":{},"object":"608060405260006008556002600a553480156200001b57600080fd5b5060405162004d7838038062004d78833981810160405281019062000041919062000273565b6040518060400160405280600a81526020017f4e465420576865656c73000000000000000000000000000000000000000000008152506040518060400160405280600481526020017f4e465753000000000000000000000000000000000000000000000000000000008152508160009081620000be91906200051f565b508060019081620000d091906200051f565b505050620000f3620000e76200013b60201b60201c565b6200014360201b60201c565b80600d60006101000a81548173ffffffffffffffffffffffffffffffffffffffff021916908373ffffffffffffffffffffffffffffffffffffffff1602179055505062000606565b600033905090565b6000600760009054906101000a900473ffffffffffffffffffffffffffffffffffffffff16905081600760006101000a81548173ffffffffffffffffffffffffffffffffffffffff021916908373ffffffffffffffffffffffffffffffffffffffff1602179055508173ffffffffffffffffffffffffffffffffffffffff168173ffffffffffffffffffffffffffffffffffffffff167f8be0079c531659141344cd1fd0a4f28419497f9722a3daafe3b4186f6b6457e060405160405180910390a35050565b600080fd5b600073ffffffffffffffffffffffffffffffffffffffff82169050919050565b60006200023b826200020e565b9050919050565b6200024d816200022e565b81146200025957600080fd5b50565b6000815190506200026d8162000242565b92915050565b6000602082840312156200028c576200028b62000209565b5b60006200029c848285016200025c565b91505092915050565b600081519050919050565b7f4e487b7100000000000000000000000000000000000000000000000000000000600052604160045260246000fd5b7f4e487b7100000000000000000000000000000000000000000000000000000000600052602260045260246000fd5b600060028204905060018216806200032757607f821691505b6020821081036200033d576200033c620002df565b5b50919050565b60008190508160005260206000209050919050565b60006020601f8301049050919050565b600082821b905092915050565b600060088302620003a77fffffffffffffffffffffffffffffffffffffffffffffffffffffffffffffffff8262000368565b620003b3868362000368565b95508019841693508086168417925050509392505050565b6000819050919050565b6000819050919050565b600062000400620003fa620003f484620003cb565b620003d5565b620003cb565b9050919050565b6000819050919050565b6200041c83620003df565b620004346200042b8262000407565b84845462000375565b825550505050565b600090565b6200044b6200043c565b6200045881848462000411565b505050565b5b8181101562000480576200047460008262000441565b6001810190506200045e565b5050565b601f821115620004cf57620004998162000343565b620004a48462000358565b81016020851015620004b4578190505b620004cc620004c38562000358565b8301826200045d565b50505b505050565b600082821c905092915050565b6000620004f460001984600802620004d4565b1980831691505092915050565b60006200050f8383620004e1565b9150826002028217905092915050565b6200052a82620002a5565b67ffffffffffffffff811115620005465762000545620002b0565b5b6200055282546200030e565b6200055f82828562000484565b600060209050601f83116001811462000597576000841562000582578287015190505b6200058e858262000501565b865550620005fe565b601f198416620005a78662000343565b60005b82811015620005d157848901518255600182019150602085019450602081019050620005aa565b86831015620005f15784890151620005ed601f891682620004e1565b8355505b6001600288020188555050505b505050505050565b61476280620006166000396000f3fe6080604052600436106101665760003560e01c8063893d20e8116100d1578063c395d9cc1161008a578063e5d5876d11610064578063e5d5876d1461053f578063e985e9c51461057c578063f2fde38b146105b9578063f92ba429146105e257610166565b8063c395d9cc146104ae578063c87b56dd146104d7578063e0391b091461051457610166565b8063893d20e81461039e5780638da5cb5b146103c957806392976179146103f457806395d89b4114610431578063a22cb4651461045c578063b88d4fde1461048557610166565b8063282303b511610123578063282303b51461028b57806342842e0e146102a75780636352211e146102d057806370a082311461030d578063715018a61461034a578063836387101461036157610166565b806301ffc9a71461016b57806306bdc949146101a857806306fdde03146101d1578063081812fc146101fc578063095ea7b31461023957806323b872dd14610262575b600080fd5b34801561017757600080fd5b50610192600480360381019061018d9190612fd7565b61060d565b60405161019f919061301f565b60405180910390f35b3480156101b457600080fd5b506101cf60048036038101906101ca91906131b6565b6106ef565b005b3480156101dd57600080fd5b506101e661090e565b6040516101f391906132c0565b60405180910390f35b34801561020857600080fd5b50610223600480360381019061021e91906132e2565b6109a0565b6040516102309190613350565b60405180910390f35b34801561024557600080fd5b50610260600480360381019061025b9190613397565b6109e6565b005b34801561026e57600080fd5b50610289600480360381019061028491906133d7565b610afd565b005b6102a560048036038101906102a091906132e2565b610b5d565b005b3480156102b357600080fd5b506102ce60048036038101906102c991906133d7565b610df4565b005b3480156102dc57600080fd5b506102f760048036038101906102f291906132e2565b610e14565b6040516103049190613350565b60405180910390f35b34801561031957600080fd5b50610334600480360381019061032f919061342a565b610e9a565b6040516103419190613466565b60405180910390f35b34801561035657600080fd5b5061035f610f51565b005b34801561036d57600080fd5b50610388600480360381019061038391906132e2565b610f65565b6040516103959190613350565b60405180910390f35b3480156103aa57600080fd5b506103b3610f77565b6040516103c09190613350565b60405180910390f35b3480156103d557600080fd5b506103de610f86565b6040516103eb9190613350565b60405180910390f35b34801561040057600080fd5b5061041b600480360381019061041691906132e2565b610fb0565b6040516104289190613466565b60405180910390f35b34801561043d57600080fd5b506104466111d2565b60405161045391906132c0565b60405180910390f35b34801561046857600080fd5b50610483600480360381019061047e91906134ad565b611264565b005b34801561049157600080fd5b506104ac60048036038101906104a7919061358e565b61127a565b005b3480156104ba57600080fd5b506104d560048036038101906104d091906132e2565b6112dc565b005b3480156104e357600080fd5b506104fe60048036038101906104f991906132e2565b61142b565b60405161050b91906132c0565b60405180910390f35b34801561052057600080fd5b5061052961153d565b60405161053691906137da565b60405180910390f35b34801561054b57600080fd5b50610566600480360381019061056191906132e2565b6119bb565b60405161057391906132c0565b60405180910390f35b34801561058857600080fd5b506105a3600480360381019061059e91906137fc565b611b1a565b6040516105b0919061301f565b60405180910390f35b3480156105c557600080fd5b506105e060048036038101906105db919061342a565b611bae565b005b3480156105ee57600080fd5b506105f7611c31565b60405161060491906137da565b60405180910390f35b60007f80ac58cd000000000000000000000000000000000000000000000000000000007bffffffffffffffffffffffffffffffffffffffffffffffffffffffff1916827bffffffffffffffffffffffffffffffffffffffffffffffffffffffff191614806106d857507f5b5e139f000000000000000000000000000000000000000000000000000000007bffffffffffffffffffffffffffffffffffffffffffffffffffffffff1916827bffffffffffffffffffffffffffffffffffffffffffffffffffffffff1916145b806106e857506106e782611f36565b5b9050919050565b6106f7611fa0565b60006040518060c0016040528060085481526020018581526020013373ffffffffffffffffffffffffffffffffffffffff16815260200184815260200183815260200160001515815250905080600b600060085481526020019081526020016000206000820151816000015560208201518160010190816107789190613a48565b5060408201518160020160006101000a81548173ffffffffffffffffffffffffffffffffffffffff021916908373ffffffffffffffffffffffffffffffffffffffff1602179055506060820151816003015560808201518160040190816107df9190613a48565b5060a08201518160050160006101000a81548160ff02191690831515021790555090505061080f3360085461201e565b600981908060018154018082558091505060019003906000526020600020906006020160009091909190915060008201518160000155602082015181600101908161085a9190613a48565b5060408201518160020160006101000a81548173ffffffffffffffffffffffffffffffffffffffff021916908373ffffffffffffffffffffffffffffffffffffffff1602179055506060820151816003015560808201518160040190816108c19190613a48565b5060a08201518160050160006101000a81548160ff02191690831515021790555050506108f06008548361203c565b6008600081548092919061090390613b49565b919050555050505050565b60606000805461091d9061386b565b80601f01602080910402602001604051908101604052809291908181526020018280546109499061386b565b80156109965780601f1061096b57610100808354040283529160200191610996565b820191906000526020600020905b81548152906001019060200180831161097957829003601f168201915b5050505050905090565b60006109ab826120a9565b6004600083815260200190815260200160002060009054906101000a900473ffffffffffffffffffffffffffffffffffffffff169050919050565b60006109f182610e14565b90508073ffffffffffffffffffffffffffffffffffffffff168373ffffffffffffffffffffffffffffffffffffffff1603610a61576040517f08c379a0000000000000000000000000000000000000000000000000000000008152600401610a5890613c03565b60405180910390fd5b8073ffffffffffffffffffffffffffffffffffffffff16610a806120f4565b73ffffffffffffffffffffffffffffffffffffffff161480610aaf5750610aae81610aa96120f4565b611b1a565b5b610aee576040517f08c379a0000000000000000000000000000000000000000000000000000000008152600401610ae590613c95565b60405180910390fd5b610af883836120fc565b505050565b610b0e610b086120f4565b826121b5565b610b4d576040517f08c379a0000000000000000000000000000000000000000000000000000000008152600401610b4490613d27565b60405180910390fd5b610b5883838361224a565b505050565b600060098281548110610b7357610b72613d47565b5b90600052602060002090600602019050600b600083815260200190815260200160002060050160009054906101000a900460ff16610be6576040517f08c379a0000000000000000000000000000000000000000000000000000000008152600401610bdd90613dc2565b60405180910390fd5b600b6000838152602001908152602001600020600301543414610c3e576040517f08c379a0000000000000000000000000000000000000000000000000000000008152600401610c3590613e2e565b60405180910390fd5b6000610c4983610e14565b90508073ffffffffffffffffffffffffffffffffffffffff163373ffffffffffffffffffffffffffffffffffffffff1603610cb9576040517f08c379a0000000000000000000000000000000000000000000000000000000008152600401610cb090613e9a565b60405180910390fd5b610cc481338561224a565b6000600b600085815260200190815260200160002060050160006101000a81548160ff02191690831515021790555033600b600085815260200190815260200160002060020160006101000a81548173ffffffffffffffffffffffffffffffffffffffff021916908373ffffffffffffffffffffffffffffffffffffffff16021790555060008260050160006101000a81548160ff021916908315150217905550338260020160006101000a81548173ffffffffffffffffffffffffffffffffffffffff021916908373ffffffffffffffffffffffffffffffffffffffff1602179055508073ffffffffffffffffffffffffffffffffffffffff166108fc349081150290604051600060405180830381858888f19350505050158015610dee573d6000803e3d6000fd5b50505050565b610e0f8383836040518060200160405280600081525061127a565b505050565b600080610e2083612543565b9050600073ffffffffffffffffffffffffffffffffffffffff168173ffffffffffffffffffffffffffffffffffffffff1603610e91576040517f08c379a0000000000000000000000000000000000000000000000000000000008152600401610e8890613f06565b60405180910390fd5b80915050919050565b60008073ffffffffffffffffffffffffffffffffffffffff168273ffffffffffffffffffffffffffffffffffffffff1603610f0a576040517f08c379a0000000000000000000000000000000000000000000000000000000008152600401610f0190613f98565b60405180910390fd5b600360008373ffffffffffffffffffffffffffffffffffffffff1673ffffffffffffffffffffffffffffffffffffffff168152602001908152602001600020549050919050565b610f59611fa0565b610f636000612580565b565b6000610f7082610e14565b9050919050565b6000610f81610f86565b905090565b6000600760009054906101000a900473ffffffffffffffffffffffffffffffffffffffff16905090565b6000610fbb82612646565b610ffa576040517f08c379a0000000000000000000000000000000000000000000000000000000008152600401610ff190614004565b60405180910390fd5b6000600b60008481526020019081526020016000206040518060c0016040529081600082015481526020016001820180546110349061386b565b80601f01602080910402602001604051908101604052809291908181526020018280546110609061386b565b80156110ad5780601f10611082576101008083540402835291602001916110ad565b820191906000526020600020905b81548152906001019060200180831161109057829003601f168201915b505050505081526020016002820160009054906101000a900473ffffffffffffffffffffffffffffffffffffffff1673ffffffffffffffffffffffffffffffffffffffff1673ffffffffffffffffffffffffffffffffffffffff168152602001600382015481526020016004820180546111269061386b565b80601f01602080910402602001604051908101604052809291908181526020018280546111529061386b565b801561119f5780601f106111745761010080835404028352916020019161119f565b820191906000526020600020905b81548152906001019060200180831161118257829003601f168201915b505050505081526020016005820160009054906101000a900460ff16151515158152505090508060600151915050919050565b6060600180546111e19061386b565b80601f016020809104026020016040519081016040528092919081815260200182805461120d9061386b565b801561125a5780601f1061122f5761010080835404028352916020019161125a565b820191906000526020600020905b81548152906001019060200180831161123d57829003601f168201915b5050505050905090565b61127661126f6120f4565b8383612687565b5050565b61128b6112856120f4565b836121b5565b6112ca576040517f08c379a00000000000000000000000000000000000000000000000000000000081526004016112c190613d27565b60405180910390fd5b6112d6848484846127f3565b50505050565b6112e581610e14565b73ffffffffffffffffffffffffffffffffffffffff16600b600083815260200190815260200160002060020160009054906101000a900473ffffffffffffffffffffffffffffffffffffffff1673ffffffffffffffffffffffffffffffffffffffff161461135257600080fd5b600b600082815260200190815260200160002060050160009054906101000a900460ff166113b5576040517f08c379a00000000000000000000000000000000000000000000000000000000081526004016113ac90613dc2565b60405180910390fd5b6000600b600083815260200190815260200160002060050160006101000a81548160ff0219169083151502179055506000600982815481106113fa576113f9613d47565b5b9060005260206000209060060201905060008160050160006101000a81548160ff0219169083151502179055505050565b6060611436826120a9565b60006006600084815260200190815260200160002080546114569061386b565b80601f01602080910402602001604051908101604052809291908181526020018280546114829061386b565b80156114cf5780601f106114a4576101008083540402835291602001916114cf565b820191906000526020600020905b8154815290600101906020018083116114b257829003601f168201915b5050505050905060006114e061284f565b905060008151036114f5578192505050611538565b60008251111561152a578082604051602001611512929190614060565b60405160208183030381529060405292505050611538565b61153384612866565b925050505b919050565b6060600060085467ffffffffffffffff81111561155d5761155c613055565b5b60405190808252806020026020018201604052801561159657816020015b611583612f1d565b81526020019060019003908161157b5790505b50905060005b6008548110156117b3576000600982815481106115bc576115bb613d47565b5b90600052602060002090600602019050806040518060c0016040529081600082015481526020016001820180546115f29061386b565b80601f016020809104026020016040519081016040528092919081815260200182805461161e9061386b565b801561166b5780601f106116405761010080835404028352916020019161166b565b820191906000526020600020905b81548152906001019060200180831161164e57829003601f168201915b505050505081526020016002820160009054906101000a900473ffffffffffffffffffffffffffffffffffffffff1673ffffffffffffffffffffffffffffffffffffffff1673ffffffffffffffffffffffffffffffffffffffff168152602001600382015481526020016004820180546116e49061386b565b80601f01602080910402602001604051908101604052809291908181526020018280546117109061386b565b801561175d5780601f106117325761010080835404028352916020019161175d565b820191906000526020600020905b81548152906001019060200180831161174057829003601f168201915b505050505081526020016005820160009054906101000a900460ff16151515158152505083838151811061179457611793613d47565b5b60200260200101819052505080806117ab90613b49565b91505061159c565b506009805480602002602001604051908101604052809291908181526020016000905b828210156119b157838290600052602060002090600602016040518060c0016040529081600082015481526020016001820180546118139061386b565b80601f016020809104026020016040519081016040528092919081815260200182805461183f9061386b565b801561188c5780601f106118615761010080835404028352916020019161188c565b820191906000526020600020905b81548152906001019060200180831161186f57829003601f168201915b505050505081526020016002820160009054906101000a900473ffffffffffffffffffffffffffffffffffffffff1673ffffffffffffffffffffffffffffffffffffffff1673ffffffffffffffffffffffffffffffffffffffff168152602001600382015481526020016004820180546119059061386b565b80601f01602080910402602001604051908101604052809291908181526020018280546119319061386b565b801561197e5780601f106119535761010080835404028352916020019161197e565b820191906000526020600020905b81548152906001019060200180831161196157829003601f168201915b505050505081526020016005820160009054906101000a900460ff161515151581525050815260200190600101906117d6565b5050505091505090565b60606119c733836121b5565b611a06576040517f08c379a00000000000000000000000000000000000000000000000000000000081526004016119fd906140d0565b60405180910390fd5b600b600083815260200190815260200160002060050160009054906101000a900460ff1615611a6a576040517f08c379a0000000000000000000000000000000000000000000000000000000008152600401611a619061413c565b60405180910390fd5b6001600b600084815260200190815260200160002060050160006101000a81548160ff021916908315150217905550600060098381548110611aaf57611aae613d47565b5b9060005260206000209060060201905060018160050160006101000a81548160ff0219169083151502179055506040518060400160405280600381526020017f4963690000000000000000000000000000000000000000000000000000000000815250915050919050565b6000600560008473ffffffffffffffffffffffffffffffffffffffff1673ffffffffffffffffffffffffffffffffffffffff16815260200190815260200160002060008373ffffffffffffffffffffffffffffffffffffffff1673ffffffffffffffffffffffffffffffffffffffff16815260200190815260200160002060009054906101000a900460ff16905092915050565b611bb6611fa0565b600073ffffffffffffffffffffffffffffffffffffffff168173ffffffffffffffffffffffffffffffffffffffff1603611c25576040517f08c379a0000000000000000000000000000000000000000000000000000000008152600401611c1c906141ce565b60405180910390fd5b611c2e81612580565b50565b6060600060098054905067ffffffffffffffff811115611c5457611c53613055565b5b604051908082528060200260200182016040528015611c8d57816020015b611c7a612f1d565b815260200190600190039081611c725790505b5090506000611c9a610f86565b905060005b600980549050811015611f2d578173ffffffffffffffffffffffffffffffffffffffff1660098281548110611cd757611cd6613d47565b5b906000526020600020906006020160020160009054906101000a900473ffffffffffffffffffffffffffffffffffffffff1673ffffffffffffffffffffffffffffffffffffffff1603611f195760098181548110611d3857611d37613d47565b5b90600052602060002090600602016040518060c001604052908160008201548152602001600182018054611d6b9061386b565b80601f0160208091040260200160405190810160405280929190818152602001828054611d979061386b565b8015611de45780601f10611db957610100808354040283529160200191611de4565b820191906000526020600020905b815481529060010190602001808311611dc757829003601f168201915b505050505081526020016002820160009054906101000a900473ffffffffffffffffffffffffffffffffffffffff1673ffffffffffffffffffffffffffffffffffffffff1673ffffffffffffffffffffffffffffffffffffffff16815260200160038201548152602001600482018054611e5d9061386b565b80601f0160208091040260200160405190810160405280929190818152602001828054611e899061386b565b8015611ed65780601f10611eab57610100808354040283529160200191611ed6565b820191906000526020600020905b815481529060010190602001808311611eb957829003601f168201915b505050505081526020016005820160009054906101000a900460ff161515151581525050838281518110611f0d57611f0c613d47565b5b60200260200101819052505b600181611f2691906141ee565b9050611c9f565b50819250505090565b60007f01ffc9a7000000000000000000000000000000000000000000000000000000007bffffffffffffffffffffffffffffffffffffffffffffffffffffffff1916827bffffffffffffffffffffffffffffffffffffffffffffffffffffffff1916149050919050565b611fa86120f4565b73ffffffffffffffffffffffffffffffffffffffff16611fc6610f86565b73ffffffffffffffffffffffffffffffffffffffff161461201c576040517f08c379a00000000000000000000000000000000000000000000000000000000081526004016120139061426e565b60405180910390fd5b565b6120388282604051806020016040528060008152506128ce565b5050565b61204582612646565b612084576040517f08c379a000000000000000000000000000000000000000000000000000000000815260040161207b90614300565b60405180910390fd5b806006600084815260200190815260200160002090816120a49190613a48565b505050565b6120b281612646565b6120f1576040517f08c379a00000000000000000000000000000000000000000000000000000000081526004016120e890613f06565b60405180910390fd5b50565b600033905090565b816004600083815260200190815260200160002060006101000a81548173ffffffffffffffffffffffffffffffffffffffff021916908373ffffffffffffffffffffffffffffffffffffffff160217905550808273ffffffffffffffffffffffffffffffffffffffff1661216f83610e14565b73ffffffffffffffffffffffffffffffffffffffff167f8c5be1e5ebec7d5bd14f71427d1e84f3dd0314c0f7b2291e5b200ac8c7c3b92560405160405180910390a45050565b6000806121c183610e14565b90508073ffffffffffffffffffffffffffffffffffffffff168473ffffffffffffffffffffffffffffffffffffffff16148061220357506122028185611b1a565b5b8061224157508373ffffffffffffffffffffffffffffffffffffffff16612229846109a0565b73ffffffffffffffffffffffffffffffffffffffff16145b91505092915050565b8273ffffffffffffffffffffffffffffffffffffffff1661226a82610e14565b73ffffffffffffffffffffffffffffffffffffffff16146122c0576040517f08c379a00000000000000000000000000000000000000000000000000000000081526004016122b790614392565b60405180910390fd5b600073ffffffffffffffffffffffffffffffffffffffff168273ffffffffffffffffffffffffffffffffffffffff160361232f576040517f08c379a000000000000000000000000000000000000000000000000000000000815260040161232690614424565b60405180910390fd5b61233c8383836001612929565b8273ffffffffffffffffffffffffffffffffffffffff1661235c82610e14565b73ffffffffffffffffffffffffffffffffffffffff16146123b2576040517f08c379a00000000000000000000000000000000000000000000000000000000081526004016123a990614392565b60405180910390fd5b6004600082815260200190815260200160002060006101000a81549073ffffffffffffffffffffffffffffffffffffffff02191690556001600360008573ffffffffffffffffffffffffffffffffffffffff1673ffffffffffffffffffffffffffffffffffffffff168152602001908152602001600020600082825403925050819055506001600360008473ffffffffffffffffffffffffffffffffffffffff1673ffffffffffffffffffffffffffffffffffffffff16815260200190815260200160002060008282540192505081905550816002600083815260200190815260200160002060006101000a81548173ffffffffffffffffffffffffffffffffffffffff021916908373ffffffffffffffffffffffffffffffffffffffff160217905550808273ffffffffffffffffffffffffffffffffffffffff168473ffffffffffffffffffffffffffffffffffffffff167fddf252ad1be2c89b69c2b068fc378daa952ba7f163c4a11628f55a4df523b3ef60405160405180910390a461253e838383600161292f565b505050565b60006002600083815260200190815260200160002060009054906101000a900473ffffffffffffffffffffffffffffffffffffffff169050919050565b6000600760009054906101000a900473ffffffffffffffffffffffffffffffffffffffff16905081600760006101000a81548173ffffffffffffffffffffffffffffffffffffffff021916908373ffffffffffffffffffffffffffffffffffffffff1602179055508173ffffffffffffffffffffffffffffffffffffffff168173ffffffffffffffffffffffffffffffffffffffff167f8be0079c531659141344cd1fd0a4f28419497f9722a3daafe3b4186f6b6457e060405160405180910390a35050565b60008073ffffffffffffffffffffffffffffffffffffffff1661266883612543565b73ffffffffffffffffffffffffffffffffffffffff1614159050919050565b8173ffffffffffffffffffffffffffffffffffffffff168373ffffffffffffffffffffffffffffffffffffffff16036126f5576040517f08c379a00000000000000000000000000000000000000000000000000000000081526004016126ec90614490565b60405180910390fd5b80600560008573ffffffffffffffffffffffffffffffffffffffff1673ffffffffffffffffffffffffffffffffffffffff16815260200190815260200160002060008473ffffffffffffffffffffffffffffffffffffffff1673ffffffffffffffffffffffffffffffffffffffff16815260200190815260200160002060006101000a81548160ff0219169083151502179055508173ffffffffffffffffffffffffffffffffffffffff168373ffffffffffffffffffffffffffffffffffffffff167f17307eab39ab6107e8899845ad3d59bd9653f200f220920489ca2b5937696c31836040516127e6919061301f565b60405180910390a3505050565b6127fe84848461224a565b61280a84848484612935565b612849576040517f08c379a000000000000000000000000000000000000000000000000000000000815260040161284090614522565b60405180910390fd5b50505050565b606060405180602001604052806000815250905090565b6060612871826120a9565b600061287b61284f565b9050600081511161289b57604051806020016040528060008152506128c6565b806128a584612abc565b6040516020016128b6929190614060565b6040516020818303038152906040525b915050919050565b6128d88383612b8a565b6128e56000848484612935565b612924576040517f08c379a000000000000000000000000000000000000000000000000000000000815260040161291b90614522565b60405180910390fd5b505050565b50505050565b50505050565b60006129568473ffffffffffffffffffffffffffffffffffffffff16612da7565b15612aaf578373ffffffffffffffffffffffffffffffffffffffff1663150b7a0261297f6120f4565b8786866040518563ffffffff1660e01b81526004016129a19493929190614597565b6020604051808303816000875af19250505080156129dd57506040513d601f19601f820116820180604052508101906129da91906145f8565b60015b612a5f573d8060008114612a0d576040519150601f19603f3d011682016040523d82523d6000602084013e612a12565b606091505b506000815103612a57576040517f08c379a0000000000000000000000000000000000000000000000000000000008152600401612a4e90614522565b60405180910390fd5b805181602001fd5b63150b7a0260e01b7bffffffffffffffffffffffffffffffffffffffffffffffffffffffff1916817bffffffffffffffffffffffffffffffffffffffffffffffffffffffff191614915050612ab4565b600190505b949350505050565b606060006001612acb84612dca565b01905060008167ffffffffffffffff811115612aea57612ae9613055565b5b6040519080825280601f01601f191660200182016040528015612b1c5781602001600182028036833780820191505090505b509050600082602001820190505b600115612b7f578080600190039150507f3031323334353637383961626364656600000000000000000000000000000000600a86061a8153600a8581612b7357612b72614625565b5b04945060008503612b2a575b819350505050919050565b600073ffffffffffffffffffffffffffffffffffffffff168273ffffffffffffffffffffffffffffffffffffffff1603612bf9576040517f08c379a0000000000000000000000000000000000000000000000000000000008152600401612bf0906146a0565b60405180910390fd5b612c0281612646565b15612c42576040517f08c379a0000000000000000000000000000000000000000000000000000000008152600401612c399061470c565b60405180910390fd5b612c50600083836001612929565b612c5981612646565b15612c99576040517f08c379a0000000000000000000000000000000000000000000000000000000008152600401612c909061470c565b60405180910390fd5b6001600360008473ffffffffffffffffffffffffffffffffffffffff1673ffffffffffffffffffffffffffffffffffffffff16815260200190815260200160002060008282540192505081905550816002600083815260200190815260200160002060006101000a81548173ffffffffffffffffffffffffffffffffffffffff021916908373ffffffffffffffffffffffffffffffffffffffff160217905550808273ffffffffffffffffffffffffffffffffffffffff16600073ffffffffffffffffffffffffffffffffffffffff167fddf252ad1be2c89b69c2b068fc378daa952ba7f163c4a11628f55a4df523b3ef60405160405180910390a4612da360008383600161292f565b5050565b6000808273ffffffffffffffffffffffffffffffffffffffff163b119050919050565b600080600090507a184f03e93ff9f4daa797ed6e38ed64bf6a1f0100000000000000008310612e28577a184f03e93ff9f4daa797ed6e38ed64bf6a1f0100000000000000008381612e1e57612e1d614625565b5b0492506040810190505b6d04ee2d6d415b85acef81000000008310612e65576d04ee2d6d415b85acef81000000008381612e5b57612e5a614625565b5b0492506020810190505b662386f26fc100008310612e9457662386f26fc100008381612e8a57612e89614625565b5b0492506010810190505b6305f5e1008310612ebd576305f5e1008381612eb357612eb2614625565b5b0492506008810190505b6127108310612ee2576127108381612ed857612ed7614625565b5b0492506004810190505b60648310612f055760648381612efb57612efa614625565b5b0492506002810190505b600a8310612f14576001810190505b80915050919050565b6040518060c001604052806000815260200160608152602001600073ffffffffffffffffffffffffffffffffffffffff16815260200160008152602001606081526020016000151581525090565b6000604051905090565b600080fd5b600080fd5b60007fffffffff0000000000000000000000000000000000000000000000000000000082169050919050565b612fb481612f7f565b8114612fbf57600080fd5b50565b600081359050612fd181612fab565b92915050565b600060208284031215612fed57612fec612f75565b5b6000612ffb84828501612fc2565b91505092915050565b60008115159050919050565b61301981613004565b82525050565b60006020820190506130346000830184613010565b92915050565b600080fd5b600080fd5b6000601f19601f8301169050919050565b7f4e487b7100000000000000000000000000000000000000000000000000000000600052604160045260246000fd5b61308d82613044565b810181811067ffffffffffffffff821117156130ac576130ab613055565b5b80604052505050565b60006130bf612f6b565b90506130cb8282613084565b919050565b600067ffffffffffffffff8211156130eb576130ea613055565b5b6130f482613044565b9050602081019050919050565b82818337600083830152505050565b600061312361311e846130d0565b6130b5565b90508281526020810184848401111561313f5761313e61303f565b5b61314a848285613101565b509392505050565b600082601f8301126131675761316661303a565b5b8135613177848260208601613110565b91505092915050565b6000819050919050565b61319381613180565b811461319e57600080fd5b50565b6000813590506131b08161318a565b92915050565b6000806000606084860312156131cf576131ce612f75565b5b600084013567ffffffffffffffff8111156131ed576131ec612f7a565b5b6131f986828701613152565b935050602061320a868287016131a1565b925050604084013567ffffffffffffffff81111561322b5761322a612f7a565b5b61323786828701613152565b9150509250925092565b600081519050919050565b600082825260208201905092915050565b60005b8381101561327b578082015181840152602081019050613260565b60008484015250505050565b600061329282613241565b61329c818561324c565b93506132ac81856020860161325d565b6132b581613044565b840191505092915050565b600060208201905081810360008301526132da8184613287565b905092915050565b6000602082840312156132f8576132f7612f75565b5b6000613306848285016131a1565b91505092915050565b600073ffffffffffffffffffffffffffffffffffffffff82169050919050565b600061333a8261330f565b9050919050565b61334a8161332f565b82525050565b60006020820190506133656000830184613341565b92915050565b6133748161332f565b811461337f57600080fd5b50565b6000813590506133918161336b565b92915050565b600080604083850312156133ae576133ad612f75565b5b60006133bc85828601613382565b92505060206133cd858286016131a1565b9150509250929050565b6000806000606084860312156133f0576133ef612f75565b5b60006133fe86828701613382565b935050602061340f86828701613382565b9250506040613420868287016131a1565b9150509250925092565b6000602082840312156134405761343f612f75565b5b600061344e84828501613382565b91505092915050565b61346081613180565b82525050565b600060208201905061347b6000830184613457565b92915050565b61348a81613004565b811461349557600080fd5b50565b6000813590506134a781613481565b92915050565b600080604083850312156134c4576134c3612f75565b5b60006134d285828601613382565b92505060206134e385828601613498565b9150509250929050565b600067ffffffffffffffff82111561350857613507613055565b5b61351182613044565b9050602081019050919050565b600061353161352c846134ed565b6130b5565b90508281526020810184848401111561354d5761354c61303f565b5b613558848285613101565b509392505050565b600082601f8301126135755761357461303a565b5b813561358584826020860161351e565b91505092915050565b600080600080608085870312156135a8576135a7612f75565b5b60006135b687828801613382565b94505060206135c787828801613382565b93505060406135d8878288016131a1565b925050606085013567ffffffffffffffff8111156135f9576135f8612f7a565b5b61360587828801613560565b91505092959194509250565b600081519050919050565b600082825260208201905092915050565b6000819050602082019050919050565b61364681613180565b82525050565b600082825260208201905092915050565b600061366882613241565b613672818561364c565b935061368281856020860161325d565b61368b81613044565b840191505092915050565b61369f8161332f565b82525050565b6136ae81613004565b82525050565b600060c0830160008301516136cc600086018261363d565b50602083015184820360208601526136e4828261365d565b91505060408301516136f96040860182613696565b50606083015161370c606086018261363d565b5060808301518482036080860152613724828261365d565b91505060a083015161373960a08601826136a5565b508091505092915050565b600061375083836136b4565b905092915050565b6000602082019050919050565b600061377082613611565b61377a818561361c565b93508360208202850161378c8561362d565b8060005b858110156137c857848403895281516137a98582613744565b94506137b483613758565b925060208a01995050600181019050613790565b50829750879550505050505092915050565b600060208201905081810360008301526137f48184613765565b905092915050565b6000806040838503121561381357613812612f75565b5b600061382185828601613382565b925050602061383285828601613382565b9150509250929050565b7f4e487b7100000000000000000000000000000000000000000000000000000000600052602260045260246000fd5b6000600282049050600182168061388357607f821691505b6020821081036138965761389561383c565b5b50919050565b60008190508160005260206000209050919050565b60006020601f8301049050919050565b600082821b905092915050565b6000600883026138fe7fffffffffffffffffffffffffffffffffffffffffffffffffffffffffffffffff826138c1565b61390886836138c1565b95508019841693508086168417925050509392505050565b6000819050919050565b600061394561394061393b84613180565b613920565b613180565b9050919050565b6000819050919050565b61395f8361392a565b61397361396b8261394c565b8484546138ce565b825550505050565b600090565b61398861397b565b613993818484613956565b505050565b5b818110156139b7576139ac600082613980565b600181019050613999565b5050565b601f8211156139fc576139cd8161389c565b6139d6846138b1565b810160208510156139e5578190505b6139f96139f1856138b1565b830182613998565b50505b505050565b600082821c905092915050565b6000613a1f60001984600802613a01565b1980831691505092915050565b6000613a388383613a0e565b9150826002028217905092915050565b613a5182613241565b67ffffffffffffffff811115613a6a57613a69613055565b5b613a74825461386b565b613a7f8282856139bb565b600060209050601f831160018114613ab25760008415613aa0578287015190505b613aaa8582613a2c565b865550613b12565b601f198416613ac08661389c565b60005b82811015613ae857848901518255600182019150602085019450602081019050613ac3565b86831015613b055784890151613b01601f891682613a0e565b8355505b6001600288020188555050505b505050505050565b7f4e487b7100000000000000000000000000000000000000000000000000000000600052601160045260246000fd5b6000613b5482613180565b91507fffffffffffffffffffffffffffffffffffffffffffffffffffffffffffffffff8203613b8657613b85613b1a565b5b600182019050919050565b7f4552433732313a20617070726f76616c20746f2063757272656e74206f776e6560008201527f7200000000000000000000000000000000000000000000000000000000000000602082015250565b6000613bed60218361324c565b9150613bf882613b91565b604082019050919050565b60006020820190508181036000830152613c1c81613be0565b9050919050565b7f4552433732313a20617070726f76652063616c6c6572206973206e6f7420746f60008201527f6b656e206f776e6572206f7220617070726f76656420666f7220616c6c000000602082015250565b6000613c7f603d8361324c565b9150613c8a82613c23565b604082019050919050565b60006020820190508181036000830152613cae81613c72565b9050919050565b7f4552433732313a2063616c6c6572206973206e6f7420746f6b656e206f776e6560008201527f72206f7220617070726f76656400000000000000000000000000000000000000602082015250565b6000613d11602d8361324c565b9150613d1c82613cb5565b604082019050919050565b60006020820190508181036000830152613d4081613d04565b9050919050565b7f4e487b7100000000000000000000000000000000000000000000000000000000600052603260045260246000fd5b7f4e4654206973206e6f7420666f722073616c6500000000000000000000000000600082015250565b6000613dac60138361324c565b9150613db782613d76565b602082019050919050565b60006020820190508181036000830152613ddb81613d9f565b9050919050565b7f496e636f7272656374207061796d656e7420616d6f756e740000000000000000600082015250565b6000613e1860188361324c565b9150613e2382613de2565b602082019050919050565b60006020820190508181036000830152613e4781613e0b565b9050919050565b7f4f776e65722063616e27742073656c6c204e465420666f722068696d73656c66600082015250565b6000613e8460208361324c565b9150613e8f82613e4e565b602082019050919050565b60006020820190508181036000830152613eb381613e77565b9050919050565b7f4552433732313a20696e76616c696420746f6b656e2049440000000000000000600082015250565b6000613ef060188361324c565b9150613efb82613eba565b602082019050919050565b60006020820190508181036000830152613f1f81613ee3565b9050919050565b7f4552433732313a2061646472657373207a65726f206973206e6f74206120766160008201527f6c6964206f776e65720000000000000000000000000000000000000000000000602082015250565b6000613f8260298361324c565b9150613f8d82613f26565b604082019050919050565b60006020820190508181036000830152613fb181613f75565b9050919050565b7f496e76616c696420746f6b656e20494400000000000000000000000000000000600082015250565b6000613fee60108361324c565b9150613ff982613fb8565b602082019050919050565b6000602082019050818103600083015261401d81613fe1565b9050919050565b600081905092915050565b600061403a82613241565b6140448185614024565b935061405481856020860161325d565b80840191505092915050565b600061406c828561402f565b9150614078828461402f565b91508190509392505050565b7f43616c6c6572206973206e6f74206f776e6572206e6f7220617070726f766564600082015250565b60006140ba60208361324c565b91506140c582614084565b602082019050919050565b600060208201905081810360008301526140e9816140ad565b9050919050565b7f4e465420697320616c726561647920666f722073616c65000000000000000000600082015250565b600061412660178361324c565b9150614131826140f0565b602082019050919050565b6000602082019050818103600083015261415581614119565b9050919050565b7f4f776e61626c653a206e6577206f776e657220697320746865207a65726f206160008201527f6464726573730000000000000000000000000000000000000000000000000000602082015250565b60006141b860268361324c565b91506141c38261415c565b604082019050919050565b600060208201905081810360008301526141e7816141ab565b9050919050565b60006141f982613180565b915061420483613180565b925082820190508082111561421c5761421b613b1a565b5b92915050565b7f4f776e61626c653a2063616c6c6572206973206e6f7420746865206f776e6572600082015250565b600061425860208361324c565b915061426382614222565b602082019050919050565b600060208201905081810360008301526142878161424b565b9050919050565b7f45524337323155524953746f726167653a2055524920736574206f66206e6f6e60008201527f6578697374656e7420746f6b656e000000000000000000000000000000000000602082015250565b60006142ea602e8361324c565b91506142f58261428e565b604082019050919050565b60006020820190508181036000830152614319816142dd565b9050919050565b7f4552433732313a207472616e736665722066726f6d20696e636f72726563742060008201527f6f776e6572000000000000000000000000000000000000000000000000000000602082015250565b600061437c60258361324c565b915061438782614320565b604082019050919050565b600060208201905081810360008301526143ab8161436f565b9050919050565b7f4552433732313a207472616e7366657220746f20746865207a65726f2061646460008201527f7265737300000000000000000000000000000000000000000000000000000000602082015250565b600061440e60248361324c565b9150614419826143b2565b604082019050919050565b6000602082019050818103600083015261443d81614401565b9050919050565b7f4552433732313a20617070726f766520746f2063616c6c657200000000000000600082015250565b600061447a60198361324c565b915061448582614444565b602082019050919050565b600060208201905081810360008301526144a98161446d565b9050919050565b7f4552433732313a207472616e7366657220746f206e6f6e20455243373231526560008201527f63656976657220696d706c656d656e7465720000000000000000000000000000602082015250565b600061450c60328361324c565b9150614517826144b0565b604082019050919050565b6000602082019050818103600083015261453b816144ff565b9050919050565b600081519050919050565b600082825260208201905092915050565b600061456982614542565b614573818561454d565b935061458381856020860161325d565b61458c81613044565b840191505092915050565b60006080820190506145ac6000830187613341565b6145b96020830186613341565b6145c66040830185613457565b81810360608301526145d8818461455e565b905095945050505050565b6000815190506145f281612fab565b92915050565b60006020828403121561460e5761460d612f75565b5b600061461c848285016145e3565b91505092915050565b7f4e487b7100000000000000000000000000000000000000000000000000000000600052601260045260246000fd5b7f4552433732313a206d696e7420746f20746865207a65726f2061646472657373600082015250565b600061468a60208361324c565b915061469582614654565b602082019050919050565b600060208201905081810360008301526146b98161467d565b9050919050565b7f4552433732313a20746f6b656e20616c7265616479206d696e74656400000000600082015250565b60006146f6601c8361324c565b9150614701826146c0565b602082019050919050565b60006020820190508181036000830152614725816146e9565b905091905056fea2646970667358221220a08310d3b7e29e92bfab3fba43312b65feb4a66c473357fed1bd5d49a6a2a5da64736f6c63430008120033","opcodes":"PUSH1 0x80 PUSH1 0x40 MSTORE PUSH1 0x0 PUSH1 0x8 SSTORE PUSH1 0x2 PUSH1 0xA SSTORE CALLVALUE DUP1 ISZERO PUSH3 0x1B JUMPI PUSH1 0x0 DUP1 REVERT JUMPDEST POP PUSH1 0x40 MLOAD PUSH3 0x4D78 CODESIZE SUB DUP1 PUSH3 0x4D78 DUP4 CODECOPY DUP2 DUP2 ADD PUSH1 0x40 MSTORE DUP2 ADD SWAP1 PUSH3 0x41 SWAP2 SWAP1 PUSH3 0x273 JUMP JUMPDEST PUSH1 0x40 MLOAD DUP1 PUSH1 0x40 ADD PUSH1 0x40 MSTORE DUP1 PUSH1 0xA DUP2 MSTORE PUSH1 0x20 ADD PUSH32 0x4E465420576865656C7300000000000000000000000000000000000000000000 DUP2 MSTORE POP PUSH1 0x40 MLOAD DUP1 PUSH1 0x40 ADD PUSH1 0x40 MSTORE DUP1 PUSH1 0x4 DUP2 MSTORE PUSH1 0x20 ADD PUSH32 0x4E46575300000000000000000000000000000000000000000000000000000000 DUP2 MSTORE POP DUP2 PUSH1 0x0 SWAP1 DUP2 PUSH3 0xBE SWAP2 SWAP1 PUSH3 0x51F JUMP JUMPDEST POP DUP1 PUSH1 0x1 SWAP1 DUP2 PUSH3 0xD0 SWAP2 SWAP1 PUSH3 0x51F JUMP JUMPDEST POP POP POP PUSH3 0xF3 PUSH3 0xE7 PUSH3 0x13B PUSH1 0x20 SHL PUSH1 0x20 SHR JUMP JUMPDEST PUSH3 0x143 PUSH1 0x20 SHL PUSH1 0x20 SHR JUMP JUMPDEST DUP1 PUSH1 0xD PUSH1 0x0 PUSH2 0x100 EXP DUP2 SLOAD DUP2 PUSH20 0xFFFFFFFFFFFFFFFFFFFFFFFFFFFFFFFFFFFFFFFF MUL NOT AND SWAP1 DUP4 PUSH20 0xFFFFFFFFFFFFFFFFFFFFFFFFFFFFFFFFFFFFFFFF AND MUL OR SWAP1 SSTORE POP POP PUSH3 0x606 JUMP JUMPDEST PUSH1 0x0 CALLER SWAP1 POP SWAP1 JUMP JUMPDEST PUSH1 0x0 PUSH1 0x7 PUSH1 0x0 SWAP1 SLOAD SWAP1 PUSH2 0x100 EXP SWAP1 DIV PUSH20 0xFFFFFFFFFFFFFFFFFFFFFFFFFFFFFFFFFFFFFFFF AND SWAP1 POP DUP2 PUSH1 0x7 PUSH1 0x0 PUSH2 0x100 EXP DUP2 SLOAD DUP2 PUSH20 0xFFFFFFFFFFFFFFFFFFFFFFFFFFFFFFFFFFFFFFFF MUL NOT AND SWAP1 DUP4 PUSH20 0xFFFFFFFFFFFFFFFFFFFFFFFFFFFFFFFFFFFFFFFF AND MUL OR SWAP1 SSTORE POP DUP2 PUSH20 0xFFFFFFFFFFFFFFFFFFFFFFFFFFFFFFFFFFFFFFFF AND DUP2 PUSH20 0xFFFFFFFFFFFFFFFFFFFFFFFFFFFFFFFFFFFFFFFF AND PUSH32 0x8BE0079C531659141344CD1FD0A4F28419497F9722A3DAAFE3B4186F6B6457E0 PUSH1 0x40 MLOAD PUSH1 0x40 MLOAD DUP1 SWAP2 SUB SWAP1 LOG3 POP POP JUMP JUMPDEST PUSH1 0x0 DUP1 REVERT JUMPDEST PUSH1 0x0 PUSH20 0xFFFFFFFFFFFFFFFFFFFFFFFFFFFFFFFFFFFFFFFF DUP3 AND SWAP1 POP SWAP2 SWAP1 POP JUMP JUMPDEST PUSH1 0x0 PUSH3 0x23B DUP3 PUSH3 0x20E JUMP JUMPDEST SWAP1 POP SWAP2 SWAP1 POP JUMP JUMPDEST PUSH3 0x24D DUP2 PUSH3 0x22E JUMP JUMPDEST DUP2 EQ PUSH3 0x259 JUMPI PUSH1 0x0 DUP1 REVERT JUMPDEST POP JUMP JUMPDEST PUSH1 0x0 DUP2 MLOAD SWAP1 POP PUSH3 0x26D DUP2 PUSH3 0x242 JUMP JUMPDEST SWAP3 SWAP2 POP POP JUMP JUMPDEST PUSH1 0x0 PUSH1 0x20 DUP3 DUP5 SUB SLT ISZERO PUSH3 0x28C JUMPI PUSH3 0x28B PUSH3 0x209 JUMP JUMPDEST JUMPDEST PUSH1 0x0 PUSH3 0x29C DUP5 DUP3 DUP6 ADD PUSH3 0x25C JUMP JUMPDEST SWAP2 POP POP SWAP3 SWAP2 POP POP JUMP JUMPDEST PUSH1 0x0 DUP2 MLOAD SWAP1 POP SWAP2 SWAP1 POP JUMP JUMPDEST PUSH32 0x4E487B7100000000000000000000000000000000000000000000000000000000 PUSH1 0x0 MSTORE PUSH1 0x41 PUSH1 0x4 MSTORE PUSH1 0x24 PUSH1 0x0 REVERT JUMPDEST PUSH32 0x4E487B7100000000000000000000000000000000000000000000000000000000 PUSH1 0x0 MSTORE PUSH1 0x22 PUSH1 0x4 MSTORE PUSH1 0x24 PUSH1 0x0 REVERT JUMPDEST PUSH1 0x0 PUSH1 0x2 DUP3 DIV SWAP1 POP PUSH1 0x1 DUP3 AND DUP1 PUSH3 0x327 JUMPI PUSH1 0x7F DUP3 AND SWAP2 POP JUMPDEST PUSH1 0x20 DUP3 LT DUP2 SUB PUSH3 0x33D JUMPI PUSH3 0x33C PUSH3 0x2DF JUMP JUMPDEST JUMPDEST POP SWAP2 SWAP1 POP JUMP JUMPDEST PUSH1 0x0 DUP2 SWAP1 POP DUP2 PUSH1 0x0 MSTORE PUSH1 0x20 PUSH1 0x0 KECCAK256 SWAP1 POP SWAP2 SWAP1 POP JUMP JUMPDEST PUSH1 0x0 PUSH1 0x20 PUSH1 0x1F DUP4 ADD DIV SWAP1 POP SWAP2 SWAP1 POP JUMP JUMPDEST PUSH1 0x0 DUP3 DUP3 SHL SWAP1 POP SWAP3 SWAP2 POP POP JUMP JUMPDEST PUSH1 0x0 PUSH1 0x8 DUP4 MUL PUSH3 0x3A7 PUSH32 0xFFFFFFFFFFFFFFFFFFFFFFFFFFFFFFFFFFFFFFFFFFFFFFFFFFFFFFFFFFFFFFFF DUP3 PUSH3 0x368 JUMP JUMPDEST PUSH3 0x3B3 DUP7 DUP4 PUSH3 0x368 JUMP JUMPDEST SWAP6 POP DUP1 NOT DUP5 AND SWAP4 POP DUP1 DUP7 AND DUP5 OR SWAP3 POP POP POP SWAP4 SWAP3 POP POP POP JUMP JUMPDEST PUSH1 0x0 DUP2 SWAP1 POP SWAP2 SWAP1 POP JUMP JUMPDEST PUSH1 0x0 DUP2 SWAP1 POP SWAP2 SWAP1 POP JUMP JUMPDEST PUSH1 0x0 PUSH3 0x400 PUSH3 0x3FA PUSH3 0x3F4 DUP5 PUSH3 0x3CB JUMP JUMPDEST PUSH3 0x3D5 JUMP JUMPDEST PUSH3 0x3CB JUMP JUMPDEST SWAP1 POP SWAP2 SWAP1 POP JUMP JUMPDEST PUSH1 0x0 DUP2 SWAP1 POP SWAP2 SWAP1 POP JUMP JUMPDEST PUSH3 0x41C DUP4 PUSH3 0x3DF JUMP JUMPDEST PUSH3 0x434 PUSH3 0x42B DUP3 PUSH3 0x407 JUMP JUMPDEST DUP5 DUP5 SLOAD PUSH3 0x375 JUMP JUMPDEST DUP3 SSTORE POP POP POP POP JUMP JUMPDEST PUSH1 0x0 SWAP1 JUMP JUMPDEST PUSH3 0x44B PUSH3 0x43C JUMP JUMPDEST PUSH3 0x458 DUP2 DUP5 DUP5 PUSH3 0x411 JUMP JUMPDEST POP POP POP JUMP JUMPDEST JUMPDEST DUP2 DUP2 LT ISZERO PUSH3 0x480 JUMPI PUSH3 0x474 PUSH1 0x0 DUP3 PUSH3 0x441 JUMP JUMPDEST PUSH1 0x1 DUP2 ADD SWAP1 POP PUSH3 0x45E JUMP JUMPDEST POP POP JUMP JUMPDEST PUSH1 0x1F DUP3 GT ISZERO PUSH3 0x4CF JUMPI PUSH3 0x499 DUP2 PUSH3 0x343 JUMP JUMPDEST PUSH3 0x4A4 DUP5 PUSH3 0x358 JUMP JUMPDEST DUP2 ADD PUSH1 0x20 DUP6 LT ISZERO PUSH3 0x4B4 JUMPI DUP2 SWAP1 POP JUMPDEST PUSH3 0x4CC PUSH3 0x4C3 DUP6 PUSH3 0x358 JUMP JUMPDEST DUP4 ADD DUP3 PUSH3 0x45D JUMP JUMPDEST POP POP JUMPDEST POP POP POP JUMP JUMPDEST PUSH1 0x0 DUP3 DUP3 SHR SWAP1 POP SWAP3 SWAP2 POP POP JUMP JUMPDEST PUSH1 0x0 PUSH3 0x4F4 PUSH1 0x0 NOT DUP5 PUSH1 0x8 MUL PUSH3 0x4D4 JUMP JUMPDEST NOT DUP1 DUP4 AND SWAP2 POP POP SWAP3 SWAP2 POP POP JUMP JUMPDEST PUSH1 0x0 PUSH3 0x50F DUP4 DUP4 PUSH3 0x4E1 JUMP JUMPDEST SWAP2 POP DUP3 PUSH1 0x2 MUL DUP3 OR SWAP1 POP SWAP3 SWAP2 POP POP JUMP JUMPDEST PUSH3 0x52A DUP3 PUSH3 0x2A5 JUMP JUMPDEST PUSH8 0xFFFFFFFFFFFFFFFF DUP2 GT ISZERO PUSH3 0x546 JUMPI PUSH3 0x545 PUSH3 0x2B0 JUMP JUMPDEST JUMPDEST PUSH3 0x552 DUP3 SLOAD PUSH3 0x30E JUMP JUMPDEST PUSH3 0x55F DUP3 DUP3 DUP6 PUSH3 0x484 JUMP JUMPDEST PUSH1 0x0 PUSH1 0x20 SWAP1 POP PUSH1 0x1F DUP4 GT PUSH1 0x1 DUP2 EQ PUSH3 0x597 JUMPI PUSH1 0x0 DUP5 ISZERO PUSH3 0x582 JUMPI DUP3 DUP8 ADD MLOAD SWAP1 POP JUMPDEST PUSH3 0x58E DUP6 DUP3 PUSH3 0x501 JUMP JUMPDEST DUP7 SSTORE POP PUSH3 0x5FE JUMP JUMPDEST PUSH1 0x1F NOT DUP5 AND PUSH3 0x5A7 DUP7 PUSH3 0x343 JUMP JUMPDEST PUSH1 0x0 JUMPDEST DUP3 DUP2 LT ISZERO PUSH3 0x5D1 JUMPI DUP5 DUP10 ADD MLOAD DUP3 SSTORE PUSH1 0x1 DUP3 ADD SWAP2 POP PUSH1 0x20 DUP6 ADD SWAP5 POP PUSH1 0x20 DUP2 ADD SWAP1 POP PUSH3 0x5AA JUMP JUMPDEST DUP7 DUP4 LT ISZERO PUSH3 0x5F1 JUMPI DUP5 DUP10 ADD MLOAD PUSH3 0x5ED PUSH1 0x1F DUP10 AND DUP3 PUSH3 0x4E1 JUMP JUMPDEST DUP4 SSTORE POP JUMPDEST PUSH1 0x1 PUSH1 0x2 DUP9 MUL ADD DUP9 SSTORE POP POP POP JUMPDEST POP POP POP POP POP POP JUMP JUMPDEST PUSH2 0x4762 DUP1 PUSH3 0x616 PUSH1 0x0 CODECOPY PUSH1 0x0 RETURN INVALID PUSH1 0x80 PUSH1 0x40 MSTORE PUSH1 0x4 CALLDATASIZE LT PUSH2 0x166 JUMPI PUSH1 0x0 CALLDATALOAD PUSH1 0xE0 SHR DUP1 PUSH4 0x893D20E8 GT PUSH2 0xD1 JUMPI DUP1 PUSH4 0xC395D9CC GT PUSH2 0x8A JUMPI DUP1 PUSH4 0xE5D5876D GT PUSH2 0x64 JUMPI DUP1 PUSH4 0xE5D5876D EQ PUSH2 0x53F JUMPI DUP1 PUSH4 0xE985E9C5 EQ PUSH2 0x57C JUMPI DUP1 PUSH4 0xF2FDE38B EQ PUSH2 0x5B9 JUMPI DUP1 PUSH4 0xF92BA429 EQ PUSH2 0x5E2 JUMPI PUSH2 0x166 JUMP JUMPDEST DUP1 PUSH4 0xC395D9CC EQ PUSH2 0x4AE JUMPI DUP1 PUSH4 0xC87B56DD EQ PUSH2 0x4D7 JUMPI DUP1 PUSH4 0xE0391B09 EQ PUSH2 0x514 JUMPI PUSH2 0x166 JUMP JUMPDEST DUP1 PUSH4 0x893D20E8 EQ PUSH2 0x39E JUMPI DUP1 PUSH4 0x8DA5CB5B EQ PUSH2 0x3C9 JUMPI DUP1 PUSH4 0x92976179 EQ PUSH2 0x3F4 JUMPI DUP1 PUSH4 0x95D89B41 EQ PUSH2 0x431 JUMPI DUP1 PUSH4 0xA22CB465 EQ PUSH2 0x45C JUMPI DUP1 PUSH4 0xB88D4FDE EQ PUSH2 0x485 JUMPI PUSH2 0x166 JUMP JUMPDEST DUP1 PUSH4 0x282303B5 GT PUSH2 0x123 JUMPI DUP1 PUSH4 0x282303B5 EQ PUSH2 0x28B JUMPI DUP1 PUSH4 0x42842E0E EQ PUSH2 0x2A7 JUMPI DUP1 PUSH4 0x6352211E EQ PUSH2 0x2D0 JUMPI DUP1 PUSH4 0x70A08231 EQ PUSH2 0x30D JUMPI DUP1 PUSH4 0x715018A6 EQ PUSH2 0x34A JUMPI DUP1 PUSH4 0x83638710 EQ PUSH2 0x361 JUMPI PUSH2 0x166 JUMP JUMPDEST DUP1 PUSH4 0x1FFC9A7 EQ PUSH2 0x16B JUMPI DUP1 PUSH4 0x6BDC949 EQ PUSH2 0x1A8 JUMPI DUP1 PUSH4 0x6FDDE03 EQ PUSH2 0x1D1 JUMPI DUP1 PUSH4 0x81812FC EQ PUSH2 0x1FC JUMPI DUP1 PUSH4 0x95EA7B3 EQ PUSH2 0x239 JUMPI DUP1 PUSH4 0x23B872DD EQ PUSH2 0x262 JUMPI JUMPDEST PUSH1 0x0 DUP1 REVERT JUMPDEST CALLVALUE DUP1 ISZERO PUSH2 0x177 JUMPI PUSH1 0x0 DUP1 REVERT JUMPDEST POP PUSH2 0x192 PUSH1 0x4 DUP1 CALLDATASIZE SUB DUP2 ADD SWAP1 PUSH2 0x18D SWAP2 SWAP1 PUSH2 0x2FD7 JUMP JUMPDEST PUSH2 0x60D JUMP JUMPDEST PUSH1 0x40 MLOAD PUSH2 0x19F SWAP2 SWAP1 PUSH2 0x301F JUMP JUMPDEST PUSH1 0x40 MLOAD DUP1 SWAP2 SUB SWAP1 RETURN JUMPDEST CALLVALUE DUP1 ISZERO PUSH2 0x1B4 JUMPI PUSH1 0x0 DUP1 REVERT JUMPDEST POP PUSH2 0x1CF PUSH1 0x4 DUP1 CALLDATASIZE SUB DUP2 ADD SWAP1 PUSH2 0x1CA SWAP2 SWAP1 PUSH2 0x31B6 JUMP JUMPDEST PUSH2 0x6EF JUMP JUMPDEST STOP JUMPDEST CALLVALUE DUP1 ISZERO PUSH2 0x1DD JUMPI PUSH1 0x0 DUP1 REVERT JUMPDEST POP PUSH2 0x1E6 PUSH2 0x90E JUMP JUMPDEST PUSH1 0x40 MLOAD PUSH2 0x1F3 SWAP2 SWAP1 PUSH2 0x32C0 JUMP JUMPDEST PUSH1 0x40 MLOAD DUP1 SWAP2 SUB SWAP1 RETURN JUMPDEST CALLVALUE DUP1 ISZERO PUSH2 0x208 JUMPI PUSH1 0x0 DUP1 REVERT JUMPDEST POP PUSH2 0x223 PUSH1 0x4 DUP1 CALLDATASIZE SUB DUP2 ADD SWAP1 PUSH2 0x21E SWAP2 SWAP1 PUSH2 0x32E2 JUMP JUMPDEST PUSH2 0x9A0 JUMP JUMPDEST PUSH1 0x40 MLOAD PUSH2 0x230 SWAP2 SWAP1 PUSH2 0x3350 JUMP JUMPDEST PUSH1 0x40 MLOAD DUP1 SWAP2 SUB SWAP1 RETURN JUMPDEST CALLVALUE DUP1 ISZERO PUSH2 0x245 JUMPI PUSH1 0x0 DUP1 REVERT JUMPDEST POP PUSH2 0x260 PUSH1 0x4 DUP1 CALLDATASIZE SUB DUP2 ADD SWAP1 PUSH2 0x25B SWAP2 SWAP1 PUSH2 0x3397 JUMP JUMPDEST PUSH2 0x9E6 JUMP JUMPDEST STOP JUMPDEST CALLVALUE DUP1 ISZERO PUSH2 0x26E JUMPI PUSH1 0x0 DUP1 REVERT JUMPDEST POP PUSH2 0x289 PUSH1 0x4 DUP1 CALLDATASIZE SUB DUP2 ADD SWAP1 PUSH2 0x284 SWAP2 SWAP1 PUSH2 0x33D7 JUMP JUMPDEST PUSH2 0xAFD JUMP JUMPDEST STOP JUMPDEST PUSH2 0x2A5 PUSH1 0x4 DUP1 CALLDATASIZE SUB DUP2 ADD SWAP1 PUSH2 0x2A0 SWAP2 SWAP1 PUSH2 0x32E2 JUMP JUMPDEST PUSH2 0xB5D JUMP JUMPDEST STOP JUMPDEST CALLVALUE DUP1 ISZERO PUSH2 0x2B3 JUMPI PUSH1 0x0 DUP1 REVERT JUMPDEST POP PUSH2 0x2CE PUSH1 0x4 DUP1 CALLDATASIZE SUB DUP2 ADD SWAP1 PUSH2 0x2C9 SWAP2 SWAP1 PUSH2 0x33D7 JUMP JUMPDEST PUSH2 0xDF4 JUMP JUMPDEST STOP JUMPDEST CALLVALUE DUP1 ISZERO PUSH2 0x2DC JUMPI PUSH1 0x0 DUP1 REVERT JUMPDEST POP PUSH2 0x2F7 PUSH1 0x4 DUP1 CALLDATASIZE SUB DUP2 ADD SWAP1 PUSH2 0x2F2 SWAP2 SWAP1 PUSH2 0x32E2 JUMP JUMPDEST PUSH2 0xE14 JUMP JUMPDEST PUSH1 0x40 MLOAD PUSH2 0x304 SWAP2 SWAP1 PUSH2 0x3350 JUMP JUMPDEST PUSH1 0x40 MLOAD DUP1 SWAP2 SUB SWAP1 RETURN JUMPDEST CALLVALUE DUP1 ISZERO PUSH2 0x319 JUMPI PUSH1 0x0 DUP1 REVERT JUMPDEST POP PUSH2 0x334 PUSH1 0x4 DUP1 CALLDATASIZE SUB DUP2 ADD SWAP1 PUSH2 0x32F SWAP2 SWAP1 PUSH2 0x342A JUMP JUMPDEST PUSH2 0xE9A JUMP JUMPDEST PUSH1 0x40 MLOAD PUSH2 0x341 SWAP2 SWAP1 PUSH2 0x3466 JUMP JUMPDEST PUSH1 0x40 MLOAD DUP1 SWAP2 SUB SWAP1 RETURN JUMPDEST CALLVALUE DUP1 ISZERO PUSH2 0x356 JUMPI PUSH1 0x0 DUP1 REVERT JUMPDEST POP PUSH2 0x35F PUSH2 0xF51 JUMP JUMPDEST STOP JUMPDEST CALLVALUE DUP1 ISZERO PUSH2 0x36D JUMPI PUSH1 0x0 DUP1 REVERT JUMPDEST POP PUSH2 0x388 PUSH1 0x4 DUP1 CALLDATASIZE SUB DUP2 ADD SWAP1 PUSH2 0x383 SWAP2 SWAP1 PUSH2 0x32E2 JUMP JUMPDEST PUSH2 0xF65 JUMP JUMPDEST PUSH1 0x40 MLOAD PUSH2 0x395 SWAP2 SWAP1 PUSH2 0x3350 JUMP JUMPDEST PUSH1 0x40 MLOAD DUP1 SWAP2 SUB SWAP1 RETURN JUMPDEST CALLVALUE DUP1 ISZERO PUSH2 0x3AA JUMPI PUSH1 0x0 DUP1 REVERT JUMPDEST POP PUSH2 0x3B3 PUSH2 0xF77 JUMP JUMPDEST PUSH1 0x40 MLOAD PUSH2 0x3C0 SWAP2 SWAP1 PUSH2 0x3350 JUMP JUMPDEST PUSH1 0x40 MLOAD DUP1 SWAP2 SUB SWAP1 RETURN JUMPDEST CALLVALUE DUP1 ISZERO PUSH2 0x3D5 JUMPI PUSH1 0x0 DUP1 REVERT JUMPDEST POP PUSH2 0x3DE PUSH2 0xF86 JUMP JUMPDEST PUSH1 0x40 MLOAD PUSH2 0x3EB SWAP2 SWAP1 PUSH2 0x3350 JUMP JUMPDEST PUSH1 0x40 MLOAD DUP1 SWAP2 SUB SWAP1 RETURN JUMPDEST CALLVALUE DUP1 ISZERO PUSH2 0x400 JUMPI PUSH1 0x0 DUP1 REVERT JUMPDEST POP PUSH2 0x41B PUSH1 0x4 DUP1 CALLDATASIZE SUB DUP2 ADD SWAP1 PUSH2 0x416 SWAP2 SWAP1 PUSH2 0x32E2 JUMP JUMPDEST PUSH2 0xFB0 JUMP JUMPDEST PUSH1 0x40 MLOAD PUSH2 0x428 SWAP2 SWAP1 PUSH2 0x3466 JUMP JUMPDEST PUSH1 0x40 MLOAD DUP1 SWAP2 SUB SWAP1 RETURN JUMPDEST CALLVALUE DUP1 ISZERO PUSH2 0x43D JUMPI PUSH1 0x0 DUP1 REVERT JUMPDEST POP PUSH2 0x446 PUSH2 0x11D2 JUMP JUMPDEST PUSH1 0x40 MLOAD PUSH2 0x453 SWAP2 SWAP1 PUSH2 0x32C0 JUMP JUMPDEST PUSH1 0x40 MLOAD DUP1 SWAP2 SUB SWAP1 RETURN JUMPDEST CALLVALUE DUP1 ISZERO PUSH2 0x468 JUMPI PUSH1 0x0 DUP1 REVERT JUMPDEST POP PUSH2 0x483 PUSH1 0x4 DUP1 CALLDATASIZE SUB DUP2 ADD SWAP1 PUSH2 0x47E SWAP2 SWAP1 PUSH2 0x34AD JUMP JUMPDEST PUSH2 0x1264 JUMP JUMPDEST STOP JUMPDEST CALLVALUE DUP1 ISZERO PUSH2 0x491 JUMPI PUSH1 0x0 DUP1 REVERT JUMPDEST POP PUSH2 0x4AC PUSH1 0x4 DUP1 CALLDATASIZE SUB DUP2 ADD SWAP1 PUSH2 0x4A7 SWAP2 SWAP1 PUSH2 0x358E JUMP JUMPDEST PUSH2 0x127A JUMP JUMPDEST STOP JUMPDEST CALLVALUE DUP1 ISZERO PUSH2 0x4BA JUMPI PUSH1 0x0 DUP1 REVERT JUMPDEST POP PUSH2 0x4D5 PUSH1 0x4 DUP1 CALLDATASIZE SUB DUP2 ADD SWAP1 PUSH2 0x4D0 SWAP2 SWAP1 PUSH2 0x32E2 JUMP JUMPDEST PUSH2 0x12DC JUMP JUMPDEST STOP JUMPDEST CALLVALUE DUP1 ISZERO PUSH2 0x4E3 JUMPI PUSH1 0x0 DUP1 REVERT JUMPDEST POP PUSH2 0x4FE PUSH1 0x4 DUP1 CALLDATASIZE SUB DUP2 ADD SWAP1 PUSH2 0x4F9 SWAP2 SWAP1 PUSH2 0x32E2 JUMP JUMPDEST PUSH2 0x142B JUMP JUMPDEST PUSH1 0x40 MLOAD PUSH2 0x50B SWAP2 SWAP1 PUSH2 0x32C0 JUMP JUMPDEST PUSH1 0x40 MLOAD DUP1 SWAP2 SUB SWAP1 RETURN JUMPDEST CALLVALUE DUP1 ISZERO PUSH2 0x520 JUMPI PUSH1 0x0 DUP1 REVERT JUMPDEST POP PUSH2 0x529 PUSH2 0x153D JUMP JUMPDEST PUSH1 0x40 MLOAD PUSH2 0x536 SWAP2 SWAP1 PUSH2 0x37DA JUMP JUMPDEST PUSH1 0x40 MLOAD DUP1 SWAP2 SUB SWAP1 RETURN JUMPDEST CALLVALUE DUP1 ISZERO PUSH2 0x54B JUMPI PUSH1 0x0 DUP1 REVERT JUMPDEST POP PUSH2 0x566 PUSH1 0x4 DUP1 CALLDATASIZE SUB DUP2 ADD SWAP1 PUSH2 0x561 SWAP2 SWAP1 PUSH2 0x32E2 JUMP JUMPDEST PUSH2 0x19BB JUMP JUMPDEST PUSH1 0x40 MLOAD PUSH2 0x573 SWAP2 SWAP1 PUSH2 0x32C0 JUMP JUMPDEST PUSH1 0x40 MLOAD DUP1 SWAP2 SUB SWAP1 RETURN JUMPDEST CALLVALUE DUP1 ISZERO PUSH2 0x588 JUMPI PUSH1 0x0 DUP1 REVERT JUMPDEST POP PUSH2 0x5A3 PUSH1 0x4 DUP1 CALLDATASIZE SUB DUP2 ADD SWAP1 PUSH2 0x59E SWAP2 SWAP1 PUSH2 0x37FC JUMP JUMPDEST PUSH2 0x1B1A JUMP JUMPDEST PUSH1 0x40 MLOAD PUSH2 0x5B0 SWAP2 SWAP1 PUSH2 0x301F JUMP JUMPDEST PUSH1 0x40 MLOAD DUP1 SWAP2 SUB SWAP1 RETURN JUMPDEST CALLVALUE DUP1 ISZERO PUSH2 0x5C5 JUMPI PUSH1 0x0 DUP1 REVERT JUMPDEST POP PUSH2 0x5E0 PUSH1 0x4 DUP1 CALLDATASIZE SUB DUP2 ADD SWAP1 PUSH2 0x5DB SWAP2 SWAP1 PUSH2 0x342A JUMP JUMPDEST PUSH2 0x1BAE JUMP JUMPDEST STOP JUMPDEST CALLVALUE DUP1 ISZERO PUSH2 0x5EE JUMPI PUSH1 0x0 DUP1 REVERT JUMPDEST POP PUSH2 0x5F7 PUSH2 0x1C31 JUMP JUMPDEST PUSH1 0x40 MLOAD PUSH2 0x604 SWAP2 SWAP1 PUSH2 0x37DA JUMP JUMPDEST PUSH1 0x40 MLOAD DUP1 SWAP2 SUB SWAP1 RETURN JUMPDEST PUSH1 0x0 PUSH32 0x80AC58CD00000000000000000000000000000000000000000000000000000000 PUSH28 0xFFFFFFFFFFFFFFFFFFFFFFFFFFFFFFFFFFFFFFFFFFFFFFFFFFFFFFFF NOT AND DUP3 PUSH28 0xFFFFFFFFFFFFFFFFFFFFFFFFFFFFFFFFFFFFFFFFFFFFFFFFFFFFFFFF NOT AND EQ DUP1 PUSH2 0x6D8 JUMPI POP PUSH32 0x5B5E139F00000000000000000000000000000000000000000000000000000000 PUSH28 0xFFFFFFFFFFFFFFFFFFFFFFFFFFFFFFFFFFFFFFFFFFFFFFFFFFFFFFFF NOT AND DUP3 PUSH28 0xFFFFFFFFFFFFFFFFFFFFFFFFFFFFFFFFFFFFFFFFFFFFFFFFFFFFFFFF NOT AND EQ JUMPDEST DUP1 PUSH2 0x6E8 JUMPI POP PUSH2 0x6E7 DUP3 PUSH2 0x1F36 JUMP JUMPDEST JUMPDEST SWAP1 POP SWAP2 SWAP1 POP JUMP JUMPDEST PUSH2 0x6F7 PUSH2 0x1FA0 JUMP JUMPDEST PUSH1 0x0 PUSH1 0x40 MLOAD DUP1 PUSH1 0xC0 ADD PUSH1 0x40 MSTORE DUP1 PUSH1 0x8 SLOAD DUP2 MSTORE PUSH1 0x20 ADD DUP6 DUP2 MSTORE PUSH1 0x20 ADD CALLER PUSH20 0xFFFFFFFFFFFFFFFFFFFFFFFFFFFFFFFFFFFFFFFF AND DUP2 MSTORE PUSH1 0x20 ADD DUP5 DUP2 MSTORE PUSH1 0x20 ADD DUP4 DUP2 MSTORE PUSH1 0x20 ADD PUSH1 0x0 ISZERO ISZERO DUP2 MSTORE POP SWAP1 POP DUP1 PUSH1 0xB PUSH1 0x0 PUSH1 0x8 SLOAD DUP2 MSTORE PUSH1 0x20 ADD SWAP1 DUP2 MSTORE PUSH1 0x20 ADD PUSH1 0x0 KECCAK256 PUSH1 0x0 DUP3 ADD MLOAD DUP2 PUSH1 0x0 ADD SSTORE PUSH1 0x20 DUP3 ADD MLOAD DUP2 PUSH1 0x1 ADD SWAP1 DUP2 PUSH2 0x778 SWAP2 SWAP1 PUSH2 0x3A48 JUMP JUMPDEST POP PUSH1 0x40 DUP3 ADD MLOAD DUP2 PUSH1 0x2 ADD PUSH1 0x0 PUSH2 0x100 EXP DUP2 SLOAD DUP2 PUSH20 0xFFFFFFFFFFFFFFFFFFFFFFFFFFFFFFFFFFFFFFFF MUL NOT AND SWAP1 DUP4 PUSH20 0xFFFFFFFFFFFFFFFFFFFFFFFFFFFFFFFFFFFFFFFF AND MUL OR SWAP1 SSTORE POP PUSH1 0x60 DUP3 ADD MLOAD DUP2 PUSH1 0x3 ADD SSTORE PUSH1 0x80 DUP3 ADD MLOAD DUP2 PUSH1 0x4 ADD SWAP1 DUP2 PUSH2 0x7DF SWAP2 SWAP1 PUSH2 0x3A48 JUMP JUMPDEST POP PUSH1 0xA0 DUP3 ADD MLOAD DUP2 PUSH1 0x5 ADD PUSH1 0x0 PUSH2 0x100 EXP DUP2 SLOAD DUP2 PUSH1 0xFF MUL NOT AND SWAP1 DUP4 ISZERO ISZERO MUL OR SWAP1 SSTORE POP SWAP1 POP POP PUSH2 0x80F CALLER PUSH1 0x8 SLOAD PUSH2 0x201E JUMP JUMPDEST PUSH1 0x9 DUP2 SWAP1 DUP1 PUSH1 0x1 DUP2 SLOAD ADD DUP1 DUP3 SSTORE DUP1 SWAP2 POP POP PUSH1 0x1 SWAP1 SUB SWAP1 PUSH1 0x0 MSTORE PUSH1 0x20 PUSH1 0x0 KECCAK256 SWAP1 PUSH1 0x6 MUL ADD PUSH1 0x0 SWAP1 SWAP2 SWAP1 SWAP2 SWAP1 SWAP2 POP PUSH1 0x0 DUP3 ADD MLOAD DUP2 PUSH1 0x0 ADD SSTORE PUSH1 0x20 DUP3 ADD MLOAD DUP2 PUSH1 0x1 ADD SWAP1 DUP2 PUSH2 0x85A SWAP2 SWAP1 PUSH2 0x3A48 JUMP JUMPDEST POP PUSH1 0x40 DUP3 ADD MLOAD DUP2 PUSH1 0x2 ADD PUSH1 0x0 PUSH2 0x100 EXP DUP2 SLOAD DUP2 PUSH20 0xFFFFFFFFFFFFFFFFFFFFFFFFFFFFFFFFFFFFFFFF MUL NOT AND SWAP1 DUP4 PUSH20 0xFFFFFFFFFFFFFFFFFFFFFFFFFFFFFFFFFFFFFFFF AND MUL OR SWAP1 SSTORE POP PUSH1 0x60 DUP3 ADD MLOAD DUP2 PUSH1 0x3 ADD SSTORE PUSH1 0x80 DUP3 ADD MLOAD DUP2 PUSH1 0x4 ADD SWAP1 DUP2 PUSH2 0x8C1 SWAP2 SWAP1 PUSH2 0x3A48 JUMP JUMPDEST POP PUSH1 0xA0 DUP3 ADD MLOAD DUP2 PUSH1 0x5 ADD PUSH1 0x0 PUSH2 0x100 EXP DUP2 SLOAD DUP2 PUSH1 0xFF MUL NOT AND SWAP1 DUP4 ISZERO ISZERO MUL OR SWAP1 SSTORE POP POP POP PUSH2 0x8F0 PUSH1 0x8 SLOAD DUP4 PUSH2 0x203C JUMP JUMPDEST PUSH1 0x8 PUSH1 0x0 DUP2 SLOAD DUP1 SWAP3 SWAP2 SWAP1 PUSH2 0x903 SWAP1 PUSH2 0x3B49 JUMP JUMPDEST SWAP2 SWAP1 POP SSTORE POP POP POP POP POP JUMP JUMPDEST PUSH1 0x60 PUSH1 0x0 DUP1 SLOAD PUSH2 0x91D SWAP1 PUSH2 0x386B JUMP JUMPDEST DUP1 PUSH1 0x1F ADD PUSH1 0x20 DUP1 SWAP2 DIV MUL PUSH1 0x20 ADD PUSH1 0x40 MLOAD SWAP1 DUP2 ADD PUSH1 0x40 MSTORE DUP1 SWAP3 SWAP2 SWAP1 DUP2 DUP2 MSTORE PUSH1 0x20 ADD DUP3 DUP1 SLOAD PUSH2 0x949 SWAP1 PUSH2 0x386B JUMP JUMPDEST DUP1 ISZERO PUSH2 0x996 JUMPI DUP1 PUSH1 0x1F LT PUSH2 0x96B JUMPI PUSH2 0x100 DUP1 DUP4 SLOAD DIV MUL DUP4 MSTORE SWAP2 PUSH1 0x20 ADD SWAP2 PUSH2 0x996 JUMP JUMPDEST DUP3 ADD SWAP2 SWAP1 PUSH1 0x0 MSTORE PUSH1 0x20 PUSH1 0x0 KECCAK256 SWAP1 JUMPDEST DUP2 SLOAD DUP2 MSTORE SWAP1 PUSH1 0x1 ADD SWAP1 PUSH1 0x20 ADD DUP1 DUP4 GT PUSH2 0x979 JUMPI DUP3 SWAP1 SUB PUSH1 0x1F AND DUP3 ADD SWAP2 JUMPDEST POP POP POP POP POP SWAP1 POP SWAP1 JUMP JUMPDEST PUSH1 0x0 PUSH2 0x9AB DUP3 PUSH2 0x20A9 JUMP JUMPDEST PUSH1 0x4 PUSH1 0x0 DUP4 DUP2 MSTORE PUSH1 0x20 ADD SWAP1 DUP2 MSTORE PUSH1 0x20 ADD PUSH1 0x0 KECCAK256 PUSH1 0x0 SWAP1 SLOAD SWAP1 PUSH2 0x100 EXP SWAP1 DIV PUSH20 0xFFFFFFFFFFFFFFFFFFFFFFFFFFFFFFFFFFFFFFFF AND SWAP1 POP SWAP2 SWAP1 POP JUMP JUMPDEST PUSH1 0x0 PUSH2 0x9F1 DUP3 PUSH2 0xE14 JUMP JUMPDEST SWAP1 POP DUP1 PUSH20 0xFFFFFFFFFFFFFFFFFFFFFFFFFFFFFFFFFFFFFFFF AND DUP4 PUSH20 0xFFFFFFFFFFFFFFFFFFFFFFFFFFFFFFFFFFFFFFFF AND SUB PUSH2 0xA61 JUMPI PUSH1 0x40 MLOAD PUSH32 0x8C379A000000000000000000000000000000000000000000000000000000000 DUP2 MSTORE PUSH1 0x4 ADD PUSH2 0xA58 SWAP1 PUSH2 0x3C03 JUMP JUMPDEST PUSH1 0x40 MLOAD DUP1 SWAP2 SUB SWAP1 REVERT JUMPDEST DUP1 PUSH20 0xFFFFFFFFFFFFFFFFFFFFFFFFFFFFFFFFFFFFFFFF AND PUSH2 0xA80 PUSH2 0x20F4 JUMP JUMPDEST PUSH20 0xFFFFFFFFFFFFFFFFFFFFFFFFFFFFFFFFFFFFFFFF AND EQ DUP1 PUSH2 0xAAF JUMPI POP PUSH2 0xAAE DUP2 PUSH2 0xAA9 PUSH2 0x20F4 JUMP JUMPDEST PUSH2 0x1B1A JUMP JUMPDEST JUMPDEST PUSH2 0xAEE JUMPI PUSH1 0x40 MLOAD PUSH32 0x8C379A000000000000000000000000000000000000000000000000000000000 DUP2 MSTORE PUSH1 0x4 ADD PUSH2 0xAE5 SWAP1 PUSH2 0x3C95 JUMP JUMPDEST PUSH1 0x40 MLOAD DUP1 SWAP2 SUB SWAP1 REVERT JUMPDEST PUSH2 0xAF8 DUP4 DUP4 PUSH2 0x20FC JUMP JUMPDEST POP POP POP JUMP JUMPDEST PUSH2 0xB0E PUSH2 0xB08 PUSH2 0x20F4 JUMP JUMPDEST DUP3 PUSH2 0x21B5 JUMP JUMPDEST PUSH2 0xB4D JUMPI PUSH1 0x40 MLOAD PUSH32 0x8C379A000000000000000000000000000000000000000000000000000000000 DUP2 MSTORE PUSH1 0x4 ADD PUSH2 0xB44 SWAP1 PUSH2 0x3D27 JUMP JUMPDEST PUSH1 0x40 MLOAD DUP1 SWAP2 SUB SWAP1 REVERT JUMPDEST PUSH2 0xB58 DUP4 DUP4 DUP4 PUSH2 0x224A JUMP JUMPDEST POP POP POP JUMP JUMPDEST PUSH1 0x0 PUSH1 0x9 DUP3 DUP2 SLOAD DUP2 LT PUSH2 0xB73 JUMPI PUSH2 0xB72 PUSH2 0x3D47 JUMP JUMPDEST JUMPDEST SWAP1 PUSH1 0x0 MSTORE PUSH1 0x20 PUSH1 0x0 KECCAK256 SWAP1 PUSH1 0x6 MUL ADD SWAP1 POP PUSH1 0xB PUSH1 0x0 DUP4 DUP2 MSTORE PUSH1 0x20 ADD SWAP1 DUP2 MSTORE PUSH1 0x20 ADD PUSH1 0x0 KECCAK256 PUSH1 0x5 ADD PUSH1 0x0 SWAP1 SLOAD SWAP1 PUSH2 0x100 EXP SWAP1 DIV PUSH1 0xFF AND PUSH2 0xBE6 JUMPI PUSH1 0x40 MLOAD PUSH32 0x8C379A000000000000000000000000000000000000000000000000000000000 DUP2 MSTORE PUSH1 0x4 ADD PUSH2 0xBDD SWAP1 PUSH2 0x3DC2 JUMP JUMPDEST PUSH1 0x40 MLOAD DUP1 SWAP2 SUB SWAP1 REVERT JUMPDEST PUSH1 0xB PUSH1 0x0 DUP4 DUP2 MSTORE PUSH1 0x20 ADD SWAP1 DUP2 MSTORE PUSH1 0x20 ADD PUSH1 0x0 KECCAK256 PUSH1 0x3 ADD SLOAD CALLVALUE EQ PUSH2 0xC3E JUMPI PUSH1 0x40 MLOAD PUSH32 0x8C379A000000000000000000000000000000000000000000000000000000000 DUP2 MSTORE PUSH1 0x4 ADD PUSH2 0xC35 SWAP1 PUSH2 0x3E2E JUMP JUMPDEST PUSH1 0x40 MLOAD DUP1 SWAP2 SUB SWAP1 REVERT JUMPDEST PUSH1 0x0 PUSH2 0xC49 DUP4 PUSH2 0xE14 JUMP JUMPDEST SWAP1 POP DUP1 PUSH20 0xFFFFFFFFFFFFFFFFFFFFFFFFFFFFFFFFFFFFFFFF AND CALLER PUSH20 0xFFFFFFFFFFFFFFFFFFFFFFFFFFFFFFFFFFFFFFFF AND SUB PUSH2 0xCB9 JUMPI PUSH1 0x40 MLOAD PUSH32 0x8C379A000000000000000000000000000000000000000000000000000000000 DUP2 MSTORE PUSH1 0x4 ADD PUSH2 0xCB0 SWAP1 PUSH2 0x3E9A JUMP JUMPDEST PUSH1 0x40 MLOAD DUP1 SWAP2 SUB SWAP1 REVERT JUMPDEST PUSH2 0xCC4 DUP2 CALLER DUP6 PUSH2 0x224A JUMP JUMPDEST PUSH1 0x0 PUSH1 0xB PUSH1 0x0 DUP6 DUP2 MSTORE PUSH1 0x20 ADD SWAP1 DUP2 MSTORE PUSH1 0x20 ADD PUSH1 0x0 KECCAK256 PUSH1 0x5 ADD PUSH1 0x0 PUSH2 0x100 EXP DUP2 SLOAD DUP2 PUSH1 0xFF MUL NOT AND SWAP1 DUP4 ISZERO ISZERO MUL OR SWAP1 SSTORE POP CALLER PUSH1 0xB PUSH1 0x0 DUP6 DUP2 MSTORE PUSH1 0x20 ADD SWAP1 DUP2 MSTORE PUSH1 0x20 ADD PUSH1 0x0 KECCAK256 PUSH1 0x2 ADD PUSH1 0x0 PUSH2 0x100 EXP DUP2 SLOAD DUP2 PUSH20 0xFFFFFFFFFFFFFFFFFFFFFFFFFFFFFFFFFFFFFFFF MUL NOT AND SWAP1 DUP4 PUSH20 0xFFFFFFFFFFFFFFFFFFFFFFFFFFFFFFFFFFFFFFFF AND MUL OR SWAP1 SSTORE POP PUSH1 0x0 DUP3 PUSH1 0x5 ADD PUSH1 0x0 PUSH2 0x100 EXP DUP2 SLOAD DUP2 PUSH1 0xFF MUL NOT AND SWAP1 DUP4 ISZERO ISZERO MUL OR SWAP1 SSTORE POP CALLER DUP3 PUSH1 0x2 ADD PUSH1 0x0 PUSH2 0x100 EXP DUP2 SLOAD DUP2 PUSH20 0xFFFFFFFFFFFFFFFFFFFFFFFFFFFFFFFFFFFFFFFF MUL NOT AND SWAP1 DUP4 PUSH20 0xFFFFFFFFFFFFFFFFFFFFFFFFFFFFFFFFFFFFFFFF AND MUL OR SWAP1 SSTORE POP DUP1 PUSH20 0xFFFFFFFFFFFFFFFFFFFFFFFFFFFFFFFFFFFFFFFF AND PUSH2 0x8FC CALLVALUE SWAP1 DUP2 ISZERO MUL SWAP1 PUSH1 0x40 MLOAD PUSH1 0x0 PUSH1 0x40 MLOAD DUP1 DUP4 SUB DUP2 DUP6 DUP9 DUP9 CALL SWAP4 POP POP POP POP ISZERO DUP1 ISZERO PUSH2 0xDEE JUMPI RETURNDATASIZE PUSH1 0x0 DUP1 RETURNDATACOPY RETURNDATASIZE PUSH1 0x0 REVERT JUMPDEST POP POP POP POP JUMP JUMPDEST PUSH2 0xE0F DUP4 DUP4 DUP4 PUSH1 0x40 MLOAD DUP1 PUSH1 0x20 ADD PUSH1 0x40 MSTORE DUP1 PUSH1 0x0 DUP2 MSTORE POP PUSH2 0x127A JUMP JUMPDEST POP POP POP JUMP JUMPDEST PUSH1 0x0 DUP1 PUSH2 0xE20 DUP4 PUSH2 0x2543 JUMP JUMPDEST SWAP1 POP PUSH1 0x0 PUSH20 0xFFFFFFFFFFFFFFFFFFFFFFFFFFFFFFFFFFFFFFFF AND DUP2 PUSH20 0xFFFFFFFFFFFFFFFFFFFFFFFFFFFFFFFFFFFFFFFF AND SUB PUSH2 0xE91 JUMPI PUSH1 0x40 MLOAD PUSH32 0x8C379A000000000000000000000000000000000000000000000000000000000 DUP2 MSTORE PUSH1 0x4 ADD PUSH2 0xE88 SWAP1 PUSH2 0x3F06 JUMP JUMPDEST PUSH1 0x40 MLOAD DUP1 SWAP2 SUB SWAP1 REVERT JUMPDEST DUP1 SWAP2 POP POP SWAP2 SWAP1 POP JUMP JUMPDEST PUSH1 0x0 DUP1 PUSH20 0xFFFFFFFFFFFFFFFFFFFFFFFFFFFFFFFFFFFFFFFF AND DUP3 PUSH20 0xFFFFFFFFFFFFFFFFFFFFFFFFFFFFFFFFFFFFFFFF AND SUB PUSH2 0xF0A JUMPI PUSH1 0x40 MLOAD PUSH32 0x8C379A000000000000000000000000000000000000000000000000000000000 DUP2 MSTORE PUSH1 0x4 ADD PUSH2 0xF01 SWAP1 PUSH2 0x3F98 JUMP JUMPDEST PUSH1 0x40 MLOAD DUP1 SWAP2 SUB SWAP1 REVERT JUMPDEST PUSH1 0x3 PUSH1 0x0 DUP4 PUSH20 0xFFFFFFFFFFFFFFFFFFFFFFFFFFFFFFFFFFFFFFFF AND PUSH20 0xFFFFFFFFFFFFFFFFFFFFFFFFFFFFFFFFFFFFFFFF AND DUP2 MSTORE PUSH1 0x20 ADD SWAP1 DUP2 MSTORE PUSH1 0x20 ADD PUSH1 0x0 KECCAK256 SLOAD SWAP1 POP SWAP2 SWAP1 POP JUMP JUMPDEST PUSH2 0xF59 PUSH2 0x1FA0 JUMP JUMPDEST PUSH2 0xF63 PUSH1 0x0 PUSH2 0x2580 JUMP JUMPDEST JUMP JUMPDEST PUSH1 0x0 PUSH2 0xF70 DUP3 PUSH2 0xE14 JUMP JUMPDEST SWAP1 POP SWAP2 SWAP1 POP JUMP JUMPDEST PUSH1 0x0 PUSH2 0xF81 PUSH2 0xF86 JUMP JUMPDEST SWAP1 POP SWAP1 JUMP JUMPDEST PUSH1 0x0 PUSH1 0x7 PUSH1 0x0 SWAP1 SLOAD SWAP1 PUSH2 0x100 EXP SWAP1 DIV PUSH20 0xFFFFFFFFFFFFFFFFFFFFFFFFFFFFFFFFFFFFFFFF AND SWAP1 POP SWAP1 JUMP JUMPDEST PUSH1 0x0 PUSH2 0xFBB DUP3 PUSH2 0x2646 JUMP JUMPDEST PUSH2 0xFFA JUMPI PUSH1 0x40 MLOAD PUSH32 0x8C379A000000000000000000000000000000000000000000000000000000000 DUP2 MSTORE PUSH1 0x4 ADD PUSH2 0xFF1 SWAP1 PUSH2 0x4004 JUMP JUMPDEST PUSH1 0x40 MLOAD DUP1 SWAP2 SUB SWAP1 REVERT JUMPDEST PUSH1 0x0 PUSH1 0xB PUSH1 0x0 DUP5 DUP2 MSTORE PUSH1 0x20 ADD SWAP1 DUP2 MSTORE PUSH1 0x20 ADD PUSH1 0x0 KECCAK256 PUSH1 0x40 MLOAD DUP1 PUSH1 0xC0 ADD PUSH1 0x40 MSTORE SWAP1 DUP2 PUSH1 0x0 DUP3 ADD SLOAD DUP2 MSTORE PUSH1 0x20 ADD PUSH1 0x1 DUP3 ADD DUP1 SLOAD PUSH2 0x1034 SWAP1 PUSH2 0x386B JUMP JUMPDEST DUP1 PUSH1 0x1F ADD PUSH1 0x20 DUP1 SWAP2 DIV MUL PUSH1 0x20 ADD PUSH1 0x40 MLOAD SWAP1 DUP2 ADD PUSH1 0x40 MSTORE DUP1 SWAP3 SWAP2 SWAP1 DUP2 DUP2 MSTORE PUSH1 0x20 ADD DUP3 DUP1 SLOAD PUSH2 0x1060 SWAP1 PUSH2 0x386B JUMP JUMPDEST DUP1 ISZERO PUSH2 0x10AD JUMPI DUP1 PUSH1 0x1F LT PUSH2 0x1082 JUMPI PUSH2 0x100 DUP1 DUP4 SLOAD DIV MUL DUP4 MSTORE SWAP2 PUSH1 0x20 ADD SWAP2 PUSH2 0x10AD JUMP JUMPDEST DUP3 ADD SWAP2 SWAP1 PUSH1 0x0 MSTORE PUSH1 0x20 PUSH1 0x0 KECCAK256 SWAP1 JUMPDEST DUP2 SLOAD DUP2 MSTORE SWAP1 PUSH1 0x1 ADD SWAP1 PUSH1 0x20 ADD DUP1 DUP4 GT PUSH2 0x1090 JUMPI DUP3 SWAP1 SUB PUSH1 0x1F AND DUP3 ADD SWAP2 JUMPDEST POP POP POP POP POP DUP2 MSTORE PUSH1 0x20 ADD PUSH1 0x2 DUP3 ADD PUSH1 0x0 SWAP1 SLOAD SWAP1 PUSH2 0x100 EXP SWAP1 DIV PUSH20 0xFFFFFFFFFFFFFFFFFFFFFFFFFFFFFFFFFFFFFFFF AND PUSH20 0xFFFFFFFFFFFFFFFFFFFFFFFFFFFFFFFFFFFFFFFF AND PUSH20 0xFFFFFFFFFFFFFFFFFFFFFFFFFFFFFFFFFFFFFFFF AND DUP2 MSTORE PUSH1 0x20 ADD PUSH1 0x3 DUP3 ADD SLOAD DUP2 MSTORE PUSH1 0x20 ADD PUSH1 0x4 DUP3 ADD DUP1 SLOAD PUSH2 0x1126 SWAP1 PUSH2 0x386B JUMP JUMPDEST DUP1 PUSH1 0x1F ADD PUSH1 0x20 DUP1 SWAP2 DIV MUL PUSH1 0x20 ADD PUSH1 0x40 MLOAD SWAP1 DUP2 ADD PUSH1 0x40 MSTORE DUP1 SWAP3 SWAP2 SWAP1 DUP2 DUP2 MSTORE PUSH1 0x20 ADD DUP3 DUP1 SLOAD PUSH2 0x1152 SWAP1 PUSH2 0x386B JUMP JUMPDEST DUP1 ISZERO PUSH2 0x119F JUMPI DUP1 PUSH1 0x1F LT PUSH2 0x1174 JUMPI PUSH2 0x100 DUP1 DUP4 SLOAD DIV MUL DUP4 MSTORE SWAP2 PUSH1 0x20 ADD SWAP2 PUSH2 0x119F JUMP JUMPDEST DUP3 ADD SWAP2 SWAP1 PUSH1 0x0 MSTORE PUSH1 0x20 PUSH1 0x0 KECCAK256 SWAP1 JUMPDEST DUP2 SLOAD DUP2 MSTORE SWAP1 PUSH1 0x1 ADD SWAP1 PUSH1 0x20 ADD DUP1 DUP4 GT PUSH2 0x1182 JUMPI DUP3 SWAP1 SUB PUSH1 0x1F AND DUP3 ADD SWAP2 JUMPDEST POP POP POP POP POP DUP2 MSTORE PUSH1 0x20 ADD PUSH1 0x5 DUP3 ADD PUSH1 0x0 SWAP1 SLOAD SWAP1 PUSH2 0x100 EXP SWAP1 DIV PUSH1 0xFF AND ISZERO ISZERO ISZERO ISZERO DUP2 MSTORE POP POP SWAP1 POP DUP1 PUSH1 0x60 ADD MLOAD SWAP2 POP POP SWAP2 SWAP1 POP JUMP JUMPDEST PUSH1 0x60 PUSH1 0x1 DUP1 SLOAD PUSH2 0x11E1 SWAP1 PUSH2 0x386B JUMP JUMPDEST DUP1 PUSH1 0x1F ADD PUSH1 0x20 DUP1 SWAP2 DIV MUL PUSH1 0x20 ADD PUSH1 0x40 MLOAD SWAP1 DUP2 ADD PUSH1 0x40 MSTORE DUP1 SWAP3 SWAP2 SWAP1 DUP2 DUP2 MSTORE PUSH1 0x20 ADD DUP3 DUP1 SLOAD PUSH2 0x120D SWAP1 PUSH2 0x386B JUMP JUMPDEST DUP1 ISZERO PUSH2 0x125A JUMPI DUP1 PUSH1 0x1F LT PUSH2 0x122F JUMPI PUSH2 0x100 DUP1 DUP4 SLOAD DIV MUL DUP4 MSTORE SWAP2 PUSH1 0x20 ADD SWAP2 PUSH2 0x125A JUMP JUMPDEST DUP3 ADD SWAP2 SWAP1 PUSH1 0x0 MSTORE PUSH1 0x20 PUSH1 0x0 KECCAK256 SWAP1 JUMPDEST DUP2 SLOAD DUP2 MSTORE SWAP1 PUSH1 0x1 ADD SWAP1 PUSH1 0x20 ADD DUP1 DUP4 GT PUSH2 0x123D JUMPI DUP3 SWAP1 SUB PUSH1 0x1F AND DUP3 ADD SWAP2 JUMPDEST POP POP POP POP POP SWAP1 POP SWAP1 JUMP JUMPDEST PUSH2 0x1276 PUSH2 0x126F PUSH2 0x20F4 JUMP JUMPDEST DUP4 DUP4 PUSH2 0x2687 JUMP JUMPDEST POP POP JUMP JUMPDEST PUSH2 0x128B PUSH2 0x1285 PUSH2 0x20F4 JUMP JUMPDEST DUP4 PUSH2 0x21B5 JUMP JUMPDEST PUSH2 0x12CA JUMPI PUSH1 0x40 MLOAD PUSH32 0x8C379A000000000000000000000000000000000000000000000000000000000 DUP2 MSTORE PUSH1 0x4 ADD PUSH2 0x12C1 SWAP1 PUSH2 0x3D27 JUMP JUMPDEST PUSH1 0x40 MLOAD DUP1 SWAP2 SUB SWAP1 REVERT JUMPDEST PUSH2 0x12D6 DUP5 DUP5 DUP5 DUP5 PUSH2 0x27F3 JUMP JUMPDEST POP POP POP POP JUMP JUMPDEST PUSH2 0x12E5 DUP2 PUSH2 0xE14 JUMP JUMPDEST PUSH20 0xFFFFFFFFFFFFFFFFFFFFFFFFFFFFFFFFFFFFFFFF AND PUSH1 0xB PUSH1 0x0 DUP4 DUP2 MSTORE PUSH1 0x20 ADD SWAP1 DUP2 MSTORE PUSH1 0x20 ADD PUSH1 0x0 KECCAK256 PUSH1 0x2 ADD PUSH1 0x0 SWAP1 SLOAD SWAP1 PUSH2 0x100 EXP SWAP1 DIV PUSH20 0xFFFFFFFFFFFFFFFFFFFFFFFFFFFFFFFFFFFFFFFF AND PUSH20 0xFFFFFFFFFFFFFFFFFFFFFFFFFFFFFFFFFFFFFFFF AND EQ PUSH2 0x1352 JUMPI PUSH1 0x0 DUP1 REVERT JUMPDEST PUSH1 0xB PUSH1 0x0 DUP3 DUP2 MSTORE PUSH1 0x20 ADD SWAP1 DUP2 MSTORE PUSH1 0x20 ADD PUSH1 0x0 KECCAK256 PUSH1 0x5 ADD PUSH1 0x0 SWAP1 SLOAD SWAP1 PUSH2 0x100 EXP SWAP1 DIV PUSH1 0xFF AND PUSH2 0x13B5 JUMPI PUSH1 0x40 MLOAD PUSH32 0x8C379A000000000000000000000000000000000000000000000000000000000 DUP2 MSTORE PUSH1 0x4 ADD PUSH2 0x13AC SWAP1 PUSH2 0x3DC2 JUMP JUMPDEST PUSH1 0x40 MLOAD DUP1 SWAP2 SUB SWAP1 REVERT JUMPDEST PUSH1 0x0 PUSH1 0xB PUSH1 0x0 DUP4 DUP2 MSTORE PUSH1 0x20 ADD SWAP1 DUP2 MSTORE PUSH1 0x20 ADD PUSH1 0x0 KECCAK256 PUSH1 0x5 ADD PUSH1 0x0 PUSH2 0x100 EXP DUP2 SLOAD DUP2 PUSH1 0xFF MUL NOT AND SWAP1 DUP4 ISZERO ISZERO MUL OR SWAP1 SSTORE POP PUSH1 0x0 PUSH1 0x9 DUP3 DUP2 SLOAD DUP2 LT PUSH2 0x13FA JUMPI PUSH2 0x13F9 PUSH2 0x3D47 JUMP JUMPDEST JUMPDEST SWAP1 PUSH1 0x0 MSTORE PUSH1 0x20 PUSH1 0x0 KECCAK256 SWAP1 PUSH1 0x6 MUL ADD SWAP1 POP PUSH1 0x0 DUP2 PUSH1 0x5 ADD PUSH1 0x0 PUSH2 0x100 EXP DUP2 SLOAD DUP2 PUSH1 0xFF MUL NOT AND SWAP1 DUP4 ISZERO ISZERO MUL OR SWAP1 SSTORE POP POP POP JUMP JUMPDEST PUSH1 0x60 PUSH2 0x1436 DUP3 PUSH2 0x20A9 JUMP JUMPDEST PUSH1 0x0 PUSH1 0x6 PUSH1 0x0 DUP5 DUP2 MSTORE PUSH1 0x20 ADD SWAP1 DUP2 MSTORE PUSH1 0x20 ADD PUSH1 0x0 KECCAK256 DUP1 SLOAD PUSH2 0x1456 SWAP1 PUSH2 0x386B JUMP JUMPDEST DUP1 PUSH1 0x1F ADD PUSH1 0x20 DUP1 SWAP2 DIV MUL PUSH1 0x20 ADD PUSH1 0x40 MLOAD SWAP1 DUP2 ADD PUSH1 0x40 MSTORE DUP1 SWAP3 SWAP2 SWAP1 DUP2 DUP2 MSTORE PUSH1 0x20 ADD DUP3 DUP1 SLOAD PUSH2 0x1482 SWAP1 PUSH2 0x386B JUMP JUMPDEST DUP1 ISZERO PUSH2 0x14CF JUMPI DUP1 PUSH1 0x1F LT PUSH2 0x14A4 JUMPI PUSH2 0x100 DUP1 DUP4 SLOAD DIV MUL DUP4 MSTORE SWAP2 PUSH1 0x20 ADD SWAP2 PUSH2 0x14CF JUMP JUMPDEST DUP3 ADD SWAP2 SWAP1 PUSH1 0x0 MSTORE PUSH1 0x20 PUSH1 0x0 KECCAK256 SWAP1 JUMPDEST DUP2 SLOAD DUP2 MSTORE SWAP1 PUSH1 0x1 ADD SWAP1 PUSH1 0x20 ADD DUP1 DUP4 GT PUSH2 0x14B2 JUMPI DUP3 SWAP1 SUB PUSH1 0x1F AND DUP3 ADD SWAP2 JUMPDEST POP POP POP POP POP SWAP1 POP PUSH1 0x0 PUSH2 0x14E0 PUSH2 0x284F JUMP JUMPDEST SWAP1 POP PUSH1 0x0 DUP2 MLOAD SUB PUSH2 0x14F5 JUMPI DUP2 SWAP3 POP POP POP PUSH2 0x1538 JUMP JUMPDEST PUSH1 0x0 DUP3 MLOAD GT ISZERO PUSH2 0x152A JUMPI DUP1 DUP3 PUSH1 0x40 MLOAD PUSH1 0x20 ADD PUSH2 0x1512 SWAP3 SWAP2 SWAP1 PUSH2 0x4060 JUMP JUMPDEST PUSH1 0x40 MLOAD PUSH1 0x20 DUP2 DUP4 SUB SUB DUP2 MSTORE SWAP1 PUSH1 0x40 MSTORE SWAP3 POP POP POP PUSH2 0x1538 JUMP JUMPDEST PUSH2 0x1533 DUP5 PUSH2 0x2866 JUMP JUMPDEST SWAP3 POP POP POP JUMPDEST SWAP2 SWAP1 POP JUMP JUMPDEST PUSH1 0x60 PUSH1 0x0 PUSH1 0x8 SLOAD PUSH8 0xFFFFFFFFFFFFFFFF DUP2 GT ISZERO PUSH2 0x155D JUMPI PUSH2 0x155C PUSH2 0x3055 JUMP JUMPDEST JUMPDEST PUSH1 0x40 MLOAD SWAP1 DUP1 DUP3 MSTORE DUP1 PUSH1 0x20 MUL PUSH1 0x20 ADD DUP3 ADD PUSH1 0x40 MSTORE DUP1 ISZERO PUSH2 0x1596 JUMPI DUP2 PUSH1 0x20 ADD JUMPDEST PUSH2 0x1583 PUSH2 0x2F1D JUMP JUMPDEST DUP2 MSTORE PUSH1 0x20 ADD SWAP1 PUSH1 0x1 SWAP1 SUB SWAP1 DUP2 PUSH2 0x157B JUMPI SWAP1 POP JUMPDEST POP SWAP1 POP PUSH1 0x0 JUMPDEST PUSH1 0x8 SLOAD DUP2 LT ISZERO PUSH2 0x17B3 JUMPI PUSH1 0x0 PUSH1 0x9 DUP3 DUP2 SLOAD DUP2 LT PUSH2 0x15BC JUMPI PUSH2 0x15BB PUSH2 0x3D47 JUMP JUMPDEST JUMPDEST SWAP1 PUSH1 0x0 MSTORE PUSH1 0x20 PUSH1 0x0 KECCAK256 SWAP1 PUSH1 0x6 MUL ADD SWAP1 POP DUP1 PUSH1 0x40 MLOAD DUP1 PUSH1 0xC0 ADD PUSH1 0x40 MSTORE SWAP1 DUP2 PUSH1 0x0 DUP3 ADD SLOAD DUP2 MSTORE PUSH1 0x20 ADD PUSH1 0x1 DUP3 ADD DUP1 SLOAD PUSH2 0x15F2 SWAP1 PUSH2 0x386B JUMP JUMPDEST DUP1 PUSH1 0x1F ADD PUSH1 0x20 DUP1 SWAP2 DIV MUL PUSH1 0x20 ADD PUSH1 0x40 MLOAD SWAP1 DUP2 ADD PUSH1 0x40 MSTORE DUP1 SWAP3 SWAP2 SWAP1 DUP2 DUP2 MSTORE PUSH1 0x20 ADD DUP3 DUP1 SLOAD PUSH2 0x161E SWAP1 PUSH2 0x386B JUMP JUMPDEST DUP1 ISZERO PUSH2 0x166B JUMPI DUP1 PUSH1 0x1F LT PUSH2 0x1640 JUMPI PUSH2 0x100 DUP1 DUP4 SLOAD DIV MUL DUP4 MSTORE SWAP2 PUSH1 0x20 ADD SWAP2 PUSH2 0x166B JUMP JUMPDEST DUP3 ADD SWAP2 SWAP1 PUSH1 0x0 MSTORE PUSH1 0x20 PUSH1 0x0 KECCAK256 SWAP1 JUMPDEST DUP2 SLOAD DUP2 MSTORE SWAP1 PUSH1 0x1 ADD SWAP1 PUSH1 0x20 ADD DUP1 DUP4 GT PUSH2 0x164E JUMPI DUP3 SWAP1 SUB PUSH1 0x1F AND DUP3 ADD SWAP2 JUMPDEST POP POP POP POP POP DUP2 MSTORE PUSH1 0x20 ADD PUSH1 0x2 DUP3 ADD PUSH1 0x0 SWAP1 SLOAD SWAP1 PUSH2 0x100 EXP SWAP1 DIV PUSH20 0xFFFFFFFFFFFFFFFFFFFFFFFFFFFFFFFFFFFFFFFF AND PUSH20 0xFFFFFFFFFFFFFFFFFFFFFFFFFFFFFFFFFFFFFFFF AND PUSH20 0xFFFFFFFFFFFFFFFFFFFFFFFFFFFFFFFFFFFFFFFF AND DUP2 MSTORE PUSH1 0x20 ADD PUSH1 0x3 DUP3 ADD SLOAD DUP2 MSTORE PUSH1 0x20 ADD PUSH1 0x4 DUP3 ADD DUP1 SLOAD PUSH2 0x16E4 SWAP1 PUSH2 0x386B JUMP JUMPDEST DUP1 PUSH1 0x1F ADD PUSH1 0x20 DUP1 SWAP2 DIV MUL PUSH1 0x20 ADD PUSH1 0x40 MLOAD SWAP1 DUP2 ADD PUSH1 0x40 MSTORE DUP1 SWAP3 SWAP2 SWAP1 DUP2 DUP2 MSTORE PUSH1 0x20 ADD DUP3 DUP1 SLOAD PUSH2 0x1710 SWAP1 PUSH2 0x386B JUMP JUMPDEST DUP1 ISZERO PUSH2 0x175D JUMPI DUP1 PUSH1 0x1F LT PUSH2 0x1732 JUMPI PUSH2 0x100 DUP1 DUP4 SLOAD DIV MUL DUP4 MSTORE SWAP2 PUSH1 0x20 ADD SWAP2 PUSH2 0x175D JUMP JUMPDEST DUP3 ADD SWAP2 SWAP1 PUSH1 0x0 MSTORE PUSH1 0x20 PUSH1 0x0 KECCAK256 SWAP1 JUMPDEST DUP2 SLOAD DUP2 MSTORE SWAP1 PUSH1 0x1 ADD SWAP1 PUSH1 0x20 ADD DUP1 DUP4 GT PUSH2 0x1740 JUMPI DUP3 SWAP1 SUB PUSH1 0x1F AND DUP3 ADD SWAP2 JUMPDEST POP POP POP POP POP DUP2 MSTORE PUSH1 0x20 ADD PUSH1 0x5 DUP3 ADD PUSH1 0x0 SWAP1 SLOAD SWAP1 PUSH2 0x100 EXP SWAP1 DIV PUSH1 0xFF AND ISZERO ISZERO ISZERO ISZERO DUP2 MSTORE POP POP DUP4 DUP4 DUP2 MLOAD DUP2 LT PUSH2 0x1794 JUMPI PUSH2 0x1793 PUSH2 0x3D47 JUMP JUMPDEST JUMPDEST PUSH1 0x20 MUL PUSH1 0x20 ADD ADD DUP2 SWAP1 MSTORE POP POP DUP1 DUP1 PUSH2 0x17AB SWAP1 PUSH2 0x3B49 JUMP JUMPDEST SWAP2 POP POP PUSH2 0x159C JUMP JUMPDEST POP PUSH1 0x9 DUP1 SLOAD DUP1 PUSH1 0x20 MUL PUSH1 0x20 ADD PUSH1 0x40 MLOAD SWAP1 DUP2 ADD PUSH1 0x40 MSTORE DUP1 SWAP3 SWAP2 SWAP1 DUP2 DUP2 MSTORE PUSH1 0x20 ADD PUSH1 0x0 SWAP1 JUMPDEST DUP3 DUP3 LT ISZERO PUSH2 0x19B1 JUMPI DUP4 DUP3 SWAP1 PUSH1 0x0 MSTORE PUSH1 0x20 PUSH1 0x0 KECCAK256 SWAP1 PUSH1 0x6 MUL ADD PUSH1 0x40 MLOAD DUP1 PUSH1 0xC0 ADD PUSH1 0x40 MSTORE SWAP1 DUP2 PUSH1 0x0 DUP3 ADD SLOAD DUP2 MSTORE PUSH1 0x20 ADD PUSH1 0x1 DUP3 ADD DUP1 SLOAD PUSH2 0x1813 SWAP1 PUSH2 0x386B JUMP JUMPDEST DUP1 PUSH1 0x1F ADD PUSH1 0x20 DUP1 SWAP2 DIV MUL PUSH1 0x20 ADD PUSH1 0x40 MLOAD SWAP1 DUP2 ADD PUSH1 0x40 MSTORE DUP1 SWAP3 SWAP2 SWAP1 DUP2 DUP2 MSTORE PUSH1 0x20 ADD DUP3 DUP1 SLOAD PUSH2 0x183F SWAP1 PUSH2 0x386B JUMP JUMPDEST DUP1 ISZERO PUSH2 0x188C JUMPI DUP1 PUSH1 0x1F LT PUSH2 0x1861 JUMPI PUSH2 0x100 DUP1 DUP4 SLOAD DIV MUL DUP4 MSTORE SWAP2 PUSH1 0x20 ADD SWAP2 PUSH2 0x188C JUMP JUMPDEST DUP3 ADD SWAP2 SWAP1 PUSH1 0x0 MSTORE PUSH1 0x20 PUSH1 0x0 KECCAK256 SWAP1 JUMPDEST DUP2 SLOAD DUP2 MSTORE SWAP1 PUSH1 0x1 ADD SWAP1 PUSH1 0x20 ADD DUP1 DUP4 GT PUSH2 0x186F JUMPI DUP3 SWAP1 SUB PUSH1 0x1F AND DUP3 ADD SWAP2 JUMPDEST POP POP POP POP POP DUP2 MSTORE PUSH1 0x20 ADD PUSH1 0x2 DUP3 ADD PUSH1 0x0 SWAP1 SLOAD SWAP1 PUSH2 0x100 EXP SWAP1 DIV PUSH20 0xFFFFFFFFFFFFFFFFFFFFFFFFFFFFFFFFFFFFFFFF AND PUSH20 0xFFFFFFFFFFFFFFFFFFFFFFFFFFFFFFFFFFFFFFFF AND PUSH20 0xFFFFFFFFFFFFFFFFFFFFFFFFFFFFFFFFFFFFFFFF AND DUP2 MSTORE PUSH1 0x20 ADD PUSH1 0x3 DUP3 ADD SLOAD DUP2 MSTORE PUSH1 0x20 ADD PUSH1 0x4 DUP3 ADD DUP1 SLOAD PUSH2 0x1905 SWAP1 PUSH2 0x386B JUMP JUMPDEST DUP1 PUSH1 0x1F ADD PUSH1 0x20 DUP1 SWAP2 DIV MUL PUSH1 0x20 ADD PUSH1 0x40 MLOAD SWAP1 DUP2 ADD PUSH1 0x40 MSTORE DUP1 SWAP3 SWAP2 SWAP1 DUP2 DUP2 MSTORE PUSH1 0x20 ADD DUP3 DUP1 SLOAD PUSH2 0x1931 SWAP1 PUSH2 0x386B JUMP JUMPDEST DUP1 ISZERO PUSH2 0x197E JUMPI DUP1 PUSH1 0x1F LT PUSH2 0x1953 JUMPI PUSH2 0x100 DUP1 DUP4 SLOAD DIV MUL DUP4 MSTORE SWAP2 PUSH1 0x20 ADD SWAP2 PUSH2 0x197E JUMP JUMPDEST DUP3 ADD SWAP2 SWAP1 PUSH1 0x0 MSTORE PUSH1 0x20 PUSH1 0x0 KECCAK256 SWAP1 JUMPDEST DUP2 SLOAD DUP2 MSTORE SWAP1 PUSH1 0x1 ADD SWAP1 PUSH1 0x20 ADD DUP1 DUP4 GT PUSH2 0x1961 JUMPI DUP3 SWAP1 SUB PUSH1 0x1F AND DUP3 ADD SWAP2 JUMPDEST POP POP POP POP POP DUP2 MSTORE PUSH1 0x20 ADD PUSH1 0x5 DUP3 ADD PUSH1 0x0 SWAP1 SLOAD SWAP1 PUSH2 0x100 EXP SWAP1 DIV PUSH1 0xFF AND ISZERO ISZERO ISZERO ISZERO DUP2 MSTORE POP POP DUP2 MSTORE PUSH1 0x20 ADD SWAP1 PUSH1 0x1 ADD SWAP1 PUSH2 0x17D6 JUMP JUMPDEST POP POP POP POP SWAP2 POP POP SWAP1 JUMP JUMPDEST PUSH1 0x60 PUSH2 0x19C7 CALLER DUP4 PUSH2 0x21B5 JUMP JUMPDEST PUSH2 0x1A06 JUMPI PUSH1 0x40 MLOAD PUSH32 0x8C379A000000000000000000000000000000000000000000000000000000000 DUP2 MSTORE PUSH1 0x4 ADD PUSH2 0x19FD SWAP1 PUSH2 0x40D0 JUMP JUMPDEST PUSH1 0x40 MLOAD DUP1 SWAP2 SUB SWAP1 REVERT JUMPDEST PUSH1 0xB PUSH1 0x0 DUP4 DUP2 MSTORE PUSH1 0x20 ADD SWAP1 DUP2 MSTORE PUSH1 0x20 ADD PUSH1 0x0 KECCAK256 PUSH1 0x5 ADD PUSH1 0x0 SWAP1 SLOAD SWAP1 PUSH2 0x100 EXP SWAP1 DIV PUSH1 0xFF AND ISZERO PUSH2 0x1A6A JUMPI PUSH1 0x40 MLOAD PUSH32 0x8C379A000000000000000000000000000000000000000000000000000000000 DUP2 MSTORE PUSH1 0x4 ADD PUSH2 0x1A61 SWAP1 PUSH2 0x413C JUMP JUMPDEST PUSH1 0x40 MLOAD DUP1 SWAP2 SUB SWAP1 REVERT JUMPDEST PUSH1 0x1 PUSH1 0xB PUSH1 0x0 DUP5 DUP2 MSTORE PUSH1 0x20 ADD SWAP1 DUP2 MSTORE PUSH1 0x20 ADD PUSH1 0x0 KECCAK256 PUSH1 0x5 ADD PUSH1 0x0 PUSH2 0x100 EXP DUP2 SLOAD DUP2 PUSH1 0xFF MUL NOT AND SWAP1 DUP4 ISZERO ISZERO MUL OR SWAP1 SSTORE POP PUSH1 0x0 PUSH1 0x9 DUP4 DUP2 SLOAD DUP2 LT PUSH2 0x1AAF JUMPI PUSH2 0x1AAE PUSH2 0x3D47 JUMP JUMPDEST JUMPDEST SWAP1 PUSH1 0x0 MSTORE PUSH1 0x20 PUSH1 0x0 KECCAK256 SWAP1 PUSH1 0x6 MUL ADD SWAP1 POP PUSH1 0x1 DUP2 PUSH1 0x5 ADD PUSH1 0x0 PUSH2 0x100 EXP DUP2 SLOAD DUP2 PUSH1 0xFF MUL NOT AND SWAP1 DUP4 ISZERO ISZERO MUL OR SWAP1 SSTORE POP PUSH1 0x40 MLOAD DUP1 PUSH1 0x40 ADD PUSH1 0x40 MSTORE DUP1 PUSH1 0x3 DUP2 MSTORE PUSH1 0x20 ADD PUSH32 0x4963690000000000000000000000000000000000000000000000000000000000 DUP2 MSTORE POP SWAP2 POP POP SWAP2 SWAP1 POP JUMP JUMPDEST PUSH1 0x0 PUSH1 0x5 PUSH1 0x0 DUP5 PUSH20 0xFFFFFFFFFFFFFFFFFFFFFFFFFFFFFFFFFFFFFFFF AND PUSH20 0xFFFFFFFFFFFFFFFFFFFFFFFFFFFFFFFFFFFFFFFF AND DUP2 MSTORE PUSH1 0x20 ADD SWAP1 DUP2 MSTORE PUSH1 0x20 ADD PUSH1 0x0 KECCAK256 PUSH1 0x0 DUP4 PUSH20 0xFFFFFFFFFFFFFFFFFFFFFFFFFFFFFFFFFFFFFFFF AND PUSH20 0xFFFFFFFFFFFFFFFFFFFFFFFFFFFFFFFFFFFFFFFF AND DUP2 MSTORE PUSH1 0x20 ADD SWAP1 DUP2 MSTORE PUSH1 0x20 ADD PUSH1 0x0 KECCAK256 PUSH1 0x0 SWAP1 SLOAD SWAP1 PUSH2 0x100 EXP SWAP1 DIV PUSH1 0xFF AND SWAP1 POP SWAP3 SWAP2 POP POP JUMP JUMPDEST PUSH2 0x1BB6 PUSH2 0x1FA0 JUMP JUMPDEST PUSH1 0x0 PUSH20 0xFFFFFFFFFFFFFFFFFFFFFFFFFFFFFFFFFFFFFFFF AND DUP2 PUSH20 0xFFFFFFFFFFFFFFFFFFFFFFFFFFFFFFFFFFFFFFFF AND SUB PUSH2 0x1C25 JUMPI PUSH1 0x40 MLOAD PUSH32 0x8C379A000000000000000000000000000000000000000000000000000000000 DUP2 MSTORE PUSH1 0x4 ADD PUSH2 0x1C1C SWAP1 PUSH2 0x41CE JUMP JUMPDEST PUSH1 0x40 MLOAD DUP1 SWAP2 SUB SWAP1 REVERT JUMPDEST PUSH2 0x1C2E DUP2 PUSH2 0x2580 JUMP JUMPDEST POP JUMP JUMPDEST PUSH1 0x60 PUSH1 0x0 PUSH1 0x9 DUP1 SLOAD SWAP1 POP PUSH8 0xFFFFFFFFFFFFFFFF DUP2 GT ISZERO PUSH2 0x1C54 JUMPI PUSH2 0x1C53 PUSH2 0x3055 JUMP JUMPDEST JUMPDEST PUSH1 0x40 MLOAD SWAP1 DUP1 DUP3 MSTORE DUP1 PUSH1 0x20 MUL PUSH1 0x20 ADD DUP3 ADD PUSH1 0x40 MSTORE DUP1 ISZERO PUSH2 0x1C8D JUMPI DUP2 PUSH1 0x20 ADD JUMPDEST PUSH2 0x1C7A PUSH2 0x2F1D JUMP JUMPDEST DUP2 MSTORE PUSH1 0x20 ADD SWAP1 PUSH1 0x1 SWAP1 SUB SWAP1 DUP2 PUSH2 0x1C72 JUMPI SWAP1 POP JUMPDEST POP SWAP1 POP PUSH1 0x0 PUSH2 0x1C9A PUSH2 0xF86 JUMP JUMPDEST SWAP1 POP PUSH1 0x0 JUMPDEST PUSH1 0x9 DUP1 SLOAD SWAP1 POP DUP2 LT ISZERO PUSH2 0x1F2D JUMPI DUP2 PUSH20 0xFFFFFFFFFFFFFFFFFFFFFFFFFFFFFFFFFFFFFFFF AND PUSH1 0x9 DUP3 DUP2 SLOAD DUP2 LT PUSH2 0x1CD7 JUMPI PUSH2 0x1CD6 PUSH2 0x3D47 JUMP JUMPDEST JUMPDEST SWAP1 PUSH1 0x0 MSTORE PUSH1 0x20 PUSH1 0x0 KECCAK256 SWAP1 PUSH1 0x6 MUL ADD PUSH1 0x2 ADD PUSH1 0x0 SWAP1 SLOAD SWAP1 PUSH2 0x100 EXP SWAP1 DIV PUSH20 0xFFFFFFFFFFFFFFFFFFFFFFFFFFFFFFFFFFFFFFFF AND PUSH20 0xFFFFFFFFFFFFFFFFFFFFFFFFFFFFFFFFFFFFFFFF AND SUB PUSH2 0x1F19 JUMPI PUSH1 0x9 DUP2 DUP2 SLOAD DUP2 LT PUSH2 0x1D38 JUMPI PUSH2 0x1D37 PUSH2 0x3D47 JUMP JUMPDEST JUMPDEST SWAP1 PUSH1 0x0 MSTORE PUSH1 0x20 PUSH1 0x0 KECCAK256 SWAP1 PUSH1 0x6 MUL ADD PUSH1 0x40 MLOAD DUP1 PUSH1 0xC0 ADD PUSH1 0x40 MSTORE SWAP1 DUP2 PUSH1 0x0 DUP3 ADD SLOAD DUP2 MSTORE PUSH1 0x20 ADD PUSH1 0x1 DUP3 ADD DUP1 SLOAD PUSH2 0x1D6B SWAP1 PUSH2 0x386B JUMP JUMPDEST DUP1 PUSH1 0x1F ADD PUSH1 0x20 DUP1 SWAP2 DIV MUL PUSH1 0x20 ADD PUSH1 0x40 MLOAD SWAP1 DUP2 ADD PUSH1 0x40 MSTORE DUP1 SWAP3 SWAP2 SWAP1 DUP2 DUP2 MSTORE PUSH1 0x20 ADD DUP3 DUP1 SLOAD PUSH2 0x1D97 SWAP1 PUSH2 0x386B JUMP JUMPDEST DUP1 ISZERO PUSH2 0x1DE4 JUMPI DUP1 PUSH1 0x1F LT PUSH2 0x1DB9 JUMPI PUSH2 0x100 DUP1 DUP4 SLOAD DIV MUL DUP4 MSTORE SWAP2 PUSH1 0x20 ADD SWAP2 PUSH2 0x1DE4 JUMP JUMPDEST DUP3 ADD SWAP2 SWAP1 PUSH1 0x0 MSTORE PUSH1 0x20 PUSH1 0x0 KECCAK256 SWAP1 JUMPDEST DUP2 SLOAD DUP2 MSTORE SWAP1 PUSH1 0x1 ADD SWAP1 PUSH1 0x20 ADD DUP1 DUP4 GT PUSH2 0x1DC7 JUMPI DUP3 SWAP1 SUB PUSH1 0x1F AND DUP3 ADD SWAP2 JUMPDEST POP POP POP POP POP DUP2 MSTORE PUSH1 0x20 ADD PUSH1 0x2 DUP3 ADD PUSH1 0x0 SWAP1 SLOAD SWAP1 PUSH2 0x100 EXP SWAP1 DIV PUSH20 0xFFFFFFFFFFFFFFFFFFFFFFFFFFFFFFFFFFFFFFFF AND PUSH20 0xFFFFFFFFFFFFFFFFFFFFFFFFFFFFFFFFFFFFFFFF AND PUSH20 0xFFFFFFFFFFFFFFFFFFFFFFFFFFFFFFFFFFFFFFFF AND DUP2 MSTORE PUSH1 0x20 ADD PUSH1 0x3 DUP3 ADD SLOAD DUP2 MSTORE PUSH1 0x20 ADD PUSH1 0x4 DUP3 ADD DUP1 SLOAD PUSH2 0x1E5D SWAP1 PUSH2 0x386B JUMP JUMPDEST DUP1 PUSH1 0x1F ADD PUSH1 0x20 DUP1 SWAP2 DIV MUL PUSH1 0x20 ADD PUSH1 0x40 MLOAD SWAP1 DUP2 ADD PUSH1 0x40 MSTORE DUP1 SWAP3 SWAP2 SWAP1 DUP2 DUP2 MSTORE PUSH1 0x20 ADD DUP3 DUP1 SLOAD PUSH2 0x1E89 SWAP1 PUSH2 0x386B JUMP JUMPDEST DUP1 ISZERO PUSH2 0x1ED6 JUMPI DUP1 PUSH1 0x1F LT PUSH2 0x1EAB JUMPI PUSH2 0x100 DUP1 DUP4 SLOAD DIV MUL DUP4 MSTORE SWAP2 PUSH1 0x20 ADD SWAP2 PUSH2 0x1ED6 JUMP JUMPDEST DUP3 ADD SWAP2 SWAP1 PUSH1 0x0 MSTORE PUSH1 0x20 PUSH1 0x0 KECCAK256 SWAP1 JUMPDEST DUP2 SLOAD DUP2 MSTORE SWAP1 PUSH1 0x1 ADD SWAP1 PUSH1 0x20 ADD DUP1 DUP4 GT PUSH2 0x1EB9 JUMPI DUP3 SWAP1 SUB PUSH1 0x1F AND DUP3 ADD SWAP2 JUMPDEST POP POP POP POP POP DUP2 MSTORE PUSH1 0x20 ADD PUSH1 0x5 DUP3 ADD PUSH1 0x0 SWAP1 SLOAD SWAP1 PUSH2 0x100 EXP SWAP1 DIV PUSH1 0xFF AND ISZERO ISZERO ISZERO ISZERO DUP2 MSTORE POP POP DUP4 DUP3 DUP2 MLOAD DUP2 LT PUSH2 0x1F0D JUMPI PUSH2 0x1F0C PUSH2 0x3D47 JUMP JUMPDEST JUMPDEST PUSH1 0x20 MUL PUSH1 0x20 ADD ADD DUP2 SWAP1 MSTORE POP JUMPDEST PUSH1 0x1 DUP2 PUSH2 0x1F26 SWAP2 SWAP1 PUSH2 0x41EE JUMP JUMPDEST SWAP1 POP PUSH2 0x1C9F JUMP JUMPDEST POP DUP2 SWAP3 POP POP POP SWAP1 JUMP JUMPDEST PUSH1 0x0 PUSH32 0x1FFC9A700000000000000000000000000000000000000000000000000000000 PUSH28 0xFFFFFFFFFFFFFFFFFFFFFFFFFFFFFFFFFFFFFFFFFFFFFFFFFFFFFFFF NOT AND DUP3 PUSH28 0xFFFFFFFFFFFFFFFFFFFFFFFFFFFFFFFFFFFFFFFFFFFFFFFFFFFFFFFF NOT AND EQ SWAP1 POP SWAP2 SWAP1 POP JUMP JUMPDEST PUSH2 0x1FA8 PUSH2 0x20F4 JUMP JUMPDEST PUSH20 0xFFFFFFFFFFFFFFFFFFFFFFFFFFFFFFFFFFFFFFFF AND PUSH2 0x1FC6 PUSH2 0xF86 JUMP JUMPDEST PUSH20 0xFFFFFFFFFFFFFFFFFFFFFFFFFFFFFFFFFFFFFFFF AND EQ PUSH2 0x201C JUMPI PUSH1 0x40 MLOAD PUSH32 0x8C379A000000000000000000000000000000000000000000000000000000000 DUP2 MSTORE PUSH1 0x4 ADD PUSH2 0x2013 SWAP1 PUSH2 0x426E JUMP JUMPDEST PUSH1 0x40 MLOAD DUP1 SWAP2 SUB SWAP1 REVERT JUMPDEST JUMP JUMPDEST PUSH2 0x2038 DUP3 DUP3 PUSH1 0x40 MLOAD DUP1 PUSH1 0x20 ADD PUSH1 0x40 MSTORE DUP1 PUSH1 0x0 DUP2 MSTORE POP PUSH2 0x28CE JUMP JUMPDEST POP POP JUMP JUMPDEST PUSH2 0x2045 DUP3 PUSH2 0x2646 JUMP JUMPDEST PUSH2 0x2084 JUMPI PUSH1 0x40 MLOAD PUSH32 0x8C379A000000000000000000000000000000000000000000000000000000000 DUP2 MSTORE PUSH1 0x4 ADD PUSH2 0x207B SWAP1 PUSH2 0x4300 JUMP JUMPDEST PUSH1 0x40 MLOAD DUP1 SWAP2 SUB SWAP1 REVERT JUMPDEST DUP1 PUSH1 0x6 PUSH1 0x0 DUP5 DUP2 MSTORE PUSH1 0x20 ADD SWAP1 DUP2 MSTORE PUSH1 0x20 ADD PUSH1 0x0 KECCAK256 SWAP1 DUP2 PUSH2 0x20A4 SWAP2 SWAP1 PUSH2 0x3A48 JUMP JUMPDEST POP POP POP JUMP JUMPDEST PUSH2 0x20B2 DUP2 PUSH2 0x2646 JUMP JUMPDEST PUSH2 0x20F1 JUMPI PUSH1 0x40 MLOAD PUSH32 0x8C379A000000000000000000000000000000000000000000000000000000000 DUP2 MSTORE PUSH1 0x4 ADD PUSH2 0x20E8 SWAP1 PUSH2 0x3F06 JUMP JUMPDEST PUSH1 0x40 MLOAD DUP1 SWAP2 SUB SWAP1 REVERT JUMPDEST POP JUMP JUMPDEST PUSH1 0x0 CALLER SWAP1 POP SWAP1 JUMP JUMPDEST DUP2 PUSH1 0x4 PUSH1 0x0 DUP4 DUP2 MSTORE PUSH1 0x20 ADD SWAP1 DUP2 MSTORE PUSH1 0x20 ADD PUSH1 0x0 KECCAK256 PUSH1 0x0 PUSH2 0x100 EXP DUP2 SLOAD DUP2 PUSH20 0xFFFFFFFFFFFFFFFFFFFFFFFFFFFFFFFFFFFFFFFF MUL NOT AND SWAP1 DUP4 PUSH20 0xFFFFFFFFFFFFFFFFFFFFFFFFFFFFFFFFFFFFFFFF AND MUL OR SWAP1 SSTORE POP DUP1 DUP3 PUSH20 0xFFFFFFFFFFFFFFFFFFFFFFFFFFFFFFFFFFFFFFFF AND PUSH2 0x216F DUP4 PUSH2 0xE14 JUMP JUMPDEST PUSH20 0xFFFFFFFFFFFFFFFFFFFFFFFFFFFFFFFFFFFFFFFF AND PUSH32 0x8C5BE1E5EBEC7D5BD14F71427D1E84F3DD0314C0F7B2291E5B200AC8C7C3B925 PUSH1 0x40 MLOAD PUSH1 0x40 MLOAD DUP1 SWAP2 SUB SWAP1 LOG4 POP POP JUMP JUMPDEST PUSH1 0x0 DUP1 PUSH2 0x21C1 DUP4 PUSH2 0xE14 JUMP JUMPDEST SWAP1 POP DUP1 PUSH20 0xFFFFFFFFFFFFFFFFFFFFFFFFFFFFFFFFFFFFFFFF AND DUP5 PUSH20 0xFFFFFFFFFFFFFFFFFFFFFFFFFFFFFFFFFFFFFFFF AND EQ DUP1 PUSH2 0x2203 JUMPI POP PUSH2 0x2202 DUP2 DUP6 PUSH2 0x1B1A JUMP JUMPDEST JUMPDEST DUP1 PUSH2 0x2241 JUMPI POP DUP4 PUSH20 0xFFFFFFFFFFFFFFFFFFFFFFFFFFFFFFFFFFFFFFFF AND PUSH2 0x2229 DUP5 PUSH2 0x9A0 JUMP JUMPDEST PUSH20 0xFFFFFFFFFFFFFFFFFFFFFFFFFFFFFFFFFFFFFFFF AND EQ JUMPDEST SWAP2 POP POP SWAP3 SWAP2 POP POP JUMP JUMPDEST DUP3 PUSH20 0xFFFFFFFFFFFFFFFFFFFFFFFFFFFFFFFFFFFFFFFF AND PUSH2 0x226A DUP3 PUSH2 0xE14 JUMP JUMPDEST PUSH20 0xFFFFFFFFFFFFFFFFFFFFFFFFFFFFFFFFFFFFFFFF AND EQ PUSH2 0x22C0 JUMPI PUSH1 0x40 MLOAD PUSH32 0x8C379A000000000000000000000000000000000000000000000000000000000 DUP2 MSTORE PUSH1 0x4 ADD PUSH2 0x22B7 SWAP1 PUSH2 0x4392 JUMP JUMPDEST PUSH1 0x40 MLOAD DUP1 SWAP2 SUB SWAP1 REVERT JUMPDEST PUSH1 0x0 PUSH20 0xFFFFFFFFFFFFFFFFFFFFFFFFFFFFFFFFFFFFFFFF AND DUP3 PUSH20 0xFFFFFFFFFFFFFFFFFFFFFFFFFFFFFFFFFFFFFFFF AND SUB PUSH2 0x232F JUMPI PUSH1 0x40 MLOAD PUSH32 0x8C379A000000000000000000000000000000000000000000000000000000000 DUP2 MSTORE PUSH1 0x4 ADD PUSH2 0x2326 SWAP1 PUSH2 0x4424 JUMP JUMPDEST PUSH1 0x40 MLOAD DUP1 SWAP2 SUB SWAP1 REVERT JUMPDEST PUSH2 0x233C DUP4 DUP4 DUP4 PUSH1 0x1 PUSH2 0x2929 JUMP JUMPDEST DUP3 PUSH20 0xFFFFFFFFFFFFFFFFFFFFFFFFFFFFFFFFFFFFFFFF AND PUSH2 0x235C DUP3 PUSH2 0xE14 JUMP JUMPDEST PUSH20 0xFFFFFFFFFFFFFFFFFFFFFFFFFFFFFFFFFFFFFFFF AND EQ PUSH2 0x23B2 JUMPI PUSH1 0x40 MLOAD PUSH32 0x8C379A000000000000000000000000000000000000000000000000000000000 DUP2 MSTORE PUSH1 0x4 ADD PUSH2 0x23A9 SWAP1 PUSH2 0x4392 JUMP JUMPDEST PUSH1 0x40 MLOAD DUP1 SWAP2 SUB SWAP1 REVERT JUMPDEST PUSH1 0x4 PUSH1 0x0 DUP3 DUP2 MSTORE PUSH1 0x20 ADD SWAP1 DUP2 MSTORE PUSH1 0x20 ADD PUSH1 0x0 KECCAK256 PUSH1 0x0 PUSH2 0x100 EXP DUP2 SLOAD SWAP1 PUSH20 0xFFFFFFFFFFFFFFFFFFFFFFFFFFFFFFFFFFFFFFFF MUL NOT AND SWAP1 SSTORE PUSH1 0x1 PUSH1 0x3 PUSH1 0x0 DUP6 PUSH20 0xFFFFFFFFFFFFFFFFFFFFFFFFFFFFFFFFFFFFFFFF AND PUSH20 0xFFFFFFFFFFFFFFFFFFFFFFFFFFFFFFFFFFFFFFFF AND DUP2 MSTORE PUSH1 0x20 ADD SWAP1 DUP2 MSTORE PUSH1 0x20 ADD PUSH1 0x0 KECCAK256 PUSH1 0x0 DUP3 DUP3 SLOAD SUB SWAP3 POP POP DUP2 SWAP1 SSTORE POP PUSH1 0x1 PUSH1 0x3 PUSH1 0x0 DUP5 PUSH20 0xFFFFFFFFFFFFFFFFFFFFFFFFFFFFFFFFFFFFFFFF AND PUSH20 0xFFFFFFFFFFFFFFFFFFFFFFFFFFFFFFFFFFFFFFFF AND DUP2 MSTORE PUSH1 0x20 ADD SWAP1 DUP2 MSTORE PUSH1 0x20 ADD PUSH1 0x0 KECCAK256 PUSH1 0x0 DUP3 DUP3 SLOAD ADD SWAP3 POP POP DUP2 SWAP1 SSTORE POP DUP2 PUSH1 0x2 PUSH1 0x0 DUP4 DUP2 MSTORE PUSH1 0x20 ADD SWAP1 DUP2 MSTORE PUSH1 0x20 ADD PUSH1 0x0 KECCAK256 PUSH1 0x0 PUSH2 0x100 EXP DUP2 SLOAD DUP2 PUSH20 0xFFFFFFFFFFFFFFFFFFFFFFFFFFFFFFFFFFFFFFFF MUL NOT AND SWAP1 DUP4 PUSH20 0xFFFFFFFFFFFFFFFFFFFFFFFFFFFFFFFFFFFFFFFF AND MUL OR SWAP1 SSTORE POP DUP1 DUP3 PUSH20 0xFFFFFFFFFFFFFFFFFFFFFFFFFFFFFFFFFFFFFFFF AND DUP5 PUSH20 0xFFFFFFFFFFFFFFFFFFFFFFFFFFFFFFFFFFFFFFFF AND PUSH32 0xDDF252AD1BE2C89B69C2B068FC378DAA952BA7F163C4A11628F55A4DF523B3EF PUSH1 0x40 MLOAD PUSH1 0x40 MLOAD DUP1 SWAP2 SUB SWAP1 LOG4 PUSH2 0x253E DUP4 DUP4 DUP4 PUSH1 0x1 PUSH2 0x292F JUMP JUMPDEST POP POP POP JUMP JUMPDEST PUSH1 0x0 PUSH1 0x2 PUSH1 0x0 DUP4 DUP2 MSTORE PUSH1 0x20 ADD SWAP1 DUP2 MSTORE PUSH1 0x20 ADD PUSH1 0x0 KECCAK256 PUSH1 0x0 SWAP1 SLOAD SWAP1 PUSH2 0x100 EXP SWAP1 DIV PUSH20 0xFFFFFFFFFFFFFFFFFFFFFFFFFFFFFFFFFFFFFFFF AND SWAP1 POP SWAP2 SWAP1 POP JUMP JUMPDEST PUSH1 0x0 PUSH1 0x7 PUSH1 0x0 SWAP1 SLOAD SWAP1 PUSH2 0x100 EXP SWAP1 DIV PUSH20 0xFFFFFFFFFFFFFFFFFFFFFFFFFFFFFFFFFFFFFFFF AND SWAP1 POP DUP2 PUSH1 0x7 PUSH1 0x0 PUSH2 0x100 EXP DUP2 SLOAD DUP2 PUSH20 0xFFFFFFFFFFFFFFFFFFFFFFFFFFFFFFFFFFFFFFFF MUL NOT AND SWAP1 DUP4 PUSH20 0xFFFFFFFFFFFFFFFFFFFFFFFFFFFFFFFFFFFFFFFF AND MUL OR SWAP1 SSTORE POP DUP2 PUSH20 0xFFFFFFFFFFFFFFFFFFFFFFFFFFFFFFFFFFFFFFFF AND DUP2 PUSH20 0xFFFFFFFFFFFFFFFFFFFFFFFFFFFFFFFFFFFFFFFF AND PUSH32 0x8BE0079C531659141344CD1FD0A4F28419497F9722A3DAAFE3B4186F6B6457E0 PUSH1 0x40 MLOAD PUSH1 0x40 MLOAD DUP1 SWAP2 SUB SWAP1 LOG3 POP POP JUMP JUMPDEST PUSH1 0x0 DUP1 PUSH20 0xFFFFFFFFFFFFFFFFFFFFFFFFFFFFFFFFFFFFFFFF AND PUSH2 0x2668 DUP4 PUSH2 0x2543 JUMP JUMPDEST PUSH20 0xFFFFFFFFFFFFFFFFFFFFFFFFFFFFFFFFFFFFFFFF AND EQ ISZERO SWAP1 POP SWAP2 SWAP1 POP JUMP JUMPDEST DUP2 PUSH20 0xFFFFFFFFFFFFFFFFFFFFFFFFFFFFFFFFFFFFFFFF AND DUP4 PUSH20 0xFFFFFFFFFFFFFFFFFFFFFFFFFFFFFFFFFFFFFFFF AND SUB PUSH2 0x26F5 JUMPI PUSH1 0x40 MLOAD PUSH32 0x8C379A000000000000000000000000000000000000000000000000000000000 DUP2 MSTORE PUSH1 0x4 ADD PUSH2 0x26EC SWAP1 PUSH2 0x4490 JUMP JUMPDEST PUSH1 0x40 MLOAD DUP1 SWAP2 SUB SWAP1 REVERT JUMPDEST DUP1 PUSH1 0x5 PUSH1 0x0 DUP6 PUSH20 0xFFFFFFFFFFFFFFFFFFFFFFFFFFFFFFFFFFFFFFFF AND PUSH20 0xFFFFFFFFFFFFFFFFFFFFFFFFFFFFFFFFFFFFFFFF AND DUP2 MSTORE PUSH1 0x20 ADD SWAP1 DUP2 MSTORE PUSH1 0x20 ADD PUSH1 0x0 KECCAK256 PUSH1 0x0 DUP5 PUSH20 0xFFFFFFFFFFFFFFFFFFFFFFFFFFFFFFFFFFFFFFFF AND PUSH20 0xFFFFFFFFFFFFFFFFFFFFFFFFFFFFFFFFFFFFFFFF AND DUP2 MSTORE PUSH1 0x20 ADD SWAP1 DUP2 MSTORE PUSH1 0x20 ADD PUSH1 0x0 KECCAK256 PUSH1 0x0 PUSH2 0x100 EXP DUP2 SLOAD DUP2 PUSH1 0xFF MUL NOT AND SWAP1 DUP4 ISZERO ISZERO MUL OR SWAP1 SSTORE POP DUP2 PUSH20 0xFFFFFFFFFFFFFFFFFFFFFFFFFFFFFFFFFFFFFFFF AND DUP4 PUSH20 0xFFFFFFFFFFFFFFFFFFFFFFFFFFFFFFFFFFFFFFFF AND PUSH32 0x17307EAB39AB6107E8899845AD3D59BD9653F200F220920489CA2B5937696C31 DUP4 PUSH1 0x40 MLOAD PUSH2 0x27E6 SWAP2 SWAP1 PUSH2 0x301F JUMP JUMPDEST PUSH1 0x40 MLOAD DUP1 SWAP2 SUB SWAP1 LOG3 POP POP POP JUMP JUMPDEST PUSH2 0x27FE DUP5 DUP5 DUP5 PUSH2 0x224A JUMP JUMPDEST PUSH2 0x280A DUP5 DUP5 DUP5 DUP5 PUSH2 0x2935 JUMP JUMPDEST PUSH2 0x2849 JUMPI PUSH1 0x40 MLOAD PUSH32 0x8C379A000000000000000000000000000000000000000000000000000000000 DUP2 MSTORE PUSH1 0x4 ADD PUSH2 0x2840 SWAP1 PUSH2 0x4522 JUMP JUMPDEST PUSH1 0x40 MLOAD DUP1 SWAP2 SUB SWAP1 REVERT JUMPDEST POP POP POP POP JUMP JUMPDEST PUSH1 0x60 PUSH1 0x40 MLOAD DUP1 PUSH1 0x20 ADD PUSH1 0x40 MSTORE DUP1 PUSH1 0x0 DUP2 MSTORE POP SWAP1 POP SWAP1 JUMP JUMPDEST PUSH1 0x60 PUSH2 0x2871 DUP3 PUSH2 0x20A9 JUMP JUMPDEST PUSH1 0x0 PUSH2 0x287B PUSH2 0x284F JUMP JUMPDEST SWAP1 POP PUSH1 0x0 DUP2 MLOAD GT PUSH2 0x289B JUMPI PUSH1 0x40 MLOAD DUP1 PUSH1 0x20 ADD PUSH1 0x40 MSTORE DUP1 PUSH1 0x0 DUP2 MSTORE POP PUSH2 0x28C6 JUMP JUMPDEST DUP1 PUSH2 0x28A5 DUP5 PUSH2 0x2ABC JUMP JUMPDEST PUSH1 0x40 MLOAD PUSH1 0x20 ADD PUSH2 0x28B6 SWAP3 SWAP2 SWAP1 PUSH2 0x4060 JUMP JUMPDEST PUSH1 0x40 MLOAD PUSH1 0x20 DUP2 DUP4 SUB SUB DUP2 MSTORE SWAP1 PUSH1 0x40 MSTORE JUMPDEST SWAP2 POP POP SWAP2 SWAP1 POP JUMP JUMPDEST PUSH2 0x28D8 DUP4 DUP4 PUSH2 0x2B8A JUMP JUMPDEST PUSH2 0x28E5 PUSH1 0x0 DUP5 DUP5 DUP5 PUSH2 0x2935 JUMP JUMPDEST PUSH2 0x2924 JUMPI PUSH1 0x40 MLOAD PUSH32 0x8C379A000000000000000000000000000000000000000000000000000000000 DUP2 MSTORE PUSH1 0x4 ADD PUSH2 0x291B SWAP1 PUSH2 0x4522 JUMP JUMPDEST PUSH1 0x40 MLOAD DUP1 SWAP2 SUB SWAP1 REVERT JUMPDEST POP POP POP JUMP JUMPDEST POP POP POP POP JUMP JUMPDEST POP POP POP POP JUMP JUMPDEST PUSH1 0x0 PUSH2 0x2956 DUP5 PUSH20 0xFFFFFFFFFFFFFFFFFFFFFFFFFFFFFFFFFFFFFFFF AND PUSH2 0x2DA7 JUMP JUMPDEST ISZERO PUSH2 0x2AAF JUMPI DUP4 PUSH20 0xFFFFFFFFFFFFFFFFFFFFFFFFFFFFFFFFFFFFFFFF AND PUSH4 0x150B7A02 PUSH2 0x297F PUSH2 0x20F4 JUMP JUMPDEST DUP8 DUP7 DUP7 PUSH1 0x40 MLOAD DUP6 PUSH4 0xFFFFFFFF AND PUSH1 0xE0 SHL DUP2 MSTORE PUSH1 0x4 ADD PUSH2 0x29A1 SWAP5 SWAP4 SWAP3 SWAP2 SWAP1 PUSH2 0x4597 JUMP JUMPDEST PUSH1 0x20 PUSH1 0x40 MLOAD DUP1 DUP4 SUB DUP2 PUSH1 0x0 DUP8 GAS CALL SWAP3 POP POP POP DUP1 ISZERO PUSH2 0x29DD JUMPI POP PUSH1 0x40 MLOAD RETURNDATASIZE PUSH1 0x1F NOT PUSH1 0x1F DUP3 ADD AND DUP3 ADD DUP1 PUSH1 0x40 MSTORE POP DUP2 ADD SWAP1 PUSH2 0x29DA SWAP2 SWAP1 PUSH2 0x45F8 JUMP JUMPDEST PUSH1 0x1 JUMPDEST PUSH2 0x2A5F JUMPI RETURNDATASIZE DUP1 PUSH1 0x0 DUP2 EQ PUSH2 0x2A0D JUMPI PUSH1 0x40 MLOAD SWAP2 POP PUSH1 0x1F NOT PUSH1 0x3F RETURNDATASIZE ADD AND DUP3 ADD PUSH1 0x40 MSTORE RETURNDATASIZE DUP3 MSTORE RETURNDATASIZE PUSH1 0x0 PUSH1 0x20 DUP5 ADD RETURNDATACOPY PUSH2 0x2A12 JUMP JUMPDEST PUSH1 0x60 SWAP2 POP JUMPDEST POP PUSH1 0x0 DUP2 MLOAD SUB PUSH2 0x2A57 JUMPI PUSH1 0x40 MLOAD PUSH32 0x8C379A000000000000000000000000000000000000000000000000000000000 DUP2 MSTORE PUSH1 0x4 ADD PUSH2 0x2A4E SWAP1 PUSH2 0x4522 JUMP JUMPDEST PUSH1 0x40 MLOAD DUP1 SWAP2 SUB SWAP1 REVERT JUMPDEST DUP1 MLOAD DUP2 PUSH1 0x20 ADD REVERT JUMPDEST PUSH4 0x150B7A02 PUSH1 0xE0 SHL PUSH28 0xFFFFFFFFFFFFFFFFFFFFFFFFFFFFFFFFFFFFFFFFFFFFFFFFFFFFFFFF NOT AND DUP2 PUSH28 0xFFFFFFFFFFFFFFFFFFFFFFFFFFFFFFFFFFFFFFFFFFFFFFFFFFFFFFFF NOT AND EQ SWAP2 POP POP PUSH2 0x2AB4 JUMP JUMPDEST PUSH1 0x1 SWAP1 POP JUMPDEST SWAP5 SWAP4 POP POP POP POP JUMP JUMPDEST PUSH1 0x60 PUSH1 0x0 PUSH1 0x1 PUSH2 0x2ACB DUP5 PUSH2 0x2DCA JUMP JUMPDEST ADD SWAP1 POP PUSH1 0x0 DUP2 PUSH8 0xFFFFFFFFFFFFFFFF DUP2 GT ISZERO PUSH2 0x2AEA JUMPI PUSH2 0x2AE9 PUSH2 0x3055 JUMP JUMPDEST JUMPDEST PUSH1 0x40 MLOAD SWAP1 DUP1 DUP3 MSTORE DUP1 PUSH1 0x1F ADD PUSH1 0x1F NOT AND PUSH1 0x20 ADD DUP3 ADD PUSH1 0x40 MSTORE DUP1 ISZERO PUSH2 0x2B1C JUMPI DUP2 PUSH1 0x20 ADD PUSH1 0x1 DUP3 MUL DUP1 CALLDATASIZE DUP4 CALLDATACOPY DUP1 DUP3 ADD SWAP2 POP POP SWAP1 POP JUMPDEST POP SWAP1 POP PUSH1 0x0 DUP3 PUSH1 0x20 ADD DUP3 ADD SWAP1 POP JUMPDEST PUSH1 0x1 ISZERO PUSH2 0x2B7F JUMPI DUP1 DUP1 PUSH1 0x1 SWAP1 SUB SWAP2 POP POP PUSH32 0x3031323334353637383961626364656600000000000000000000000000000000 PUSH1 0xA DUP7 MOD BYTE DUP2 MSTORE8 PUSH1 0xA DUP6 DUP2 PUSH2 0x2B73 JUMPI PUSH2 0x2B72 PUSH2 0x4625 JUMP JUMPDEST JUMPDEST DIV SWAP5 POP PUSH1 0x0 DUP6 SUB PUSH2 0x2B2A JUMPI JUMPDEST DUP2 SWAP4 POP POP POP POP SWAP2 SWAP1 POP JUMP JUMPDEST PUSH1 0x0 PUSH20 0xFFFFFFFFFFFFFFFFFFFFFFFFFFFFFFFFFFFFFFFF AND DUP3 PUSH20 0xFFFFFFFFFFFFFFFFFFFFFFFFFFFFFFFFFFFFFFFF AND SUB PUSH2 0x2BF9 JUMPI PUSH1 0x40 MLOAD PUSH32 0x8C379A000000000000000000000000000000000000000000000000000000000 DUP2 MSTORE PUSH1 0x4 ADD PUSH2 0x2BF0 SWAP1 PUSH2 0x46A0 JUMP JUMPDEST PUSH1 0x40 MLOAD DUP1 SWAP2 SUB SWAP1 REVERT JUMPDEST PUSH2 0x2C02 DUP2 PUSH2 0x2646 JUMP JUMPDEST ISZERO PUSH2 0x2C42 JUMPI PUSH1 0x40 MLOAD PUSH32 0x8C379A000000000000000000000000000000000000000000000000000000000 DUP2 MSTORE PUSH1 0x4 ADD PUSH2 0x2C39 SWAP1 PUSH2 0x470C JUMP JUMPDEST PUSH1 0x40 MLOAD DUP1 SWAP2 SUB SWAP1 REVERT JUMPDEST PUSH2 0x2C50 PUSH1 0x0 DUP4 DUP4 PUSH1 0x1 PUSH2 0x2929 JUMP JUMPDEST PUSH2 0x2C59 DUP2 PUSH2 0x2646 JUMP JUMPDEST ISZERO PUSH2 0x2C99 JUMPI PUSH1 0x40 MLOAD PUSH32 0x8C379A000000000000000000000000000000000000000000000000000000000 DUP2 MSTORE PUSH1 0x4 ADD PUSH2 0x2C90 SWAP1 PUSH2 0x470C JUMP JUMPDEST PUSH1 0x40 MLOAD DUP1 SWAP2 SUB SWAP1 REVERT JUMPDEST PUSH1 0x1 PUSH1 0x3 PUSH1 0x0 DUP5 PUSH20 0xFFFFFFFFFFFFFFFFFFFFFFFFFFFFFFFFFFFFFFFF AND PUSH20 0xFFFFFFFFFFFFFFFFFFFFFFFFFFFFFFFFFFFFFFFF AND DUP2 MSTORE PUSH1 0x20 ADD SWAP1 DUP2 MSTORE PUSH1 0x20 ADD PUSH1 0x0 KECCAK256 PUSH1 0x0 DUP3 DUP3 SLOAD ADD SWAP3 POP POP DUP2 SWAP1 SSTORE POP DUP2 PUSH1 0x2 PUSH1 0x0 DUP4 DUP2 MSTORE PUSH1 0x20 ADD SWAP1 DUP2 MSTORE PUSH1 0x20 ADD PUSH1 0x0 KECCAK256 PUSH1 0x0 PUSH2 0x100 EXP DUP2 SLOAD DUP2 PUSH20 0xFFFFFFFFFFFFFFFFFFFFFFFFFFFFFFFFFFFFFFFF MUL NOT AND SWAP1 DUP4 PUSH20 0xFFFFFFFFFFFFFFFFFFFFFFFFFFFFFFFFFFFFFFFF AND MUL OR SWAP1 SSTORE POP DUP1 DUP3 PUSH20 0xFFFFFFFFFFFFFFFFFFFFFFFFFFFFFFFFFFFFFFFF AND PUSH1 0x0 PUSH20 0xFFFFFFFFFFFFFFFFFFFFFFFFFFFFFFFFFFFFFFFF AND PUSH32 0xDDF252AD1BE2C89B69C2B068FC378DAA952BA7F163C4A11628F55A4DF523B3EF PUSH1 0x40 MLOAD PUSH1 0x40 MLOAD DUP1 SWAP2 SUB SWAP1 LOG4 PUSH2 0x2DA3 PUSH1 0x0 DUP4 DUP4 PUSH1 0x1 PUSH2 0x292F JUMP JUMPDEST POP POP JUMP JUMPDEST PUSH1 0x0 DUP1 DUP3 PUSH20 0xFFFFFFFFFFFFFFFFFFFFFFFFFFFFFFFFFFFFFFFF AND EXTCODESIZE GT SWAP1 POP SWAP2 SWAP1 POP JUMP JUMPDEST PUSH1 0x0 DUP1 PUSH1 0x0 SWAP1 POP PUSH27 0x184F03E93FF9F4DAA797ED6E38ED64BF6A1F010000000000000000 DUP4 LT PUSH2 0x2E28 JUMPI PUSH27 0x184F03E93FF9F4DAA797ED6E38ED64BF6A1F010000000000000000 DUP4 DUP2 PUSH2 0x2E1E JUMPI PUSH2 0x2E1D PUSH2 0x4625 JUMP JUMPDEST JUMPDEST DIV SWAP3 POP PUSH1 0x40 DUP2 ADD SWAP1 POP JUMPDEST PUSH14 0x4EE2D6D415B85ACEF8100000000 DUP4 LT PUSH2 0x2E65 JUMPI PUSH14 0x4EE2D6D415B85ACEF8100000000 DUP4 DUP2 PUSH2 0x2E5B JUMPI PUSH2 0x2E5A PUSH2 0x4625 JUMP JUMPDEST JUMPDEST DIV SWAP3 POP PUSH1 0x20 DUP2 ADD SWAP1 POP JUMPDEST PUSH7 0x2386F26FC10000 DUP4 LT PUSH2 0x2E94 JUMPI PUSH7 0x2386F26FC10000 DUP4 DUP2 PUSH2 0x2E8A JUMPI PUSH2 0x2E89 PUSH2 0x4625 JUMP JUMPDEST JUMPDEST DIV SWAP3 POP PUSH1 0x10 DUP2 ADD SWAP1 POP JUMPDEST PUSH4 0x5F5E100 DUP4 LT PUSH2 0x2EBD JUMPI PUSH4 0x5F5E100 DUP4 DUP2 PUSH2 0x2EB3 JUMPI PUSH2 0x2EB2 PUSH2 0x4625 JUMP JUMPDEST JUMPDEST DIV SWAP3 POP PUSH1 0x8 DUP2 ADD SWAP1 POP JUMPDEST PUSH2 0x2710 DUP4 LT PUSH2 0x2EE2 JUMPI PUSH2 0x2710 DUP4 DUP2 PUSH2 0x2ED8 JUMPI PUSH2 0x2ED7 PUSH2 0x4625 JUMP JUMPDEST JUMPDEST DIV SWAP3 POP PUSH1 0x4 DUP2 ADD SWAP1 POP JUMPDEST PUSH1 0x64 DUP4 LT PUSH2 0x2F05 JUMPI PUSH1 0x64 DUP4 DUP2 PUSH2 0x2EFB JUMPI PUSH2 0x2EFA PUSH2 0x4625 JUMP JUMPDEST JUMPDEST DIV SWAP3 POP PUSH1 0x2 DUP2 ADD SWAP1 POP JUMPDEST PUSH1 0xA DUP4 LT PUSH2 0x2F14 JUMPI PUSH1 0x1 DUP2 ADD SWAP1 POP JUMPDEST DUP1 SWAP2 POP POP SWAP2 SWAP1 POP JUMP JUMPDEST PUSH1 0x40 MLOAD DUP1 PUSH1 0xC0 ADD PUSH1 0x40 MSTORE DUP1 PUSH1 0x0 DUP2 MSTORE PUSH1 0x20 ADD PUSH1 0x60 DUP2 MSTORE PUSH1 0x20 ADD PUSH1 0x0 PUSH20 0xFFFFFFFFFFFFFFFFFFFFFFFFFFFFFFFFFFFFFFFF AND DUP2 MSTORE PUSH1 0x20 ADD PUSH1 0x0 DUP2 MSTORE PUSH1 0x20 ADD PUSH1 0x60 DUP2 MSTORE PUSH1 0x20 ADD PUSH1 0x0 ISZERO ISZERO DUP2 MSTORE POP SWAP1 JUMP JUMPDEST PUSH1 0x0 PUSH1 0x40 MLOAD SWAP1 POP SWAP1 JUMP JUMPDEST PUSH1 0x0 DUP1 REVERT JUMPDEST PUSH1 0x0 DUP1 REVERT JUMPDEST PUSH1 0x0 PUSH32 0xFFFFFFFF00000000000000000000000000000000000000000000000000000000 DUP3 AND SWAP1 POP SWAP2 SWAP1 POP JUMP JUMPDEST PUSH2 0x2FB4 DUP2 PUSH2 0x2F7F JUMP JUMPDEST DUP2 EQ PUSH2 0x2FBF JUMPI PUSH1 0x0 DUP1 REVERT JUMPDEST POP JUMP JUMPDEST PUSH1 0x0 DUP2 CALLDATALOAD SWAP1 POP PUSH2 0x2FD1 DUP2 PUSH2 0x2FAB JUMP JUMPDEST SWAP3 SWAP2 POP POP JUMP JUMPDEST PUSH1 0x0 PUSH1 0x20 DUP3 DUP5 SUB SLT ISZERO PUSH2 0x2FED JUMPI PUSH2 0x2FEC PUSH2 0x2F75 JUMP JUMPDEST JUMPDEST PUSH1 0x0 PUSH2 0x2FFB DUP5 DUP3 DUP6 ADD PUSH2 0x2FC2 JUMP JUMPDEST SWAP2 POP POP SWAP3 SWAP2 POP POP JUMP JUMPDEST PUSH1 0x0 DUP2 ISZERO ISZERO SWAP1 POP SWAP2 SWAP1 POP JUMP JUMPDEST PUSH2 0x3019 DUP2 PUSH2 0x3004 JUMP JUMPDEST DUP3 MSTORE POP POP JUMP JUMPDEST PUSH1 0x0 PUSH1 0x20 DUP3 ADD SWAP1 POP PUSH2 0x3034 PUSH1 0x0 DUP4 ADD DUP5 PUSH2 0x3010 JUMP JUMPDEST SWAP3 SWAP2 POP POP JUMP JUMPDEST PUSH1 0x0 DUP1 REVERT JUMPDEST PUSH1 0x0 DUP1 REVERT JUMPDEST PUSH1 0x0 PUSH1 0x1F NOT PUSH1 0x1F DUP4 ADD AND SWAP1 POP SWAP2 SWAP1 POP JUMP JUMPDEST PUSH32 0x4E487B7100000000000000000000000000000000000000000000000000000000 PUSH1 0x0 MSTORE PUSH1 0x41 PUSH1 0x4 MSTORE PUSH1 0x24 PUSH1 0x0 REVERT JUMPDEST PUSH2 0x308D DUP3 PUSH2 0x3044 JUMP JUMPDEST DUP2 ADD DUP2 DUP2 LT PUSH8 0xFFFFFFFFFFFFFFFF DUP3 GT OR ISZERO PUSH2 0x30AC JUMPI PUSH2 0x30AB PUSH2 0x3055 JUMP JUMPDEST JUMPDEST DUP1 PUSH1 0x40 MSTORE POP POP POP JUMP JUMPDEST PUSH1 0x0 PUSH2 0x30BF PUSH2 0x2F6B JUMP JUMPDEST SWAP1 POP PUSH2 0x30CB DUP3 DUP3 PUSH2 0x3084 JUMP JUMPDEST SWAP2 SWAP1 POP JUMP JUMPDEST PUSH1 0x0 PUSH8 0xFFFFFFFFFFFFFFFF DUP3 GT ISZERO PUSH2 0x30EB JUMPI PUSH2 0x30EA PUSH2 0x3055 JUMP JUMPDEST JUMPDEST PUSH2 0x30F4 DUP3 PUSH2 0x3044 JUMP JUMPDEST SWAP1 POP PUSH1 0x20 DUP2 ADD SWAP1 POP SWAP2 SWAP1 POP JUMP JUMPDEST DUP3 DUP2 DUP4 CALLDATACOPY PUSH1 0x0 DUP4 DUP4 ADD MSTORE POP POP POP JUMP JUMPDEST PUSH1 0x0 PUSH2 0x3123 PUSH2 0x311E DUP5 PUSH2 0x30D0 JUMP JUMPDEST PUSH2 0x30B5 JUMP JUMPDEST SWAP1 POP DUP3 DUP2 MSTORE PUSH1 0x20 DUP2 ADD DUP5 DUP5 DUP5 ADD GT ISZERO PUSH2 0x313F JUMPI PUSH2 0x313E PUSH2 0x303F JUMP JUMPDEST JUMPDEST PUSH2 0x314A DUP5 DUP3 DUP6 PUSH2 0x3101 JUMP JUMPDEST POP SWAP4 SWAP3 POP POP POP JUMP JUMPDEST PUSH1 0x0 DUP3 PUSH1 0x1F DUP4 ADD SLT PUSH2 0x3167 JUMPI PUSH2 0x3166 PUSH2 0x303A JUMP JUMPDEST JUMPDEST DUP2 CALLDATALOAD PUSH2 0x3177 DUP5 DUP3 PUSH1 0x20 DUP7 ADD PUSH2 0x3110 JUMP JUMPDEST SWAP2 POP POP SWAP3 SWAP2 POP POP JUMP JUMPDEST PUSH1 0x0 DUP2 SWAP1 POP SWAP2 SWAP1 POP JUMP JUMPDEST PUSH2 0x3193 DUP2 PUSH2 0x3180 JUMP JUMPDEST DUP2 EQ PUSH2 0x319E JUMPI PUSH1 0x0 DUP1 REVERT JUMPDEST POP JUMP JUMPDEST PUSH1 0x0 DUP2 CALLDATALOAD SWAP1 POP PUSH2 0x31B0 DUP2 PUSH2 0x318A JUMP JUMPDEST SWAP3 SWAP2 POP POP JUMP JUMPDEST PUSH1 0x0 DUP1 PUSH1 0x0 PUSH1 0x60 DUP5 DUP7 SUB SLT ISZERO PUSH2 0x31CF JUMPI PUSH2 0x31CE PUSH2 0x2F75 JUMP JUMPDEST JUMPDEST PUSH1 0x0 DUP5 ADD CALLDATALOAD PUSH8 0xFFFFFFFFFFFFFFFF DUP2 GT ISZERO PUSH2 0x31ED JUMPI PUSH2 0x31EC PUSH2 0x2F7A JUMP JUMPDEST JUMPDEST PUSH2 0x31F9 DUP7 DUP3 DUP8 ADD PUSH2 0x3152 JUMP JUMPDEST SWAP4 POP POP PUSH1 0x20 PUSH2 0x320A DUP7 DUP3 DUP8 ADD PUSH2 0x31A1 JUMP JUMPDEST SWAP3 POP POP PUSH1 0x40 DUP5 ADD CALLDATALOAD PUSH8 0xFFFFFFFFFFFFFFFF DUP2 GT ISZERO PUSH2 0x322B JUMPI PUSH2 0x322A PUSH2 0x2F7A JUMP JUMPDEST JUMPDEST PUSH2 0x3237 DUP7 DUP3 DUP8 ADD PUSH2 0x3152 JUMP JUMPDEST SWAP2 POP POP SWAP3 POP SWAP3 POP SWAP3 JUMP JUMPDEST PUSH1 0x0 DUP2 MLOAD SWAP1 POP SWAP2 SWAP1 POP JUMP JUMPDEST PUSH1 0x0 DUP3 DUP3 MSTORE PUSH1 0x20 DUP3 ADD SWAP1 POP SWAP3 SWAP2 POP POP JUMP JUMPDEST PUSH1 0x0 JUMPDEST DUP4 DUP2 LT ISZERO PUSH2 0x327B JUMPI DUP1 DUP3 ADD MLOAD DUP2 DUP5 ADD MSTORE PUSH1 0x20 DUP2 ADD SWAP1 POP PUSH2 0x3260 JUMP JUMPDEST PUSH1 0x0 DUP5 DUP5 ADD MSTORE POP POP POP POP JUMP JUMPDEST PUSH1 0x0 PUSH2 0x3292 DUP3 PUSH2 0x3241 JUMP JUMPDEST PUSH2 0x329C DUP2 DUP6 PUSH2 0x324C JUMP JUMPDEST SWAP4 POP PUSH2 0x32AC DUP2 DUP6 PUSH1 0x20 DUP7 ADD PUSH2 0x325D JUMP JUMPDEST PUSH2 0x32B5 DUP2 PUSH2 0x3044 JUMP JUMPDEST DUP5 ADD SWAP2 POP POP SWAP3 SWAP2 POP POP JUMP JUMPDEST PUSH1 0x0 PUSH1 0x20 DUP3 ADD SWAP1 POP DUP2 DUP2 SUB PUSH1 0x0 DUP4 ADD MSTORE PUSH2 0x32DA DUP2 DUP5 PUSH2 0x3287 JUMP JUMPDEST SWAP1 POP SWAP3 SWAP2 POP POP JUMP JUMPDEST PUSH1 0x0 PUSH1 0x20 DUP3 DUP5 SUB SLT ISZERO PUSH2 0x32F8 JUMPI PUSH2 0x32F7 PUSH2 0x2F75 JUMP JUMPDEST JUMPDEST PUSH1 0x0 PUSH2 0x3306 DUP5 DUP3 DUP6 ADD PUSH2 0x31A1 JUMP JUMPDEST SWAP2 POP POP SWAP3 SWAP2 POP POP JUMP JUMPDEST PUSH1 0x0 PUSH20 0xFFFFFFFFFFFFFFFFFFFFFFFFFFFFFFFFFFFFFFFF DUP3 AND SWAP1 POP SWAP2 SWAP1 POP JUMP JUMPDEST PUSH1 0x0 PUSH2 0x333A DUP3 PUSH2 0x330F JUMP JUMPDEST SWAP1 POP SWAP2 SWAP1 POP JUMP JUMPDEST PUSH2 0x334A DUP2 PUSH2 0x332F JUMP JUMPDEST DUP3 MSTORE POP POP JUMP JUMPDEST PUSH1 0x0 PUSH1 0x20 DUP3 ADD SWAP1 POP PUSH2 0x3365 PUSH1 0x0 DUP4 ADD DUP5 PUSH2 0x3341 JUMP JUMPDEST SWAP3 SWAP2 POP POP JUMP JUMPDEST PUSH2 0x3374 DUP2 PUSH2 0x332F JUMP JUMPDEST DUP2 EQ PUSH2 0x337F JUMPI PUSH1 0x0 DUP1 REVERT JUMPDEST POP JUMP JUMPDEST PUSH1 0x0 DUP2 CALLDATALOAD SWAP1 POP PUSH2 0x3391 DUP2 PUSH2 0x336B JUMP JUMPDEST SWAP3 SWAP2 POP POP JUMP JUMPDEST PUSH1 0x0 DUP1 PUSH1 0x40 DUP4 DUP6 SUB SLT ISZERO PUSH2 0x33AE JUMPI PUSH2 0x33AD PUSH2 0x2F75 JUMP JUMPDEST JUMPDEST PUSH1 0x0 PUSH2 0x33BC DUP6 DUP3 DUP7 ADD PUSH2 0x3382 JUMP JUMPDEST SWAP3 POP POP PUSH1 0x20 PUSH2 0x33CD DUP6 DUP3 DUP7 ADD PUSH2 0x31A1 JUMP JUMPDEST SWAP2 POP POP SWAP3 POP SWAP3 SWAP1 POP JUMP JUMPDEST PUSH1 0x0 DUP1 PUSH1 0x0 PUSH1 0x60 DUP5 DUP7 SUB SLT ISZERO PUSH2 0x33F0 JUMPI PUSH2 0x33EF PUSH2 0x2F75 JUMP JUMPDEST JUMPDEST PUSH1 0x0 PUSH2 0x33FE DUP7 DUP3 DUP8 ADD PUSH2 0x3382 JUMP JUMPDEST SWAP4 POP POP PUSH1 0x20 PUSH2 0x340F DUP7 DUP3 DUP8 ADD PUSH2 0x3382 JUMP JUMPDEST SWAP3 POP POP PUSH1 0x40 PUSH2 0x3420 DUP7 DUP3 DUP8 ADD PUSH2 0x31A1 JUMP JUMPDEST SWAP2 POP POP SWAP3 POP SWAP3 POP SWAP3 JUMP JUMPDEST PUSH1 0x0 PUSH1 0x20 DUP3 DUP5 SUB SLT ISZERO PUSH2 0x3440 JUMPI PUSH2 0x343F PUSH2 0x2F75 JUMP JUMPDEST JUMPDEST PUSH1 0x0 PUSH2 0x344E DUP5 DUP3 DUP6 ADD PUSH2 0x3382 JUMP JUMPDEST SWAP2 POP POP SWAP3 SWAP2 POP POP JUMP JUMPDEST PUSH2 0x3460 DUP2 PUSH2 0x3180 JUMP JUMPDEST DUP3 MSTORE POP POP JUMP JUMPDEST PUSH1 0x0 PUSH1 0x20 DUP3 ADD SWAP1 POP PUSH2 0x347B PUSH1 0x0 DUP4 ADD DUP5 PUSH2 0x3457 JUMP JUMPDEST SWAP3 SWAP2 POP POP JUMP JUMPDEST PUSH2 0x348A DUP2 PUSH2 0x3004 JUMP JUMPDEST DUP2 EQ PUSH2 0x3495 JUMPI PUSH1 0x0 DUP1 REVERT JUMPDEST POP JUMP JUMPDEST PUSH1 0x0 DUP2 CALLDATALOAD SWAP1 POP PUSH2 0x34A7 DUP2 PUSH2 0x3481 JUMP JUMPDEST SWAP3 SWAP2 POP POP JUMP JUMPDEST PUSH1 0x0 DUP1 PUSH1 0x40 DUP4 DUP6 SUB SLT ISZERO PUSH2 0x34C4 JUMPI PUSH2 0x34C3 PUSH2 0x2F75 JUMP JUMPDEST JUMPDEST PUSH1 0x0 PUSH2 0x34D2 DUP6 DUP3 DUP7 ADD PUSH2 0x3382 JUMP JUMPDEST SWAP3 POP POP PUSH1 0x20 PUSH2 0x34E3 DUP6 DUP3 DUP7 ADD PUSH2 0x3498 JUMP JUMPDEST SWAP2 POP POP SWAP3 POP SWAP3 SWAP1 POP JUMP JUMPDEST PUSH1 0x0 PUSH8 0xFFFFFFFFFFFFFFFF DUP3 GT ISZERO PUSH2 0x3508 JUMPI PUSH2 0x3507 PUSH2 0x3055 JUMP JUMPDEST JUMPDEST PUSH2 0x3511 DUP3 PUSH2 0x3044 JUMP JUMPDEST SWAP1 POP PUSH1 0x20 DUP2 ADD SWAP1 POP SWAP2 SWAP1 POP JUMP JUMPDEST PUSH1 0x0 PUSH2 0x3531 PUSH2 0x352C DUP5 PUSH2 0x34ED JUMP JUMPDEST PUSH2 0x30B5 JUMP JUMPDEST SWAP1 POP DUP3 DUP2 MSTORE PUSH1 0x20 DUP2 ADD DUP5 DUP5 DUP5 ADD GT ISZERO PUSH2 0x354D JUMPI PUSH2 0x354C PUSH2 0x303F JUMP JUMPDEST JUMPDEST PUSH2 0x3558 DUP5 DUP3 DUP6 PUSH2 0x3101 JUMP JUMPDEST POP SWAP4 SWAP3 POP POP POP JUMP JUMPDEST PUSH1 0x0 DUP3 PUSH1 0x1F DUP4 ADD SLT PUSH2 0x3575 JUMPI PUSH2 0x3574 PUSH2 0x303A JUMP JUMPDEST JUMPDEST DUP2 CALLDATALOAD PUSH2 0x3585 DUP5 DUP3 PUSH1 0x20 DUP7 ADD PUSH2 0x351E JUMP JUMPDEST SWAP2 POP POP SWAP3 SWAP2 POP POP JUMP JUMPDEST PUSH1 0x0 DUP1 PUSH1 0x0 DUP1 PUSH1 0x80 DUP6 DUP8 SUB SLT ISZERO PUSH2 0x35A8 JUMPI PUSH2 0x35A7 PUSH2 0x2F75 JUMP JUMPDEST JUMPDEST PUSH1 0x0 PUSH2 0x35B6 DUP8 DUP3 DUP9 ADD PUSH2 0x3382 JUMP JUMPDEST SWAP5 POP POP PUSH1 0x20 PUSH2 0x35C7 DUP8 DUP3 DUP9 ADD PUSH2 0x3382 JUMP JUMPDEST SWAP4 POP POP PUSH1 0x40 PUSH2 0x35D8 DUP8 DUP3 DUP9 ADD PUSH2 0x31A1 JUMP JUMPDEST SWAP3 POP POP PUSH1 0x60 DUP6 ADD CALLDATALOAD PUSH8 0xFFFFFFFFFFFFFFFF DUP2 GT ISZERO PUSH2 0x35F9 JUMPI PUSH2 0x35F8 PUSH2 0x2F7A JUMP JUMPDEST JUMPDEST PUSH2 0x3605 DUP8 DUP3 DUP9 ADD PUSH2 0x3560 JUMP JUMPDEST SWAP2 POP POP SWAP3 SWAP6 SWAP2 SWAP5 POP SWAP3 POP JUMP JUMPDEST PUSH1 0x0 DUP2 MLOAD SWAP1 POP SWAP2 SWAP1 POP JUMP JUMPDEST PUSH1 0x0 DUP3 DUP3 MSTORE PUSH1 0x20 DUP3 ADD SWAP1 POP SWAP3 SWAP2 POP POP JUMP JUMPDEST PUSH1 0x0 DUP2 SWAP1 POP PUSH1 0x20 DUP3 ADD SWAP1 POP SWAP2 SWAP1 POP JUMP JUMPDEST PUSH2 0x3646 DUP2 PUSH2 0x3180 JUMP JUMPDEST DUP3 MSTORE POP POP JUMP JUMPDEST PUSH1 0x0 DUP3 DUP3 MSTORE PUSH1 0x20 DUP3 ADD SWAP1 POP SWAP3 SWAP2 POP POP JUMP JUMPDEST PUSH1 0x0 PUSH2 0x3668 DUP3 PUSH2 0x3241 JUMP JUMPDEST PUSH2 0x3672 DUP2 DUP6 PUSH2 0x364C JUMP JUMPDEST SWAP4 POP PUSH2 0x3682 DUP2 DUP6 PUSH1 0x20 DUP7 ADD PUSH2 0x325D JUMP JUMPDEST PUSH2 0x368B DUP2 PUSH2 0x3044 JUMP JUMPDEST DUP5 ADD SWAP2 POP POP SWAP3 SWAP2 POP POP JUMP JUMPDEST PUSH2 0x369F DUP2 PUSH2 0x332F JUMP JUMPDEST DUP3 MSTORE POP POP JUMP JUMPDEST PUSH2 0x36AE DUP2 PUSH2 0x3004 JUMP JUMPDEST DUP3 MSTORE POP POP JUMP JUMPDEST PUSH1 0x0 PUSH1 0xC0 DUP4 ADD PUSH1 0x0 DUP4 ADD MLOAD PUSH2 0x36CC PUSH1 0x0 DUP7 ADD DUP3 PUSH2 0x363D JUMP JUMPDEST POP PUSH1 0x20 DUP4 ADD MLOAD DUP5 DUP3 SUB PUSH1 0x20 DUP7 ADD MSTORE PUSH2 0x36E4 DUP3 DUP3 PUSH2 0x365D JUMP JUMPDEST SWAP2 POP POP PUSH1 0x40 DUP4 ADD MLOAD PUSH2 0x36F9 PUSH1 0x40 DUP7 ADD DUP3 PUSH2 0x3696 JUMP JUMPDEST POP PUSH1 0x60 DUP4 ADD MLOAD PUSH2 0x370C PUSH1 0x60 DUP7 ADD DUP3 PUSH2 0x363D JUMP JUMPDEST POP PUSH1 0x80 DUP4 ADD MLOAD DUP5 DUP3 SUB PUSH1 0x80 DUP7 ADD MSTORE PUSH2 0x3724 DUP3 DUP3 PUSH2 0x365D JUMP JUMPDEST SWAP2 POP POP PUSH1 0xA0 DUP4 ADD MLOAD PUSH2 0x3739 PUSH1 0xA0 DUP7 ADD DUP3 PUSH2 0x36A5 JUMP JUMPDEST POP DUP1 SWAP2 POP POP SWAP3 SWAP2 POP POP JUMP JUMPDEST PUSH1 0x0 PUSH2 0x3750 DUP4 DUP4 PUSH2 0x36B4 JUMP JUMPDEST SWAP1 POP SWAP3 SWAP2 POP POP JUMP JUMPDEST PUSH1 0x0 PUSH1 0x20 DUP3 ADD SWAP1 POP SWAP2 SWAP1 POP JUMP JUMPDEST PUSH1 0x0 PUSH2 0x3770 DUP3 PUSH2 0x3611 JUMP JUMPDEST PUSH2 0x377A DUP2 DUP6 PUSH2 0x361C JUMP JUMPDEST SWAP4 POP DUP4 PUSH1 0x20 DUP3 MUL DUP6 ADD PUSH2 0x378C DUP6 PUSH2 0x362D JUMP JUMPDEST DUP1 PUSH1 0x0 JUMPDEST DUP6 DUP2 LT ISZERO PUSH2 0x37C8 JUMPI DUP5 DUP5 SUB DUP10 MSTORE DUP2 MLOAD PUSH2 0x37A9 DUP6 DUP3 PUSH2 0x3744 JUMP JUMPDEST SWAP5 POP PUSH2 0x37B4 DUP4 PUSH2 0x3758 JUMP JUMPDEST SWAP3 POP PUSH1 0x20 DUP11 ADD SWAP10 POP POP PUSH1 0x1 DUP2 ADD SWAP1 POP PUSH2 0x3790 JUMP JUMPDEST POP DUP3 SWAP8 POP DUP8 SWAP6 POP POP POP POP POP POP SWAP3 SWAP2 POP POP JUMP JUMPDEST PUSH1 0x0 PUSH1 0x20 DUP3 ADD SWAP1 POP DUP2 DUP2 SUB PUSH1 0x0 DUP4 ADD MSTORE PUSH2 0x37F4 DUP2 DUP5 PUSH2 0x3765 JUMP JUMPDEST SWAP1 POP SWAP3 SWAP2 POP POP JUMP JUMPDEST PUSH1 0x0 DUP1 PUSH1 0x40 DUP4 DUP6 SUB SLT ISZERO PUSH2 0x3813 JUMPI PUSH2 0x3812 PUSH2 0x2F75 JUMP JUMPDEST JUMPDEST PUSH1 0x0 PUSH2 0x3821 DUP6 DUP3 DUP7 ADD PUSH2 0x3382 JUMP JUMPDEST SWAP3 POP POP PUSH1 0x20 PUSH2 0x3832 DUP6 DUP3 DUP7 ADD PUSH2 0x3382 JUMP JUMPDEST SWAP2 POP POP SWAP3 POP SWAP3 SWAP1 POP JUMP JUMPDEST PUSH32 0x4E487B7100000000000000000000000000000000000000000000000000000000 PUSH1 0x0 MSTORE PUSH1 0x22 PUSH1 0x4 MSTORE PUSH1 0x24 PUSH1 0x0 REVERT JUMPDEST PUSH1 0x0 PUSH1 0x2 DUP3 DIV SWAP1 POP PUSH1 0x1 DUP3 AND DUP1 PUSH2 0x3883 JUMPI PUSH1 0x7F DUP3 AND SWAP2 POP JUMPDEST PUSH1 0x20 DUP3 LT DUP2 SUB PUSH2 0x3896 JUMPI PUSH2 0x3895 PUSH2 0x383C JUMP JUMPDEST JUMPDEST POP SWAP2 SWAP1 POP JUMP JUMPDEST PUSH1 0x0 DUP2 SWAP1 POP DUP2 PUSH1 0x0 MSTORE PUSH1 0x20 PUSH1 0x0 KECCAK256 SWAP1 POP SWAP2 SWAP1 POP JUMP JUMPDEST PUSH1 0x0 PUSH1 0x20 PUSH1 0x1F DUP4 ADD DIV SWAP1 POP SWAP2 SWAP1 POP JUMP JUMPDEST PUSH1 0x0 DUP3 DUP3 SHL SWAP1 POP SWAP3 SWAP2 POP POP JUMP JUMPDEST PUSH1 0x0 PUSH1 0x8 DUP4 MUL PUSH2 0x38FE PUSH32 0xFFFFFFFFFFFFFFFFFFFFFFFFFFFFFFFFFFFFFFFFFFFFFFFFFFFFFFFFFFFFFFFF DUP3 PUSH2 0x38C1 JUMP JUMPDEST PUSH2 0x3908 DUP7 DUP4 PUSH2 0x38C1 JUMP JUMPDEST SWAP6 POP DUP1 NOT DUP5 AND SWAP4 POP DUP1 DUP7 AND DUP5 OR SWAP3 POP POP POP SWAP4 SWAP3 POP POP POP JUMP JUMPDEST PUSH1 0x0 DUP2 SWAP1 POP SWAP2 SWAP1 POP JUMP JUMPDEST PUSH1 0x0 PUSH2 0x3945 PUSH2 0x3940 PUSH2 0x393B DUP5 PUSH2 0x3180 JUMP JUMPDEST PUSH2 0x3920 JUMP JUMPDEST PUSH2 0x3180 JUMP JUMPDEST SWAP1 POP SWAP2 SWAP1 POP JUMP JUMPDEST PUSH1 0x0 DUP2 SWAP1 POP SWAP2 SWAP1 POP JUMP JUMPDEST PUSH2 0x395F DUP4 PUSH2 0x392A JUMP JUMPDEST PUSH2 0x3973 PUSH2 0x396B DUP3 PUSH2 0x394C JUMP JUMPDEST DUP5 DUP5 SLOAD PUSH2 0x38CE JUMP JUMPDEST DUP3 SSTORE POP POP POP POP JUMP JUMPDEST PUSH1 0x0 SWAP1 JUMP JUMPDEST PUSH2 0x3988 PUSH2 0x397B JUMP JUMPDEST PUSH2 0x3993 DUP2 DUP5 DUP5 PUSH2 0x3956 JUMP JUMPDEST POP POP POP JUMP JUMPDEST JUMPDEST DUP2 DUP2 LT ISZERO PUSH2 0x39B7 JUMPI PUSH2 0x39AC PUSH1 0x0 DUP3 PUSH2 0x3980 JUMP JUMPDEST PUSH1 0x1 DUP2 ADD SWAP1 POP PUSH2 0x3999 JUMP JUMPDEST POP POP JUMP JUMPDEST PUSH1 0x1F DUP3 GT ISZERO PUSH2 0x39FC JUMPI PUSH2 0x39CD DUP2 PUSH2 0x389C JUMP JUMPDEST PUSH2 0x39D6 DUP5 PUSH2 0x38B1 JUMP JUMPDEST DUP2 ADD PUSH1 0x20 DUP6 LT ISZERO PUSH2 0x39E5 JUMPI DUP2 SWAP1 POP JUMPDEST PUSH2 0x39F9 PUSH2 0x39F1 DUP6 PUSH2 0x38B1 JUMP JUMPDEST DUP4 ADD DUP3 PUSH2 0x3998 JUMP JUMPDEST POP POP JUMPDEST POP POP POP JUMP JUMPDEST PUSH1 0x0 DUP3 DUP3 SHR SWAP1 POP SWAP3 SWAP2 POP POP JUMP JUMPDEST PUSH1 0x0 PUSH2 0x3A1F PUSH1 0x0 NOT DUP5 PUSH1 0x8 MUL PUSH2 0x3A01 JUMP JUMPDEST NOT DUP1 DUP4 AND SWAP2 POP POP SWAP3 SWAP2 POP POP JUMP JUMPDEST PUSH1 0x0 PUSH2 0x3A38 DUP4 DUP4 PUSH2 0x3A0E JUMP JUMPDEST SWAP2 POP DUP3 PUSH1 0x2 MUL DUP3 OR SWAP1 POP SWAP3 SWAP2 POP POP JUMP JUMPDEST PUSH2 0x3A51 DUP3 PUSH2 0x3241 JUMP JUMPDEST PUSH8 0xFFFFFFFFFFFFFFFF DUP2 GT ISZERO PUSH2 0x3A6A JUMPI PUSH2 0x3A69 PUSH2 0x3055 JUMP JUMPDEST JUMPDEST PUSH2 0x3A74 DUP3 SLOAD PUSH2 0x386B JUMP JUMPDEST PUSH2 0x3A7F DUP3 DUP3 DUP6 PUSH2 0x39BB JUMP JUMPDEST PUSH1 0x0 PUSH1 0x20 SWAP1 POP PUSH1 0x1F DUP4 GT PUSH1 0x1 DUP2 EQ PUSH2 0x3AB2 JUMPI PUSH1 0x0 DUP5 ISZERO PUSH2 0x3AA0 JUMPI DUP3 DUP8 ADD MLOAD SWAP1 POP JUMPDEST PUSH2 0x3AAA DUP6 DUP3 PUSH2 0x3A2C JUMP JUMPDEST DUP7 SSTORE POP PUSH2 0x3B12 JUMP JUMPDEST PUSH1 0x1F NOT DUP5 AND PUSH2 0x3AC0 DUP7 PUSH2 0x389C JUMP JUMPDEST PUSH1 0x0 JUMPDEST DUP3 DUP2 LT ISZERO PUSH2 0x3AE8 JUMPI DUP5 DUP10 ADD MLOAD DUP3 SSTORE PUSH1 0x1 DUP3 ADD SWAP2 POP PUSH1 0x20 DUP6 ADD SWAP5 POP PUSH1 0x20 DUP2 ADD SWAP1 POP PUSH2 0x3AC3 JUMP JUMPDEST DUP7 DUP4 LT ISZERO PUSH2 0x3B05 JUMPI DUP5 DUP10 ADD MLOAD PUSH2 0x3B01 PUSH1 0x1F DUP10 AND DUP3 PUSH2 0x3A0E JUMP JUMPDEST DUP4 SSTORE POP JUMPDEST PUSH1 0x1 PUSH1 0x2 DUP9 MUL ADD DUP9 SSTORE POP POP POP JUMPDEST POP POP POP POP POP POP JUMP JUMPDEST PUSH32 0x4E487B7100000000000000000000000000000000000000000000000000000000 PUSH1 0x0 MSTORE PUSH1 0x11 PUSH1 0x4 MSTORE PUSH1 0x24 PUSH1 0x0 REVERT JUMPDEST PUSH1 0x0 PUSH2 0x3B54 DUP3 PUSH2 0x3180 JUMP JUMPDEST SWAP2 POP PUSH32 0xFFFFFFFFFFFFFFFFFFFFFFFFFFFFFFFFFFFFFFFFFFFFFFFFFFFFFFFFFFFFFFFF DUP3 SUB PUSH2 0x3B86 JUMPI PUSH2 0x3B85 PUSH2 0x3B1A JUMP JUMPDEST JUMPDEST PUSH1 0x1 DUP3 ADD SWAP1 POP SWAP2 SWAP1 POP JUMP JUMPDEST PUSH32 0x4552433732313A20617070726F76616C20746F2063757272656E74206F776E65 PUSH1 0x0 DUP3 ADD MSTORE PUSH32 0x7200000000000000000000000000000000000000000000000000000000000000 PUSH1 0x20 DUP3 ADD MSTORE POP JUMP JUMPDEST PUSH1 0x0 PUSH2 0x3BED PUSH1 0x21 DUP4 PUSH2 0x324C JUMP JUMPDEST SWAP2 POP PUSH2 0x3BF8 DUP3 PUSH2 0x3B91 JUMP JUMPDEST PUSH1 0x40 DUP3 ADD SWAP1 POP SWAP2 SWAP1 POP JUMP JUMPDEST PUSH1 0x0 PUSH1 0x20 DUP3 ADD SWAP1 POP DUP2 DUP2 SUB PUSH1 0x0 DUP4 ADD MSTORE PUSH2 0x3C1C DUP2 PUSH2 0x3BE0 JUMP JUMPDEST SWAP1 POP SWAP2 SWAP1 POP JUMP JUMPDEST PUSH32 0x4552433732313A20617070726F76652063616C6C6572206973206E6F7420746F PUSH1 0x0 DUP3 ADD MSTORE PUSH32 0x6B656E206F776E6572206F7220617070726F76656420666F7220616C6C000000 PUSH1 0x20 DUP3 ADD MSTORE POP JUMP JUMPDEST PUSH1 0x0 PUSH2 0x3C7F PUSH1 0x3D DUP4 PUSH2 0x324C JUMP JUMPDEST SWAP2 POP PUSH2 0x3C8A DUP3 PUSH2 0x3C23 JUMP JUMPDEST PUSH1 0x40 DUP3 ADD SWAP1 POP SWAP2 SWAP1 POP JUMP JUMPDEST PUSH1 0x0 PUSH1 0x20 DUP3 ADD SWAP1 POP DUP2 DUP2 SUB PUSH1 0x0 DUP4 ADD MSTORE PUSH2 0x3CAE DUP2 PUSH2 0x3C72 JUMP JUMPDEST SWAP1 POP SWAP2 SWAP1 POP JUMP JUMPDEST PUSH32 0x4552433732313A2063616C6C6572206973206E6F7420746F6B656E206F776E65 PUSH1 0x0 DUP3 ADD MSTORE PUSH32 0x72206F7220617070726F76656400000000000000000000000000000000000000 PUSH1 0x20 DUP3 ADD MSTORE POP JUMP JUMPDEST PUSH1 0x0 PUSH2 0x3D11 PUSH1 0x2D DUP4 PUSH2 0x324C JUMP JUMPDEST SWAP2 POP PUSH2 0x3D1C DUP3 PUSH2 0x3CB5 JUMP JUMPDEST PUSH1 0x40 DUP3 ADD SWAP1 POP SWAP2 SWAP1 POP JUMP JUMPDEST PUSH1 0x0 PUSH1 0x20 DUP3 ADD SWAP1 POP DUP2 DUP2 SUB PUSH1 0x0 DUP4 ADD MSTORE PUSH2 0x3D40 DUP2 PUSH2 0x3D04 JUMP JUMPDEST SWAP1 POP SWAP2 SWAP1 POP JUMP JUMPDEST PUSH32 0x4E487B7100000000000000000000000000000000000000000000000000000000 PUSH1 0x0 MSTORE PUSH1 0x32 PUSH1 0x4 MSTORE PUSH1 0x24 PUSH1 0x0 REVERT JUMPDEST PUSH32 0x4E4654206973206E6F7420666F722073616C6500000000000000000000000000 PUSH1 0x0 DUP3 ADD MSTORE POP JUMP JUMPDEST PUSH1 0x0 PUSH2 0x3DAC PUSH1 0x13 DUP4 PUSH2 0x324C JUMP JUMPDEST SWAP2 POP PUSH2 0x3DB7 DUP3 PUSH2 0x3D76 JUMP JUMPDEST PUSH1 0x20 DUP3 ADD SWAP1 POP SWAP2 SWAP1 POP JUMP JUMPDEST PUSH1 0x0 PUSH1 0x20 DUP3 ADD SWAP1 POP DUP2 DUP2 SUB PUSH1 0x0 DUP4 ADD MSTORE PUSH2 0x3DDB DUP2 PUSH2 0x3D9F JUMP JUMPDEST SWAP1 POP SWAP2 SWAP1 POP JUMP JUMPDEST PUSH32 0x496E636F7272656374207061796D656E7420616D6F756E740000000000000000 PUSH1 0x0 DUP3 ADD MSTORE POP JUMP JUMPDEST PUSH1 0x0 PUSH2 0x3E18 PUSH1 0x18 DUP4 PUSH2 0x324C JUMP JUMPDEST SWAP2 POP PUSH2 0x3E23 DUP3 PUSH2 0x3DE2 JUMP JUMPDEST PUSH1 0x20 DUP3 ADD SWAP1 POP SWAP2 SWAP1 POP JUMP JUMPDEST PUSH1 0x0 PUSH1 0x20 DUP3 ADD SWAP1 POP DUP2 DUP2 SUB PUSH1 0x0 DUP4 ADD MSTORE PUSH2 0x3E47 DUP2 PUSH2 0x3E0B JUMP JUMPDEST SWAP1 POP SWAP2 SWAP1 POP JUMP JUMPDEST PUSH32 0x4F776E65722063616E27742073656C6C204E465420666F722068696D73656C66 PUSH1 0x0 DUP3 ADD MSTORE POP JUMP JUMPDEST PUSH1 0x0 PUSH2 0x3E84 PUSH1 0x20 DUP4 PUSH2 0x324C JUMP JUMPDEST SWAP2 POP PUSH2 0x3E8F DUP3 PUSH2 0x3E4E JUMP JUMPDEST PUSH1 0x20 DUP3 ADD SWAP1 POP SWAP2 SWAP1 POP JUMP JUMPDEST PUSH1 0x0 PUSH1 0x20 DUP3 ADD SWAP1 POP DUP2 DUP2 SUB PUSH1 0x0 DUP4 ADD MSTORE PUSH2 0x3EB3 DUP2 PUSH2 0x3E77 JUMP JUMPDEST SWAP1 POP SWAP2 SWAP1 POP JUMP JUMPDEST PUSH32 0x4552433732313A20696E76616C696420746F6B656E2049440000000000000000 PUSH1 0x0 DUP3 ADD MSTORE POP JUMP JUMPDEST PUSH1 0x0 PUSH2 0x3EF0 PUSH1 0x18 DUP4 PUSH2 0x324C JUMP JUMPDEST SWAP2 POP PUSH2 0x3EFB DUP3 PUSH2 0x3EBA JUMP JUMPDEST PUSH1 0x20 DUP3 ADD SWAP1 POP SWAP2 SWAP1 POP JUMP JUMPDEST PUSH1 0x0 PUSH1 0x20 DUP3 ADD SWAP1 POP DUP2 DUP2 SUB PUSH1 0x0 DUP4 ADD MSTORE PUSH2 0x3F1F DUP2 PUSH2 0x3EE3 JUMP JUMPDEST SWAP1 POP SWAP2 SWAP1 POP JUMP JUMPDEST PUSH32 0x4552433732313A2061646472657373207A65726F206973206E6F742061207661 PUSH1 0x0 DUP3 ADD MSTORE PUSH32 0x6C6964206F776E65720000000000000000000000000000000000000000000000 PUSH1 0x20 DUP3 ADD MSTORE POP JUMP JUMPDEST PUSH1 0x0 PUSH2 0x3F82 PUSH1 0x29 DUP4 PUSH2 0x324C JUMP JUMPDEST SWAP2 POP PUSH2 0x3F8D DUP3 PUSH2 0x3F26 JUMP JUMPDEST PUSH1 0x40 DUP3 ADD SWAP1 POP SWAP2 SWAP1 POP JUMP JUMPDEST PUSH1 0x0 PUSH1 0x20 DUP3 ADD SWAP1 POP DUP2 DUP2 SUB PUSH1 0x0 DUP4 ADD MSTORE PUSH2 0x3FB1 DUP2 PUSH2 0x3F75 JUMP JUMPDEST SWAP1 POP SWAP2 SWAP1 POP JUMP JUMPDEST PUSH32 0x496E76616C696420746F6B656E20494400000000000000000000000000000000 PUSH1 0x0 DUP3 ADD MSTORE POP JUMP JUMPDEST PUSH1 0x0 PUSH2 0x3FEE PUSH1 0x10 DUP4 PUSH2 0x324C JUMP JUMPDEST SWAP2 POP PUSH2 0x3FF9 DUP3 PUSH2 0x3FB8 JUMP JUMPDEST PUSH1 0x20 DUP3 ADD SWAP1 POP SWAP2 SWAP1 POP JUMP JUMPDEST PUSH1 0x0 PUSH1 0x20 DUP3 ADD SWAP1 POP DUP2 DUP2 SUB PUSH1 0x0 DUP4 ADD MSTORE PUSH2 0x401D DUP2 PUSH2 0x3FE1 JUMP JUMPDEST SWAP1 POP SWAP2 SWAP1 POP JUMP JUMPDEST PUSH1 0x0 DUP2 SWAP1 POP SWAP3 SWAP2 POP POP JUMP JUMPDEST PUSH1 0x0 PUSH2 0x403A DUP3 PUSH2 0x3241 JUMP JUMPDEST PUSH2 0x4044 DUP2 DUP6 PUSH2 0x4024 JUMP JUMPDEST SWAP4 POP PUSH2 0x4054 DUP2 DUP6 PUSH1 0x20 DUP7 ADD PUSH2 0x325D JUMP JUMPDEST DUP1 DUP5 ADD SWAP2 POP POP SWAP3 SWAP2 POP POP JUMP JUMPDEST PUSH1 0x0 PUSH2 0x406C DUP3 DUP6 PUSH2 0x402F JUMP JUMPDEST SWAP2 POP PUSH2 0x4078 DUP3 DUP5 PUSH2 0x402F JUMP JUMPDEST SWAP2 POP DUP2 SWAP1 POP SWAP4 SWAP3 POP POP POP JUMP JUMPDEST PUSH32 0x43616C6C6572206973206E6F74206F776E6572206E6F7220617070726F766564 PUSH1 0x0 DUP3 ADD MSTORE POP JUMP JUMPDEST PUSH1 0x0 PUSH2 0x40BA PUSH1 0x20 DUP4 PUSH2 0x324C JUMP JUMPDEST SWAP2 POP PUSH2 0x40C5 DUP3 PUSH2 0x4084 JUMP JUMPDEST PUSH1 0x20 DUP3 ADD SWAP1 POP SWAP2 SWAP1 POP JUMP JUMPDEST PUSH1 0x0 PUSH1 0x20 DUP3 ADD SWAP1 POP DUP2 DUP2 SUB PUSH1 0x0 DUP4 ADD MSTORE PUSH2 0x40E9 DUP2 PUSH2 0x40AD JUMP JUMPDEST SWAP1 POP SWAP2 SWAP1 POP JUMP JUMPDEST PUSH32 0x4E465420697320616C726561647920666F722073616C65000000000000000000 PUSH1 0x0 DUP3 ADD MSTORE POP JUMP JUMPDEST PUSH1 0x0 PUSH2 0x4126 PUSH1 0x17 DUP4 PUSH2 0x324C JUMP JUMPDEST SWAP2 POP PUSH2 0x4131 DUP3 PUSH2 0x40F0 JUMP JUMPDEST PUSH1 0x20 DUP3 ADD SWAP1 POP SWAP2 SWAP1 POP JUMP JUMPDEST PUSH1 0x0 PUSH1 0x20 DUP3 ADD SWAP1 POP DUP2 DUP2 SUB PUSH1 0x0 DUP4 ADD MSTORE PUSH2 0x4155 DUP2 PUSH2 0x4119 JUMP JUMPDEST SWAP1 POP SWAP2 SWAP1 POP JUMP JUMPDEST PUSH32 0x4F776E61626C653A206E6577206F776E657220697320746865207A65726F2061 PUSH1 0x0 DUP3 ADD MSTORE PUSH32 0x6464726573730000000000000000000000000000000000000000000000000000 PUSH1 0x20 DUP3 ADD MSTORE POP JUMP JUMPDEST PUSH1 0x0 PUSH2 0x41B8 PUSH1 0x26 DUP4 PUSH2 0x324C JUMP JUMPDEST SWAP2 POP PUSH2 0x41C3 DUP3 PUSH2 0x415C JUMP JUMPDEST PUSH1 0x40 DUP3 ADD SWAP1 POP SWAP2 SWAP1 POP JUMP JUMPDEST PUSH1 0x0 PUSH1 0x20 DUP3 ADD SWAP1 POP DUP2 DUP2 SUB PUSH1 0x0 DUP4 ADD MSTORE PUSH2 0x41E7 DUP2 PUSH2 0x41AB JUMP JUMPDEST SWAP1 POP SWAP2 SWAP1 POP JUMP JUMPDEST PUSH1 0x0 PUSH2 0x41F9 DUP3 PUSH2 0x3180 JUMP JUMPDEST SWAP2 POP PUSH2 0x4204 DUP4 PUSH2 0x3180 JUMP JUMPDEST SWAP3 POP DUP3 DUP3 ADD SWAP1 POP DUP1 DUP3 GT ISZERO PUSH2 0x421C JUMPI PUSH2 0x421B PUSH2 0x3B1A JUMP JUMPDEST JUMPDEST SWAP3 SWAP2 POP POP JUMP JUMPDEST PUSH32 0x4F776E61626C653A2063616C6C6572206973206E6F7420746865206F776E6572 PUSH1 0x0 DUP3 ADD MSTORE POP JUMP JUMPDEST PUSH1 0x0 PUSH2 0x4258 PUSH1 0x20 DUP4 PUSH2 0x324C JUMP JUMPDEST SWAP2 POP PUSH2 0x4263 DUP3 PUSH2 0x4222 JUMP JUMPDEST PUSH1 0x20 DUP3 ADD SWAP1 POP SWAP2 SWAP1 POP JUMP JUMPDEST PUSH1 0x0 PUSH1 0x20 DUP3 ADD SWAP1 POP DUP2 DUP2 SUB PUSH1 0x0 DUP4 ADD MSTORE PUSH2 0x4287 DUP2 PUSH2 0x424B JUMP JUMPDEST SWAP1 POP SWAP2 SWAP1 POP JUMP JUMPDEST PUSH32 0x45524337323155524953746F726167653A2055524920736574206F66206E6F6E PUSH1 0x0 DUP3 ADD MSTORE PUSH32 0x6578697374656E7420746F6B656E000000000000000000000000000000000000 PUSH1 0x20 DUP3 ADD MSTORE POP JUMP JUMPDEST PUSH1 0x0 PUSH2 0x42EA PUSH1 0x2E DUP4 PUSH2 0x324C JUMP JUMPDEST SWAP2 POP PUSH2 0x42F5 DUP3 PUSH2 0x428E JUMP JUMPDEST PUSH1 0x40 DUP3 ADD SWAP1 POP SWAP2 SWAP1 POP JUMP JUMPDEST PUSH1 0x0 PUSH1 0x20 DUP3 ADD SWAP1 POP DUP2 DUP2 SUB PUSH1 0x0 DUP4 ADD MSTORE PUSH2 0x4319 DUP2 PUSH2 0x42DD JUMP JUMPDEST SWAP1 POP SWAP2 SWAP1 POP JUMP JUMPDEST PUSH32 0x4552433732313A207472616E736665722066726F6D20696E636F727265637420 PUSH1 0x0 DUP3 ADD MSTORE PUSH32 0x6F776E6572000000000000000000000000000000000000000000000000000000 PUSH1 0x20 DUP3 ADD MSTORE POP JUMP JUMPDEST PUSH1 0x0 PUSH2 0x437C PUSH1 0x25 DUP4 PUSH2 0x324C JUMP JUMPDEST SWAP2 POP PUSH2 0x4387 DUP3 PUSH2 0x4320 JUMP JUMPDEST PUSH1 0x40 DUP3 ADD SWAP1 POP SWAP2 SWAP1 POP JUMP JUMPDEST PUSH1 0x0 PUSH1 0x20 DUP3 ADD SWAP1 POP DUP2 DUP2 SUB PUSH1 0x0 DUP4 ADD MSTORE PUSH2 0x43AB DUP2 PUSH2 0x436F JUMP JUMPDEST SWAP1 POP SWAP2 SWAP1 POP JUMP JUMPDEST PUSH32 0x4552433732313A207472616E7366657220746F20746865207A65726F20616464 PUSH1 0x0 DUP3 ADD MSTORE PUSH32 0x7265737300000000000000000000000000000000000000000000000000000000 PUSH1 0x20 DUP3 ADD MSTORE POP JUMP JUMPDEST PUSH1 0x0 PUSH2 0x440E PUSH1 0x24 DUP4 PUSH2 0x324C JUMP JUMPDEST SWAP2 POP PUSH2 0x4419 DUP3 PUSH2 0x43B2 JUMP JUMPDEST PUSH1 0x40 DUP3 ADD SWAP1 POP SWAP2 SWAP1 POP JUMP JUMPDEST PUSH1 0x0 PUSH1 0x20 DUP3 ADD SWAP1 POP DUP2 DUP2 SUB PUSH1 0x0 DUP4 ADD MSTORE PUSH2 0x443D DUP2 PUSH2 0x4401 JUMP JUMPDEST SWAP1 POP SWAP2 SWAP1 POP JUMP JUMPDEST PUSH32 0x4552433732313A20617070726F766520746F2063616C6C657200000000000000 PUSH1 0x0 DUP3 ADD MSTORE POP JUMP JUMPDEST PUSH1 0x0 PUSH2 0x447A PUSH1 0x19 DUP4 PUSH2 0x324C JUMP JUMPDEST SWAP2 POP PUSH2 0x4485 DUP3 PUSH2 0x4444 JUMP JUMPDEST PUSH1 0x20 DUP3 ADD SWAP1 POP SWAP2 SWAP1 POP JUMP JUMPDEST PUSH1 0x0 PUSH1 0x20 DUP3 ADD SWAP1 POP DUP2 DUP2 SUB PUSH1 0x0 DUP4 ADD MSTORE PUSH2 0x44A9 DUP2 PUSH2 0x446D JUMP JUMPDEST SWAP1 POP SWAP2 SWAP1 POP JUMP JUMPDEST PUSH32 0x4552433732313A207472616E7366657220746F206E6F6E204552433732315265 PUSH1 0x0 DUP3 ADD MSTORE PUSH32 0x63656976657220696D706C656D656E7465720000000000000000000000000000 PUSH1 0x20 DUP3 ADD MSTORE POP JUMP JUMPDEST PUSH1 0x0 PUSH2 0x450C PUSH1 0x32 DUP4 PUSH2 0x324C JUMP JUMPDEST SWAP2 POP PUSH2 0x4517 DUP3 PUSH2 0x44B0 JUMP JUMPDEST PUSH1 0x40 DUP3 ADD SWAP1 POP SWAP2 SWAP1 POP JUMP JUMPDEST PUSH1 0x0 PUSH1 0x20 DUP3 ADD SWAP1 POP DUP2 DUP2 SUB PUSH1 0x0 DUP4 ADD MSTORE PUSH2 0x453B DUP2 PUSH2 0x44FF JUMP JUMPDEST SWAP1 POP SWAP2 SWAP1 POP JUMP JUMPDEST PUSH1 0x0 DUP2 MLOAD SWAP1 POP SWAP2 SWAP1 POP JUMP JUMPDEST PUSH1 0x0 DUP3 DUP3 MSTORE PUSH1 0x20 DUP3 ADD SWAP1 POP SWAP3 SWAP2 POP POP JUMP JUMPDEST PUSH1 0x0 PUSH2 0x4569 DUP3 PUSH2 0x4542 JUMP JUMPDEST PUSH2 0x4573 DUP2 DUP6 PUSH2 0x454D JUMP JUMPDEST SWAP4 POP PUSH2 0x4583 DUP2 DUP6 PUSH1 0x20 DUP7 ADD PUSH2 0x325D JUMP JUMPDEST PUSH2 0x458C DUP2 PUSH2 0x3044 JUMP JUMPDEST DUP5 ADD SWAP2 POP POP SWAP3 SWAP2 POP POP JUMP JUMPDEST PUSH1 0x0 PUSH1 0x80 DUP3 ADD SWAP1 POP PUSH2 0x45AC PUSH1 0x0 DUP4 ADD DUP8 PUSH2 0x3341 JUMP JUMPDEST PUSH2 0x45B9 PUSH1 0x20 DUP4 ADD DUP7 PUSH2 0x3341 JUMP JUMPDEST PUSH2 0x45C6 PUSH1 0x40 DUP4 ADD DUP6 PUSH2 0x3457 JUMP JUMPDEST DUP2 DUP2 SUB PUSH1 0x60 DUP4 ADD MSTORE PUSH2 0x45D8 DUP2 DUP5 PUSH2 0x455E JUMP JUMPDEST SWAP1 POP SWAP6 SWAP5 POP POP POP POP POP JUMP JUMPDEST PUSH1 0x0 DUP2 MLOAD SWAP1 POP PUSH2 0x45F2 DUP2 PUSH2 0x2FAB JUMP JUMPDEST SWAP3 SWAP2 POP POP JUMP JUMPDEST PUSH1 0x0 PUSH1 0x20 DUP3 DUP5 SUB SLT ISZERO PUSH2 0x460E JUMPI PUSH2 0x460D PUSH2 0x2F75 JUMP JUMPDEST JUMPDEST PUSH1 0x0 PUSH2 0x461C DUP5 DUP3 DUP6 ADD PUSH2 0x45E3 JUMP JUMPDEST SWAP2 POP POP SWAP3 SWAP2 POP POP JUMP JUMPDEST PUSH32 0x4E487B7100000000000000000000000000000000000000000000000000000000 PUSH1 0x0 MSTORE PUSH1 0x12 PUSH1 0x4 MSTORE PUSH1 0x24 PUSH1 0x0 REVERT JUMPDEST PUSH32 0x4552433732313A206D696E7420746F20746865207A65726F2061646472657373 PUSH1 0x0 DUP3 ADD MSTORE POP JUMP JUMPDEST PUSH1 0x0 PUSH2 0x468A PUSH1 0x20 DUP4 PUSH2 0x324C JUMP JUMPDEST SWAP2 POP PUSH2 0x4695 DUP3 PUSH2 0x4654 JUMP JUMPDEST PUSH1 0x20 DUP3 ADD SWAP1 POP SWAP2 SWAP1 POP JUMP JUMPDEST PUSH1 0x0 PUSH1 0x20 DUP3 ADD SWAP1 POP DUP2 DUP2 SUB PUSH1 0x0 DUP4 ADD MSTORE PUSH2 0x46B9 DUP2 PUSH2 0x467D JUMP JUMPDEST SWAP1 POP SWAP2 SWAP1 POP JUMP JUMPDEST PUSH32 0x4552433732313A20746F6B656E20616C7265616479206D696E74656400000000 PUSH1 0x0 DUP3 ADD MSTORE POP JUMP JUMPDEST PUSH1 0x0 PUSH2 0x46F6 PUSH1 0x1C DUP4 PUSH2 0x324C JUMP JUMPDEST SWAP2 POP PUSH2 0x4701 DUP3 PUSH2 0x46C0 JUMP JUMPDEST PUSH1 0x20 DUP3 ADD SWAP1 POP SWAP2 SWAP1 POP JUMP JUMPDEST PUSH1 0x0 PUSH1 0x20 DUP3 ADD SWAP1 POP DUP2 DUP2 SUB PUSH1 0x0 DUP4 ADD MSTORE PUSH2 0x4725 DUP2 PUSH2 0x46E9 JUMP JUMPDEST SWAP1 POP SWAP2 SWAP1 POP JUMP INVALID LOG2 PUSH5 0x6970667358 0x22 SLT KECCAK256 LOG0 DUP4 LT 0xD3 0xB7 0xE2 SWAP15 SWAP3 0xBF 0xAB EXTCODEHASH 0xBA NUMBER BALANCE 0x2B PUSH6 0xFEB4A66C4733 JUMPI INVALID 0xD1 0xBD 0x5D 0x49 0xA6 LOG2 0xA5 0xDA PUSH5 0x736F6C6343 STOP ADDMOD SLT STOP CALLER "},"methodIdentifiers":{"_buy(uint256)":"282303b5","_sell(uint256)":"e5d5876d","approve(address,uint256)":"095ea7b3","balanceOf(address)":"70a08231","getAllNFTs()":"e0391b09","getAllNFTsAvailable()":"f92ba429","getApproved(uint256)":"081812fc","getNFTPrice(uint256)":"92976179","getOwner()":"893d20e8","getOwnerOf(uint256)":"83638710","isApprovedForAll(address,address)":"e985e9c5","mint(string,uint256,string)":"06bdc949","name()":"06fdde03","owner()":"8da5cb5b","ownerOf(uint256)":"6352211e","removeFromSell(uint256)":"c395d9cc","renounceOwnership()":"715018a6","safeTransferFrom(address,address,uint256)":"42842e0e","safeTransferFrom(address,address,uint256,bytes)":"b88d4fde","setApprovalForAll(address,bool)":"a22cb465","supportsInterface(bytes4)":"01ffc9a7","symbol()":"95d89b41","tokenURI(uint256)":"c87b56dd","transferFrom(address,address,uint256)":"23b872dd","transferOwnership(address)":"f2fde38b"}}}}}